:1000A60000000F090909093F09090909090F00009C
:1000B6000000F020202020FE2222222222F20C0024
:1000C600000404053F0504041F1010101F00000063
:1000D60000306080FE02C24CF0000000FE02060402
:1000E600000202423300003F2425244444C5460052
:1000F60000000204F8041AE20A12A242A2120A023C
:100106000000007F40404F4848484F40407F000075
:10011600000000FE0404E4242424E40404FE000099
:100126002021273A2223040817E424272C34070029
:100136004080FE0808FC0106F89090FC9291FE00B3
:10014600083022222222A2632222222222283000E2
:1001560001020478040202FE222222222202020066
:10016600020242330000000000FF00000000000011
:10017600000000FC09120418E000E0180402010067
:100186000000003F2424272424444444C54600009C
:1001960000020CF1010202C4281028448202010167
:1001A60000004040434040407F41414141414000C2
:1001B60000020202FE020202FE0202020202020223
:1001C600001F10103053921212131010101F00004F
:1001D60000FF000000F8101010F8000201FE0000F9
:1001E60000040C35C60C003F24A4642424243C00DF
:1001F6000044E644484A1CE0FF90FE90FC91FF0054
:100206002021273A222300404F4141417F0101002E
:100216004080FE0808FC0010101010121102FC00AD
:10022600010179494949790701794D4B497901001D
:1002360010102F2949498F00804F4929291F100086
:100246000202423300044444454644444404000048
:10025600000204F8042272A2222222A262320200C2
:1002660000081123CC0002424242434242420200AD
:10027600408000FF000000000201FE0000000000B8
:10028600094A2C08FF082C4A010EF110101F100015
:1002960041596AC6444A71000102CC30CC020100C1
:1002A60020202223F22222232424F42D242020009D
:1002B60002222424A830207F2030A82424220200F1
:1002C60000001F925232121F123252921F0000007B
:1002D6000808C848484848FF48484848C808080029
:1002E60000020C88690909896909091928C80A0CD4
:1002F60000202020202022217E60A02020202020F7
:10030600000040404048444340404040407F000099
:1003160000001018102020204040828102FC0000BE
:100326000000001F113151911111111F0000000032
:10033600000000FF22222222222222FF00000000CB
:10034600022223222222020808FF0808080F0000C2
:10035600083CC808281D020C7080020102FC00003F
:10036600014141417F41414141417F4141410100BC
:100376000001020CF00000000000FF000000000079
:10038600000008886808080F080828C80800000048
:10039600818182828488B0C0B08884828281810013
:1003A600000003020202FE121212121310100000C5
:1003B6000102EC2020282620282620E0080700003D
:1003C60001061FE000202E2AAA6A2A2A2E200000F3
:1003D6000000FF00C080A0A2A1BEA0A0A080C00017
:1003E6000000000F000000FF0202020202000000EF
:1003F600020202FE020202FE0202020202020200E1
:10040600001F80600000404040404040407F0000A8
:1004160000FF0000000000000000000201FE0000D6
:100426000242330000222A2A2AFE2A2A2A2202000F
:100436000000FE040800FFA8A8A8AAA9FE00000064
:100446001116F8131008132A4A8B4829100B0800B6
:10045600909890FFA000FF4849FF00FA01FE0000B7
:100466000000000000804738070000000000000080
:100476000102040830C0000000C0300C0201010077
:1004860000007F444444447F444444447F000000C9
:100496000106F840404040FE40404241FE00000058
:1004A6000000001F10109070101010101F000000A8
:1004B600000106F88080808080808080C000000077
:1004C600083122202720A96522242821222930004C
:1004D60040405E8282C2427E424242C21F0000000B
:1004E60000000F1F10161F0F0000E0F0D010F0E004
:1004F6000004040C1F1F000000000000F0F00000C4
:10050600000C1C10111F0E00003070D0901010004F
:10051600000C1C11111F0E000060701010F0E0009E
:1005260000001F1F0007070000C0C04040F0F04059
:10053600001F1F11111110000010101030E0C00034
:100546000003071E1A13010000E0F01010F0E0008F
:1005560000101011171E1800000070F08000000037
:10056600000E1F13111F0E0000E0F01090F0E000C7
:10057600000F1F10101F0F00000090B0F0C0800089
:1005860000000000000000000000D8D800000000B5
:1005960000000000000000000000003030300000C5
:1005A60000070F18180F070000F0F08080F0F00029
:1005B600001F1F01011F1F0000F0F00000F0F000F7
:1005C6000000101F1F100000000010F0F0100000C7
:1005D600001F1F111111100000F0F00000000000B4
:1005E6000004040405070600003070D090101000C7
:1005F600090D070303070D092060C08080C0602035
:1006060000000000030301010101011F1F01010198
:10061600010303010000000000000000FFFF1111AC
:10062600111111FFFF11111111FFFF000001000050
:1006360000000000C0C00000000000F8FC0C0C0C1C
:100646000C8C8C0C1CFC180000000000001F0F0016
:10065600010101000F0F0404040F0F040000000045
:100666000080838EFCFFFF90888E8C00FFFF0000C9
:1006760000FFFF00000003004080000000FCFC00BB
:1006860004081060C000000000F8F8181838F810C8
:1006960000000001010101010111191D0F010101F5
:1006A6000101010307030300000000000000000031
:1006B6000007FFFC90101010103F3F1000000000D4
:1006C6000000000404081830E0C0801010080C0C6C
:1006D6003CF8E000000000000000000301010101F9
:1006E600071D1911010101010101010303010000A8
:1006F600000000FFFF00007F3F212121217F3F20D6
:10070600000000FFFF000000000000FCFC0000C02D
:10071600C00000000080800008080CFCF800000003
:100726000004040404040404040407070404040481
:100736000404040C0C04000000000000000000008B
:100746000000FFFF202010181C0E0F000000000004
:1007560000000000000000000000FCFC000000009B
:1007660000000000000000000000000F0F08080B4A
:100776000E0C040F0F0808080808080F0F000000E9
:10078600000000FFFF01E1B11F0F00FFFF90909EE8
:10079600939091FBF6060000000000FCFC008080B0
:1007A600800008FCF8181020A0C06030381810002F
:1007B600000000000001071E0C0800000010180EC3
:1007C60006000000010100000004081060FF7F40E1
:1007D6000080B09E87818080809FFEF0A080800090
:1007E6000000000000FCFC0808080808C8C8080843
:1007F600F8880808183818080000000000080E07D6
:100806000300100C0F070000031E0C080000000078
:1008160000081939F141515151515151575355D988
:1008260059715951E3E76301000000000000000020
:100836000008080CFCF800000000000000000000A2
:100846000000000004040404040404040404040472
:1008560004040F0F040000000000000001010181E4
:1008660083C3F372260404040808FFFF0000000097
:100876000000000080C080800000000010101018EA
:100886001C38F8F000000000000000000000000026
:1008960000001F0F0F08000000000000000000000D
:1008A60000000000000000000000FFFFFF202020E5
:1008B600202060E0602000000008080808080808FA
:1008C6000808F8F8F808080808080818381808008A
:1008D600000404040405070604040C1C0C04031F8E
:1008E6001C0800000003010000223272F2A23F3F02
:1008F600A2E266760A70FC87818FFFF8C08080804E
:10090600001018181810F0F020242428081030E0E1
:10091600E0F038381C080808000002040404070F39
:100926000C18080000030301001F1F000000000050
:10093600004040434E7CFFFF50C8CEC420199D8125
:1009460001FFFF0206060600004080000000FCFCD6
:10095600008080808000000000FCFC000000000099
:1009660000000000001F0F000101010101011F1F0F
:100976000101010303030000008486868CFFFF98B3
:100986009090B0181711F0F011173E3810000000C3
:10099600000008080CFCF8000404080810F0E0E069
:1009A600B038181C1C080000000000000000000001
:1009B6000000000000000000000000000000000031
:1009C6000000000000000000000000000000000021
:1009D6000000000000000000000000000000000011
:1009E6000000000000000000000000000000000001
:1009F600000000000000080C0707000001061C1894
:100A0600000301010000000000000888888888882B
:100A1600888BFFFC8E898888888898B8980800009B
:100A2600000004040808103060C080000080C07018
:100A360030181C1808080000000000000302201CE3
:100A46001C000008080808080808081F0F00000016
:100A560000000000FF000000000000000000000091
:100A6600000000FFFF00000000000000FE00000084
:100A76000000000000000008080406FCF800000062
:100A86000004040404050F0E040002020206040713
:100A96000F0C1808080000000000143BF0D0113FAE
:100AA6003C1000FF7F4000FFFF2020606321000014
:100AB600000004089060E0B0181818989888888C90
:100AC6008C8C8C8C8C98901000000007030202021C
:100AD600070702000000000000001F1F10010100B0
:100AE600000000FFFF101010FFFF0080908F8E8027
:100AF6008080FFFF80808080000000F8F840404042
:100B0600F0F0000000000008080CFCFC00000000EB
:100B1600000000000F0F080A0908080F0F08080B4D
:100B26000B0A0F0F0400000000000004FCFC141464
:100B3600D4D414FFFF54D4941414FCFC0501000013
:100B460000808C8C9CE08080C0BC9C80C0A0BC983F
:100B560080C0A0B09C9C80800000000004040405B6
:100B660007070404040404040F0F08000000000033
:100B760000000000000008FCFC08080808080879C6
:100B8600F98808081F1F0800000080808080808088
:100B960080808080888884848686067CF880000031
:100BA60000000202020202020203031F1F120302D6
:100BB6000202020606060200000C0C1414273F5F10
:100BC600C58C8CFCF40487FF7F6765343C2C2400BD
:100BD60008101060C080FCFC00C8E81020C080FC33
:100BE600FC00C06030301010000000000707020251
:100BF60002020203030202020202030707020000C6
:100C060000000000FFFF0808080808FFFF080808A2
:100C16000808FFFFFF00000000000000FCFC1010A9
:100C2600101010F0F01010101010FCFCF80000006E
:044BB1007D017F0102
:084BB50090088AEFF0A3EDF077
:104BBD00A37401F090088CE0FFC39419503C900849
:104BCD008BE06015EF75F008A424F9FF90088AE0DA
:104BDD00FD7BFF7A3879A3801690088CE075F0087C
:104BED00A424F9FF90088AE0FD7BFF7A3879AB1297
:0A4BFD0050CC90088CE004F080BA60
:014C0700228A
:0556AD0090088AEFF0F7
:1056B200A37401F090088BE0FDC3940D5012900882
:1056C2008AE0FF7BFF12579390088BE004F080E49E
:0156D20022B5
:043C34007D037F018C
:103C380090088BEDF090088AEFF064017073A3E0B0
:103C480014601324FE602A146042240270637BFF10
:103C58007A01798680067BFF7A0179A690089174AB
:103C680007F07D0B7F01122C2B7BFF7A0179C68030
:103C7800347BFF7A0079E69008917407F07D0B7F1A
:103C880001122C2B7BFF7A01790680197BFF7A02BF
:103C980079E69008917407F07D0B7F01122C2B7B3D
:103CA800FF7A037906900891740BF0FD7F11122CAE
:103CB8002B90088AE064027049A3E024FA601E048D
:103CC80070407BFF7A0179269008917407F07D0B8C
:103CD8007FA1122C2B7BFF7A01796680197BFF7AF2
:103CE8000279A69008917407F07D0B7FA1122C2B06
:103CF8007BFF7A0279C6900891740BF0FD7FB112B0
:033D08002C2B223F
:1054D500E4FE75F010EFA42EF582E435F0F583E5D2
:1054E5008224E6F582E5833404F583E493FD749E16
:0F54F5002EF582E4340BF583EDF00EEEB410D3F8
:015504002284
:0527E10090088AEFF0F2
:1027E6009009C27403F09008937401F0A3740AF080
:1027F600A3743CF0A37401F0A37409F0A374C2F0AF
:10280600A37401F0A37409F0A374C0F07B017A0AE3
:1028160079A37D307F09125083125813900A3BE04A
:102826007003022A13900A3CE0FE900AA3E07C00A3
:102836002400FFEC3EFE900B85F0A3EFF0FBAA060A
:10284600D39410EA9427401B7C277D10122110A3F5
:10285600EFF07C277D10AF03AE02122110AA04AB65
:10286600058005E4900B87F0D3EB94E8EA940340E7
:10287600217C037DE8AF03AE02122110900B88EF96
:10288600F07C037DE8AF03AE02122110AA04AB056B
:102896008005E4900B88F0D3EB9464EA9400402121
:1028A6007C007D64AF03AE02122110900B89EFF01D
:1028B6007C007D64AF03AE02122110AA04AB058032
:1028C60005E4900B89F0D3EB940AEA940040217C4E
:1028D600007D0AAF03AE02122110900B8AEFF07C46
:1028E600007D0AAF03AE02122110AA04AB058005D3
:1028F600E4900B8AF0900B8BEBF0900B87E0FF12C5
:1029060054D590088AE0B4010F7B017A0B799E902A
:1029160008937401F0FD801490088AE0B402127BDB
:10292600017A0B799EE4900893F07D027F39122A92
:1029360014900B88E0FF1254D590088AE0B4010F7A
:102946007B017A0B799E9008937401F0FD801490B8
:10295600088AE0B402127B017A0B799EE490089310
:10296600F07D027F41122A14900B89E0FF1254D5A4
:1029760090088AE0B4010F7B017A0B799E90089348
:102986007401F0FD801490088AE0B402127B017A8B
:102996000B799EE4900893F07D027F49122A1490E9
:1029A6000B8AE0FF1254D590088AE0B4010F7B0130
:1029B6007A0B799E9008937401F0FD801490088A32
:1029C600E0B402127B017A0B799EE4900893F07DC5
:1029D600027F51122A14900B8BE0FF1254D59008F7
:1029E6008AE0B4010F7B017A0B799E9008937401FB
:1029F600F0FD801490088AE0B402127B017A0B790C
:0D2A06009EE4900893F07D027F59122A147F
:012A130022A0
:101873009009C27403F09008937401F0A3740AF002
:10188300A3743CF0A37401F0A37409F0A374C2F031
:10189300A37401F0A37409F0A374C0F07B017A0A66
:1018A30079A37D307F07125083125813900A3BE0CF
:1018B3007003021BFF900A3CE0FE900AA3E07C0049
:1018C3002400FFEC3EFE900B90F0A3EFF0900B93FF
:1018D300E02FFF900B92E03EFEE4FD90088A122277
:1018E300707F407E427D0F7C0090088AE0F8A3E081
:1018F300F9A3E0FAA3E0FBD312225F40477B407ACF
:1019030042790F780090088AE0FCA3E0FDA3E0FE93
:10191300A3E0FF1221CD900B94EFF090088AE0FC36
:10192300A3E0FDA3E0FEA3E0FF7B407A42790F78BA
:10193300001221CDAC00AD01AE02AF0390088A12B4
:1019430022708005E4900B94F07FA07E867D017C5D
:101953000090088AE0F8A3E0F9A3E0FAA3E0FBD340
:1019630012225F40477BA07A867901780090088A2B
:10197300E0FCA3E0FDA3E0FEA3E0FF1221CD900B6A
:1019830095EFF090088AE0FCA3E0FDA3E0FEA3E05E
:10199300FF7BA07A86790178001221CDAC00AD01DE
:1019A300AE02AF0390088A1222708005E4900B9573
:1019B300F0E47F107E27FDFC90088AE0F8A3E0F9AD
:1019C300A3E0FAA3E0FBD312225FE440447B107A46
:1019D30027F9F890088AE0FCA3E0FDA3E0FEA3E06A
:1019E300FF1221CD900B96EFF090088AE0FCA3E064
:1019F300FDA3E0FEA3E0FFE47B107A27F9F81221B0
:101A0300CDAC00AD01AE02AF0390088A1222708004
:101A130004900B96F0E47FE87E03FDFC90088AE0D7
:101A2300F8A3E0F9A3E0FAA3E0FBD312225FE440BA
:101A3300447BE87A03F9F890088AE0FCA3E0FDA36D
:101A4300E0FEA3E0FF1221CD900B97EFF090088A00
:101A5300E0FCA3E0FDA3E0FEA3E0FFE47BE87A0360
:101A6300F9F81221CDAC00AD01AE02AF0390088AA4
:101A73001222708004900B97F0E47F64FEFDFC90CB
:101A8300088AE0F8A3E0F9A3E0FAA3E0FBD312226B
:101A93005FE440427B64FAF9F890088AE0FCA3E033
:101AA300FDA3E0FEA3E0FF1221CD900B98EFF09091
:101AB300088AE0FCA3E0FDA3E0FEA3E0FFE47B646F
:101AC300FAF9F81221CDAC00AD01AE02AF039008D4
:101AD3008A1222708004900B98F0E47F0AFEFDFCCA
:101AE30090088AE0F8A3E0F9A3E0FAA3E0FBD3129D
:101AF300225FE440427B0AFAF9F890088AE0FCA3EB
:101B0300E0FDA3E0FEA3E0FF1221CD900B99EFF0DF
:101B130090088AE0FCA3E0FDA3E0FEA3E0FFE47BE2
:101B23000AFAF9F81221CDAC00AD01AE02AF039071
:101B3300088A1222708004900B99F090088AA3A35C
:101B4300A3E0900B9AF0900B94E0FF1254D57B0125
:101B53007A0B799EE4900893F07D037F29122A146F
:101B6300900B95E0FF1254D57B017A0B799EE4909C
:101B73000893F07D037F31122A14900B96E0FF1235
:101B830054D57B017A0B799EE4900893F07D037F13
:101B930039122A14900B97E0FF1254D57B017A0B6C
:101BA300799EE4900893F07D037F41122A14900BF1
:101BB30098E0FF1254D57B017A0B799EE490089349
:101BC300F07D037F49122A14900B99E0FF1254D53C
:101BD3007B017A0B799EE4900893F07D037F511289
:101BE3002A14900B9AE0FF1254D57B017A0B799E4D
:0C1BF300E4900893F07D037F59122A143F
:011BFF0022C3
:10000E009009C27403F09008937401F0A3740AF07F
:10001E00A3743CF0A37401F0A37409F0A374C2F0AE
:10002E00A37401F0A37409F0A374C0F07B017A0AE3
:10003E0079A37D307F06125083125813900A3BE04D
:10004E006031900A3CE0FE900AA3E07C002400FFA1
:10005E00EC3E900B92F0A3EFF0900B92E0FEA3E03B
:10006E007810C333CE33CED8F9FFE4FCFD900B8C61
:04007E0012227022B8
:102FE9009009C27403F09008937401F0A3740AF075
:102FF900A3743CF0A37401F0A37409F0A374C2F0A4
:10300900A37401F0A37409F0A374C0F07B017A0AD8
:1030190079A37D30E4FF125083125813900A3BE0E4
:103029007003023185900A3CE0FE900AA3E07C001F
:103039002400FFEC3EFE900B77F0A3EFF0FBAA060D
:10304900D39410EA9427401B7C277D10122110A3EA
:10305900EFF07C277D10AF03AE02122110AA04AB5A
:10306900058005E4900B79F0D3EB94E8EA940340EA
:10307900217C037DE8AF03AE02122110900B7AEF99
:10308900F07C037DE8AF03AE02122110AA04AB0560
:103099008005E4900B7AF0D3EB9464EA9400402124
:1030A9007C007D64AF03AE02122110900B7BEFF020
:1030B9007C007D64AF03AE02122110AA04AB058027
:1030C90005E4900B7BF0D3EB940AEA940040217C51
:1030D900007D0AAF03AE02122110900B7CEFF07C49
:1030E900007D0AAF03AE02122110AA04AB058005C8
:1030F900E4900B7CF0900B7DEBF0900B79E0FF12E4
:1031090054D57B017A0B799E9008937401F0FD7F69
:1031190081122A14900B7AE0FF1254D57B017A0BA5
:10312900799E9008937401F0FD7F89122A14900BFF
:103139007BE0FF1254D57B017A0B799E900893743A
:1031490001F0FD7F91122A14900B7CE0FF1254D5F7
:103159007B017A0B799E9008937401F0FD7FA1128F
:103169002A14900B7DE0FF1254D57B017A0B799ECE
:0C3179009008937401F0FD7FA9122A1445
:013185002227
:102E42009009C27403F09008937401F0A3740AF01D
:102E5200A3743CF0A37401F0A37409F0A374C2F04C
:102E6200A37401F0A37409F0A374C0F07B017A0A81
:102E720079A37D307F05125083125813900A3BE0EC
:102E82007003022FE8900A3CE0FE900AA3E07C0067
:102E92002400FFEC3E900B7EF0A3EFF0900B77E066
:102EA200FEA3E0FBAA06D39410EA9427401F7C27D6
:102EB2007D10AF03122110900B80EFF07C277D1064
:102EC200AF03AE02122110AA04AB058005E4900BF9
:102ED20080F0D3EB94E8EA940340217C037DE8AFD1
:102EE20003AE02122110900B81EFF07C037DE8AF5C
:102EF20003AE02122110AA04AB058005E4900B81F7
:102F0200F0D3EB9464EA940040217C007D64AF032B
:102F1200AE02122110900B82EFF07C007D64AF03B1
:102F2200AE02122110AA04AB058005E4900B82F0D8
:102F3200D3EB940AEA940040217C007D0AAF03AEF1
:102F420002122110900B83EFF07C007D0AAF03AEDA
:102F520002122110AA04AB058005E4900B83F090C5
:102F62000B84EBF0900B80E0FF1254D57B017A0BBF
:102F7200799EE4900893F07D037F81122A14900BCE
:102F820081E0FF1254D57B017A0B799EE49008937D
:102F9200F07D037F89122A14900B82E0FF1254D530
:102FA2007B017A0B799EE4900893F07D037F911266
:102FB2002A14900B83E0FF1254D57B017A0B799E81
:102FC200E4900893F07D037FA1122A14900B84E011
:102FD200FF1254D57B017A0B799EE4900893F07D21
:062FE200037FA9122A146E
:012FE80022C6
:10439E00E490088DF07B03FDFF1257039008937491
:1043AE0001F0A3740AF0A3743CF0A37401F0A3749B
:1043BE0009F0A374C2F0A37401F0A37409F0A374FE
:1043CE00C0F07B017A0A79A37D027F2112508312FD
:1043DE005813900A3BE0604E900AA3E070247BFFD6
:1043EE007A037926E4900891F07D067F61122C2BDA
:1043FE007BFF7A037946E4900891F07D067F711277
:10440E002C2B7BFF7D067F611257937BFF7D077FF1
:10441E00611257937BFF7D087F611257937BFF7D5F
:06442E00097F61125793A3
:014434002265
:10583D00900B9BE0B401047D0280027D017F01127B
:03584D003C3822C2
:10503A007BFF7A0179E69008917404F07D027F0182
:10504A00122C2B7BFF7A027906E4900891F07D02FC
:10505A007F11122C2B7BFF7A027926E4900891F0BB
:10506A007D027F21122C2B7BFF7A057986E490083A
:09507A0093F07D027F31022A143B
:103FE40012503A7BFF7A0579C69008937401F0FD6C
:103FF4007F71122A147BFF7A0579869008937401E5
:10400400F0FD7F79122A147BFF7A05799690089344
:104014007401F0FD7F99122A147BFF7A0579D6E4A6
:10402400900893F07D037F71122A147BFF7A05793F
:1040340086E4900893F07D037F79122A147BFF7A3B
:10404400057996E4900893F07D037F99122A147BF6
:10405400FF7A0579A69008937401F0FD7FB1122AC6
:10406400147BFF7A0579B6E4900893F07D037FB161
:10407400122A147BFF7A0579E6E4900893F07D0315
:054084007FB9022A14BF
:103464007BFF7A0179E69008917401F0FDFF122C3C
:103474002B7BFF7A0279069008917401F0FD7F118D
:10348400122C2B7BFF7A0279269008917401F0FDAF
:103494007F21122C2B7BFF7A057986900893740187
:1034A400F0FD7F31122A147BFF7A027946E49008FA
:1034B40091F07D037F01122C2B7BFF7A027966E465
:1034C400900891F07D037F11122C2B7BFF7A0579F4
:1034D40086E4900893F07D037F21122A147BFF7AFF
:1034E4000579C69008937401F0FD7F71122A147B4C
:1034F400FF7A0579869008937401F0FD7F79122A8A
:10350400147BFF7A0579969008937401F0FD7F99F6
:10351400122A147BFF7A0579A69008937401F0FDB2
:103524007FB1122A147BFF7A0579D6E4900893F0D0
:103534007D037F71122A147BFF7A057986E4900853
:1035440093F07D037F79122A147BFF7A057996E440
:10355400900893F07D037F99122A147BFF7A0579F2
:10356400B6E4900893F07D037FB1122A147BFF7AAE
:0F3574000579E6E4900893F07D037FB9022A14ED
:105159007BFF7A0679067D067C007F317E0012533B
:105169005A7BFF7A06794E7D067C007F497E0012C4
:10517900535A7BFF7A0679967D067C007F617E0013
:1051890012535A7BFF7A0679DE7D067C007F797E91
:045199000002535A63
:10519D007BFF7A0979F67D067C007F017E00125334
:1051AD005A7BFF7A0A793E7D067C007F197E0012BC
:1051BD00535A7BFF7A0A79867D067C007F317E000B
:1051CD0012535A7BFF7A0A79CE7D067C007F497E89
:0451DD000002535A1F
:104C08007BFF7A0779267D067C007F217E00125380
:104C18005A7BFF7A07796E7D067C007F397E001209
:104C2800535A7BFF7A0779B67D067C007F517E0058
:104C380012535A7BFF7A0779FE7D067C007F697ED6
:104C48000012535A7BFF7A0879467D067C007F81E3
:054C58007E0002535A2A
:104C5D007BFF7A08798E7D067C007F217E001253C2
:104C6D005A7BFF7A07796E7D067C007F397E0012B4
:104C7D00535A7BFF7A0779B67D067C007F517E0003
:104C8D0012535A7BFF7A0779FE7D067C007F697E81
:104C9D000012535A7BFF7A0879467D067C007F818E
:054CAD007E0002535AD5
:1051E1007BFF7A0879D67D067C007F017E00125311
:1051F1005A7BFF7A0679067D067C007F197E0012B4
:10520100535A7BFF7A09791E7D067C007F317E002F
:1052110012535A7BFF7A0979667D067C007F497EAD
:045221000002535ADA
:105225007BFF7A0B79167D067C007F017E00125389
:105235005A7BFF7A0B795E7D067C007F197E001212
:10524500535A7BFF7A0B79A67D067C007F317E0061
:1052550012535A7BFF7A0B79EE7D067C007F497EDF
:045265000002535A96
:1053CC001252E5124BB17D017F05124BB5E4FD7F06
:1053DC000C124BB57F011256AD7FC01256AD125058
:1053EC003A7D027F01123C387D057F02123C381257
:0753FC0051597F020227E175
:105505001252E5124BB17D017F05124BB5123FE4F6
:10551500E4FD7F0C124BB57F011256AD7FC01256CC
:0E552500AD124C08123C347D057F02023C386A
:105533001252E5124BB17D017F05124BB5123FE4C8
:10554300E4FD7F0C124BB57F011256AD7FC012569E
:0E555300AD124C5D123C347D057F02023C38E7
:105561001252E5124BB17D017F05124BB512346425
:10557100E4FD7F0C124BB512519D7F011256AD7F98
:0E558100C01256AD123C347D057F02023C384C
:1054A3001252E5124BB17D017F05124BB5123464E4
:1054B300125225E4FD7F0C124BB57F011256AD7FCE
:1054C300C01256AD7D047F01123C387D067F020277
:0254D3003C3863
:1055E600124BB17D017F05124BB5123FE4123C34DC
:1055F6007D057F02123C38E4FD7F0C124BB57F011E
:085606001256AD7FC00256AD43
:10560E00124BB17D017F05124BB5123FE4123C34B3
:10561E007D057F02123C38E4FD7F0C124BB57F01F5
:08562E001256AD7FC00256AD1B
:10563600124BB17D017F05124BB5123FE4123C348B
:105646007D057F02123C38E4FD7F0C124BB57F01CD
:085656001256AD7FC00256ADF3
:10565E00124BB17D017F05124BB5123FE4123C3463
:10566E007D057F02123C38E4FD7F0C124BB57F01A5
:08567E001256AD7FC00256ADCB
:104874001252E5124BB17D017F03124BB51247F67C
:10488400E4FD7F0C124BB57F011256AD7FC012566A
:10489400AD123C347D057F02123C387BFF7A0579EA
:1048A400F6E4900893F07D057F41122A147BFF7A89
:1048B4000579F6E4900893F07D057F51122A147B64
:1048C400FF7A0579F6E4900893F07D057F61122A5A
:1048D400147BFF7A0579F6E4900893F07D057F71E7
:0348E400022A1491
:09008200900BFFEFF0A3EDF0225A
:01000A0022D3
:1047F6007BFF7A0479269008917401F0FD7F3112CF
:104806002C2B7BFF7A0479469008917401F0FD7F8A
:1048160041122C2B7BFF7A0479669008917401F083
:10482600FD7F51122C2B7BFF7A04798690089174B8
:1048360001F0FD7F61122C2B7BFF7A0479A690088C
:10484600917401F0FD7F71122C2B7BFF7A0479C6DF
:104856009008917401F0FD7F81122C2B7BFF7A0268
:0E48660079069008917401F0FD7F91022C2BD1
:104CB200900C01EFF0A3EDF01252E5900C01E070C0
:104CC20021A3E014600F1460111460132403701206
:104CD200125159800D125505800812553380031266
:104CE20054A3900C01E0B4011BA3E014600D146006
:104CF2000D14600D2403700C0255E602560E025686
:054D02003612565E228E
:10227C004109C4004109BF014109C600410A3D00A2
:10228C004109C300410A3800410A3B00410A2C00B5
:10229C00410A3906410A2D034109BE02410AA50132
:0822AC004109BC00410AA40035
:10586300E4900944F0A3F0A3F0A3F0A3F0A3F02283
:1057AE00E49009B7F0A3F0A3F0A3F0A3F09009B230
:0A57BE00F0A3F0A3F0A3F0A3F02283
:10575A00900AA27401F0900A3E7403F0A3EFF0A33A
:0E576A00EDF0A3EBF0900BF6E0900A42F02277
:1045E400900AEEE014602714603514604E240370C2
:1045F400709009BFE0600FE4900AEEF0900B9B040A
:10460400F01253CC80447F021227E102583D9009F6
:10461400BFE0601C900AEE7401F0125505802B90E7
:1046240009BFE0600B900AEE7402F0125533801A51
:104634007F021227E1122FE9022E429009BFE060A7
:104644000F900AEE7403F0125561E49009BFF02252
:104654007F011227E1122FE9122E42121873020071
:074664000EE4900AEEF022C3
:1055BC009009BFE0600F900AEE7404F01254A3E45B
:1055CC009009BFF0227F011227E1122FE9122E421F
:0A55DC0012187312000E12439E22F3
:1057E2009009C5E070129009BFE06009124874E4A4
:0957F2009009BFF02212000A2206
:0158B90022CC
:10256900A290B3E4339009B2F09009B7E0701A90E1
:1025790009B2E0B4010CE4900AA7F09009B704F09D
:102589008028E49009B7F080219009B2E070119099
:1025990009B7F0900AA7E0B40110123DD1E4800612
:1025A9009009B77401F0900AA7F0A287B3E43390B9
:1025B90009B3F09009B8E0701A9009B3E0B4010CBE
:1025C900E4900AAAF09009B804F08028E49009B8C8
:1025D900F080219009B3E070119009B8F0900AAA2F
:1025E900E0B40110123186E480069009B87401F054
:1025F900900AAAF03084032097089009B47401F076
:102609008005E49009B4F09009B9E0701D9009B40F
:10261900E0B4010FE4900AADF09009B904F0124D4D
:10262900B18074E49009B9F0806D9009B4E0700F3D
:102639009009B9F0900AADE06401705BF0805890A0
:1026490009B97401F0900AADF0900AEEE0FF640256
:102659006005EF64037040E490088DF07B067D020D
:10266900FF12570390088F7401F0A3740AF0A37442
:102679003CF0A37401F0A37409F0A374C2F0A3742D
:1026890001F0A37409F0A374C0F07B017A0A79A35D
:102699007D207F011244353085032096089009B5C5
:1026A9007401F08005E49009B5F09009BAE0701D55
:1026B9009009B5E0B4010FE49009ADF09009BA04AE
:1026C900F0124E05806AE49009BAF080639009B56A
:1026D900E0700F9009BAF09009ADE064017051F013
:1026E900804E9009BA7401F09009ADF0900AEEE0BD
:1026F900FF64026005EF640370361256F990088F83
:102709007401F0A3740AF0A3743CF0A37401F0A35C
:102719007409F0A374C2F0A37401F0A37409F0A3BF
:1027290074C0F07B017A0A79A37D207F01124435B8
:102739003086032095089009B67401F08005E4906D
:1027490009B6F09009BBE0701A9009B6E0B4010D22
:10275900E49009B0F09009BB04F0024E59E49009E5
:10276900BBF0229009B6E07012900A38F09009BBCC
:10277900F09009B0E06401705EF0229009BB740129
:10278900F09009B0F0900A38F0900AEEE0FF640288
:102799006005EF64037040E490088DF07B067D03CB
:1027A900FF12570390088F7401F0A3740AF0A37401
:1027B9003CF0A37401F0A37409F0A374C2F0A374EC
:1027C90001F0A37409F0A374C0F07B017A0A79A31C
:0827D9007D207F01124435222E
:103DD100900AEDE07034A3E01460231460201460B5
:103DE1001D14601A24047022900B9BE0FFB401049F
:103DF100E4F08016EF7013900B9B04F0800C900A96
:103E0100EEE014F09009BF7401F0900AEDE0640156
:103E1100705090088DF07B06FDFF12570390088FBC
:103E21007401F0A3740AF0A3743CF0A37401F0A32D
:103E31007409F0A374C2F0A37401F0A37409F0A390
:103E410074C0F07B017A0A79A37D027F02124435A6
:103E5100E4900AEDF09009C4F0900AEEF09009BFE9
:103E610004F0900AEDE0B4020D7401F0A37404F0C3
:103E71009009BF7401F0900AEDE0B4030D7402F0F3
:0B3E8100A37405F09009BF7401F0224B
:10318600900AEEE014606F14700302323B14700371
:103196000232881470030232D31470030232EA2416
:1031A60005600302330C900B9BE0B4010AE490081F
:1031B6008DF07B06FD8009E490088DF07B067D018D
:1031C600FF12570390088F7401F0A3740AF0A374DA
:1031D6003CF0A37401F0A37409F0A374C2F0A374C5
:1031E60001F0A37409F0A374C0F07B017A0A79A3F5
:1031F6007D027F03807CE490088DF07B067D04FFD2
:1032060012570390088F7401F0A3740AF0A3743C5C
:10321600F0A37401F0A37409F0A374C2F0A37401BF
:10322600F0A37409F0A374C0F07B017A0A79A37D38
:10323600027F02803DE490088DF07B067D05FF123B
:10324600570390088F7401F0A3740AF0A3743CF03E
:10325600A37401F0A37409F0A374C2F0A37401F07F
:10326600A37409F0A374C0F07B017A0A79A37D02E6
:103276007F02124435900AEEE004F09009BF740113
:10328600F0221256F990088F7401F0A3740AF0A385
:10329600743CF0A37401F0A37409F0A374C2F0A304
:1032A6007401F0A37409F0A374C0F07B017A0A7963
:1032B600A37D027F02124435900AEEE004F0900AE4
:1032C600ED7401F09009C4F09009BFF022900AEE67
:1032D600E004F0900AED7402F0E49009C5F090095C
:1032E600BF04F0229009C5E004F09009BF7401F014
:1032F6009009C5E0900AEEB40509E004F0E49009EF
:07330600C5F0227405F0225E
:104DB100900AEEE024FC600280499009BE7402F082
:104DC100E49009BCF0900A397406F0E4A3F07B0189
:104DD10090088F04F0A37409F0A374BCF0A3EBF066
:104DE100A3740AF0A37439F0A3EBF0A3740AF0A33F
:104DF100743AF07A0979BE7D20E4FF1244357F02CE
:044E010012477322BF
:104E0500900AEEE024FC600280499009BE7401F02E
:104E1500E49009BCF0900A397406F0E4A3F07B0134
:104E250090088F04F0A37409F0A374BCF0A3EBF011
:104E3500A3740AF0A37439F0A3EBF0A3740AF0A3EA
:104E4500743AF07A0979BE7D20E4FF1244357F017A
:044E5500124773226B
:104E5900900AEEE024FC600280499009BE7403F0D8
:104E6900E49009BCF0900A397406F0E4A3F07B01E0
:104E790090088F04F0A37409F0A374BCF0A3EBF0BD
:104E8900A3740AF0A37439F0A3EBF0A3740AF0A396
:104E9900743AF07A0979BE7D20E4FF1244357F0324
:044EA9001247732217
:1047730090088AEFF0BF01247BFF7A0379C6E490A7
:104783000891F07D087F61122C2B7BFF7A0379E679
:10479300E4900891F07D087F71122C2B90088AE039
:1047A300B402247BFF7A037966E4900891F07D08D4
:1047B3007F61122C2B7BFF7A047906E4900891F039
:1047C3007D087F71122C2B90088AE0B403247BFFB1
:1047D3007A037986E4900891F07D087F61122C2B8F
:1047E3007BFF7A047906E4900891F07D087F7112CB
:0347F3002C2B224A
:06589B00900AEDEFF0227F
:0A56F900E490088DF07B067D01FFB0
:10570300900A3CEFF0900AA3EDF09009C2EBF09001
:08571300088DE09009C0F022AE
:105813009009C0E0D3940A5007900A3B7401F02228
:06582300E4900A3BF022B4
:103D0B00900C03EFF0A3EDF0900A3BE06003023D53
:103D1B00CB9009C3E0704B90088DF07B03FDFF1235
:103D2B005703900C04E0FF900C03E0FD90088F7498
:103D3B0001F0A3740AF0A3743CF0A37401F0A37414
:103D4B0009F0A374C2F0A37401F0A37409F0A37477
:103D5B00C0F07B017A0A79A31244359009C3E004C1
:103D6B00F022900C04E0FF900C03E0FD900893749C
:103D7B0001F0A3740AF0A3743CF0A37401F0A374D4
:103D8B0009F0A374C2F0A37401F0A37409F0A37437
:103D9B00C0F07B017A0A79A31250839009C0E0D35B
:103DAB00940A5008900A3B7401F08005E4900A3B9A
:103DBB00F09009C3E004F0E0D394084008E4F0224B
:063DCB00E49009C3F022A0
:103E8C00900A2CE0602F9009C4E0601E900AEDE0CF
:103E9C0024FE600C14600E240270171255BC8012A4
:103EAC001257E2800D1258B98008E4900AEDF01216
:103EBC0045E40225699008937401F0A3740AF0A3F9
:103ECC00743CF0A37401F0A37409F0A374C2F0A3C2
:103EDC007401F0A37409F0A374C0F07B017A0A7921
:103EEC00A37D307F0D125083125813900A3BE06073
:103EFC0034900AA3E024FE6015047026E49009C4F3
:103F0C00F0900AEDF0A3F0900A2C04F080149009C4
:103F1C00C47401F0900AEDF0A37404F0900A2C74B0
:0F3F2C0001F0E48005E4900A2CF0900A3BF022AB
:1022B4004202D0A001610002D200C1814001C0806D
:1022C4004101C0804100C1814001C0804100C18101
:1022D4004000C1814001C0804101C0804100C181F2
:1022E4004000C1814001C0804100C1814001C080E3
:1022F4004101C0804100C1814001C0804100C181D1
:102304004000C1814001C0804100C1814001C080C2
:102314004101C0804100C1814000C1814001C080B1
:102324004101C0804100C1814001C0804100C181A0
:102334004000C1814001C0804101C0804100C18191
:102344004000C1814001C0804100C1814001C08082
:102354004101C0804100C1814000C1814001C08071
:102364004101C0804100C1814001C0804100C18160
:102374004000C1814001C0804100C1814001C08052
:102384004101C0804100C1814001C0804100C18140
:102394004000C1814001C0804101C0804100C18131
:1023A4004000C1814001C0804100C1814001C08022
:1023B4004101C0804100C18140610003D200C0C11D
:1023C40001C30302C2C60607C705C5C404CC0C0D6D
:1023D400CD0FCFCE0E0ACACB0BC90908C8D818191D
:1023E400D91BDBDA1A1EDEDF1FDD1D1CDC14D4D57D
:1023F40015D71716D6D21213D311D1D010F030310D
:10240400F133F3F23236F6F737F53534F43CFCFDAC
:102414003DFF3F3EFEFA3A3BFB39F9F83828E8E93C
:1024240029EB2B2AEAEE2E2FEF2DEDEC2CE42425BC
:10243400E527E7E62622E2E323E12120E0A060612C
:10244400A163A3A26266A6A767A56564A46CACADEC
:102454006DAF6F6EAEAA6A6BAB69A9A86878B8B99C
:1024640079BB7B7ABABE7E7FBF7DBDBC7CB47475FC
:10247400B577B7B67672B2B373B17170B05090914C
:10248400519353529296565797559594549C5C5D2C
:102494009D5F9F9E5E5A9A9B5B99595898884849BC
:1024A400894B8B8A4A4E8E8F4F8D4D4C8C4484853C
:1024B40045874746868242438341818040602004A9
:1024C400D20000CC01D8011400F0013C002800E443
:1024D40001A0016C007800B40150009C0188014403
:0124E40000F7
:1040890090090EEBF0A3EAF0A3E9F0A3ECF0A3ED9D
:01409900F036
:10409A0074FF900915F0A3F090091174FFF5F0125E
:1040AA00217B45F0607490090EE0FBA3E475F001F2
:1040BA0012217BA9F0FA122063FF900915E0F0A300
:1040CA00E06FF0E4900913F0A3F0C3900914E094B0
:1040DA0008900913E06480948050BD900915E0FEB1
:1040EA00A3E0FF30E019EEC313FEEF13FFEE64A066
:1040FA00FEEF6401FF900915EEF0A3EFF0800B903C
:10410A000915E0C313F0A3E013F0900914E004F0DA
:10411A0070B8900913E004F080B0900915E0FEA38E
:02412A00E0FFB4
:01412C002270
:0844C800900BE9ECF0A3EDF00C
:1044D00074FF900BECF0A3F0ED4C7007900BE9F03B
:1044E000A304F0900BE974FFF5F012217B45F06016
:1044F0005E122063FF900BECE0F0A3E06FF0E4901D
:104500000BEBF0900BECE0FEA3E0FF30E023EEC3FA
:1045100013FEEF13FF900BECEEF0A3EFF09002D040
:10452000E0FEA3E0FF900BECE06EF0A3E06FF08004
:104530000B900BECE0C313F0A3E013F0900BEBE057
:1045400004F0E0B408BD740129F9E43AFA809490CB
:074550000BECE0FEA3E0FF0D
:014557002241
:104B5800900BEEEBF0A3EAF0A3E9F0A3ECF0A3EDE1
:014B6800F05C
:104B69007FFF7DFF900BF174FFF5F012217B45F07B
:104B79006031900BEEE0FBA3E475F00112217BA9F3
:104B8900F0FA1220636DFB7A0024D2F582E4340234
:104B9900F583E06FFD74D22BF582E43403F583E0ED
:074BA900FF80C1EFFEEDFFEC
:014BB00022E2
:10398B00900BE0EBF0A3EAF0A3E9F0A3ECF0A3EDCE
:01399B00F03B
:10399C0074FFA3F0A3F0E4A3F0A3F0900BE3E0FE1C
:1039AC00A3E0FFC3900BE8E09F900BE7E09E400381
:1039BC00023A67900BE0E0FBA3E475F00112217B67
:1039CC00A9F0FA122063FDFF900BE5A3E06F540FF2
:1039DC0025E0FFE433FE74D22FF58274043EF583A8
:1039EC00E0FAA3E0FB900BE5E0C4F854F0C868FEE5
:1039FC00A3E0C4540F48FFEA6EFEEB6FFF900BE59B
:103A0C00EEF0A3EFF0EDC4540FFF900BE5A3E06FC5
:103A1C00540F25E0FFE433FE74D22FF58274043E7C
:103A2C00F583E0FAA3E0FB900BE5E0C4F854F0C892
:103A3C0068FEA3E0C4540F48FFEA6EFEEB6FFF90E4
:103A4C000BE5EEF0A3EFF0900BE8E004F06003025E
:103A5C0039A7900BE7E004F00239A7900BE5E0FEE4
:033A6C00A3E0FFD5
:013A6F002234
:055686009009ABEDF0FE
:10568B00E4FFFE9009ABE0FDC3EF9DEE94005011DB
:10569B00E41220DC0429F9E43AFA0FBF00010E8072
:0156AB00E21C
:0156AC0022DB
:084D0700E0FBA3E0FAA3E0F9D0
:0B4D0F0090093DEBF0A3EAF0A3E9F0EF
:104D1A00E4FF900943E0FEEFC39E5035900940E05E
:104D2A00FBA3E0FAA3E0F9122063FE90093DE0FB41
:104D3A00A3E0FAA3E0F9EE1220DC90093EE475F054
:104D4A0001122165900941E475F0011221650F8075
:014D5A00C197
:014D5B002235
:1057FB009009A9EFF0E4A3F07B017A0979457D6468
:07580B001256867A09794567
:015812002273
:0B37A2009008FDEBF0A3EAF0A3E9F0B3
:1037AD007F33A3E0F9A3E0FAA3E0A3C9F0A3EAF005
:1037BD00A3E9F09008FDE0FBA3E0FAA3E0F9900087
:1037CD006512207CD394005003023880900940EBA1
:1037DD00F0A3EAF0A3E9F090006412207C90094375
:1037ED00F0900903124D079008FDE0FBA3E0FAA34A
:1037FD00E0F990006412207CFD1256869008FDE0E1
:10380D00FBA3E0FAA3E02401F9E43AFA900940EBB6
:10381D00F0A3EAF0A3E9F09008FDA3E0FAA3E0F924
:10382D0090006512207C14900943F0124D0F900802
:10383D00FDE0FBA3E0FAA3E0F990006574FF122010
:10384D00A990006512207C7E0029F9EE3AFAC0039A
:10385D00C002C0019008FDE0FBA3E0FAA3E0F990DF
:10386D00006412207CFDD001D002D0031256867F59
:10387D001180229008FDE0FBA3E0FAA3E0F990008F
:10388D006412207CFD900903E0FBA3E0FAA3E0F9AC
:05389D001256867F3386
:0138A2002203
:0B430600900931EBF0A3EAF0A3E9F00E
:104311007FAAA3E0F9A3E0FAA3E0A3C9F0A3EAF01E
:10432100A3E9F0900931E0FBA3E0FAA3E0F99000E2
:104331006512207CFEFD7C00E92DF9EC3AFA90092A
:104341003AEBF0A3EAF0A3E9F0900931A3E0FAA374
:10435100E0F990006412207CFD8EF0A4FEC3746429
:104361009EC39D4035900937E0F9A3E0FAA3E090A0
:104371000940C9F0A3EAF0A3E9F0A3EDF090093AEE
:10438100124D07900931E0FBA3E0FAA3E0F9900098
:0C4391006574011220A97F2280027F3396
:01439D0022FD
:1024E5004606D10000000000004204F2000042044C
:1024F500F400004204F600004104F8004104F9002C
:0B4A3300900909EBF0A3EAF0A3E9F002
:104A3E00E4FFA3F0900909E0FBA3E0FAA3E0F990EC
:104A4E00003012207C90090DF0E024FEFDE434FFCE
:104A5E00FC124089EF90090CF0EEFFA3E0FE24FF5C
:104A6E00FDE434FFFC900909E0FBA3E0FAA3E0F9B2
:104A7E008D828C83EF1220EE90090CE0FFEE7C000D
:0D4A8E0024FEF582EC34FFF583EF0220EEEC
:0B466B009008FFEBF0A3EAF0A3E9F0D9
:10467600E4A3F09008FFE0FBA3E0FAA3E0F99000C2
:104686003012207CFF900903F0E4A3F0EF24FEFD36
:10469600E434FFFC124089EF900902F0EEFFA3E03C
:1046A600FE24FEFDE434FFFC9008FFE0FBA3E0FAE5
:1046B600A3E0F98D828C8312207CFD900902E0B57F
:1046C600051AEE7C0024FFF582EC34FFF5831220F8
:1046D6007CB507089009047401F08005E49009048C
:0846E600F0900904E0FF7E00E2
:0146EE0022A9
:0B1C00009008F1EBF0A3EAF0A3E9F07C
:101C0B00E4A3F0A3F0A3F0A3F0A3F09008FCF090F2
:101C1B0008F4F09008F4E0FFC394024003021F673E
:101C2B00EF75F003A424D1F582E43406F583E0D3F9
:101C3B0094005003021F4F9008FC7401F09008F5BC
:101C4B00E0FF9008F4E075F003A424D1F582E434AE
:101C5B0006F583E5822FF582E43583F583E0700387
:101C6B00021D76EF75F032A4FF9008F1E0FBA3E0C4
:101C7B00FAA3E02FF9EA35F0FA7D32125686900876
:101C8B00F5E0FF9008F4E075F003A424D1F582E4AD
:101C9B003406F583E5822FF582E43583F583E090F6
:101CAB0008F8F0E49008F6F09008F8E0FF9008F6DA
:101CBB00E0C39F50699008F5E075F032A4FF9008DF
:101CCB00F1E0FBA3E0FAA3E02FF9EA35F0FA900874
:101CDB00F6E07E0029F9EE3AFA9008F9EBF0A3EA68
:101CEB00F0A3E9F09008F4E075F066A424D7F9743A
:101CFB000635F0FA7B01C002C0019008F9E0F9A3A8
:101D0B00E0FAA3E0900900C9F0A3EAF0A3E9F0D050
:101D1B0001D0021237A29008F6E004F0808A9008F6
:101D2B00F5E0FF9008F4E075F003A424D1F582E40C
:101D3B003406F583E5822FF582E43583F583E4F0F1
:101D4B009008F6E0FDEF75F032A4FF9008F1E0FB90
:101D5B00A3E0FAA3E02FF9EA35F0FA900030ED1288
:101D6B0020EE9008F5E004F0021C489008F5E0FF27
:101D7B009008F1E0FBA3E0FAA3E0F9900096EF12D4
:101D8B0020EEE49008F7F09008F1E0FBA3E0FAA353
:101D9B00E0F990009612207CFF9008F7E0FEC39FBD
:101DAB004003021F54EE75F032A4FFE92FF9EA3518
:101DBB00F0FA90000112207C24FA7003021E6024BA
:101DCB00F67003021F1E248D7003021EDE24FD70AD
:101DDB0003021EFE24836003021F419008F1E0FB07
:101DEB00A3E0FAA3E0F99008F7E0FF75F032A4F551
:101DFB008285F08312207CFE9004FEE0B5061AEF7C
:101E0B0075F032A4FF9008F1A3A3E02FF9EA35F0A7
:101E1B00FA9000317401021F3C9008F7E075F03224
:101E2B00A4FF9008F1E0FBA3E0FAA3E02FF9EA3559
:101E3B00F0FA90003012207CFFB407089000317448
:101E4B0002021F3CEFD394085003021F469000314F
:101E5B007404021F3C9008F1E0FBA3E0FAA3E0F945
:101E6B009008F7E0FF75F032A4F58285F08312201D
:101E7B007CFE9004FEE0B5061AEF75F032A4FF90DD
:101E8B0008F1A3A3E02FF9EA35F0FA9000317406BC
:101E9B00021F3C9008F1E0FBA3E0FAA3E0F99008E5
:101EAB00F7E0FF75F032A4F58285F08312207CFEFB
:101EBB009004FFE06E6003021F46EF75F032A4FF43
:101ECB009008F1A3A3E02FF9EA35F0FA90003174F2
:101EDB0007805E9008F7E075F032A4FF9008F1E000
:101EEB00FBA3E0FAA3E02FF9EA35F0FA9000317486
:101EFB0005803E9008F7E075F032A4FF9008F1E002
:101F0B00FBA3E0FAA3E02FF9EA35F0FA9000317465
:101F1B0008801E9008F7E075F032A4FF9008F1E0FE
:101F2B00FBA3E0FAA3E02FF9EA35F0FA9000317445
:101F3B00091220EE8005E49008FCF09008F7E0040D
:101F4B00F0021D92E49008FCF09008F2E475F09713
:101F5B001221659008F4E004F0021C1E9008FCE0CE
:011F6B00FF76
:011F6C002252
:0E48E7009008FDEBF0A3EAF0A3E9F0A3EDF0DA
:1048F500E4A3F0F9A3C9F0A3F0A3E9F09008FDE063
:10490500F9A3E0FAA3E0900902C9F0A3EAF0A3E94C
:10491500F0E4900901F09008FDE0FBA3E0FAA3E0C4
:10492500F990003012207CFF900901E0C39F5023CD
:10493500A3E0FBA3E0FAA3E0F9900900E0FD124E25
:10494500AD900903E475F001122165900901E004B9
:03495500F080C32C
:01495800223C
:104FED009008F1EBF0A3EAF0A3E9F0A3EDF0701A4D
:104FFD009008F1E0FBA3E0FAA3E0F9122063FF9023
:10500D0004FEE0B507047D01801F9008F4E0B401B3
:10501D001B9008F1E0FBA3E0FAA3E0F9122063FF77
:0D502D009004FEE0B50705E4FD1248E722FF
:0B13A3009008F1EBF0A3EAF0A3E9F0E2
:1013AE00E49008F7F09008FEF0122063FF9004FF1F
:1013BE00E06F60030218729008F1E0FBA3E0FAA35D
:1013CE00E0F912466BEF4E70030218729008F1E0CE
:1013DE00FBA3E0FAA3E0F990003112207C24FC700C
:1013EE000302153B14700302176B24FE70030216E2
:1013FE00C41470030217EE240660030218729004E0
:10140E00FAE0640160030218729008F7F09008F198
:10141E00E0FBA3E0FAA3E0F990000212207CC313D4
:10142E00FF9008F7E0C39F40030218729008F4E0A3
:10143E00FBA3E0FAA3E0F974031220DC9004FBE0B6
:10144E00FF9008F4E0FBA3E0FAA3E0F9900001EFAF
:10145E001220EE9008F7E0FF9004FCE02F900002BF
:10146E001220EE7E00EF2403FDEE33FC9008F1E037
:10147E00FBA3E0FAA3E0F98D828C8312207CFD9011
:10148E0008F4E0FBA3E0FAA3E0F9900003ED1220CC
:10149E00EEEF2404FFEE33FE9008F1E0FBA3E0FA3A
:1014AE00A3E0F98F828E8312207CFF9008F4E0FB7C
:1014BE00A3E0FAA3E0F9900004EF1220EEE9240372
:1014CE00F9E43AFA9008F8EBF0A3EAF0A3E9F09009
:1014DE0008F4E0FBA3E0FAA3E02404F9E43AFA905E
:1014EE0008FBEBF0A3EAF0A3E9F09008F4A3E0FA0E
:1014FE00A3E0F990000112207CFF90000212207CE4
:10150E00FD9008FBE0F9A3E0FAA3E0900904C9F00E
:10151E00A3EAF0A3E9F09008F8E0FBA3E0FAA3E059
:10152E00F912426C9008F7E004F002141B900508C3
:10153E00E0640360030218729008F1E0FBA3E0FA86
:10154E00A3E0F990003012207C24FCFFE434FFC3AA
:10155E0013EF13FF9008FEF09008F4E0FBA3E0FAFF
:10156E00A3E0F9900064EF1220EEE49008F7F090FB
:10157E0008FEE0FF9008F7E0C39F40030218729048
:10158E0008F4E0FBA3E0FAA3E0F9A3E0FF75F00591
:10159E00A4F58285F08374031220EE900509E0FD18
:1015AE00EF75F005A429F9EA35F0FA900001ED1275
:1015BE0020EE9008F7E0FF90050AE02F900002124F
:1015CE0020EE9008F1E0FBA3E0FAA3E02403F9E497
:1015DE003AFA75F002EFA4F58285F08312207CFDB5
:1015EE00EF75F005A4FF9008F4E0FBA3E0FAA3E08A
:1015FE002FF9EA35F0FA900003ED1220EE9008F183
:10160E00E0FBA3E0FAA3E0F99008F7E0FF75F00223
:10161E00A42404F582E435F0F58312207CFDEF75E9
:10162E00F005A4FFAEF09008F4E0FBA3E0FAA3E00F
:10163E002FF9EA3EFA900004ED1220EEE92403F9A8
:10164E00E43AFA9008F8EBF0A3EAF0A3E9F0900878
:10165E00F4E0FBA3E0FAA3E02FF9EA3EFAE9240452
:10166E00F9E43AFA9008FBEBF0A3EAF0A3E9F09064
:10167E0008F4A3E0FAA3E02FF9EA3EFA9000011273
:10168E00207CFF90000212207CFD9008FBE0F9A365
:10169E00E0FAA3E0900904C9F0A3EAF0A3E9F09000
:1016AE0008F8E0FBA3E0FAA3E0F912426C9008F709
:1016BE00E004F002157D9008F4E0FBA3E0FAA3E04D
:1016CE00F990006474011220EE74061220DC90086A
:1016DE00F1E0FBA3E0FAA3E0F990000212207CFFF8
:1016EE009008F4E0FBA3E0FAA3E0F9900001EF12FA
:1016FE0020EE9008F1E0FBA3E0FAA3E0F9900003DE
:10170E0012207CFF9008F4E0FBA3E0FAA3E0F9902E
:10171E000002EF1220EE9008F1E0FBA3E0FAA3E046
:10172E00F990000412207CFF9008F4E0FBA3E0FA8D
:10173E00A3E0F9900003EF1220EE9008F1E0FBA376
:10174E00E0FAA3E0F990000512207CFF9008F4E087
:10175E00FBA3E0FAA3E0F990000402186E9008F4DF
:10176E00E0FBA3E0FAA3E0F990006474011220EE0E
:10177E0074831220DC9008F1E0FBA3E0FAA3E0F9F9
:10178E0090000212207CFF9008F4E0FBA3E0FAA385
:10179E00E0F9900001EF1220EE9008F1E0FBA3E0DB
:1017AE00FAA3E0F990000312207CFF9008F4E0FB0E
:1017BE00A3E0FAA3E0F9900002EF1220EE9008F1F8
:1017CE00E0FBA3E0FAA3E0F990000412207CFF9066
:1017DE0008F4E0FBA3E0FAA3E0F990000302186E10
:1017EE009008F4E0FBA3E0FAA3E0F9900064740122
:1017FE001220EE74861220DC9008F1E0FBA3E0FAD2
:10180E00A3E0F990000212207CFF9008F4E0FBA305
:10181E00E0FAA3E0F9900001EF1220EE9008F1E05B
:10182E00FBA3E0FAA3E0F990000312207CFF9008DE
:10183E00F4E0FBA3E0FAA3E0F9900002EF1220EE31
:10184E009008F1E0FBA3E0FAA3E0F9900004122067
:10185E007CFF9008F4E0FBA3E0FAA3E0F99000030C
:04186E00EF1220EE67
:011872002253
:10358300900903EBF0A3EAF0A3E9F09004FFE0FF56
:10359300900903E0FBA3E0FAA3E0F9EF1220DC902B
:1035A3000906E0FBA3E0FAA3E0F9122063FF900908
:1035B30003E0FBA3E0FAA3E0F9900001EF1220EE91
:1035C300900906E0FBA3E0FAA3E0F99000011220C2
:1035D3007CFF900903E0FBA3E0FAA3E0F99000026B
:1035E300EF1220EE900906E0FBA3E0FAA3E0F990C6
:1035F300000212207CFF900903E0FBA3E0FAA3E0A2
:10360300F9900003EF1220EE900906E0FBA3E0FA25
:10361300A3E0F990000312207CFF900903E0FBA3D1
:10362300E0FAA3E0F9900004EF1220EE900906E01F
:10363300FBA3E0FAA3E0F990000412207CFF9009B9
:1036430003E0FBA3E0FAA3E0F9900005EF1220EEFC
:1036530090003074081220EE90003174011220EEB5
:103663009004FA7401F0900906E0FBA3E0FAA3E0EA
:10367300F990000112207C9004FBF09000021220CC
:103683007C9004FCF090000412207C9004FDF090E8
:0D3693000903E0FBA3E0FAA3E0F9024A33CB
:103A7000900903EBF0A3EAF0A3E9F09004FFE0FF64
:103A8000900903E0FBA3E0FAA3E0F9EF1220DC9039
:103A90000906E0FBA3E0FAA3E0F9122063FF900916
:103AA00003E0FBA3E0FAA3E0F9900001EF1220EE9F
:103AB000900906E0FBA3E0FAA3E0F99000011220D0
:103AC0007CFF900903E0FBA3E0FAA3E0F990000279
:103AD000EF1220EE900906E0FBA3E0FAA3E0F990D4
:103AE000000212207CFF900903E0FBA3E0FAA3E0B0
:103AF000F9900003EF1220EE900906E0FBA3E0FA34
:103B0000A3E0F990000312207CFF900903E0FBA3DF
:103B1000E0FAA3E0F9900004EF1220EE900906E02D
:103B2000FBA3E0FAA3E0F990000412207CFF9009C7
:103B300003E0FBA3E0FAA3E0F9900005EF1220EE0A
:103B400090003074081220EE90003174061220EEBE
:033B5000024A33F3
:104959009008FDEBF0A3EAF0A3E9F0A3E0FBA3E0E4
:10496900FAA3E0F990006412207CD394004051121C
:10497900206324FA602724037046900900E0F9A314
:10498900E0FAA3E0900906C9F0A3EAF0A3E9F090E0
:1049990008FDE0FBA3E0FAA3E0F9023583900900E2
:1049A900E0F9A3E0FAA3E0900906C9F0A3EAF0A3AD
:1049B900E9F09008FDE0FBA3E0FAA3E0F9123A70F0
:0149C90022CB
:0B49CA009008F1EBF0A3EAF0A3E9F085
:1049D50090003112207CB404209008F4E0FBA3E0A1
:1049E500FAA3E0F974081220DC9008F4E0FBA3E0D8
:1049F500FAA3E0F97D040256869008F1E0FBA3E0F6
:104A0500FAA3E0F990003112207CB402209008F45A
:104A1500E0FBA3E0FAA3E0F974FA1220DC9008F4B5
:0D4A2500E0FBA3E0FAA3E0F97D0412568641
:014A32002261
:0D0096009004FF74FFF09004FE7401F0224E
:10330D00E4FFFEEF75F066A4243CF582E43407F586
:10331D0083E0FDD39400500302343674F22FF5820E
:10332D00E43404F583E0B5052D74F62FF582E4340D
:10333D0004F583E0FDEF75F066A4243CF582E434DA
:10334D0007F583E06D600F74F42FF582E43404F516
:10335D0083E004F0800C74F42FF582E43404F583DB
:10336D00E4F074F42FF582E43404F583E064036033
:10337D0003023418EF75F003A424D1F582E434066A
:10338D00F583E5822EF582E43583F583E060030E47
:10339D0080E274F62FF582E43404F583E0FDEF75D9
:1033AD00F066A4243CF582E43407F583E0C39DFD6B
:1033BD00EF75F003A424D1F582E43406F583E5829C
:1033CD002EF582E43583F583EDF0EF75F003A4243B
:1033DD00D1F582E43406F583E5822EF582E435835A
:1033ED00F583E0FD74F62FF582E43404F583E0FCFB
:1033FD00ED2CFD74F62FF582E43404F583EDF074B5
:10340D00F42FF582E43404F583E4F0EF75F066A44F
:10341D00243CF582E43407F583E0FD74F22FF58248
:10342D00E43404F583EDF0802474F22FF582E43456
:10343D0004F583E4F074F42FF582E43404F583E4A9
:10344D00F074F62FF582E43404F583E4F00FEF64A5
:06345D00026003023310BF
:013463002246
:104F9F007B017A0B79AE7D321256869004F8E0646D
:104FAF000A7034900BAE74FFF0A37403F0A3743047
:104FBF00F0E4A3F0A3F0A304F0A3749EF0A374D4C1
:104FCF00F0900BDE7408F0E49004F8F07B017A0B9C
:0D4FDF0079AE7D010248E79004F8E004F08F
:014FEC0022A2
:103B5300E490088AF0A3F09005A2F0900639F07B78
:103B6300017A08798C7D651256867B017A05790C7A
:103B7300121C00EF7003023C33E490088AF0E490D7
:103B8300088BF090088AE0FF75F097A424A2F582D1
:103B9300E5F03405F583E0FE90088BE0C39E400317
:103BA300023C24EF75F097A4240CF9740535F0FA60
:103BB3007B01E075F032A429F9EA35F0FA90088A1E
:103BC300E0FD124FED90088AE075F097A4240CF9FC
:103BD300740535F0FA7B01A3E075F032A429F9EA04
:103BE30035F0FAC0039008F4EBF0A37408F0A37463
:103BF3008CF0D0031213A390088AE075F097A424E5
:103C03000CF9740535F0FA7B01A3E075F032A429B1
:103C1300F9EA35F0FA1249CA90088BE004F0023B46
:103C23008690088AE004F0E0C394025003023B81CB
:013C3300226E
:09587D001241CE120C3602009615
:10412D007B017A08798A7D321256869004F9E06413
:10413D000190088A704374FFF0A37403F0A37430E8
:10414D00F0E4A3F0A3F0A37409F0A3749FF0A3749B
:10415D0012F09008BA7408F0E49004F9F090050894
:10416D007403F0A37430F0E4A3F0A37414F07B0196
:10417D007A08798A7D010248E774FFF0A37403F091
:10418D00A37430F0A37409F0E4A3F0A37409F0A3B1
:10419D00744FF0A37410F09008BA7408F0900508ED
:1041AD007403F0A37430F0A37409F0A37414F07BBE
:1041BD00017A08798A7D011248E79004F9E004F04C
:0141CD0022CF
:0658A10012330D0258B3A2
:0658A700123B5302558F75
:10508300900890EBF0A3EAF0A3E9F0AE07AF05AD0B
:1050930006900890E0F9A3E0FAA3E09008A1C9F014
:1050A300A3EAF0A3E9F0900899E0F9A3E0FAA3E0FA
:1050B3009008A4C9F0A3EAF0A3E9F0900893E0FBF9
:0950C300A3E0FAA3E0F9023F3B6F
:1044350090088AEFF0A3EDF0A3EBF0A3EAF0A3E96F
:01444500F086
:104446007B017A06793A7D971256867B017A08793E
:10445600987D6512568690088BE0900899F0900832
:104466008AE090089AF090088FE0FBA3E0FAA3E0B8
:10447600F912206390089BF090088CE0FBA3E0FA09
:10448600A3E0F912206390089CF0900892E0FBA349
:10449600E0FAA3E0F9122063900898F09008FC7403
:1044A60001F0900900F0A37408F0A37498F07B0162
:1044B6007A06793A1249597B017A06793A7D0102E0
:0244C60048E7C5
:100C36009000017430F0E4A3F090000574FFF0908A
:100C460000077430F0A37401F090000B74FFF0906D
:100C5600000D7430F0A37402F090001174FFF09050
:100C660000137430F0A37403F090001774FFF09033
:100C760000197430F0A37404F090001D74FFF09016
:100C8600001F7430F0A37405F090002374FFF090F9
:100C960000257430F0A37406F090002974FFF090DC
:100CA600002B7430F0A37407F090002F74FFF090BF
:100CB60000317430F0A37408F090003574FFF090A2
:100CC60000377430F0A37409F090003B74FFF09085
:100CD600003D7430F0A3740AF090004174FFF09068
:100CE60000437430F0A3740BF090004774FFF0904B
:100CF60000497430F0A3740CF090004D74FFF0902E
:100D0600004F7430F0A3740DF090005374FFF09010
:100D160000557430F0A3740EF090005974FFF090F3
:100D2600005B7430F0A3740FF090005F74FFF090D6
:100D360000617430F0A37410F090006574FFF090B9
:100D460000677430F0A37411F090006B74FFF0909C
:100D5600006D7430F0A37412F090007174FFF0907F
:100D6600007374F0F0A37401F090007774FFF090B4
:100D7600007974F0F0A37402F090007D74FFF09097
:100D8600007F74F0F0A37403F090008374FFF0907A
:100D9600008574F0F0A37404F090008974FFF0905D
:100DA600008B7401F0E4A3F090008F74FFF09000C4
:100DB600917401F0A3F090009574FFF09000977481
:100DC60001F0A304F090009B74FFF090009D740165
:100DD600F0A37403F09000A174FFF09000A37401D7
:100DE600F0A37404F09000A774FFF09000A97401BA
:100DF600F0A37405F09000AD74FFF09000AF74019D
:100E0600F0A37406F09000B374FFF09000B574017F
:100E1600F0A37407F09000B974FFF09000BB740162
:100E2600F0A37408F09000BF74FFF09000C1740145
:100E3600F0A37409F09000C574FFF09000C7740128
:100E4600F0A3740AF09000CB74FFF09000CD74010B
:100E5600F0A3740BF09000D174FFF09000D37401EE
:100E6600F0A3740CF09000D774FFF09000D97401D1
:100E7600F0A3740DF09000DD74FFF09000DF7401B4
:100E8600F0A3740EF09000E374FFF09000E5740197
:100E9600F0A3741FF09000E974FFF09000EB74016A
:100EA600F0A37410F09000EF74FFF09000F174015D
:100EB600F0A37411F09000F574FFF09000F7740140
:100EC600F0A37412F09000FB74FFF09000FD740123
:100ED600F0A37413F090010174FFF0900103740104
:100EE600F0A37414F090010774FFF09001097401E7
:100EF600F0A37415F090010D74FFF090010F7401CA
:100F0600F0A37416F090011374FFF09001157401AC
:100F1600F0A37417F090011974FFF090011B74018F
:100F2600F0A3741EF090011F74FFF090012174016C
:100F3600F0A3741FF090012574FFF090012774014F
:100F4600F0A37420F090012B74FFF090012D740132
:100F5600F0A37421F090013174FFF0900133740115
:100F6600F0A37422F090013774FFF09001397401F8
:100F7600F0A37423F090013D74FFF090013F7401DB
:100F8600F0A37424F090014374FFF09001457401BE
:100F9600F0A37425F090014974FFF090014B7401A1
:100FA600F0A37426F090014F74FFF0900151740283
:100FB600F0E4A3F090015574FFF09001577402F02D
:100FC600A314F090015B74FFF090015D7402F0A32E
:100FD600F090016174FFF09001637402F0A304F0D5
:100FE60090016774FFF09001697402F0A37404F035
:100FF60090016D74FFF090016F7402F0A37405F018
:1010060090017374FFF09001757402F0A37406F0FA
:1010160090017974FFF090017B7402F0A37407F0DD
:1010260090017F74FFF09001817402F0A37408F0C0
:1010360090018574FFF09001877402F0A37409F0A3
:1010460090018B74FFF090018D7402F0A3740AF086
:1010560090019174FFF09001937402F0A3740BF069
:1010660090019774FFF09001997402F0A3740CF04C
:1010760090019D74FFF090019F7402F0A3740DF02F
:101086009001A374FFF09001A57402F0A3740EF012
:101096009001A974FFF09001AB7402F0A3740FF0F5
:1010A6009001AF74FFF09001B17402F0A37410F0D8
:1010B6009001B574FFF09001B77402F0A37411F0BB
:1010C6009001BB74FFF09001BD7402F0A37412F09E
:1010D6009001C174FFF09001C37402F0A37413F081
:1010E6009001C774FFF09001C97402F0A37414F064
:1010F6009001CD74FFF09001CF7402F0A37415F047
:101106009001D374FFF09001D57402F0A37416F029
:101116009001D974FFF09001DB7402F0A37417F00C
:101126009001DF74FFF09001E17402F0A37418F0EF
:101136009001E574FFF09001E77402F0A37419F0D2
:101146009001EB74FFF09001ED7402F0A3741AF0B5
:101156009001F174FFF09001F37402F0A3741BF098
:101166009001F774FFF09001F97402F0A3741CF07B
:101176009001FD74FFF09001FF7402F0A3741DF05E
:1011860090020374FFF09002057402F0A3741EF03F
:1011960090020974FFF090020B7402F0A3741FF022
:1011A60090020F74FFF09002117402F0A37420F005
:1011B60090021574FFF09002177402F0A37421F0E8
:1011C60090021B74FFF090021D7402F0A37422F0CB
:1011D60090022174FFF09002237402F0A37423F0AE
:1011E60090022774FFF09002297402F0A37424F091
:1011F60090022D74FFF090022F7402F0A37425F074
:1012060090023374FFF09002357402F0A37426F056
:1012160090023974FFF090023B7402F0A37427F039
:1012260090023F74FFF09002417402F0A37428F01C
:1012360090024574FFF09002477402F0A37429F0FF
:1012460090024B74FFF090024D7402F0A3742AF0E2
:1012560090025174FFF09002537402F0A3742BF0C5
:1012660090025774FFF09002597402F0A3742CF0A8
:1012760090025D74FFF090025F7403F0E4A3F090B7
:10128600026374FFF09002657403F0A37401F0909A
:10129600026974FFF090026B7403F0A314F09002DD
:1012A6006F74FFF09002717403F0A3F090027574EE
:1012B600FFF09002777403F0A304F090027B74FFB2
:1012C600F090027D7403F0A37405F090028174FF20
:1012D600F09002837403F0A37406F090028774FF03
:1012E600F09002897403F0A37407F090028D74FFE6
:1012F600F090028F7404F0E4A3F090029374FFF070
:101306009002957404F0A37401F090029974FFF0B2
:1013160090029B7404F0A37402F090029F74FFF095
:101326009002A17404F0A314F09002A574FFF0904B
:1013360002A77404F0A3F09002AB74FFF09002AD24
:101346007404F0A304F09002B174FFF09002B37439
:1013560004F0A37406F09002B774FFF09002B9741B
:1013660004F0A37407F09002BD74FFF09002BF74FE
:1013760004F0A37408F09002C374FFF09002C574E1
:1013860004F0A37409F09002C974FFF09002CB74C4
:0D13960004F0A3740AF09002CF74FFF0225F
:10426C009008FFEFF0900901EBF0A3EAF0A3E9F05E
:10427C00E4FF75F006EFA42401F582E5F03400F5B7
:10428C0083E0FE9008FFE0FCEE6C706475F006EFC6
:10429C00A42402F582E5F03400F583E06D705190B2
:1042AC000901E0FBA3E0FAA3E0F9122063FE75F02C
:1042BC0006EFA42403F582E5F03400F583EEF090CC
:1042CC000904E0FBA3E0FAA3E0F9122063FE75F009
:1042DC0006EFA42404F582E5F03400F583EEF075C6
:1042EC00F006EFA42405F582E5F03400F583E4F044
:0942FC000FEF6478600302427EBA
:014305002295
:103F3B0090089CEFF090089EEBF0A3EAF0A3E9F059
:103F4B00E4FF75F006EFA42401F582E5F03400F5EB
:103F5B0083E0FE90089CE0FCEE6C707375F006EF4E
:103F6B00A42402F582E5F03400F583E06D706075F2
:103F7B00F006EFA42403F582E5F03400F583E0FEB0
:103F8B0090089EE0FBA3E0FAA3E0F9EE1220DC75AB
:103F9B00F006EFA42404F582E5F03400F583E0FE8F
:103FAB009008A1E0FBA3E0FAA3E0F9EE1220DC7588
:103FBB00F006EFA42405F582E5F03400F583E0FE6E
:103FCB009008A4E0FBA3E0FAA3E0F9EE1220DC0FCB
:083FDB00EF64786003023F4D22
:013FE30022BB
:10558F00E4FF75F006EFA42405F582E5F03400F58D
:10559F0083E0F4601275F006EFA42405F582E5F0C0
:0C55AF003400F583E004F00FEFB478D670
:0155BB0022CD
:03000B000251148B
:10511400C0E0C0F0C083C082C0D075D000C000C061
:1051240001C002C003C004C005C006C007758A8060
:10513400758C44C28DD28C1258B6D007D006D005D7
:10514400D004D003D002D001D000D0D0D082D083FC
:05515400D0F0D0E032B4
:0300A3000252699D
:10526900C0E0C0F0C083C082C0D075D000C000C00B
:1052790001C002C003C004C005C006C00775D3B091
:1052890075D23C124A9BD007D006D005D004D00372
:10529900D002D001D000D0D0D082D083D0F0D0E0DD
:0152A90032D2
:03008B00025778A1
:10577800C0E0C0F0C083C082C0D075D008125439D0
:0B578800D0D0D082D083D0F0D0E0322F
:030093000252AA6C
:1052AA00C0E0C0F0C083C082C0D075D000C000C0CA
:1052BA0001C002C003C004C005C006C00712546E74
:1052CA00D007D006D005D004D003D002D001D00038
:0B52DA00D0D0D082D083D0F0D0E032E2
:030000000245585E
:0C455800787FE4F6D8FD75810F02459FC6
:0A58730053D10F75D3B075D23C225B
:10585000438E805389F0758A80758C44C28DD28CBA
:03586000D2A922A8
:0700030043D18043AF40220E
:0758860053D17F53AFBF2295
:07588D0043D18043AF40222C
:0758940053D17F53AFBF2287
:0658AD001258730258506E
:1046EF00E4900872F0F0900872E0FFC394025073E8
:1046FF00EF75F066A42408F582E43408F583E0D35F
:10470F0094004057746F64044408604F900872E03F
:10471F0075F066A424A3F9740735F0FA7B01C00382
:10472F00900900EBF0A37408F0A37471F0D003129A
:10473F0037A2900872E0FF701090086F7404F0D2E7
:10474F00CB900871E0F5858012EFB4010E900870E0
:10475F007404F0D2CA900871E0F5AD900872E004CD
:03476F00F0808354
:014772002224
:1041CE00759850438E40538EFE53890F758B8F75A5
:1041DE008DFDC2ABD28ED2AC75AC1043AC4053D178
:1041EE00FD75D5CC75D4FF43D10843AF0875841047
:1041FE005384BF538EFB75D7CC75D6FF438E1043B9
:10420E00AF10D2AFE4900944F07F011257FBC0010A
:10421E00900944E075F066A424A3F9740735F0A85C
:10422E0001FC7D01D0017E007F6612203D7F0112D0
:10423E0057FBC001900944E075F066A424D7F974C9
:10424E000635F0A801FC7D01D0017E007F661220AC
:0D425E003D900944E004F0E0C3940240AC40
:01426B002230
:0358B3000246EFBB
:0B4EAD00900905EBF0A3EAF0A3E9F088
:104EB800ED75F066A424A3F9740735F0FA7B01C0F8
:104EC80002C001900905E0F9A3E0FAA3E0900934D3
:104ED800C9F0A3EAF0A3E9F0D001D002124306EF2B
:104EE800B42207E4900908F080069009087401F0DC
:054EF800900908E0FF35
:014EFD002292
:0B4EFE00900BF7EBF0A3EAF0A3E9F043
:104F0900ED75F066A424D7F9740635F0FA7B01C073
:104F190002C001900BF7E0F9A3E0FAA3E0900900C1
:104F2900C9F0A3EAF0A3E9F0D001D0021237A2EF49
:104F3900B41107E4900BFAF08006900BFA7402F0B2
:054F4900900BFAE0FFEF
:014F4E002240
:10543900E5AC30E02090091CE5ADF0900934740129
:10544900F0A37409F0A3741CF07B017A07793D126B
:10545900430653ACFEE5AC30E10A53ACFDE49008D9
:0454690070F0C2CA53
:01546D00221C
:10546E00E58430E0205384FE900930E585F0900904
:10547E00347401F0A37409F0A37430F07B017A0642
:10548E0079D7124306E58430E10A5384FDE490088F
:04549E006FF0C2CB1E
:0154A20022E7
:1057C800EF75F066A4243CF582E43407F583E0D352
:0A57D800940040037F01227F0022AD
:1038A300808080808080808001010101010101010D
:1038B300FF0000000000000000000000000000FF07
:1038C30081818181818181818080808080808080ED
:1038D30000000000000000000000000000000000E5
:1038E3000101010101010101FF00000000000000CE
:1038F300FF0000000000000000000000000000FFC7
:1039030000000000000000FF8080808080808080B5
:1039130080808080808080800000000000000000A4
:103923000000000000000000000000000000000094
:10393300000000000000000001010101010101017C
:103943000101010101010101FF000000000000006D
:103953000000000000000000FF0000000000000065
:103963000000000000000000000000000000000054
:1039730000000000000000FF000000000000000045
:0839830000000000000000FF3D
:1056D300E4FDFCC3ED9FEE6480F8EC648098501504
:1056E300E4FBFA0BBB00010AEB646E4A70F50DBDD7
:0556F30000010C80DE47
:0156F800228F
:10532000C2C97F017E00125334C2C8AF01124F4F71
:04533000D2C97F015E
:10533400E4FDFCC3ED9FEE6480F8EC6480985015A6
:10534400E4FBFA0BBB00010AEB64014A70F50DBDE6
:0553540000010C80DEE9
:015359002231
:104F4F00EF20E704C2B58002D2B5EF20E604C2A776
:104F5F008002D2A7EF20E504C2A68002D2A6EF20DE
:104F6F00E404C2A58002D2A5EF20E304C2A480020C
:104F7F00D2A4EF20E204C2A38002D2A3EF20E10467
:104F8F00C2A28002D2A2EF20E003C2A122D2A122AC
:06582900FF12574C7F3016
:0E582F00A907C2B7C2B6125320D2B7C2C9220F
:10573B00E0FBA3E0FAA3E0F98F8275830012207CD3
:01574B00FF5E
:0E574C00A907C2B7D2B6125320D2B7C2C922E3
:1036A000C2C1C2A07F647E001256D3D2A01256D3EC
:1036B0007F3012582F7F9412582F7F3112582F7F4E
:1036C000D712582F7F9F12574C7F3212582FE4FF8A
:1036D00012574C7F0112574C7F0312574C7F201218
:1036E000582F7F0112574C7F0312574C7F051257FA
:1036F0004C7F0712574C7F0912574C7F0B12574CC7
:103700007F0D12574C7F1012574C7F1112574C7F70
:103710001312574C7F1512574C7F1712574C7F19B5
:1037200012574C7F1B12574C7F1D12574C7F1F1294
:10373000582A7F7512582FE4FF12574C7F141257E6
:103740004C7F1512582FE4FF12574C7FFF12574C35
:103750007FBC12582FE4FF12574C7FA612574C7FA4
:10376000CA12582FE4FF12574C7F9F12574C7F20EC
:1037700012574C7FF012582F7F1012574C7F811236
:10378000582F7F3012574C7F0312574C7F2012580E
:103790002F7F0B12574C7F647E001253347FAF0291
:0237A000582FA0
:104D5C00900946EFF0A3EDF0A3EAF0A3EBF0900975
:104D6C0046E014F0A3E02407F07F1512582F9009A9
:104D7C0046E0FF12574C900948A3E0FF900946E02B
:104D8C002F14FF12574C7F7512582FA3E0FF1257A8
:104D9C004C90094AA3E0FF900947E02F14125829C0
:054DAC007F5C02582F9E
:104AFB009008B9EFF0A3EDF0A3EAF0A3EBF0900868
:104B0B00B9E014F0A3E02407F07F1512582F90089A
:104B1B00B9E0FF12574C9008BBA3E0FF9008B9E037
:104B2B002FF0E014F0E0FF12574C7F7512582FA3B3
:104B3B00E0FF12574C9008BDA3E0FF9008BAE02F9E
:0D4B4B00F0E014F0E01258297F5C02582FB2
:1052E50090094AE4F0A3740DF07BC17A00E4FDFF58
:1052F500124D5CE4900944F0E4900945F0E4FF1296
:10530500574C900945E004F0E0C394C140EF900983
:0A53150044E004F0E0C3940D40DE14
:01531F00226B
:0B50CC0090088DEBF0A3EAF0A3E9F0E0
:1050D70090094AE4F0A304F07B087A00124D5CE4DF
:1050E700900890F090088DE0FBA3E0FAA3E0F91296
:1050F7002063FF12574C90088EE475F0011221656A
:0C510700900890E004F0E0C3940840D849
:015113002279
:1057930090088CEBF090094AE4F0A304F0FB7A0044
:0B57A300124D5C90088CE0FF02574C98
:0B2A1400900890EBF0A3EAF0A3E9F0BB
:102A1F009008BDE4F0A37402F07B087A00124AFB21
:102A2F009008A57401F0A37408F0A37495F0E490D6
:102A3F000894F0900890E0FBA3E0FAA3E0F9900867
:102A4F0094E0FFF58275830012207CFE9008A5E0CC
:102A5F00FBA3E0FAA3E0F98F82758300EE1220EE5C
:102A6F00900894E004F0E0B410C9900893E054018A
:102A7F00D39400405A9008A874FFF0A37438F0A3C1
:102A8F0074CBF0E4900894F09008A5E0FBA3E0FA73
:102A9F00A3E0F9900894E0FFE92FF9E43AFAC003B4
:102AAF00C002C001122063FE9008A8E0FBA3E0FA69
:102ABF00A3E0F98F8275830012207C4ED001D002E3
:102ACF00D0031220DC900894E004F0E0B410B99029
:102ADF000893E05402D39400405A9008A874FFF072
:102AEF00A37438F0A374DBF0E4900894F09008A579
:102AFF00E0FBA3E0FAA3E0F9900894E0FFE92FF9D7
:102B0F00E43AFAC003C002C001122063FE9008A885
:102B1F00E0FBA3E0FAA3E0F98F8275830012207C1B
:102B2F004ED001D002D0031220DC900894E004F0C4
:102B3F00E0B410B9900893E05404D39400405A9035
:102B4F0008A874FFF0A37438F0A374EBF0E49008B6
:102B5F0094F09008A5E0FBA3E0FAA3E0F9900894A5
:102B6F00E0FFE92FF9E43AFAC003C002C0011220D6
:102B7F0063FE9008A8E0FBA3E0FAA3E0F98F82754B
:102B8F00830012207C4ED001D002D0031220DC90A3
:102B9F000894E004F0E0B410B9900893E05408D31F
:102BAF009400405A9008A874FFF0A37438F0A374EF
:102BBF00FBF0E4900894F09008A5E0FBA3E0FAA3E3
:102BCF00E0F9900894E0FFE92FF9E43AFAC003C066
:102BDF0002C001122063FE9008A8E0FBA3E0FAA355
:102BEF00E0F98F8275830012207C4ED001D002D085
:102BFF00031220DC900894E004F0E0B410B9E490E4
:102C0F000894F0900894E0FFC39410500E9008A51C
:0B2C1F0012573B900894E004F080E89E
:012C2A002287
:0B2C2B0090088EEBF0A3EAF0A3E9F0A4
:102C36009008BDE4F0A37402F07B107A00124AFB00
:102C46009008B37401F0A37408F0A37493F0E490B1
:102C56000892F090088EE0FBA3E0FAA3E0F9900852
:102C660092E0FFF58275830012207CFE9008B3E0A7
:102C7600FBA3E0FAA3E0F98F82758300EE1220EE43
:102C8600900892E004F0E0B420C9900891E0540165
:102C9600D39400405A9008B674FFF0A37439F0A399
:102CA600740BF0E4900892F09008B3E0FBA3E0FA0E
:102CB600A3E0F9900892E0FFE92FF9E43AFAC0039D
:102CC600C002C001122063FE9008B6E0FBA3E0FA42
:102CD600A3E0F98F8275830012207C4ED001D002CA
:102CE600D0031220DC900892E004F0E0B420B99002
:102CF6000891E05402D39400405A9008B674FFF04D
:102D0600A37439F0A3742BF0E4900892F09008B302
:102D1600E0FBA3E0FAA3E0F9900892E0FFE92FF9BF
:102D2600E43AFAC003C002C001122063FE9008B65E
:102D3600E0FBA3E0FAA3E0F98F8275830012207C02
:102D46004ED001D002D0031220DC900892E004F0AD
:102D5600E0B420B9900891E05404D39400405A900E
:102D660008B674FFF0A37439F0A3744BF0E490082E
:102D760092F09008B3E0FBA3E0FAA3E0F990089282
:102D8600E0FFE92FF9E43AFAC003C002C0011220BD
:102D960063FE9008B6E0FBA3E0FAA3E0F98F827524
:102DA600830012207C4ED001D002D0031220DC908A
:102DB6000892E004F0E0B420B9900891E05408D3FA
:102DC6009400405A9008B674FFF0A37439F0A374C7
:102DD6006BF0E4900892F09008B3E0FBA3E0FAA34E
:102DE600E0F9900892E0FFE92FF9E43AFAC003C04F
:102DF60002C001122063FE9008B6E0FBA3E0FAA32E
:102E0600E0F98F8275830012207C4ED001D002D06B
:102E1600031220DC900892E004F0E0B420B9E490BC
:102E26000892F0900892E0FFC39420500E9008B3E9
:0B2E360012573B900892E004F080E887
:012E4100226E
:0B535A0090088AEBF0A3EAF0A3E9F052
:1053650090094AE4F0A37403F07B187A00124D5CAF
:10537500E490088DF090088DE0FFC39448500E909E
:0D538500088A12573B90088DE004F080E884
:0153920022F8
:0B539300900BFBEBF0A3EAF0A3E9F0A5
:10539E0090094AE4F0A37403F07B0C7A00124D5C82
:1053AE00E4900BFEF0900BFEE0FFC39424500E90A1
:0D53BE000BFB12573B900BFEE004F080E863
:0153CB0022BF
:10571B00E4FDFCC3ED9FEC9E5015E4FBFA0BBB00C4
:0F572B00010ABA06F8BB84F50DBD00010C80E43D
:01573A00224C
:0158BA0022CB
:05008E0012540380FE86
:10250500460AB80103F1021122480AB0FF03F2029C
:10251500AA55233360270AC6FF03300004010203CE
:1025250004050607080910111213141516171819B2
:1025350020212223242526272829303132CCCC48B6
:102545000ABE0106F099325555AA480B6DFF83F076
:1025550099885555AA420AF355AA420B75000041C0
:032565000AAF00BA
:105403001258BA7FC87E0012571B1236A01252E5FB
:1054130078447C097D017B017A0A79ED7E007F0661
:1054230012203D125863C2CAC2CB12587D1258AD26
:0654330012000302588D77
:0358B6000258A1F4
:104A9B009008847406F0A37403F0A314F0A314F02D
:104AAB00E4A3F0A3F0900AAFE0B408005041904AA1
:104ABB00C0F8282873024AD8024AEB024ADD024AA0
:104ACB00EB024AEB024AEB024AEB024AF212412D8D
:104ADB00800ED2C4123E8C900AAFE004F0C2C42206
:0F4AEB00900AAFE004F0221258A7E4900AAFF04F
:014AFA002299
:1045640002008EE493A3F8E493A34003F68001F2DF
:1045740008DFF48029E493A3F85407240CC8C33358
:10458400C4540F4420C8834004F456800146F6DF27
:10459400E4800B010204081020408090227CE47E19
:1045A400019360BCA3FF543F30E509541FFEE4931C
:1045B400A360010ECF54C025E060A840B8E493A3E3
:1045C400FAE493A3F8E493A3C8C582C8CAC583CA0E
:1045D400F0A3C8C582C8CAC583CADFE9DEE780BEC6
:012568000072
:101F6D00E709F608DFFA8046E709F208DFFA803E56
:101F7D0088828C83E709F0A3DFFA8032E309F60843
:101F8D00DFFA8078E309F208DFFA807088828C83AB
:101F9D00E309F0A3DFFA806489828A83E0A3F6085F
:101FAD00DFFA805889828A83E0A3F208DFFA804C39
:101FBD0080D280FA80C680D4806980F28033801010
:101FCD0080A680EA809A80A880DA80E280CA803379
:101FDD0089828A83ECFAE493A3C8C582C8CCC583F1
:101FED00CCF0A3C8C582C8CCC583CCDFE9DEE780C1
:101FFD000D89828A83E493A3F608DFF9ECFAA9F040
:10200D00EDFB2289828A83ECFAE0A3C8C582C8CC95
:10201D00C583CCF0A3C8C582C8CCC583CCDFEADEAE
:10202D00E880DB89828A83E493A3F208DFF980CC10
:10203D0088F0EF60010E4E60C388F0ED2402B40409
:10204D000050B9F582EB2402B4040050AF232345B0
:06205D008223901FBD73F9
:10206300BB010689828A83E0225002E722BBFE027B
:09207300E32289828A83E49322AE
:10207C00BB010CE58229F582E5833AF583E0225019
:10208C0006E92582F8E622BBFE06E92582F8E22263
:0D209C00E58229F582E5833AF583E493227D
:1020A900BB010FF8E58229F582E5833AF583E0283B
:1020B900F0225009C58229F8E58226F622BBFE09DD
:1020C900C58229F8E22582F222F8EA2583F583E917
:0320D90093282227
:1020DC00BB010689828A83F0225002F722BBFE01E3
:0220EC00F322DD
:1020EE00F8BB010DE58229F582E5833AF583E8F028
:1020FE00225006E92582C8F622BBFE05E92582C8D4
:02210E00F222BB
:10211000BC000BBE0029EF8DF084FFADF022E4CCB3
:10212000F875F008EF2FFFEE33FEEC33FCEE9DEC7C
:10213000984005FCEE9DFE0FD5F0E9E4CEFD22EDC2
:10214000F8F5F0EE8420D21CFEADF075F008EF2F0C
:10215000FFED33FD4007985006D5F0F222C398FDFD
:052160000FD5F0EA229A
:10216500C5F0F8A3E028F0C5F0F8E5821582700205
:062175001583E038F022A2
:10217B00A3F8E0C5F025F0F0E58215827002158317
:06218B00E0C838F0E82274
:1021910075F008758200EF2FFFEE33FECD33CDCC05
:1021A10033CCC58233C5829BED9AEC99E582984088
:1021B1000CF582EE9BFEED9AFDEC99FC0FD5F0D665
:1021C100E4CEFBE4CDFAE4CCF9A88222B800C1B98F
:1021D1000059BA002DEC8BF084CFCECDFCE5F0CBCD
:1021E100F97818EF2FFFEE33FEED33FDEC33FCEB06
:1021F10033FB10D703994004EB99FB0FD8E5E4F9C1
:10220100FA227818EF2FFFEE33FEED33FDEC33FCAD
:10221100C933C910D7059BE99A4007EC9BFCE99AA1
:10222100F90FD8E0E4C9FAE4CCFB2275F010EF2FE6
:10223100FFEE33FEED33FDCC33CCC833C810D707E6
:102241009BEC9AE899400AED9BFDEC9AFCE899F821
