:1000A60000001F11111111FF111111111F00000085
:1000B6000000F810101010FE11111111F9010F00B7
:1000C60008080BFF0908007F4040407F0000000041
:1000D60020C000FF00C106F8000000FC02021E005E
:1000E60000000F090909093F09090909090F00005C
:1000F6000000F020202020FE2222222222F20C00E4
:10010600000404053F0504041F1010101F00000022
:1001160000306080FE02C24CF0000000FE020604C1
:10012600000202423300003F2425244444C5460011
:1001360000000204F8041AE20A12A242A2120A02FB
:100146000000007F40404F4848484F40407F000035
:10015600000000FE0404E4242424E40404FE000059
:100166002021273A2223040817E424272C340700E9
:100176004080FE0808FC0106F89090FC9291FE0073
:10018600083022222222A2632222222222283000A2
:1001960001020478040202FE222222222202020026
:1001A600020242330000000000FF000000000000D1
:1001B600000000FC09120418E000E0180402010027
:1001C6000000003F2424272424444444C54600005C
:1001D60000020CF1010202C4281028448202010127
:1001E60000004040434040407F4141414141400082
:1001F60000020202FE020202FE02020202020202E3
:10020600001F10103053921212131010101F00000E
:1002160000FF000000F8101010F8000201FE0000B8
:1002260000040C35C60C003F24A4642424243C009E
:100236000044E644484A1CE0FF90FE90FC91FF0013
:100246002021273A222300404F4141417F010100EE
:100256004080FE0808FC0010101010121102FC006D
:10026600010179494949790701794D4B49790100DD
:1002760010102F2949498F00804F4929291F100046
:100286000202423300044444454644444404000008
:10029600000204F8042272A2222222A26232020082
:1002A60000081123CC00024242424342424202006D
:1002B600408000FF000000000201FE000000000078
:1002C600094A2C08FF082C4A010EF110101F1000D5
:1002D60041596AC6444A71000102CC30CC02010081
:1002E60020202223F22222232424F42D242020005D
:1002F60002222424A830207F2030A82424220200B1
:1003060000001F925232121F123252921F0000003A
:100316000808C848484848FF48484848C8080800E8
:1003260000020C88690909896909091928C80A0C93
:1003360000202020202022217E60A02020202020B6
:10034600000040404048444340404040407F000059
:1003560000001018102020204040828102FC00007E
:100366000000001F113151911111111F00000000F2
:10037600000000FF22222222222222FF000000008B
:10038600022223222222020808FF0808080F000082
:10039600083CC808281D020C7080020102FC0000FF
:1003A600014141417F41414141417F41414101007C
:1003B6000001020CF00000000000FF000000000039
:1003C600000008886808080F080828C80800000008
:1003D600818182828488B0C0B088848282818100D3
:1003E600000003020202FE12121212131010000085
:1003F6000102EC2020282620282620E008070000FD
:1004060001061FE000202E2AAA6A2A2A2E200000B2
:100416000000FF00C080A0A2A1BEA0A0A080C000D6
:100426000000000F000000FF0202020202000000AE
:10043600020202FE020202FE0202020202020200A0
:10044600001F80600000404040404040407F000068
:1004560000FF0000000000000000000201FE000096
:1004660000000F1F10161F0F0000E0F0D010F0E084
:100476000004040C1F1F000000000000F0F0000044
:10048600000C1C10111F0E00003070D090101000D0
:10049600000C1C11111F0E000060701010F0E0001F
:1004A60000001F1F0007070000C0C04040F0F040DA
:1004B600001F1F11111110000010101030E0C000B5
:1004C6000003071E1A13010000E0F01010F0E00010
:1004D60000101011171E1800000070F080000000B8
:1004E600000E1F13111F0E0000E0F01090F0E00048
:1004F600000F1F10101F0F00000090B0F0C080000A
:1005060000000000000000000000D8D80000000035
:100516000000000000000000000000303030000045
:1005260000070F18180F070000F0F08080F0F000A9
:10053600001F1F01011F1F0000F0F00000F0F00077
:100546000000101F1F100000000010F0F010000047
:10055600001F1F111111100000F0F0000000000034
:100566000004040405070600003070D09010100047
:1005760000000000030301010101011F1F01010129
:10058600010303010000000000000000FFFF11113D
:10059600111111FFFF11111111FFFF0000010000E1
:1005A60000000000C0C00000000000F8FC0C0C0CAD
:1005B6000C8C8C0C1CFC180000000000001F0F00A7
:1005C600010101000F0F0404040F0F0400000000D6
:1005D6000080838EFCFFFF90888E8C00FFFF00005A
:1005E60000FFFF00000003004080000000FCFC004C
:1005F60004081060C000000000F8F8181838F81059
:1006060000000001010101010111191D0F01010185
:1006160001010103070303000000000000000000C1
:100626000007FFFC90101010103F3F100000000064
:100636000000000404081830E0C0801010080C0CFC
:100646003CF8E00000000000000000030101010189
:10065600071D191101010101010101030301000038
:10066600000000FFFF00007F3F212121217F3F2066
:10067600000000FFFF000000000000FCFC0000C0BE
:10068600C00000000080800008080CFCF800000094
:100696000004040404040404040407070404040412
:1006A6000404040C0C04000000000000000000001C
:1006B6000000FFFF202010181C0E0F000000000095
:1006C60000000000000000000000FCFC000000002C
:1006D60000000000000000000000000F0F08080BDB
:1006E6000E0C040F0F0808080808080F0F0000007A
:1006F600000000FFFF01E1B11F0F00FFFF90909E79
:10070600939091FBF6060000000000FCFC00808040
:10071600800008FCF8181020A0C0603038181000BF
:10072600000000000001071E0C0800000010180E53
:1007360006000000010100000004081060FF7F4071
:100746000080B09E87818080809FFEF0A080800020
:100756000000000000FCFC0808080808C8C80808D3
:10076600F8880808183818080000000000080E0766
:100776000300100C0F070000031E0C080000000009
:1007860000081939F141515151515151575355D919
:1007960059715951E3E763010000000000000000B1
:1007A6000008080CFCF80000000000000000000033
:1007B6000000000004040404040404040404040403
:1007C60004040F0F04000000000000000101018175
:1007D60083C3F372260404040808FFFF0000000028
:1007E6000000000080C0808000000000101010187B
:1007F6001C38F8F0000000000000000000000000B7
:1008060000001F0F0F08000000000000000000009D
:1008160000000000000000000000FFFFFF20202075
:10082600202060E06020000000080808080808088A
:100836000808F8F8F808080808080818381808001A
:10084600000404040405070604040C1C0C04031F1E
:100856001C0800000003010000223272F2A23F3F92
:10086600A2E266760A70FC87818FFFF8C0808080DE
:10087600001018181810F0F020242428081030E072
:10088600E0F038381C080808000002040404070FCA
:100896000C18080000030301001F1F0000000000E1
:1008A600004040434E7CFFFF50C8CEC420199D81B6
:1008B60001FFFF0206060600004080000000FCFC67
:1008C600008080808000000000FCFC00000000002A
:1008D60000000000001F0F000101010101011F1FA0
:1008E6000101010303030000008486868CFFFF9844
:1008F6009090B0181711F0F011173E381000000054
:10090600000008080CFCF8000404080810F0E0E0F9
:10091600B038181C1C080000000000000000000091
:1009260000000000000000000000000000000000C1
:1009360000000000000000000000000000000000B1
:1009460000000000000000000000000000000000A1
:100956000000000000000000000000000000000091
:10096600000000000000080C0707000001061C1824
:1009760000030101000000000000088888888888BC
:10098600888BFFFC8E898888888898B8980800002C
:10099600000004040808103060C080000080C070A9
:1009A60030181C1808080000000000000302201C74
:1009B6001C000008080808080808081F0F000000A7
:1009C60000000000FF000000000000000000000022
:1009D600000000FFFF00000000000000FE00000015
:1009E6000000000000000008080406FCF8000000F3
:1009F6000004040404050F0E0400020202060407A4
:100A06000F0C1808080000000000143BF0D0113F3E
:100A16003C1000FF7F4000FFFF20206063210000A4
:100A2600000004089060E0B0181818989888888C20
:100A36008C8C8C8C8C9890100000000703020202AC
:100A4600070702000000000000001F1F1001010040
:100A5600000000FFFF101010FFFF0080908F8E80B7
:100A66008080FFFF80808080000000F8F8404040D2
:100A7600F0F0000000000008080CFCFC000000007C
:100A8600000000000F0F080A0908080F0F08080BDE
:100A96000B0A0F0F0400000000000004FCFC1414F5
:100AA600D4D414FFFF54D4941414FCFC05010000A4
:100AB60000808C8C9CE08080C0BC9C80C0A0BC98D0
:100AC60080C0A0B09C9C8080000000000404040547
:100AD60007070404040404040F0F080000000000C4
:100AE60000000000000008FCFC0808080808087957
:100AF600F98808081F1F0800000080808080808019
:100B060080808080888884848686067CF8800000C1
:100B160000000202020202020203031F1F12030266
:100B26000202020606060200000C0C1414273F5FA0
:100B3600C58C8CFCF40487FF7F6765343C2C24004D
:100B460008101060C080FCFC00C8E81020C080FCC3
:100B5600FC00C060303010100000000007070202E1
:100B66000202020303020202020203070702000056
:100B760000000000FFFF0808080808FFFF08080833
:100B86000808FFFFFF00000000000000FCFC10103A
:100B9600101010F0F01010101010FCFCF8000000FF
:0448B9007D017F01FD
:0848BD00900886EFF0A3EDF076
:1048C500A37401F0900888E0FFC39419503C900848
:1048D50087E06015EF75F008A424F9FF900886E0DD
:1048E500FD7BFF7A3579D68016900888E075F0084B
:1048F500A424F9FF900886E0FD7BFF7A3579DE1266
:0A4905004E1E900888E004F080BA0E
:01490F002285
:0553F100900886EFF0BA
:1053F600A37401F0900887E0FDC3940D5012900845
:1054060086E0FF7BFF1254D5900887E004F080E425
:015416002273
:043A4A007D037F0178
:103A4E00900887EDF0900886EFF064017073A3E0A4
:103A5E0014601324FE602A146042240270637BFFFC
:103A6E007A0179C680067BFF7A0179E690088D741B
:103A7E0007F07D0B7F01122BD07BFF7A0279068037
:103A8E00347BFF7A01792690088D7407F07D0B7FC9
:103A9E0001122BD07BFF7A01794680197BFF7A03C6
:103AAE00792690088D7407F07D0B7F01122BD07B49
:103ABE00FF7A03794690088D740BF0FD7F11122B5F
:103ACE00D0900886E064027049A3E024FA601E04D8
:103ADE0070407BFF7A01796690088D7407F07D0B3C
:103AEE007FA1122BD07BFF7A0179A680197BFF7AFA
:103AFE000279E690088D7407F07D0B7FA1122BD012
:103B0E007BFF7A03790690088D740BF0FD7FB1125E
:033B1E002BD02287
:1051BC00E4FE75F010EFA42EF582E435F0F583E5EE
:1051CC00822466F582E5833404F583E493FD7498B8
:0F51DC002EF582E4340BF583EDF00EEEB410D314
:0151EB0022A1
:05276200900886EFF075
:10276700900A9CE004F0E0D394054002E4F0900A5C
:102777009CE0640160030229B290088DF07B03FDA1
:10278700FF12544590088F7401F0A3740AF0A374E4
:1027970035F0A37401F0A37409F0A374BDF0A3741A
:1027A70001F0A37409F0A374BCF07B017A0A799D48
:1027B7007D307F09124DD512553C900A34E07003E5
:1027C7000229B8900A35E0FE900A9DE07C002400BB
:1027D700FFEC3EFE900B7FF0A3EFF0FBAA06D3942D
:1027E70010EA9427401B7C277D1012206AA3EFF084
:1027F7007C277D10AF03AE0212206AAA04AB0580C6
:1028070005E4900B81F0D3EB94E8EA940340217C34
:10281700037DE8AF03AE0212206A900B82EFF07CD3
:10282700037DE8AF03AE0212206AAA04AB05800558
:10283700E4900B82F0D3EB9464EA940040217C008F
:102847007D64AF03AE0212206A900B83EFF07C0029
:102857007D64AF03AE0212206AAA04AB058005E4CB
:10286700900B83F0D3EB940AEA940040217C007D1F
:102877000AAF03AE0212206A900B84EFF07C007D52
:102887000AAF03AE0212206AAA04AB058005E490E2
:102897000B84F0900B85EBF0900B81E0FF1251BC9D
:1028A700900886E0B4010F7B017A0B799890088F26
:1028B7007401F0FD8014900886E0B402127B017A5F
:1028C7000B7998E490088FF07D027F391229B9902F
:1028D7000B82E0FF1251BC900886E0B4010F7B0128
:1028E7007A0B799890088F7401F0FD801490088610
:1028F700E0B402127B017A0B7998E490088FF07D9F
:10290700027F411229B9900B83E0FF1251BC900856
:1029170086E0B4010F7B017A0B799890088F7401D8
:10292700F0FD8014900886E0B402127B017A0B79DF
:1029370098E490088FF07D027F491229B9900B84A3
:10294700E0FF1251BC900886E0B4010F7B017A0BBF
:10295700799890088F7401F0FD8014900886E0B490
:1029670002127B017A0B7998E490088FF07D027F41
:10297700511229B9900B85E0FF1251BC900886E0EF
:10298700B4010F7B017A0B799890088F7401F0FDE1
:102997008014900886E0B402187B017A0B7998E4DA
:1029A70090088FF07D027F590229B9900A9CE014A4
:0129B700F02F
:0129B80022FC
:1017B400900A9CE004F0E064056003021B53900867
:1017C4008DF07B03FDFF12544590088F7401F0A344
:1017D400740AF0A37435F0A37401F0A37409F0A3A0
:1017E40074BDF0A37401F0A37409F0A374BCF07B7E
:1017F400017A0A799D7D307F07124DD512553C90B0
:101804000A34E07003021B59900A35E0FE900A9DE9
:10181400E07C002400FFEC3EFE900B8AF0A3EFF086
:10182400900B8DE02FFF900B8CE03EFEE4FD9008C2
:10183400861221CA7F407E427D0F7C00900886E09C
:10184400F8A3E0F9A3E0FAA3E0FBD31221B94047DF
:101854007B407A42790F7800900886E0FCA3E0FD93
:10186400A3E0FEA3E0FF122127900B8EEFF0900877
:1018740086E0FCA3E0FDA3E0FEA3E0FF7B407A4208
:10188400790F7800122127AC00AD01AE02AF0390AE
:1018940008861221CA8005E4900B8EF07FA07E8614
:1018A4007D017C00900886E0F8A3E0F9A3E0FAA3A8
:1018B400E0FBD31221B940477BA07A8679017800F6
:1018C400900886E0FCA3E0FDA3E0FEA3E0FF122164
:1018D40027900B8FEFF0900886E0FCA3E0FDA3E0D7
:1018E400FEA3E0FF7BA07A8679017800122127AC61
:1018F40000AD01AE02AF039008861221CA8005E450
:10190400900B8FF0E47F107E27FDFC900886E0F8B2
:10191400A3E0F9A3E0FAA3E0FBD31221B9E4404425
:101924007B107A27F9F8900886E0FCA3E0FDA3E099
:10193400FEA3E0FF122127900B90EFF0900886E0C1
:10194400FCA3E0FDA3E0FEA3E0FFE47B107A27F90B
:10195400F8122127AC00AD01AE02AF039008861245
:1019640021CA8004900B90F0E47FE87E03FDFC9094
:101974000886E0F8A3E0F9A3E0FAA3E0FBD3122180
:10198400B9E440447BE87A03F9F8900886E0FCA3C4
:10199400E0FDA3E0FEA3E0FF122127900B91EFF0FE
:1019A400900886E0FCA3E0FDA3E0FEA3E0FFE47B57
:1019B400E87A03F9F8122127AC00AD01AE02AF03B7
:1019C4009008861221CA8004900B91F0E47F64FE93
:1019D400FDFC900886E0F8A3E0F9A3E0FAA3E0FB9D
:1019E400D31221B9E440427B64FAF9F8900886E006
:1019F400FCA3E0FDA3E0FEA3E0FF122127900B92DD
:101A0400EFF0900886E0FCA3E0FDA3E0FEA3E0FF76
:101A1400E47B64FAF9F8122127AC00AD01AE02AF01
:101A2400039008861221CA8004900B92F0E47F0A86
:101A3400FEFDFC900886E0F8A3E0F9A3E0FAA3E039
:101A4400FBD31221B9E440427B0AFAF9F8900886E4
:101A5400E0FCA3E0FDA3E0FEA3E0FF122127900B2E
:101A640093EFF0900886E0FCA3E0FDA3E0FEA3E082
:101A7400FFE47B0AFAF9F8122127AC00AD01AE02AB
:101A8400AF039008861221CA8004900B93F090084B
:101A940086A3A3A3E0900B94F0900B8EE0FF125169
:101AA400BC7B017A0B7998E490088FF07D037F2941
:101AB4001229B9900B8FE0FF1251BC7B017A0B798C
:101AC40098E490088FF07D037F311229B9900B9030
:101AD400E0FF1251BC7B017A0B7998E490088FF0F7
:101AE4007D037F391229B9900B91E0FF1251BC7B21
:101AF400017A0B7998E490088FF07D037F411229D5
:101B0400B9900B92E0FF1251BC7B017A0B7998E4F7
:101B140090088FF07D037F491229B9900B93E0FF61
:101B24001251BC7B017A0B7998E490088FF07D0305
:101B34007F511229B9900B94E0FF1251BC7B017ABA
:101B44000B7998E490088FF07D037F590229B990AE
:051B54000A9CE014F002
:011B59002269
:10439200900A9CE004F0E06404707A90088DF07B4F
:1043A20003FDFF12544590088F7401F0A3740AF0C4
:1043B200A37435F0A37401F0A37409F0A374BDF0E3
:1043C200A37401F0A37409F0A374BCF07B017A0A10
:1043D200799D7D307F06124DD512553C900A34E00E
:1043E2006039900A35E0FE900A9DE07C002400FFCF
:1043F200EC3EFEE4FD900B861221CA900B8CE0FE8F
:10440200A3E07810C333CE33CED8F9FFE4FCFD909D
:0C4412000B860221CA900A9CE014F022E4
:102FA700900A9CE004F0E064026003023156900846
:102FB7008DF07B03FDFF12544590088F7401F0A339
:102FC700740AF0A37435F0A37401F0A37409F0A395
:102FD70074BDF0A37401F0A37409F0A374BCF07B73
:102FE700017A0A799D7D30E4FF124DD512553C9048
:102FF7000A34E0700302315C900A35E0FE900A9DC6
:10300700E07C002400FFEC3EFE900B71F0A3EFF094
:10301700FBAA06D39410EA9427401B7C277D101245
:10302700206AA3EFF07C277D10AF03AE0212206A5F
:10303700AA04AB058005E4900B73F0D3EB94E8EAA0
:10304700940340217C037DE8AF03AE0212206A900F
:103057000B74EFF07C037DE8AF03AE0212206AAA7F
:1030670004AB058005E4900B74F0D3EB9464EA9409
:103077000040217C007D64AF03AE0212206A900BF2
:1030870075EFF07C007D64AF03AE0212206AAA04DC
:10309700AB058005E4900B75F0D3EB940AEA940036
:1030A70040217C007D0AAF03AE0212206A900B76A6
:1030B700EFF07C007D0AAF03AE0212206AAA04ABD0
:1030C700058005E4900B76F0900B77EBF0900B738F
:1030D700E0FF1251BC7B017A0B799890088F74013D
:1030E700F0FD7F811229B9900B74E0FF1251BC7B70
:1030F700017A0B799890088F7401F0FD7F89122966
:10310700B9900B75E0FF1251BC7B017A0B7998904F
:10311700088F7401F0FD7F911229B9900B76E0FFBB
:103127001251BC7B017A0B799890088F7401F0FDDE
:103137007FA11229B9900B77E0FF1251BC7B017A6E
:103147000B799890088F7401F0FD7FA90229B99037
:053157000A9CE014F0E9
:01315C002250
:102DE700900A9CE004F0E064036003022FA09008BF
:102DF7008DF07B03FDFF12544590088F7401F0A3FB
:102E0700740AF0A37435F0A37401F0A37409F0A356
:102E170074BDF0A37401F0A37409F0A374BCF07B34
:102E2700017A0A799D7D307F05124DD512553C9068
:102E37000A34E07003022FA6900A35E0FE900A9D3F
:102E4700E07C002400FFEC3E900B78F0A3EFF090BD
:102E57000B71E0FEA3E0FBAA06D39410EA94274087
:102E67001F7C277D10AF0312206A900B7AEFF07C4E
:102E7700277D10AF03AE0212206AAA04AB058005B6
:102E8700E4900B7AF0D3EB94E8EA940340217C03B7
:102E97007DE8AF03AE0212206A900B7BEFF07C0354
:102EA7007DE8AF03AE0212206AAA04AB058005E4F1
:102EB700900B7BF0D3EB9464EA940040217C007D77
:102EC70064AF03AE0212206A900B7CEFF07C007DAA
:102ED70064AF03AE0212206AAA04AB058005E49032
:102EE7000B7CF0D3EB940AEA940040217C007D0A26
:102EF700AF03AE0212206A900B7DEFF07C007D0AD3
:102F0700AF03AE0212206AAA04AB058005E4900B5A
:102F17007DF0900B7EEBF0900B7AE0FF1251BC7BBB
:102F2700017A0B7998E490088FF07D037F8112294D
:102F3700B9900B7BE0FF1251BC7B017A0B7998E4C7
:102F470090088FF07D037F891229B9900B7CE0FFF1
:102F57001251BC7B017A0B7998E490088FF07D03BE
:102F67007F911229B9900B7DE0FF1251BC7B017A4A
:102F77000B7998E490088FF07D037FA11229B9900F
:102F87000B7EE0FF1251BC7B017A0B7998E4900825
:0F2F97008FF07D037FA90229B9900A9CE014F006
:012FA6002208
:103D6200900A9CE004F0E064066003023E059008BD
:103D72008DF07B03FDFF12544590088F7401F0A370
:103D8200740AF0A37435F0A37401F0A37409F0A3CC
:103D920074BDF0A37401F0A37409F0A374BCF07BAA
:103DA200017A0A799D7D027F21124DD512553C90F0
:103DB2000A34E06054900A9DE070247BFF7A037914
:103DC20066E490088DF07D067F61122BD07BFF7A2E
:103DD200037986E490088DF07D067F71122BD07BEB
:103DE200FF7D067F611254D57BFF7D077F611254F0
:103DF200D57BFF7D087F611254D57BFF7D097F61F2
:093E02000254D5900A9CE014F072
:013E0B002294
:10556600900B95E0B401047D0280027D017F01125B
:035576003A4E2288
:104D8C007BFF7A02792690088D7404F07D027F01F6
:104D9C00122BD07BFF7A027946E490088DF07D02CD
:104DAC007F11122BD07BFF7A027966E490088DF08C
:104DBC007D027F21122BD07BFF7A057906E49008C7
:094DCC008FF07D027F310229B94C
:103EB500124D8C7BFF7A05794690088F7401F0FDD1
:103EC5007F711229B97BFF7A05790690088F7401F5
:103ED500F0FD7F791229B97BFF7A05791690088F55
:103EE5007401F0FD7F991229B97BFF7A057956E4B3
:103EF50090088FF07D037F711229B97BFF7A0579D0
:103F050006E490088FF07D037F791229B97BFF7A4B
:103F1500057916E490088FF07D037F991229B97B06
:103F2500FF7A05792690088F7401F0FD7FB112297B
:103F3500B97BFF7A057936E490088FF07D037FB170
:103F45001229B97BFF7A057966E490088FF07D0325
:053F55007FB90229B94B
:1032B4007BFF7A02792690088D7401F0FDFF122BB2
:1032C400D07BFF7A02794690088D7401F0FD7F115E
:1032D400122BD07BFF7A02796690088D7401F0FD81
:1032E4007F21122BD07BFF7A05790690088F740119
:1032F400F0FD7F311229B97BFF7A027986E49008C8
:103304008DF07D037F01122BD07BFF7A0279A6E436
:1033140090088DF07D037F11122BD07BFF7A057905
:1033240006E490088FF07D037F211229B97BFF7A90
:1033340005794690088F7401F0FD7F711229B97BDD
:10334400FF7A05790690088F7401F0FD7F791229C0
:10335400B97BFF7A05791690088F7401F0FD7F9987
:103364001229B97BFF7A05792690088F7401F0FD44
:103374007FB11229B97BFF7A057956E490088FF062
:103384007D037F711229B97BFF7A057906E49008E1
:103394008FF07D037F791229B97BFF7A057916E4D2
:1033A40090088FF07D037F991229B97BFF7A057904
:1033B40036E490088FF07D037FB11229B97BFF7A40
:0F33C400057966E490088FF07D037FB90229B97F
:104EAB007BFF7A0579767D067C007F317E00125080
:104EBB00AC7BFF7A0579BE7D067C007F497E0012B4
:104ECB0050AC7BFF7A0679067D067C007F617E0005
:104EDB001250AC7BFF7A06794E7D067C007F797E83
:044EEB00000250ACC5
:104EEF007BFF7A0979667D067C007F017E00125078
:104EFF00AC7BFF7A0979AE7D067C007F197E0012AC
:104F0F0050AC7BFF7A0979F67D067C007F317E00FD
:104F1F001250AC7BFF7A0A793E7D067C007F497E7A
:044F2F00000250AC80
:104910007BFF7A0679967D067C007F217E0012500F
:10492000AC7BFF7A0679DE7D067C007F397E001243
:1049300050AC7BFF7A0779267D067C007F517E0094
:104940001250AC7BFF7A07796E7D067C007F697E12
:10495000001250AC7BFF7A0779B67D067C007F8120
:054960007E000250ACD6
:104965007BFF7A0779FE7D067C007F217E00125051
:10497500AC7BFF7A0679DE7D067C007F397E0012EE
:1049850050AC7BFF7A0779267D067C007F517E003F
:104995001250AC7BFF7A07796E7D067C007F697EBD
:1049A500001250AC7BFF7A0779B67D067C007F81CB
:0549B5007E000250AC81
:104F33007BFF7A0879467D067C007F017E00125054
:104F4300AC7BFF7A0579767D067C007F197E0012A3
:104F530050AC7BFF7A08798E7D067C007F317E0022
:104F63001250AC7BFF7A0879D67D067C007F497EA0
:044F7300000250AC3C
:104F77007BFF7A0A79867D067C007F017E001250CE
:104F8700AC7BFF7A0A79CE7D067C007F197E001202
:104F970050AC7BFF7A0B79167D067C007F317E0053
:104FA7001250AC7BFF7A0B795E7D067C007F497ED1
:044FB700000250ACF8
:1050E5001250371248B97D017F051248BDE4FD7F96
:1050F5000C1248BD7F011253F17FC01253F1124DBE
:105105008C7D027F01123A4E7D057F02123A4E12C6
:075115004EAB7F020227628E
:10521B001250371248B97D017F051248BD123EB5B9
:10522B00E4FD7F0C1248BD7F011253F17FC0125376
:0E523B00F1124910123A4A7D057F02023A4EE6
:105249001250371248B97D017F051248BD123EB58B
:10525900E4FD7F0C1248BD7F011253F17FC0125348
:0E526900F1124965123A4A7D057F02023A4E63
:105277001250371248B97D017F051248BD1232B46A
:10528700E4FD7F0C1248BD124EEF7F011253F17FF0
:0E529700C01253F1123A4A7D057F02023A4ED0
:1051EC001248B97D017F051248BD1232B4124F77B7
:1051FC00E4FD7F0C1248BD7F011253F17FC01253A6
:0F520C00F17D047F01123A4E7D067F02023A4E79
:10532A001248B97D017F051248BD123EB5123A4AAC
:10533A007D057F02123A4EE4FD7F0C1248BD7F01C3
:08534A001253F17FC00253F180
:105352001248B97D017F051248BD123EB5123A4A84
:105362007D057F02123A4EE4FD7F0C1248BD7F019B
:085372001253F17FC00253F158
:10537A001248B97D017F051248BD123EB5123A4A5C
:10538A007D057F02123A4EE4FD7F0C1248BD7F0173
:08539A001253F17FC00253F130
:1053A2001248B97D017F051248BD123EB5123A4A34
:1053B2007D057F02123A4EE4FD7F0C1248BD7F014B
:0853C2001253F17FC00253F108
:1049BA00900BF5EFF0A3EDF0125037900BF5E07085
:1049CA0021A3E014600F1460111460132403701201
:1049DA00124EAB800D12521B8008125249800312EC
:1049EA0051EC900BF5E0B4011BA3E014600D1460C8
:1049FA000D14600D2403700C02532A025352025301
:054A0A007A1253A22204
:1021D6004109BF004109BB014109C000410A36005F
:1021E6004109BE00410A3400410A2600410A9C000A
:1021F600410A3206410A27034109BA02410A9F01F0
:082206004109B800410A9E00E5
:10558C00E4900940F0A3F0A3F0A3F0A3F0A3F02261
:1054F000E49009B3F0A3F0A3F0A3F0A3F09009AEF9
:0A550000F0A3F0A3F0A3F0A3F02243
:10549C00900A9B7401F0900A377403F0A3EFF0A309
:0E54AC00EDF0A3EBF0900BF0E0900A3BF02245
:1044AA00900AE8E014602714603514604E24037003
:1044BA00709009BBE0600FE4900AE8F0900B950455
:1044CA00F01250E580447F02122762025566900975
:1044DA00BBE0601C900AE87401F012521B802B901A
:1044EA0009BBE0600B900AE87402F0125249801A84
:1044FA007F02122762122FA7022DE79009BBE06004
:10450A000F900AE87403F0125277E49009BBF02284
:10451A007F01122762122FA7122DE71217B4024346
:07452A0092E4900AE8F02280
:1052A5009009BBE06013900AE87404F01251ECE435
:1052B5009009BBF0900A9CF0227F01122762122F01
:0E52C500A7122DE71217B4124392123D622277
:01000A0022D3
:01008A002253
:1024C300A290B3E4339009AEF09009B3E0701A9090
:1024D30009AEE0B4010CE4900AA1F09009B304F052
:1024E3008028E49009B3F080219009AEE070119048
:1024F30009B3F0900AA1E0B40110123CA8E48006ED
:102503009009B37401F0900AA1F0A287B3E4339069
:1025130009AFF09009B4E0701A9009AFE0B4010C70
:10252300E4900AA4F09009B404F08028E49009B47C
:10253300F080219009AFE070119009B4F0900AA4E3
:10254300E0B4011012472DE480069009B47401F041
:10255300900AA4F0A284B3E4339009B0F09009B5D3
:10256300E0701C9009B0E0B4010DE4900AA7F0906C
:1025730009B504F0022604E49009B5F0022604909C
:1025830009B0E070169009B5F0900AA7E0640170F5
:1025930070124AB9E4900AA7F080669009B57401F5
:1025A300F0900AA7F0900AE8E0640270549009C022
:1025B300E004F0E0640A7049900A35F0900A9D0443
:1025C300F09009BD7406F0E49009BCF07B0190081B
:1025D3008B04F0A3740AF0A37435F0A3EBF0A37497
:1025E30009F0A374BDF0A3EBF0A37409F0A374BCCA
:1025F300F07A0A799D7D207F0112426FE49009C031
:10260300F0A285B3E4339009B1F09009B6E0701CF1
:102613009009B1E0B4010DE49009A9F09009B60462
:10262300F00226B8E49009B6F00226B89009B1E0AA
:1026330070169009B6F09009A9E064017077124B07
:102643000DE49009A9F0806D9009B67401F090092A
:10265300A9F0900AE8E0FF64026005EF6403705597
:102663009009C0E004F0E0640A704A900A35F090E3
:102673000A9D7402F09009BD7406F0E49009BCF061
:102683007B0190088B04F0A3740AF0A37435F0A3C4
:10269300EBF0A37409F0A374BDF0A3EBF0A37409EA
:1026A300F0A374BCF07A0A799D7D207F0112426FFA
:1026B300E49009C0F0A286B3E4339009B2F0900924
:1026C300B7E070189009B2E0B4010BE49009ACF0E4
:1026D3009009B704F022E49009B7F0229009B2E020
:1026E30070159009B7F09009ACE064017070124B5B
:1026F30061E49009ACF0229009B77401F09009AC41
:10270300F0900AE8E0640370559009C0E004F0E03B
:10271300640A704A900A35F0900A9D7403F0900998
:10272300BD7406F0E49009BCF07B0190088B04F0C3
:10273300A3740AF0A37435F0A3EBF0A37409F0A318
:1027430074BDF0A3EBF0A37409F0A374BCF07A0A90
:0F275300799D7D207F0112426FE49009C0F02232
:103CA800900AE7E07034A3E01460231460201460E5
:103CB8001D14601A24047022900B95E0FFB40104CF
:103CC800E4F08016EF7013900B9504F0800C900AC6
:103CD800E8E014F09009BB7401F0900AE7E0640191
:103CE80070427B0190088B04F0A3740AF0A374352A
:103CF800F0A3EBF0A37409F0A374BDF0A3EBF0A359
:103D08007409F0A374BCF07A0A799D7D027F0212CF
:103D1800426FE4900AE7F09009BFF0900AE8F0904B
:103D280009BB04F0900AE7E0B402137401F09009AB
:103D3800BFF0900AE87404F09009BB7401F0900A8F
:103D4800E7E0B403147402F09009BF14F0900AE895
:0A3D58007405F09009BB7401F0221D
:10472D00900AE7E07025A3E004F09009BB7401F056
:10473D00900AE8E0B40414900AE77401F09009BF00
:10474D00F09009BBF0900AE87403F0900AE7E0B42A
:10475D00021AA3E004F0E0B40612900AE77403F025
:10476D009009BB7401F0900AE87405F0900AE7E037
:10477D00B4031AA3E004F0E0B40712900AE774043E
:0E478D00F09009BB7401F0900AE87406F02267
:104AB900900AE8E024FC600280499009BA7402F087
:104AC900E49009B8F0900A327406F0E4A3F07B018F
:104AD90090088B04F0A37409F0A374B8F0A3EBF069
:104AE900A3740AF0A37432F0A3EBF0A3740AF0A341
:104AF9007433F07A0979BA7D20E4FF12426F7F029C
:044B090012463922F5
:104B0D00900AE8E024FC600280499009BA7401F033
:104B1D00E49009B8F0900A327406F0E4A3F07B013A
:104B2D0090088B04F0A37409F0A374B8F0A3EBF014
:104B3D00A3740AF0A37432F0A3EBF0A3740AF0A3EC
:104B4D007433F07A0979BA7D20E4FF12426F7F0148
:044B5D0012463922A1
:104B6100900AE8E024FC600280499009BA7403F0DD
:104B7100E49009B8F0900A327406F0E4A3F07B01E6
:104B810090088B04F0A37409F0A374B8F0A3EBF0C0
:104B9100A3740AF0A37432F0A3EBF0A3740AF0A398
:104BA1007433F07A0979BA7D20E4FF12426F7F03F2
:044BB100124639224D
:10463900900886EFF0BF01247BFF7A047906E490A5
:10464900088DF07D087F61122BD07BFF7A047926D3
:10465900E490088DF07D087F71122BD0900886E0D8
:10466900B402247BFF7A0379A6E490088DF07D08D3
:104679007F61122BD07BFF7A047946E490088DF094
:104689007D087F71122BD0900886E0B403247BFF4C
:104699007A0379C6E490088DF07D087F61122BD0EA
:1046A9007BFF7A047946E490088DF07D087F7112CA
:0346B9002BD022E1
:0655BA00900AE7EFF02269
:08543D0090088DF07B03FDFFD8
:10544500900A35EFF0900A9DEDF09009BDEBF090D4
:08545500088DE09009BCF02273
:10553C009009BCE0D3940A5007900A347401F0220D
:06554C00E4900A34F02295
:103BEA00900BF7EFF0A3EDF0900A34E06003023C8B
:103BFA00A29009BEE0704312543D900BF8E0FF908A
:103C0A000BF7E0FD90088B7401F0A3740AF0A3741B
:103C1A0035F0A37401F0A37409F0A374BDF0A37482
:103C2A0001F0A37409F0A374BCF07B017A0A799DB0
:103C3A0012426F9009BEE004F022900BF8E0FF9068
:103C4A000BF7E0FD90088F7401F0A3740AF0A374D7
:103C5A0035F0A37401F0A37409F0A374BDF0A37442
:103C6A0001F0A37409F0A374BCF07B017A0A799D70
:103C7A00124DD59009BCE0D3940A5008900A3474C6
:103C8A0001F08005E4900A34F09009BEE004F0E007
:0E3C9A00D394084008E4F022E49009BEF02222
:103B2100900A267401F09009BFF0900AE7F0A3749F
:103B310004F07401602F9009BFE0601E900AE7E075
:103B410024FE600C14600E240270171252A580121C
:103B510012000A800D12008A8008E4900AE7F01230
:103B610044AA0224C3E412543D90088F7401F0A3C7
:103B7100740AF0A37435F0A37401F0A37409F0A3DF
:103B810074BDF0A37401F0A37409F0A374BCF07BBD
:103B9100017A0A799D7D307F0D124DD59009BCE0E7
:103BA100D3940A5008900A347401F08005E4900A15
:103BB10034F0900A34E06027900A9DE0B4020C9042
:103BC10009BF7401F0900AE7F0800BE49009BFF09F
:103BD100900AE7F0A3F0900A267401F0E48005E46E
:093BE100900A26F0900A34F0224B
:10220E004202D0A001610002D200C1814001C08013
:10221E004101C0804100C1814001C0804100C181A7
:10222E004000C1814001C0804101C0804100C18198
:10223E004000C1814001C0804100C1814001C08089
:10224E004101C0804100C1814001C0804100C18177
:10225E004000C1814001C0804100C1814001C08069
:10226E004101C0804100C1814000C1814001C08058
:10227E004101C0804100C1814001C0804100C18147
:10228E004000C1814001C0804101C0804100C18138
:10229E004000C1814001C0804100C1814001C08029
:1022AE004101C0804100C1814000C1814001C08018
:1022BE004101C0804100C1814001C0804100C18107
:1022CE004000C1814001C0804100C1814001C080F9
:1022DE004101C0804100C1814001C0804100C181E7
:1022EE004000C1814001C0804101C0804100C181D8
:1022FE004000C1814001C0804100C1814001C080C9
:10230E004101C0804100C18140610003D200C0C1C3
:10231E0001C30302C2C60607C705C5C404CC0C0D13
:10232E00CD0FCFCE0E0ACACB0BC90908C8D81819C3
:10233E00D91BDBDA1A1EDEDF1FDD1D1CDC14D4D523
:10234E0015D71716D6D21213D311D1D010F03031B3
:10235E00F133F3F23236F6F737F53534F43CFCFD53
:10236E003DFF3F3EFEFA3A3BFB39F9F83828E8E9E3
:10237E0029EB2B2AEAEE2E2FEF2DEDEC2CE4242563
:10238E00E527E7E62622E2E323E12120E0A06061D3
:10239E00A163A3A26266A6A767A56564A46CACAD93
:1023AE006DAF6F6EAEAA6A6BAB69A9A86878B8B943
:1023BE0079BB7B7ABABE7E7FBF7DBDBC7CB47475A3
:1023CE00B577B7B67672B2B373B17170B0509091F3
:1023DE00519353529296565797559594549C5C5DD3
:1023EE009D5F9F9E5E5A9A9B5B9959589888484963
:1023FE00894B8B8A4A4E8E8F4F8D4D4C8C448485E3
:10240E00458747468682424383418180406020044F
:10241E00D20000CC01D8011400F0013C002800E4E9
:10242E0001A0016C007800B40150009C01880144A9
:01243E00009D
:103F5A0090090AEBF0A3EAF0A3E9F0A3ECF0A3EDD1
:013F6A00F066
:103F6B0074FF900911F0A3F090090D74FFF5F01296
:103F7B0020D545F0607490090AE0FBA3E475F001CD
:103F8B001220D5A9F0FA121FBDFF900911E0F0A382
:103F9B00E06FF0E490090FF0A3F0C3900910E094E8
:103FAB000890090FE06480948050BD900911E0FEE9
:103FBB00A3E0FF30E019EEC313FEEF13FFEE64A096
:103FCB00FEEF6401FF900911EEF0A3EFF0800B9070
:103FDB000911E0C313F0A3E013F0900910E004F013
:103FEB0070B890090FE004F080B0900911E0FEA3C7
:023FFB00E0FFE5
:013FFD0022A1
:08430200900BE3ECF0A3EDF0D9
:10430A0074FF900BE6F0A3F0ED4C7007900BE3F00E
:10431A00A304F0900BE374FFF5F01220D545F0608A
:10432A005E121FBDFF900BE6E0F0A3E06FF0E49091
:10433A000BE5F0900BE6E0FEA3E0FF30E023EEC3CE
:10434A0013FEEF13FF900BE6EEF0A3EFF09002D00E
:10435A00E0FEA3E0FF900BE6E06EF0A3E06FF080D2
:10436A000B900BE6E0C313F0A3E013F0900BE5E02B
:10437A0004F0E0B408BD740129F9E43AFA80949093
:07438A000BE6E0FEA3E0FFDB
:014391002209
:10486000900BE8EBF0A3EAF0A3E9F0A3ECF0A3EDE2
:01487000F057
:104871007FFF7DFF900BEB74FFF5F01220D545F023
:104881006031900BE8E0FBA3E475F0011220D5A99B
:10489100F0FA121FBD6DFB7A0024D2F582E43402D6
:1048A100F583E06FFD74D22BF582E43403F583E0E8
:0748B100FF80C1EFFEEDFFE7
:0148B80022DD
:1036BE00900BDAEBF0A3EAF0A3E9F0A3ECF0A3EDA4
:0136CE00F00B
:1036CF0074FFA3F0A3F0E4A3F0A3F0900BDDE0FEF2
:1036DF00A3E0FFC3900BE2E09F900BE1E09E40035D
:1036EF0002379A900BDAE0FBA3E475F0011220D5B4
:1036FF00A9F0FA121FBDFDFF900BDFA3E06F540F6F
:10370F0025E0FFE433FE74D22FF58274043EF58377
:10371F00E0FAA3E0FB900BDFE0C4F854F0C868FEBA
:10372F00A3E0C4540F48FFEA6EFEEB6FFF900BDF70
:10373F00EEF0A3EFF0EDC4540FFF900BDFA3E06F9B
:10374F00540F25E0FFE433FE74D22FF58274043E4C
:10375F00F583E0FAA3E0FB900BDFE0C4F854F0C868
:10376F0068FEA3E0C4540F48FFEA6EFEEB6FFF90B4
:10377F000BDFEEF0A3EFF0900BE2E004F06003023A
:10378F0036DA900BE1E004F00236DA900BDFE0FE60
:03379F00A3E0FFA5
:0137A2002204
:0553CA009009A7EDF0C1
:1053CF00E4FFFE9009A7E0FDC3EF9DEE940050119E
:1053DF00E41220360429F9E43AFA0FBF00010E80D7
:0153EF00E2DB
:0153F000229A
:084A0F00E0FBA3E0FAA3E0F9CB
:0B4A1700900939EBF0A3EAF0A3E9F0EE
:104A2200E4FF90093FE0FEEFC39E503590093CE061
:104A3200FBA3E0FAA3E0F9121FBDFE900939E0FBE7
:104A4200A3E0FAA3E0F9EE12203690093AE475F0F9
:104A5200011220BF90093DE475F0011220BF0F80C2
:014A6200C192
:014A63002230
:105524009009A5EFF0E4A3F07B017A0979417D6449
:075534001253CA7A09794104
:01553B00224D
:0B34D5009008F9EBF0A3EAF0A3E9F087
:1034E0007F33A3E0F9A3E0FAA3E0A3C9F0A3EAF0D5
:1034F000A3E9F09008F9E0FBA3E0FAA3E0F990005B
:1035000065121FD6D3940050030235B390093CEBEB
:10351000F0A3EAF0A3E9F0900064121FD690093FEF
:10352000F09008FF124A0F9008F9E0FBA3E0FAA31D
:10353000E0F9900064121FD6FD1253CA9008F9E01A
:10354000FBA3E0FAA3E02401F9E43AFA90093CEB8A
:10355000F0A3EAF0A3E9F09008F9A3E0FAA3E0F9F8
:10356000900065121FD61490093FF0124A17900878
:10357000F9E0FBA3E0FAA3E0F990006574FF1220E4
:1035800003900065121FD67E0029F9EE3AFAC003B7
:10359000C002C0019008F9E0FBA3E0FAA3E0F990B3
:1035A0000064121FD6FDD001D002D0031253CA7F8F
:1035B0001180229008F9E0FBA3E0FAA3E0F9900063
:1035C00064121FD6FD9008FFE0FBA3E0FAA3E0F928
:0535D0001253CA7F3315
:0135D50022D3
:0B41D70090092DEBF0A3EAF0A3E9F043
:1041E2007FAAA3E0F9A3E0FAA3E0A3C9F0A3EAF04F
:1041F200A3E9F090092DE0FBA3E0FAA3E0F9900017
:1042020065121FD6FEFD7C00E92DF9EC3AFA900901
:1042120036EBF0A3EAF0A3E9F090092DA3E0FAA3AC
:10422200E0F9900064121FD6FD8EF0A4FEC3746400
:104232009EC39D4035900933E0F9A3E0FAA3E090D4
:10424200093CC9F0A3EAF0A3E9F0A3EDF090093626
:10425200124A0F90092DE0FBA3E0FAA3E0F99000C7
:0C4262006574011220037F2280027F336C
:01426E00222D
:10243F004606CD0000000000004204F200004204F6
:10244F00F400004204F600004104F8004104F900D2
:0B479B00900905EBF0A3EAF0A3E9F0A1
:1047A600E4FFA3F0900905E0FBA3E0FAA3E0F9908B
:1047B6000030121FD6900909F0E024FEFDE434FF14
:1047C600FC123F5AEF900908F0EEFFA3E0FE24FF2B
:1047D600FDE434FFFC900905E0FBA3E0FAA3E0F951
:1047E6008D828C83EF122048900908E0FFEE7C0052
:0D47F60024FEF582EC34FFF583EF0220482D
:0B4531009008FBEBF0A3EAF0A3E9F018
:10453C00E4A3F09008FBE0FBA3E0FAA3E0F9900001
:10454C0030121FD6FF9008FFF0E4A3F0EF24FEFD1D
:10455C00E434FFFC123F5AEF9008FEF0EEFFA3E0AC
:10456C00FE24FEFDE434FFFC9008FBE0FBA3E0FA24
:10457C00A3E0F98D828C83121FD6FD9008FEE0B566
:10458C00051AEE7C0024FFF582EC34FFF583121F34
:10459C00D6B507089009007401F08005E490090075
:0845AC00F0900900E0FF7E0021
:0145B40022E4
:0B1B5A009008EDEBF0A3EAF0A3E9F027
:101B6500E4A3F0A3F0A3F0A3F0A3F09008F8F0909D
:101B750008F0F09008F0E0FFC394024003021EC194
:101B8500EF75F003A424CDF582E43406F583E0D3A4
:101B950094005003021EA99008F87401F09008F112
:101BA500E0FF9008F0E075F003A424CDF582E4345D
:101BB50006F583E5822FF582E43583F583E070032E
:101BC500021CD0EF75F032A4FF9008EDE0FBA3E016
:101BD500FAA3E02FF9EA35F0FA7D321253CA9008DC
:101BE500F1E0FF9008F0E075F003A424CDF582E460
:101BF5003406F583E5822FF582E43583F583E0909D
:101C050008F4F0E49008F2F09008F4E0FF9008F290
:101C1500E0C39F50699008F1E075F032A4FF900889
:101C2500EDE0FBA3E0FAA3E02FF9EA35F0FA90081E
:101C3500F2E07E0029F9EE3AFA9008F5EBF0A3EA16
:101C4500F0A3E9F09008F0E075F066A424D3F974E8
:101C55000635F0FA7B01C002C0019008F5E0F9A352
:101C6500E0FAA3E09008FCC9F0A3EAF0A3E9F0D0FC
:101C750001D0021234D59008F2E004F0808A900871
:101C8500F1E0FF9008F0E075F003A424CDF582E4BF
:101C95003406F583E5822FF582E43583F583E4F098
:101CA5009008F2E0FDEF75F032A4FF9008EDE0FB3F
:101CB500A3E0FAA3E02FF9EA35F0FA900030ED122F
:101CC50020489008F1E004F0021BA29008F1E0FF23
:101CD5009008EDE0FBA3E0FAA3E0F9900096EF127F
:101CE5002048E49008F3F09008EDE0FBA3E0FAA3A8
:101CF500E0F9900096121FD6FF9008F3E0FEC39F0F
:101D05004003021EAEEE75F032A4FFE92FF9EA3565
:101D1500F0FA900001121FD624FA7003021DBA24AE
:101D2500F67003021E78248D7003021E3824FD70A0
:101D350003021E5824836003021E9B9008EDE0FBFE
:101D4500A3E0FAA3E0F99008F3E0FF75F032A4F5FB
:101D55008285F083121FD6FE9004FAE0B5061AEFCD
:101D650075F032A4FF9008EDA3A3E02FF9EA35F052
:101D7500FA9000317401021E969008F3E075F03276
:101D8500A4FF9008EDE0FBA3E0FAA3E02FF9EA3504
:101D9500F0FA900030121FD6FFB408089000317495
:101DA50002021E96EFD394085003021EA090003144
:101DB5007404021E969008EDE0FBA3E0FAA3E0F997
:101DC5009008F3E0FF75F032A4F58285F083121FC9
:101DD500D6FE9004FAE0B5061AEF75F032A4FF902E
:101DE50008EDA3A3E02FF9EA35F0FA900031740667
:101DF500021E969008EDE0FBA3E0FAA3E0F9900837
:101E0500F3E0FF75F032A4F58285F083121FD6FE4C
:101E15009004FBE06E6003021EA0EF75F032A4FF94
:101E25009008EDA3A3E02FF9EA35F0FA900031749C
:101E350007805E9008F3E075F032A4FF9008EDE0AE
:101E4500FBA3E0FAA3E02FF9EA35F0FA900031742C
:101E550005803E9008F3E075F032A4FF9008EDE0B0
:101E6500FBA3E0FAA3E02FF9EA35F0FA900031740C
:101E750008801E9008F3E075F032A4FF9008EDE0AD
:101E8500FBA3E0FAA3E02FF9EA35F0FA90003174EC
:101E9500091220488005E49008F8F09008F3E00462
:101EA500F0021CECE49008F8F09008EEE475F09769
:101EB5001220BF9008F0E004F0021B789008F8E0CB
:011EC500FF1D
:011EC60022F9
:0E000E009008F9EBF0A3EAF0A3E9F0A3EDF0FF
:10001C00E4A3F0F9A3C9F0A3F0A3E9F09008F9E088
:10002C00F9A3E0FAA3E09008FEC9F0A3EAF0A3E973
:10003C00F0E49008FDF09008F9E0FBA3E0FAA3E0EF
:10004C00F9900030121FD6FF9008FDE0C39F50239B
:10005C00A3E0FBA3E0FAA3E0F99008FCE0FD124B4F
:10006C00B59008FFE475F0011220BF9008FDE00484
:03007C00F080C34E
:01007F00225E
:104CF5009008EDEBF0A3EAF0A3E9F0A3EDF0701A4C
:104D05009008EDE0FBA3E0FAA3E0F9121FBDFF90C8
:104D150004FAE0B507047D01801F9008F0E0B401B6
:104D25001B9008EDE0FBA3E0FAA3E0F9121FBDFF1D
:0D4D35009004FAE0B50705E4FD12000E221F
:0B1304009008EDEBF0A3EAF0A3E9F085
:10130F00E49008F3F09008FAF0121FBDFF9004FB71
:10131F00E06F60030217B39008EDE0FBA3E0FAA3C0
:10132F00E0F9124531EF4E70030217B39008EDE06C
:10133F00FBA3E0FAA3E0F9900031121FD624FC7052
:10134F000302147C1470030216AC24FE7003021601
:10135F000514700302172F240660030217B39008B9
:10136F00F0E0FBA3E0FAA3E0F97403122036900833
:10137F00EDE0FBA3E0FAA3E0F9900002121FD6FF05
:10138F009008F0E0FBA3E0FAA3E0F9900001EF1260
:10139F0020489008EDE0FBA3E0FAA3E0F9900003EA
:1013AF00121FD6FF9008F0E0FBA3E0FAA3E0F9903C
:1013BF000002EF1220489008EDE0FBA3E0FAA3E053
:1013CF00F9900004121FD6FF9008F0E0FBA3E0FA9B
:1013DF00A3E0F9900003EF1220489008EDE0FBA383
:1013EF00E0FAA3E0F9900005121FD6FF9008F0E095
:1013FF00FBA3E0FAA3E0F9900004EF12204890005D
:10140F00647401122048E92403F9E43AFA9008F4CD
:10141F00EBF0A3EAF0A3E9F09008F0E0FBA3E0FA09
:10142F00A3E02404F9E43AFA9008F7EBF0A3EAF00A
:10143F00A3E9F09008F0A3E0FAA3E0F990000112FD
:10144F001FD6FF900002121FD6FD9008F7E0F9A3F8
:10145F00E0FAA3E0900900C9F0A3EAF0A3E9F09045
:10146F0008F4E0FBA3E0FAA3E0F902413D90050484
:10147F00E0640360030217B39008EDE0FBA3E0FA0A
:10148F00A3E0F9900030121FD624FCFFE434FFC311
:10149F0013EF13FF9008FAF09008F0E0FBA3E0FAC7
:1014AF00A3E0F9900064EF122048E49008F3F09065
:1014BF0008FAE0FF9008F3E0C39F40030217B390D0
:1014CF0008F0E0FBA3E0FAA3E0F9A3E0FF75F00555
:1014DF00A4F58285F0837403122048900505E0FD82
:1014EF00EF75F005A429F9EA35F0FA900001ED1235
:1014FF0020489008F3E0FF900506E02F90000212BD
:10150F0020489008EDE0FBA3E0FAA3E02403F9E400
:10151F003AFA75F002EFA4F58285F083121FD6FD1B
:10152F00EF75F005A4FF9008F0E0FBA3E0FAA3E04D
:10153F002FF9EA35F0FA900003ED1220489008EDEC
:10154F00E0FBA3E0FAA3E0F99008F3E0FF75F002E7
:10155F00A42404F582E435F0F583121FD6FDEF7550
:10156F00F005A4FFAEF09008F0E0FBA3E0FAA3E0D3
:10157F002FF9EA3EFA900004ED122048E92403F90E
:10158F00E43AFA9008F4EBF0A3EAF0A3E9F090083C
:10159F00F0E0FBA3E0FAA3E02FF9EA3EFAE9240416
:1015AF00F9E43AFA9008F7EBF0A3EAF0A3E9F09028
:1015BF0008F0A3E0FAA3E02FF9EA3EFA9000011237
:1015CF001FD6FF900002121FD6FD9008F7E0F9A377
:1015DF00E0FAA3E0900900C9F0A3EAF0A3E9F090C4
:1015EF0008F4E0FBA3E0FAA3E0F912413D9008F301
:1015FF00E004F00214BE9008F0E0FBA3E0FAA3E0D1
:10160F00F990006474011220487406122036900875
:10161F00EDE0FBA3E0FAA3E0F9900002121FD6FF62
:10162F009008F0E0FBA3E0FAA3E0F9900001EF12BD
:10163F0020489008EDE0FBA3E0FAA3E0F990000347
:10164F00121FD6FF9008F0E0FBA3E0FAA3E0F99099
:10165F000002EF1220489008EDE0FBA3E0FAA3E0B0
:10166F00F9900004121FD6FF9008F0E0FBA3E0FAF8
:10167F00A3E0F9900003EF1220489008EDE0FBA3E0
:10168F00E0FAA3E0F9900005121FD6FF9008F0E0F2
:10169F00FBA3E0FAA3E0F99000040217AF9008F063
:1016AF00E0FBA3E0FAA3E0F9900064740112204874
:1016BF0074831220369008EDE0FBA3E0FAA3E0F963
:1016CF00900002121FD6FF9008F0E0FBA3E0FAA3F0
:1016DF00E0F9900001EF1220489008EDE0FBA3E045
:1016EF00FAA3E0F9900003121FD6FF9008F0E0FB79
:1016FF00A3E0FAA3E0F9900002EF1220489008ED62
:10170F00E0FBA3E0FAA3E0F9900004121FD6FF90CC
:10171F0008F0E0FBA3E0FAA3E0F99000030217AF93
:10172F009008F0E0FBA3E0FAA3E0F99000647401E5
:10173F0012204874861220369008EDE0FBA3E0FAE1
:10174F00A3E0F9900002121FD6FF9008F0E0FBA370
:10175F00E0FAA3E0F9900001EF1220489008EDE0C5
:10176F00FBA3E0FAA3E0F9900003121FD6FF900845
:10177F00F0E0FBA3E0FAA3E0F9900002EF1220489B
:10178F009008EDE0FBA3E0FAA3E0F9900004121F2C
:10179F00D6FF9008F0E0FBA3E0FAA3E0F990000376
:0417AF00EF122048CD
:0117B3002213
:1037A3009008FFEBF0A3EAF0A3E9F09004FBE0FF3D
:1037B3009008FFE0FBA3E0FAA3E0F9EF12203690B4
:1037C3000902E0FBA3E0FAA3E0F9121FBDFF900892
:1037D300FFE0FBA3E0FAA3E0F9900001EF12204819
:1037E300900902E0FBA3E0FAA3E0F9900001121FA5
:1037F300D6FF9008FFE0FBA3E0FAA3E0F9900002F4
:10380300EF122048900902E0FBA3E0FAA3E0F9904D
:103813000002121FD6FF9008FFE0FBA3E0FAA3E02B
:10382300F9900003EF122048900902E0FBA3E0FAAD
:10383300A3E0F9900003121FD6FF9008FFE0FBA35B
:10384300E0FAA3E0F9900004EF122048900902E0A7
:10385300FBA3E0FAA3E0F9900004121FD6FF90083F
:10386300FFE0FBA3E0FAA3E0F9900005EF12204884
:1038730090003074081220489000317401122048DF
:0338830002479B5E
:103886009008FFEBF0A3EAF0A3E9F09004FBE0FF59
:103896009008FFE0FBA3E0FAA3E0F9EF12203690D0
:1038A6000902E0FBA3E0FAA3E0F9121FBDFF9008AE
:1038B600FFE0FBA3E0FAA3E0F9900001EF12204835
:1038C600900902E0FBA3E0FAA3E0F9900001121FC1
:1038D600D6FF9008FFE0FBA3E0FAA3E0F990000210
:1038E600EF122048900902E0FBA3E0FAA3E0F9906A
:1038F6000002121FD6FF9008FFE0FBA3E0FAA3E048
:10390600F9900003EF122048900902E0FBA3E0FAC9
:10391600A3E0F9900003121FD6FF9008FFE0FBA377
:10392600E0FAA3E0F9900004EF122048900902E0C3
:10393600FBA3E0FAA3E0F9900004121FD6FF90085B
:10394600FFE0FBA3E0FAA3E0F9900005EF122048A0
:1039560090003074081220489000317406122048F6
:0339660002479B7A
:1046BC009008F9EBF0A3EAF0A3E9F0A3E0FBA3E088
:1046CC00FAA3E0F9900064121FD6D3940040511263
:1046DC001FBD24FA6027240370469008FCE0F9A360
:1046EC00E0FAA3E0900902C9F0A3EAF0A3E9F09084
:1046FC0008F9E0FBA3E0FAA3E0F90237A39008FC69
:10470C00E0F9A3E0FAA3E0900902C9F0A3EAF0A350
:10471C00E9F09008F9E0FBA3E0FAA3E0F91238867F
:01472C00226A
:10530000900031121FD6B404209008EDE0FBA3E01A
:10531000FAA3E0F974041220369008EDE0FBA3E054
:09532000FAA3E0F97D041253CA5E
:015329002261
:0D0096009004FB74FFF09004FA7401F02256
:10315D00E4FFFEEF75F066A42438F582E43407F53C
:10316D0083E0FDD39400500302328674F22FF58272
:10317D00E43404F583E0B5052D74F62FF582E434BF
:10318D0004F583E0FDEF75F066A42438F582E43490
:10319D0007F583E06D600F74F42FF582E43404F5C8
:1031AD0083E004F0800C74F42FF582E43404F5838D
:1031BD00E4F074F42FF582E43404F583E0640360E5
:1031CD0003023268EF75F003A424CDF582E43406D2
:1031DD00F583E5822EF582E43583F583E060030EF9
:1031ED0080E274F62FF582E43404F583E0FDEF758B
:1031FD00F066A42438F582E43407F583E0C39DFD21
:10320D00EF75F003A424CDF582E43406F583E58251
:10321D002EF582E43583F583EDF0EF75F003A424EC
:10322D00CDF582E43406F583E5822EF582E435830F
:10323D00F583E0FD74F62FF582E43404F583E0FCAC
:10324D00ED2CFD74F62FF582E43404F583EDF07466
:10325D00F42FF582E43404F583E4F0EF75F066A401
:10326D002438F582E43407F583E0FD74F22FF582FE
:10327D00E43404F583EDF0802474F22FF582E43408
:10328D0004F583E4F074F42FF582E43404F583E45B
:10329D00F074F62FF582E43404F583E4F00FEF6457
:0632AD0002600302316023
:0132B30022F8
:104CA7007B017A0B79A87D321253CA9004F8E0642D
:104CB7000A7034900BA874FFF0A37403F0A3743048
:104CC700F0E4A3F0A3F0A304F0A3749EF0A374D4BC
:104CD700F0900BD87408F0E49004F8F07B017A0B9D
:0D4CE70079A87D0102000E9004F8E004F0B1
:014CF400229D
:10396900E4900886F0A3F090059EF0900635F07B70
:10397900017A0879887D651253CA7B017A0579082D
:10398900121B5AEF7003023A49E4900886F0E4905A
:103999000887F0900886E0FF75F097A4249EF582C9
:1039A900E5F03405F583E0FE900887E0C39E400307
:1039B900023A3AEF75F097A42408F9740535F0FA3C
:1039C9007B01E075F032A429F9EA35F0FA9008860E
:1039D900E0FD124CF5900886E075F097A42408F9EB
:1039E900740535F0FA7B01A3E075F032A429F9EAF0
:1039F90035F0FAC0039008F0EBF0A37408F0A37453
:103A090088F0D003121304900886E075F097A42477
:103A190008F9740535F0FA7B01A3E075F032A429A1
:103A2900F9EA35F0FA125300900887E004F00239F8
:103A39009C900886E004F0E0C39402500302399791
:013A4900225A
:09559C0012409F120BA6020096BA
:103FFE007B017A0879867D321253CA9004F9E06407
:10400E0001900886704374FFF0A37403F0A374301C
:10401E00F0E4A3F0A3F0A37409F0A3749FF0A374CB
:10402E0012F09008B67408F0E49004F9F0900504CC
:10403E007403F0A37430F0E4A3F0A37414F07B01C6
:10404E007A0879867D0102000E74FFF0A37403F0E6
:10405E00A37430F0A37409F0E4A3F0A37409F0A3E1
:10406E00744FF0A37410F09008B67408F090050425
:10407E007403F0A37430F0A37409F0A37414F07BEE
:10408E00017A0879867D0112000E9004F9E004F0A1
:01409E0022FF
:0655C00012315D0255D21C
:0655C6001239690252D304
:104DD50090088CEBF0A3EAF0A3E9F0AE07AF05ADC0
:104DE5000690088CE0F9A3E0FAA3E090089DC9F0CD
:104DF500A3EAF0A3E9F0900895E0F9A3E0FAA3E0AF
:104E05009008A0C9F0A3EAF0A3E9F090088FE0FBB1
:094E1500A3E0FAA3E0F9023E0C4F
:10426F00900886EFF0A3EDF0A3EBF0A3EAF0A3E93B
:01427F00F04E
:104280007B017A0679367D971253CA7B017A0879C9
:10429000947D651253CA900887E0900895F09008C5
:1042A00086E0900896F090088BE0FBA3E0FAA3E08C
:1042B000F9121FBD900897F0900888E0FBA3E0FA80
:1042C000A3E0F9121FBD900898F090088EE0FBA3C0
:1042D000E0FAA3E0F9121FBD900894F09008F8747A
:1042E00001F09008FCF0A37408F0A37494F07B0133
:1042F0007A0679361246BC7B017A0679367D010250
:02430000000EAD
:100BA6009000017430F0A37401F090000574FFF01A
:100BB6009000077430F0A37402F090000B74FFF0FD
:100BC60090000D7430F0A37403F090001174FFF0E0
:100BD6009000137430F0A37404F090001774FFF0C3
:100BE6009000197430F0A37405F090001D74FFF0A6
:100BF60090001F7430F0A37406F090002374FFF089
:100C06009000257430F0A37407F090002974FFF06B
:100C160090002B7430F0A37408F090002F74FFF04E
:100C26009000317430F0A37409F090003574FFF031
:100C36009000377430F0A3740AF090003B74FFF014
:100C460090003D7430F0A3740BF090004174FFF0F7
:100C56009000437430F0A3740CF090004774FFF0DA
:100C66009000497430F0A3740DF090004D74FFF0BD
:100C760090004F7430F0A3740EF090005374FFF0A0
:100C86009000557430F0A3740FF090005974FFF083
:100C960090005B7430F0A37410F090005F74FFF066
:100CA6009000617430F0A37411F090006574FFF049
:100CB6009000677430F0A37412F090006B74FFF02C
:100CC60090006D74F0F0A37401F090007174FFF061
:100CD60090007374F0F0A37402F090007774FFF044
:100CE60090007974F0F0A37403F090007D74FFF027
:100CF60090007F74F0F0A37404F090008374FFF00A
:100D06009000857401F0E4A3F090008974FFF090E0
:100D1600008B7401F0A3F090008F74FFF0900091A7
:100D26007401F0A304F090009574FFF0900097749E
:100D360001F0A37403F090009B74FFF090009D7483
:100D460001F0A37404F09000A174FFF09000A37466
:100D560001F0A37405F09000A774FFF09000A97449
:100D660001F0A37406F09000AD74FFF09000AF742C
:100D760001F0A37407F09000B374FFF09000B5740F
:100D860001F0A37408F09000B974FFF09000BB74F2
:100D960001F0A37409F09000BF74FFF09000C174D5
:100DA60001F0A3740AF09000C574FFF09000C774B8
:100DB60001F0A3740BF09000CB74FFF09000CD749B
:100DC60001F0A3740CF09000D174FFF09000D3747E
:100DD60001F0A3740DF09000D774FFF09000D97461
:100DE60001F0A3740EF09000DD74FFF09000DF7444
:100DF60001F0A3741FF09000E374FFF09000E57417
:100E060001F0A37410F09000E974FFF09000EB7409
:100E160001F0A37411F09000EF74FFF09000F174EC
:100E260001F0A37412F09000F574FFF09000F774CF
:100E360001F0A37413F09000FB74FFF09000FD74B2
:100E460001F0A37414F090010174FFF09001037493
:100E560001F0A37415F090010774FFF09001097476
:100E660001F0A37416F090010D74FFF090010F7459
:100E760001F0A37417F090011374FFF0900115743C
:100E860001F0A3741EF090011974FFF090011B7419
:100E960001F0A3741FF090011F74FFF090012174FC
:100EA60001F0A37420F090012574FFF090012774DF
:100EB60001F0A37421F090012B74FFF090012D74C2
:100EC60001F0A37422F090013174FFF090013374A5
:100ED60001F0A37423F090013774FFF09001397488
:100EE60001F0A37424F090013D74FFF090013F746B
:100EF60001F0A37425F090014374FFF0900145744E
:100F060001F0A37426F090014974FFF090014B7430
:100F160002F0E4A3F090014F74FFF09001517402C7
:100F2600F0A314F090015574FFF09001577402F08D
:100F3600A3F090015B74FFF090015D7402F0A304CE
:100F4600F090016174FFF09001637402F0A37404E1
:100F5600F090016774FFF09001697402F0A37405C4
:100F6600F090016D74FFF090016F7402F0A37406A7
:100F7600F090017374FFF09001757402F0A374078A
:100F8600F090017974FFF090017B7402F0A374086D
:100F9600F090017F74FFF09001817402F0A3740950
:100FA600F090018574FFF09001877402F0A3740A33
:100FB600F090018B74FFF090018D7402F0A3740B16
:100FC600F090019174FFF09001937402F0A3740CF9
:100FD600F090019774FFF09001997402F0A3740DDC
:100FE600F090019D74FFF090019F7402F0A3740EBF
:100FF600F09001A374FFF09001A57402F0A3740FA2
:10100600F09001A974FFF09001AB7402F0A3741084
:10101600F09001AF74FFF09001B17402F0A3741167
:10102600F09001B574FFF09001B77402F0A374124A
:10103600F09001BB74FFF09001BD7402F0A374132D
:10104600F09001C174FFF09001C37402F0A3741410
:10105600F09001C774FFF09001C97402F0A37415F3
:10106600F09001CD74FFF09001CF7402F0A37416D6
:10107600F09001D374FFF09001D57402F0A37417B9
:10108600F09001D974FFF09001DB7402F0A374189C
:10109600F09001DF74FFF09001E17402F0A374197F
:1010A600F09001E574FFF09001E77402F0A3741A62
:1010B600F09001EB74FFF09001ED7402F0A3741B45
:1010C600F09001F174FFF09001F37402F0A3741C28
:1010D600F09001F774FFF09001F97402F0A3741D0B
:1010E600F09001FD74FFF09001FF7402F0A3741EEE
:1010F600F090020374FFF09002057402F0A3741FCF
:10110600F090020974FFF090020B7402F0A37420B1
:10111600F090020F74FFF09002117402F0A3742194
:10112600F090021574FFF09002177402F0A3742277
:10113600F090021B74FFF090021D7402F0A374235A
:10114600F090022174FFF09002237402F0A374243D
:10115600F090022774FFF09002297402F0A3742520
:10116600F090022D74FFF090022F7402F0A3742603
:10117600F090023374FFF09002357402F0A37427E6
:10118600F090023974FFF090023B7402F0A37428C9
:10119600F090023F74FFF09002417402F0A37429AC
:1011A600F090024574FFF09002477402F0A3742A8F
:1011B600F090024B74FFF090024D7402F0A3742B72
:1011C600F090025174FFF09002537402F0A3742C55
:1011D600F090025774FFF09002597403F0E4A3F004
:1011E60090025D74FFF090025F7403F0A37401F047
:1011F60090026374FFF09002657403F0A314F090FC
:10120600026974FFF090026B7403F0A3F090026F12
:1012160074FFF09002717403F0A304F090027574E9
:10122600FFF09002777403F0A37405F090027B74CC
:10123600FFF090027D7403F0A37406F090028174AF
:10124600FFF09002837403F0A37407F09002877492
:10125600FFF09002897404F0E4A3F090028D74FF0D
:10126600F090028F7404F0A37401F090029374FF5F
:10127600F09002957404F0A37402F090029974FF42
:10128600F090029B7404F0A314F090029F74FFF098
:101296009002A17404F0A3F09002A574FFF09002EE
:1012A600A77404F0A304F09002AB74FFF09002ADB3
:1012B6007404F0A37406F09002B174FFF09002B3C8
:1012C6007404F0A37407F09002B774FFF09002B9AB
:1012D6007404F0A37408F09002BD74FFF09002BF8E
:1012E6007404F0A37409F09002C374FFF09002C571
:0E12F6007404F0A3740AF09002C974FFF02291
:10413D009008FBEFF09008FDEBF0A3EAF0A3E9F097
:10414D00E4FF75F006EFA42401F582E5F03400F5E7
:10415D0083E0FE9008FBE0FCEE6C706475F006EFFA
:10416D00A42402F582E5F03400F583E06D705190E2
:10417D0008FDE0FBA3E0FAA3E0F9121FBDFE75F008
:10418D0006EFA42403F582E5F03400F583EEF090FC
:10419D000900E0FBA3E0FAA3E0F9121FBDFE75F0E4
:1041AD0006EFA42404F582E5F03400F583EEF075F6
:1041BD00F006EFA42405F582E5F03400F583E4F074
:0941CD000FEF6478600302414F1A
:0141D60022C6
:103E0C00900898EFF090089AEBF0A3EAF0A3E9F091
:103E1C00E4FF75F006EFA42401F582E5F03400F51B
:103E2C0083E0FE900898E0FCEE6C707375F006EF82
:103E3C00A42402F582E5F03400F583E06D70607522
:103E4C00F006EFA42403F582E5F03400F583E0FEE0
:103E5C0090089AE0FBA3E0FAA3E0F9EE1220367585
:103E6C00F006EFA42404F582E5F03400F583E0FEBF
:103E7C0090089DE0FBA3E0FAA3E0F9EE1220367562
:103E8C00F006EFA42405F582E5F03400F583E0FE9E
:103E9C009008A0E0FBA3E0FAA3E0F9EE1220360FA5
:083EAC00EF64786003023E1E82
:013EB40022EB
:1052D300E4FF75F006EFA42405F582E5F03400F54C
:1052E30083E0F4601275F006EFA42405F582E5F07F
:0C52F3003400F583E004F00FEFB478D62F
:0152FF00228C
:03000B00024E663C
:104E6600C0E0C0F0C083C082C0D075D000C000C012
:104E760001C002C003C004C005C006C007758A8011
:104E8600758C44C28DD28C1255D5D007D006D0056C
:104E9600D004D003D002D001D000D0D0D082D083AD
:054EA600D0F0D0E03265
:0300A300024FBB4E
:104FBB00C0E0C0F0C083C082C0D075D000C000C0BC
:104FCB0001C002C003C004C005C006C00775D3B042
:104FDB0075D23C124D42D007D006D005D004D00379
:104FEB00D002D001D000D0D0D082D083D0F0D0E08E
:014FFB003283
:03008B000254BA62
:1054BA00C0E0C0F0C083C082C0D075D0081251527B
:0B54CA00D0D0D082D083D0F0D0E032F0
:03009300024FFC1D
:104FFC00C0E0C0F0C083C082C0D075D000C000C07B
:10500C0001C002C003C004C005C006C0071251870E
:10501C00D007D006D005D004D003D002D001D000E8
:0B502C00D0D0D082D083D0F0D0E03292
:0300000002441E99
:0C441E00787FE4F6D8FD75810F0244653C
:0A00800053D10F75D3B075D23C22A6
:10557900438E805389F0758A80758C44C28DD28C94
:03558900D2A92282
:0700030043D18043AF40220E
:0755A50053D17F53AFBF2279
:0755AC0043D18043AF402210
:0755B30053D17F53AFBF226B
:0655CC0012008002557977
:1045B500E490086EF0F090086EE0FFC3940250732B
:1045C500EF75F066A42404F582E43408F583E0D39E
:1045D50094004057746B64044408604F90086EE083
:1045E50075F066A4249FF9740735F0FA7B01C003C2
:1045F5009008FCEBF0A37408F0A3746DF0D00312DF
:1046050034D590086EE0FF701090086B7404F0D2FA
:10461500CB90086DE0F5858012EFB4010E90086C23
:104625007404F0D2CA90086DE0F5AD90086EE00410
:03463500F080838F
:01463800225F
:10409F00759850438E40538EFE53890F758B8F75D5
:1040AF008DFDC2ABD28ED2AC75AC1043AC4053D1A8
:1040BF00FD75D5CC75D4FF43D10843AF0875841077
:1040CF005384BF538EFB75D7CC75D6FF438E1043E9
:1040DF00AF10D2AFE4900940F07F01125524C00118
:1040EF00900940E075F066A4249FF9740735F0A895
:1040FF0001FC7D01D0017E007F66121F977F0112A8
:10410F005524C001900940E075F066A424D3F974DA
:10411F000635F0A801FC7D01D0017E007F66121FDD
:0D412F0097900940E004F0E0C3940240AC1A
:01413C002260
:0355D2000245B5DA
:0B4BB500900901EBF0A3EAF0A3E9F087
:104BC000ED75F066A4249FF9740735F0FA7B01C0F7
:104BD00002C001900901E0F9A3E0FAA3E0900930D6
:104BE000C9F0A3EAF0A3E9F0D001D0021241D7EF57
:104BF000B42207E4900904F080069009047401F0DF
:054C0000900904E0FF33
:014C0500228C
:0B4C0600900BF1EBF0A3EAF0A3E9F043
:104C1100ED75F066A424D3F9740635F0FA7B01C072
:104C210002C001900BF1E0F9A3E0FAA3E09008FCC7
:104C3100C9F0A3EAF0A3E9F0D001D0021234D5EF14
:104C4100B41107E4900BF4F08006900BF47402F0B9
:054C5100900BF4E0FFF0
:014C5600223B
:10515200E5AC30E020900918E5ADF090093074011B
:10516200F0A37409F0A37418F07B017A077939125D
:1051720041D753ACFEE5AC30E10A53ACFDE49008F4
:045182006CF0C2CA41
:015186002206
:10518700E58430E0205384FE90092CE585F09009F2
:10519700307401F0A37409F0A3742CF07B017A0634
:1051A70079D31241D7E58430E10A5384FDE49008AE
:0451B7006BF0C2CB0C
:0151BB0022D1
:10550A00EF75F066A42438F582E43407F583E0D316
:0A551A00940040037F01227F00226D
:1035D60080808080808080800101010101010101DD
:1035E600FF0000000000000000000000000000FFD7
:1035F60081818181818181818080808080808080BD
:1036060000000000000000000000000000000000B4
:103616000101010101010101FF000000000000009D
:10362600FF0000000000000000000000000000FF96
:1036360000000000000000FF808080808080808085
:103646008080808080808080000000000000000074
:103656000000000000000000000000000000000064
:10366600000000000000000001010101010101014C
:103676000101010101010101FF000000000000003D
:103686000000000000000000FF0000000000000035
:103696000000000000000000000000000000000024
:1036A60000000000000000FF000000000000000015
:0836B60000000000000000FF0D
:10541700E4FDFCC3ED9FEE6480F8EC6480985015C2
:10542700E4FBFA0BBB00010AEB646E4A70F50DBD95
:0554370000010C80DE05
:01543C00224D
:10507200C2C97F017E00125086C2C8AF01124C57CE
:04508200D2C97F010F
:10508600E4FDFCC3ED9FEE6480F8EC648098501557
:10509600E4FBFA0BBB00010AEB64014A70F50DBD97
:0550A60000010C80DE9A
:0150AB0022E2
:104C5700EF20E704C2B58002D2B5EF20E604C2A771
:104C67008002D2A7EF20E504C2A68002D2A6EF20D9
:104C7700E404C2A58002D2A5EF20E304C2A4800207
:104C8700D2A4EF20E204C2A38002D2A3EF20E10462
:104C9700C2A28002D2A2EF20E003C2A122D2A122A7
:06555200FF12548E7F30B1
:0E555800A907C2B7C2B6125072D2B7C2C9229A
:10547D00E0FBA3E0FAA3E0F98F82758300121FD63B
:01548D00FF1F
:0E548E00A907C2B7D2B6125072D2B7C2C92255
:1033D300C2C1C2A07F647E00125417D2A012541738
:1033E3007F301255587F941255587F311255587FAC
:1033F300D71255587F9F12548E7F32125558E4FFCF
:1034030012548E7F0112548E7F0312548E7F20122A
:1034130055587F0112548E7F0312548E7F05125428
:103423008E7F0712548E7F0912548E7F0B12548E97
:103433007F0D12548E7F1012548E7F1112548E7F83
:103443001312548E7F1512548E7F1712548E7F19C8
:1034530012548E7F1B12548E7F1D12548E7F1F12A7
:1034630055537F75125558E4FF12548E7F1412542E
:103473008E7F15125558E4FF12548E7FFF12548E1F
:103483007FBC125558E4FF12548E7FA612548E7FD0
:10349300CA125558E4FF12548E7F9F12548E7F2018
:1034A30012548E7FF01255587F1012548E7F811262
:1034B30055587F3012548E7F0312548E7F2012553D
:1034C300587F0B12548E7F647E001250867FAF02AA
:0234D30055584A
:104A6400900942EFF0A3EDF0A3EAF0A3EBF0900974
:104A740042E014F0A3E02407F07F15125558900982
:104A840042E0FF12548E900944A3E0FF900942E0F3
:104A94002F14FF12548E7F75125558A3E0FF125441
:104AA4008E900946A3E0FF900943E02F141255525B
:054AB4007F5C02555873
:104803009008B5EFF0A3EDF0A3EAF0A3EBF0900866
:10481300B5E014F0A3E02407F07F15125558900873
:10482300B5E0FF12548E9008B7A3E0FF9008B5E0FF
:104833002FF0E014F0E0FF12548E7F75125558A349
:10484300E0FF12548E9008B9A3E0FF9008B6E02F62
:0D485300F0E014F0E01255527F5C02555861
:10503700900946E4F0A3740DF07BC17A00E4FDFF0C
:10504700124A64E4900940F0E4900941F0E4FF1249
:10505700548E900941E004F0E0C394C140EF9009F9
:0A50670040E004F0E0C3940D40DEC9
:01507100221C
:0B4E1E00900889EBF0A3EAF0A3E9F094
:104E2900900946E4F0A304F07B087A00124A64E48E
:104E390090088CF0900889E0FBA3E0FAA3E0F9124E
:104E49001FBDFF12548E90088AE475F0011220BF2D
:0C4E590090088CE004F0E0C3940840D8FE
:014E6500222A
:1054D500900888EBF0900946E4F0A304F0FB7A000D
:0B54E500124A64900888E0FF02548E19
:0B29B90090088CEBF0A3EAF0A3E9F01B
:1029C4009008B9E4F0A37402F07B087A001248037B
:1029D4009008A17401F0A37408F0A37491F0E4903A
:1029E4000890F090088CE0FBA3E0FAA3E0F99008CB
:1029F40090E0FFF582758300121FD6FE9008A1E0D7
:102A0400FBA3E0FAA3E0F98F82758300EE1220485D
:102A1400900890E004F0E0B410C990088FE05401ED
:102A2400D39400405A9008A474FFF0A37435F0A323
:102A340074FEF0E4900890F09008A1E0FBA3E0FAA3
:102A4400A3E0F9900890E0FFE92FF9E43AFAC00313
:102A5400C002C001121FBDFE9008A4E0FBA3E0FA6F
:102A6400A3E0F98F82758300121FD64ED001D002E5
:102A7400D003122036900890E004F0E0B410B9902E
:102A8400088FE05402D39400405A9008A474FFF0D5
:102A9400A37436F0A3740EF0E4900890F09008A1AB
:102AA400E0FBA3E0FAA3E0F9900890E0FFE92FF936
:102AB400E43AFAC003C002C001121FBDFE9008A48C
:102AC400E0FBA3E0FAA3E0F98F82758300121FD61E
:102AD4004ED001D002D003122036900890E004F0CA
:102AE400E0B410B990088FE05404D39400405A9095
:102AF40008A474FFF0A37436F0A3741EF0E49008E5
:102B040090F09008A1E0FBA3E0FAA3E0F99008900C
:102B1400E0FFE92FF9E43AFAC003C002C001121F32
:102B2400BDFE9008A4E0FBA3E0FAA3E0F98F827550
:102B34008300121FD64ED001D002D003122036904B
:102B44000890E004F0E0B410B990088FE05408D382
:102B54009400405A9008A474FFF0A37436F0A37450
:102B64002EF0E4900890F09008A1E0FBA3E0FAA313
:102B7400E0F9900890E0FFE92FF9E43AFAC003C0C5
:102B840002C001121FBDFE9008A4E0FBA3E0FAA35B
:102B9400E0F98F82758300121FD64ED001D002D087
:102BA40003122036900890E004F0E0B410B9E490E9
:102BB4000890F0900890E0FFC39410500E9008A184
:0B2BC40012547D900890E004F080E8BF
:012BCF0022E3
:0B2BD00090088AEBF0A3EAF0A3E9F004
:102BDB009008B9E4F0A37402F07B107A001248035A
:102BEB009008AF7401F0A37408F0A3748FF0E49015
:102BFB00088EF090088AE0FBA3E0FAA3E0F99008B6
:102C0B008EE0FFF582758300121FD6FE9008AFE0B1
:102C1B00FBA3E0FAA3E0F98F82758300EE12204844
:102C2B0090088EE004F0E0B420C990088DE05401C8
:102C3B00D39400405A9008B274FFF0A37436F0A3FB
:102C4B00743EF0E490088EF09008AFE0FBA3E0FA3E
:102C5B00A3E0F990088EE0FFE92FF9E43AFAC003FC
:102C6B00C002C001121FBDFE9008B2E0FBA3E0FA48
:102C7B00A3E0F98F82758300121FD64ED001D002CC
:102C8B00D00312203690088EE004F0E0B420B99007
:102C9B00088DE05402D39400405A9008B274FFF0B0
:102CAB00A37436F0A3745EF0E490088EF09008AF36
:102CBB00E0FBA3E0FAA3E0F990088EE0FFE92FF91F
:102CCB00E43AFAC003C002C001121FBDFE9008B265
:102CDB00E0FBA3E0FAA3E0F98F82758300121FD605
:102CEB004ED001D002D00312203690088EE004F0B3
:102CFB00E0B420B990088DE05404D39400405A906E
:102D0B0008B274FFF0A37436F0A3747EF0E490085D
:102D1B008EF09008AFE0FBA3E0FAA3E0F990088EE9
:102D2B00E0FFE92FF9E43AFAC003C002C001121F19
:102D3B00BDFE9008B2E0FBA3E0FAA3E0F98F827529
:102D4B008300121FD64ED001D002D0031220369032
:102D5B00088EE004F0E0B420B990088DE05408D35D
:102D6B009400405A9008B274FFF0A37436F0A37429
:102D7B009EF0E490088EF09008AFE0FBA3E0FAA37E
:102D8B00E0F990088EE0FFE92FF9E43AFAC003C0AE
:102D9B0002C001121FBDFE9008B2E0FBA3E0FAA334
:102DAB00E0F98F82758300121FD64ED001D002D06E
:102DBB000312203690088EE004F0E0B420B9E490C2
:102DCB00088EF090088EE0FFC39420500E9008AF51
:0B2DDB0012547D90088EE004F080E8A8
:012DE60022CA
:0B50AC00900886EBF0A3EAF0A3E9F007
:1050B700900946E4F0A37403F07B187A00124A645F
:1050C700E4900889F0900889E0FFC39448500E9057
:0D50D700088612547D900889E004F080E8FE
:0150E40022A9
:10545D00E4FDFCC3ED9FEC9E5015E4FBFA0BBB0085
:0F546D00010ABA06F8BB84F50DBD00010C80E4FE
:01547C00220D
:0155D80022B0
:05008E0012511C80FE70
:10245F00460AB20103F1021122480AAAFF03F2024F
:10246F00AA55233360270AC0FF033000040102037B
:10247F000405060708091011121314151617181959
:10248F0020212223242526272829303132CCCC485D
:10249F000AB80106F099325555AA480B67FF83F029
:1024AF0099885555AA420AED55AA420B6F00004173
:0324BF000AA90067
:10511C001255D87FC87E0012545D1233D31250370B
:10512C0078407C097D017B017A0A79E77E007F0655
:10513C00121F9712558CC2CAC2CB12559C1255CC59
:06514C001200030255AC45
:0355D5000255C0BC
:104D42009008807406F0A37403F0A314F0A314F087
:104D5200E4A3F0A3F0900AA9E014601A14601214FC
:104D620060141460111460152405701D123FFE803A
:104D720005123B218000900AA9E004F022D2C4125D
:094D820055C6C2C4E4900AA9F070
:014D8B002205
:10442A0002008EE493A3F8E493A34003F68001F21A
:10443A0008DFF48029E493A3F85407240CC8C33393
:10444A00C4540F4420C8834004F456800146F6DF62
:10445A00E4800B01020408102040809021D6E47EFB
:10446A00019360BCA3FF543F30E509541FFEE49357
:10447A00A360010ECF54C025E060A840B8E493A31E
:10448A00FAE493A3F8E493A3C8C582C8CAC583CA49
:10449A00F0A3C8C582C8CAC583CADFE9DEE780BE01
:0124C2000019
:101EC700E709F608DFFA8046E709F208DFFA803EFD
:101ED70088828C83E709F0A3DFFA8032E309F608EA
:101EE700DFFA8078E309F208DFFA807088828C8352
:101EF700E309F0A3DFFA806489828A83E0A3F60806
:101F0700DFFA805889828A83E0A3F208DFFA804CDF
:101F170080D280FA80C680D4806980F280338010B6
:101F270080A680EA809A80A880DA80E280CA80331F
:101F370089828A83ECFAE493A3C8C582C8CCC58397
:101F4700CCF0A3C8C582C8CCC583CCDFE9DEE78067
:101F57000D89828A83E493A3F608DFF9ECFAA9F0E6
:101F6700EDFB2289828A83ECFAE0A3C8C582C8CC3C
:101F7700C583CCF0A3C8C582C8CCC583CCDFEADE55
:101F8700E880DB89828A83E493A3F208DFF980CCB7
:101F970088F0EF60010E4E60C388F0ED2402B404B0
:101FA7000050B9F582EB2402B4040050AF23234557
:061FB7008223901F177346
:101FBD00BB010689828A83E0225002E722BBFE0222
:091FCD00E32289828A83E4932255
:101FD600BB010CE58229F582E5833AF583E02250C0
:101FE60006E92582F8E622BBFE06E92582F8E2220A
:0D1FF600E58229F582E5833AF583E4932224
:10200300BB010FF8E58229F582E5833AF583E028E1
:10201300F0225009C58229F8E58226F622BBFE0983
:10202300C58229F8E22582F222F8EA2583F583E9BD
:03203300932822CD
:10203600BB010689828A83F0225002F722BBFE0189
:02204600F32283
:10204800F8BB010DE58229F582E5833AF583E8F0CE
:10205800225006E92582C8F622BBFE05E92582C87A
:02206800F22262
:10206A00BC000BBE0029EF8DF084FFADF022E4CC5A
:10207A00F875F008EF2FFFEE33FEEC33FCEE9DEC23
:10208A00984005FCEE9DFE0FD5F0E9E4CEFD22ED69
:10209A00F8F5F0EE8420D21CFEADF075F008EF2FB3
:1020AA00FFED33FD4007985006D5F0F222C398FDA4
:0520BA000FD5F0EA2241
:1020BF00C5F0F8A3E028F0C5F0F8E58215827002AC
:0620CF001583E038F02249
:1020D500A3F8E0C5F025F0F0E582158270021583BE
:0620E500E0C838F0E8221B
:1020EB0075F008758200EF2FFFEE33FECD33CDCCAC
:1020FB0033CCC58233C5829BED9AEC99E58298402F
:10210B000CF582EE9BFEED9AFDEC99FC0FD5F0D60B
:10211B00E4CEFBE4CDFAE4CCF9A88222B800C1B935
:10212B000059BA002DEC8BF084CFCECDFCE5F0CB73
:10213B00F97818EF2FFFEE33FEED33FDEC33FCEBAC
:10214B0033FB10D703994004EB99FB0FD8E5E4F967
:10215B00FA227818EF2FFFEE33FEED33FDEC33FC54
:10216B00C933C910D7059BE99A4007EC9BFCE99A48
:10217B00F90FD8E0E4C9FAE4CCFB2275F010EF2F8D
:10218B00FFEE33FEED33FDCC33CCC833C810D7078D
:10219B009BEC9AE899400AED9BFDEC9AFCE899F8C8
:0E21AB000FD5F0DAE4CDFBE4CCFAE4C8F9225B
:1021B900EB9FF5F0EA9E42F0E99D42F0E89C45F07C
:0121C90022F3
:0C21CA00ECF0A3EDF0A3EEF0A3EFF02288
:00000001FF
