:1000A60000001F11111111FF111111111F00000085
:1000B6000000F810101010FE11111111F9010F00B7
:1000C60008080BFF0908007F4040407F0000000041
:1000D60020C000FF00C106F8000000FC02021E005E
:1000E60000000F090909093F09090909090F00005C
:1000F6000000F020202020FE2222222222F20C00E4
:10010600000404053F0504041F1010101F00000022
:1001160000306080FE02C24CF0000000FE020604C1
:10012600000202423300003F2425244444C5460011
:1001360000000204F8041AE20A12A242A2120A02FB
:100146000000007F40404F4848484F40407F000035
:10015600000000FE0404E4242424E40404FE000059
:100166002021273A2223040817E424272C340700E9
:100176004080FE0808FC0106F89090FC9291FE0073
:10018600083022222222A2632222222222283000A2
:1001960001020478040202FE222222222202020026
:1001A600020242330000000000FF000000000000D1
:1001B600000000FC09120418E000E0180402010027
:1001C6000000003F2424272424444444C54600005C
:1001D60000020CF1010202C4281028448202010127
:1001E60000004040434040407F4141414141400082
:1001F60000020202FE020202FE02020202020202E3
:10020600001F10103053921212131010101F00000E
:1002160000FF000000F8101010F8000201FE0000B8
:1002260000040C35C60C003F24A4642424243C009E
:100236000044E644484A1CE0FF90FE90FC91FF0013
:100246002021273A222300404F4141417F010100EE
:100256004080FE0808FC0010101010121102FC006D
:10026600010179494949790701794D4B49790100DD
:1002760010102F2949498F00804F4929291F100046
:100286000202423300044444454644444404000008
:10029600000204F8042272A2222222A26232020082
:1002A60000081123CC00024242424342424202006D
:1002B600408000FF000000000201FE000000000078
:1002C600094A2C08FF082C4A010EF110101F1000D5
:1002D60041596AC6444A71000102CC30CC02010081
:1002E60020202223F22222232424F42D242020005D
:1002F60002222424A830207F2030A82424220200B1
:1003060000001F925232121F123252921F0000003A
:100316000808C848484848FF48484848C8080800E8
:1003260000020C88690909896909091928C80A0C93
:1003360000202020202022217E60A02020202020B6
:10034600000040404048444340404040407F000059
:1003560000001018102020204040828102FC00007E
:100366000000001F113151911111111F00000000F2
:10037600000000FF22222222222222FF000000008B
:10038600022223222222020808FF0808080F000082
:10039600083CC808281D020C7080020102FC0000FF
:1003A600014141417F41414141417F41414101007C
:1003B6000001020CF00000000000FF000000000039
:1003C600000008886808080F080828C80800000008
:1003D600818182828488B0C0B088848282818100D3
:1003E600000003020202FE12121212131010000085
:1003F6000102EC2020282620282620E008070000FD
:1004060001061FE000202E2AAA6A2A2A2E200000B2
:100416000000FF00C080A0A2A1BEA0A0A080C000D6
:100426000000000F000000FF0202020202000000AE
:10043600020202FE020202FE0202020202020200A0
:10044600001F80600000404040404040407F000068
:1004560000FF0000000000000000000201FE000096
:1004660000000F1F10161F0F0000E0F0D010F0E084
:100476000004040C1F1F000000000000F0F0000044
:10048600000C1C10111F0E00003070D090101000D0
:10049600000C1C11111F0E000060701010F0E0001F
:1004A60000001F1F0007070000C0C04040F0F040DA
:1004B600001F1F11111110000010101030E0C000B5
:1004C6000003071E1A13010000E0F01010F0E00010
:1004D60000101011171E1800000070F080000000B8
:1004E600000E1F13111F0E0000E0F01090F0E00048
:1004F600000F1F10101F0F00000090B0F0C080000A
:1005060000000000000000000000D8D80000000035
:100516000000000000000000000000303030000045
:1005260000070F18180F070000F0F08080F0F000A9
:10053600001F1F01011F1F0000F0F00000F0F00077
:100546000000101F1F100000000010F0F010000047
:10055600001F1F111111100000F0F0000000000034
:100566000004040405070600003070D09010100047
:1005760000000000030301010101011F1F01010129
:10058600010303010000000000000000FFFF11113D
:10059600111111FFFF11111111FFFF0000010000E1
:1005A60000000000C0C00000000000F8FC0C0C0CAD
:1005B6000C8C8C0C1CFC180000000000001F0F00A7
:1005C600010101000F0F0404040F0F0400000000D6
:1005D6000080838EFCFFFF90888E8C00FFFF00005A
:1005E60000FFFF00000003004080000000FCFC004C
:1005F60004081060C000000000F8F8181838F81059
:1006060000000001010101010111191D0F01010185
:1006160001010103070303000000000000000000C1
:100626000007FFFC90101010103F3F100000000064
:100636000000000404081830E0C0801010080C0CFC
:100646003CF8E00000000000000000030101010189
:10065600071D191101010101010101030301000038
:10066600000000FFFF00007F3F212121217F3F2066
:10067600000000FFFF000000000000FCFC0000C0BE
:10068600C00000000080800008080CFCF800000094
:100696000004040404040404040407070404040412
:1006A6000404040C0C04000000000000000000001C
:1006B6000000FFFF202010181C0E0F000000000095
:1006C60000000000000000000000FCFC000000002C
:1006D60000000000000000000000000F0F08080BDB
:1006E6000E0C040F0F0808080808080F0F0000007A
:1006F600000000FFFF01E1B11F0F00FFFF90909E79
:10070600939091FBF6060000000000FCFC00808040
:10071600800008FCF8181020A0C0603038181000BF
:10072600000000000001071E0C0800000010180E53
:1007360006000000010100000004081060FF7F4071
:100746000080B09E87818080809FFEF0A080800020
:100756000000000000FCFC0808080808C8C80808D3
:10076600F8880808183818080000000000080E0766
:100776000300100C0F070000031E0C080000000009
:1007860000081939F141515151515151575355D919
:1007960059715951E3E763010000000000000000B1
:1007A6000008080CFCF80000000000000000000033
:1007B6000000000004040404040404040404040403
:1007C60004040F0F04000000000000000101018175
:1007D60083C3F372260404040808FFFF0000000028
:1007E6000000000080C0808000000000101010187B
:1007F6001C38F8F0000000000000000000000000B7
:1008060000001F0F0F08000000000000000000009D
:1008160000000000000000000000FFFFFF20202075
:10082600202060E06020000000080808080808088A
:100836000808F8F8F808080808080818381808001A
:10084600000404040405070604040C1C0C04031F1E
:100856001C0800000003010000223272F2A23F3F92
:10086600A2E266760A70FC87818FFFF8C0808080DE
:10087600001018181810F0F020242428081030E072
:10088600E0F038381C080808000002040404070FCA
:100896000C18080000030301001F1F0000000000E1
:1008A600004040434E7CFFFF50C8CEC420199D81B6
:1008B60001FFFF0206060600004080000000FCFC67
:1008C600008080808000000000FCFC00000000002A
:1008D60000000000001F0F000101010101011F1FA0
:1008E6000101010303030000008486868CFFFF9844
:1008F6009090B0181711F0F011173E381000000054
:10090600000008080CFCF8000404080810F0E0E0F9
:10091600B038181C1C080000000000000000000091
:1009260000000000000000000000000000000000C1
:1009360000000000000000000000000000000000B1
:1009460000000000000000000000000000000000A1
:100956000000000000000000000000000000000091
:10096600000000000000080C0707000001061C1824
:1009760000030101000000000000088888888888BC
:10098600888BFFFC8E898888888898B8980800002C
:10099600000004040808103060C080000080C070A9
:1009A60030181C1808080000000000000302201C74
:1009B6001C000008080808080808081F0F000000A7
:1009C60000000000FF000000000000000000000022
:1009D600000000FFFF00000000000000FE00000015
:1009E6000000000000000008080406FCF8000000F3
:1009F6000004040404050F0E0400020202060407A4
:100A06000F0C1808080000000000143BF0D0113F3E
:100A16003C1000FF7F4000FFFF20206063210000A4
:100A2600000004089060E0B0181818989888888C20
:100A36008C8C8C8C8C9890100000000703020202AC
:100A4600070702000000000000001F1F1001010040
:100A5600000000FFFF101010FFFF0080908F8E80B7
:100A66008080FFFF80808080000000F8F8404040D2
:100A7600F0F0000000000008080CFCFC000000007C
:043EA0007D017F0120
:083EA400900B9EEFF0A3EDF07E
:103EAC00A37401F0900BA0E0FFC39419503C900B4D
:103EBC009FE06015EF75F008A424F9FF900B9EE0CD
:103ECC00FD7BFF7A2D79548016900BA0E075F008DD
:103EDC00A424F9FF900B9EE0FD7BFF7A2D795C12F8
:0A3EEC0042BE900BA0E004F080BA83
:013EF60022A9
:05485A00900BA1EFF03E
:10485F00A37401F0900BA2E0FDC3940D5012900BC6
:10486F00A1E0FF7BFF12493F900BA2E004F080E430
:01487F002216
:043004007D037F01C8
:10300800900BA4EDF0900BA3EFF064017073A3E0B4
:1030180014601324FE602A146042240270637BFF4C
:103028007A0179C680067BFF7A0179E6900B0074F5
:1030380007F07D0B7F011220327BFF7A0279068030
:10304800347BFF7A017926900B007407F07D0B7FA3
:10305800011220327BFF7A01794680197BFF7A03BF
:103068007926900B007407F07D0B7F011220327BCC
:10307800FF7A037946900B00740BF0FD7F11122044
:1030880032900BA3E064027049A3E024FA601E04A6
:1030980070407BFF7A017966900B007407F07D0B16
:1030A8007FA11220327BFF7A0179A680197BFF7AF3
:1030B8000279E6900B007407F07D0B7FA112203295
:1030C8007BFF7A037906900B00740BF0FD7FB11239
:0330D80020322281
:10465300E4FE75F010EFA42EF582E435F0F583E562
:10466300822466F582E5833404F583E493FD74EBD9
:0F4673002EF582E4340AF583EDF00EEEB410D389
:014682002215
:05224900900BA9EFF06D
:10224E007D047F301230DB900841E0700302243FA2
:10225E009008A9E02400FFE433FE900ADAF0A3EF21
:10226E00F0FBAA06D39410EA9427401B7C277D101E
:10227E00121D9AA3EFF07C277D10AF03AE02121D44
:10228E009AAA04AB058005E4900ADCF0D3EB94E83F
:10229E00EA940340217C037DE8AF03AE02121D9A3F
:1022AE00900ADDEFF07C037DE8AF03AE02121D9ABB
:1022BE00AA04AB058005E4900ADDF0D3EB9464EA42
:1022CE00940040217C007D64AF03AE02121D9A90F3
:1022DE000ADEEFF07C007D64AF03AE02121D9AAAF7
:1022EE0004AB058005E4900ADEF0D3EB940AEA9481
:1022FE000040217C007D0AAF03AE02121D9A900AA7
:10230E00DFEFF07C007D0AAF03AE02121D9AAA0425
:10231E00AB058005E4900ADFF0900AE0EBF0900A3E
:10232E00DCE0FF124653900BA9E0B4010F7B017A5B
:10233E000A79EB900B2D7401F0FD8014900BA9E03F
:10234E00B402127B017A0A79EBE4900B2DF07D0238
:10235E007F39121E1B900ADDE0FF124653900BA927
:10236E00E0B4010F7B017A0A79EB900B2D7401F02A
:10237E00FD8014900BA9E0B402127B017A0A79EB6E
:10238E00E4900B2DF07D027F41121E1B900ADEE0C1
:10239E00FF124653900BA9E0B4010F7B017A0A7924
:1023AE00EB900B2D7401F0FD8014900BA9E0B4029C
:1023BE00127B017A0A79EBE4900B2DF07D027F49B6
:1023CE00121E1B900ADFE0FF124653900BA9E0B4D9
:1023DE00010F7B017A0A79EB900B2D7401F0FD80D1
:1023EE0014900BA9E0B402127B017A0A79EBE49007
:1023FE000B2DF07D027F51121E1B900AE0E0FF12A2
:10240E004653900BA9E0B4010F7B017A0A79EB9049
:10241E000B2D7401F0FD8014900BA9E0B402127B19
:10242E00017A0A79EBE4900B2DF07D027F59121E92
:01243E001B82
:01243F00227A
:10275E007D027F301230DB900841E070030228BE0C
:10276E009008A9E02400FFE433FE900AE1F0A3EF05
:10277E00F0FBAA06D39410EA9427401B7C277D1009
:10278E00121D9AA3EFF07C277D10AF03AE02121D2F
:10279E009AAA04AB058005E4900AE3F0D3EB94E823
:1027AE00EA940340217C037DE8AF03AE02121D9A2A
:1027BE00900AE4EFF07C037DE8AF03AE02121D9A9F
:1027CE00AA04AB058005E4900AE4F0D3EB9464EA26
:1027DE00940040217C007D64AF03AE02121D9A90DE
:1027EE000AE5EFF07C007D64AF03AE02121D9AAADB
:1027FE0004AB058005E4900AE5F0D3EB940AEA9465
:10280E000040217C007D0AAF03AE02121D9A900A91
:10281E00E6EFF07C007D0AAF03AE02121D9AAA0409
:10282E00AB058005E4900AE6F0900AE7EBF0900A1B
:10283E00E3E0FF1246537B017A0A79EBE4900B2D0D
:10284E00F07D037F39121E1B900AE4E0FF124653FF
:10285E007B017A0A79EBE4900B2DF07D037F411218
:10286E001E1B900AE5E0FF1246537B017A0A79EBB4
:10287E00E4900B2DF07D037F49121E1B900AE6E0BB
:10288E00FF1246537B017A0A79EBE4900B2DF07D13
:10289E00037F51121E1B900AE7E0FF1246537B0185
:1028AE007A0A79EBE4900B2DF07D037F59121E1BF3
:0128BE0022F7
:1028BF007D097F301230DB900841E07003022A1F40
:1028CF009008A9E02400FFE433FE900ACCF0A3EFB8
:1028DF00F0FBAA06D39410EA9427401B7C277D10A7
:1028EF00121D9AA3EFF07C277D10AF03AE02121DCD
:1028FF009AAA04AB058005E4900ACEF0D3EB94E8D6
:10290F00EA940340217C037DE8AF03AE02121D9AC7
:10291F00900ACFEFF07C037DE8AF03AE02121D9A51
:10292F00AA04AB058005E4900ACFF0D3EB9464EAD8
:10293F00940040217C007D64AF03AE02121D9A907B
:10294F000AD0EFF07C007D64AF03AE02121D9AAA8D
:10295F0004AB058005E4900AD0F0D3EB940AEA9417
:10296F000040217C007D0AAF03AE02121D9A900A2F
:10297F00D1EFF07C007D0AAF03AE02121D9AAA04BC
:10298F00AB058005E4900AD1F0900AD2EBF0900AE3
:10299F00CEE0FF1246537B017A0A79EB900B2D7430
:1029AF0001F0FD7F81121E1B900ACFE0FF124653EC
:1029BF007B017A0A79EB900B2D7401F0FD7F891260
:1029CF001E1B900AD0E0FF1246537B017A0A79EB67
:1029DF00900B2D7401F0FD7F91121E1B900AD1E018
:1029EF00FF1246537B017A0A79EB900B2D7401F09D
:1029FF00FD7FA1121E1B900AD2E0FF1246537B01EE
:102A0F007A0A79EB900B2D7401F0FD7FA9121E1B32
:012A1F002294
:1025F3007D067F301230DB900841E0700302275DD7
:102603009008A9E02400FEE433900AD3F0A3CEF0AF
:10261300900ACCE0FEA3E0FBAA06D39410EA942729
:10262300401F7C277D10AF03121D9A900AD5EFF04F
:102633007C277D10AF03AE02121D9AAA04AB05805E
:1026430005E4900AD5F0D3EB94E8EA940340217CA7
:10265300037DE8AF03AE02121D9A900AD6EFF07C19
:10266300037DE8AF03AE02121D9AAA04AB058005F1
:10267300E4900AD6F0D3EB9464EA940040217C0002
:102683007D64AF03AE02121D9A900AD7EFF07C006F
:102693007D64AF03AE02121D9AAA04AB058005E464
:1026A300900AD7F0D3EB940AEA940040217C007D92
:1026B3000AAF03AE02121D9A900AD8EFF07C007D98
:1026C3000AAF03AE02121D9AAA04AB058005E4907B
:1026D3000AD8F0900AD9EBF0900AD5E0FF124653DE
:1026E3007B017A0A79EBE4900B2DF07D037F811255
:1026F3001E1B900AD6E0FF1246537B017A0A79EB40
:10270300E4900B2DF07D037F89121E1B900AD7E006
:10271300FF1246537B017A0A79EBE4900B2DF07D8F
:10272300037F91121E1B900AD8E0FF1246537B01D0
:102733007A0A79EBE4900B2DF07D037FA1121E1B27
:10274300900AD9E0FF1246537B017A0A79EBE490B1
:0A2753000B2DF07D037FA9121E1B61
:01275D002259
:103DEB007D217F021230DB900841E0604E9008A9E4
:103DFB00E070247BFF7A037966E4900B00F07D067C
:103E0B007F611220327BFF7A037986E4900B00F0FE
:103E1B007D067F711220327BFF7D067F6112493F49
:103E2B007BFF7D077F6112493F7BFF7D087F61121E
:0B3E3B00493F7BFF7D097F6112493F7A
:013E46002259
:1049D300900AE8E0B401047D0280027D017F0112A8
:0349E30030082277
:10422C007BFF7A027926900B007404F07D027F01EB
:10423C001220327BFF7A027946E4900B00F07D026B
:10424C007F111220327BFF7A027966E4900B00F02A
:10425C007D027F211220327BFF7A057906E4900BD8
:09426C002DF07D027F31021E1BC2
:10323A0012422C7BFF7A057946900B2D7401F0FD22
:10324A007F71121E1B7BFF7A057906900B2D740184
:10325A00F0FD7F79121E1B7BFF7A057916900B2DE4
:10326A007401F0FD7F99121E1B7BFF7A057956E4E3
:10327A00900B2DF07D037F71121E1B7BFF7A05795F
:10328A0006E4900B2DF07D037F79121E1B7BFF7ADB
:10329A00057916E4900B2DF07D037F99121E1B7B96
:1032AA00FF7A057926900B2D7401F0FD7FB1121E6D
:1032BA001B7BFF7A057936E4900B2DF07D037FB1F5
:1032CA00121E1B7BFF7A057966E4900B2DF07D03B5
:0532DA007FB9021E1B7C
:102A20007BFF7A027926900B007401F0FDFF1220E3
:102A3000327BFF7A027946900B007401F0FD7F1122
:102A40001220327BFF7A027966900B007401F0FD50
:102A50007F211220327BFF7A057906900B2D7401BD
:102A6000F0FD7F31121E1B7BFF7A027986E4900B0A
:102A700000F07D037F011220327BFF7A0279A6E409
:102A8000900B00F07D037F111220327BFF7A0279D8
:102A9000C6E4900B00F07D037F211220327BFF7A89
:102AA000057906E4900B2DF07D037F31121E1B7B10
:102AB000FF7A057946900B2D7401F0FD7F71121E8F
:102AC0001B7BFF7A057906900B2D7401F0FD7F7951
:102AD000121E1B7BFF7A057916900B2D7401F0FDF9
:102AE0007F99121E1B7BFF7A057926900B2D7401AE
:102AF000F0FD7FB1121E1B7BFF7A057956E4900B27
:102B00002DF07D037F71121E1B7BFF7A057906E491
:102B1000900B2DF07D037F79121E1B7BFF7A0579C8
:102B200016E4900B2DF07D037F99121E1B7BFF7A1C
:102B3000057936E4900B2DF07D037FB1121E1B7BCF
:102B4000FF7A057966E4900B2DF07D037FB9021EB4
:012B50001B69
:10434B007BFF7A0579767D067C007F317E001245F6
:10435B00437BFF7A0579BE7D067C007F497E001288
:10436B0045437BFF7A0679067D067C007F617E00E4
:10437B001245437BFF7A06794E7D067C007F797E62
:04438B0000024543A4
:10438F007BFF7A0979667D067C007F017E001245EE
:10439F00437BFF7A0979AE7D067C007F197E001280
:1043AF0045437BFF7A0979F67D067C007F317E00DD
:1043BF001245437BFF7A0A793E7D067C007F497E5A
:0443CF000002454360
:103EF7007BFF7A0679967D067C007F217E0012453E
:103F0700437BFF7A0679DE7D067C007F397E0012CF
:103F170045437BFF7A0779267D067C007F517E002B
:103F27001245437BFF7A07796E7D067C007F697EA9
:103F3700001245437BFF7A0779B67D067C007F81B7
:053F47007E000245436D
:103F4C007BFF7A0779FE7D067C007F217E0012457F
:103F5C00437BFF7A0679DE7D067C007F397E00127A
:103F6C0045437BFF7A0779267D067C007F517E00D6
:103F7C001245437BFF7A07796E7D067C007F697E54
:103F8C00001245437BFF7A0779B67D067C007F8162
:053F9C007E0002454318
:1043D3007BFF7A0879467D067C007F017E001245CB
:1043E300437BFF7A0579767D067C007F197E001278
:1043F30045437BFF7A08798E7D067C007F317E0002
:104403001245437BFF7A0879D67D067C007F497E7F
:04441300000245431B
:10457C00124493123EA07D017F05123EA4E4FD7F00
:10458C000C123EA47F0112485A7FC012485A1242A4
:10459C002C7D027F011230087D057F02123008123B
:0745AC00434B7F020222498C
:1046B200124493123EA07D017F05123EA412323AAB
:1046C200E4FD7F0C123EA47F0112485A7FC01248BB
:0E46D2005A123EF71230047D057F02023008B6
:1046E000124493123EA07D017F05123EA412323A7D
:1046F000E4FD7F0C123EA47F0112485A7FC012488D
:0E4700005A123F4C1230047D057F0202300831
:10470E00124493123EA07D017F05123EA4122A2070
:10471E00E4FD7F0C123EA412438F7F0112485A7F94
:0E472E00C012485A1230047D057F0202300886
:10468300123EA07D017F05123EA4122A201243D3BD
:10469300E4FD7F0C123EA47F0112485A7FC01248EA
:0F46A3005A7D047F011230087D067F0202300825
:10479300123EA07D017F05123EA412323A1230046C
:1047A3007D057F02123008E4FD7F0C123EA47F01D9
:0847B30012485A7FC002485A67
:1047BB00123EA07D017F05123EA412323A12300444
:1047CB007D057F02123008E4FD7F0C123EA47F01B1
:0847DB0012485A7FC002485A3F
:1047E300123EA07D017F05123EA412323A1230041C
:1047F3007D057F02123008E4FD7F0C123EA47F0189
:0848030012485A7FC002485A16
:10480B00123EA07D017F05123EA412323A123004F3
:10481B007D057F02123008E4FD7F0C123EA47F0160
:08482B0012485A7FC002485AEE
:103FA100900BA5EFF0A3EDF0124493900BA5E070F8
:103FB10021A3E014600F1460111460132403701224
:103FC10012434B800D1246B280081246E080031264
:103FD1004683900BA5E0B4011BA3E014600D1460AF
:103FE1000D14600D2403700C0247930247BB024776
:053FF100E312480B2261
:101694004107CF004107CB014107D1004107CE00EC
:0816A400410841004107D0009C
:1049F900E4900752F0A3F0A3F0A3F0A3F0A3F022F0
:10495A00E49007C5F0A3F0A3F0A3F0A3F09007C07A
:0A496A00F0A3F0A3F0A3F0A3F022E5
:104906009008A87401F09008447403F0A3EFF0A394
:0E491600EDF0A3EBF0900B91E0900848F0223A
:103961009008F2E014602714603514604E2403704F
:103971006D9007CBE0600FE49008F2F0900AE80444
:10398100F012457C80447F021222490249D39007FC
:10399100CBE0601C9008F27401F01246B2802B90CB
:1039A10007CBE0600B9008F27402F01246E0801A37
:1039B1007F021222491228BF0225F39007CBE06053
:1039C1000F9008F27403F012470EE49007CBF02237
:1039D1007F011222491228BF1225F302275EE490CB
:0439E10008F2F022D6
:1048A6009007CBE06009124683E49007CBF0227FA5
:1048B600011222491228BF1225F312275E123DEB80
:0148C60022CF
:01000A0022D3
:01008A002253
:10195800A290B3E4339007C0F09007C5E0701A90E6
:1019680007C0E0B4010CE49008ABF09007C504F0A0
:101978008028E49007C5F080219007C0E07011909E
:1019880007C5F09008ABE0B401101238DBE480061C
:101998009007C57401F09008ABF0A287B3E43390C8
:1019A80007C1F09007C6E0701A9007C1E0B4010CB7
:1019B800E49008AEF09007C604F08028E49007C6CB
:1019C800F080219007C1E070119007C6F09008AE32
:1019D800E0B40110123BE1E480069007C67401F000
:1019E8009008AEF0A286B3E4339007C2F09007C720
:1019F800E0701C9007C2E0B4010DE49008B1F090CB
:101A080007C704F0021A99E49007C7F0021A9990E0
:101A180007C2E070169007C7F09008B1E064017043
:101A280070124A09E49008B1F080669007C7740103
:101A3800F09008B1F09008F2E0640270549007D179
:101A4800E004F0E0640A7049900842F09008A904A4
:101A5800F09007CD7406F0E49007CCF07B01900A73
:101A68002C04F0A37408F0A37442F0A3EBF0A37461
:101A780007F0A374CDF0A3EBF0A37407F0A374CC24
:101A8800F07A0879A97D207F0112372CE49007D1DC
:101A9800F0A285B3E4339007C3F09007C8E0701C48
:101AA8009007C3E0B4010DE49007BBF09007C804A9
:101AB800F0021B4DE49007C8F0021B4D9007C3E0ED
:101AC80070169007C8F09007BBE064017077124A5F
:101AD80055E49007BBF0806D9007C87401F090073B
:101AE800BBF09008F2E0FF64026005EF64037055F4
:101AF8009007D1E004F0E0640A704A900842F09040
:101B080008A97402F09007CD7406F0E49007CCF0B1
:101B18007B01900A2C04F0A37408F0A37442F0A38C
:101B2800EBF0A37407F0A374CDF0A3EBF0A3740754
:101B3800F0A374CCF07A0879A97D207F0112372CA4
:101B4800E49007D1F0A284B3E4339007C4F090077F
:101B5800C9E070189007C4E0B4010BE49007BEF028
:101B68009007C904F022E49007C9F0229007C4E066
:101B780070159007C9F09007BEE064017070124AB2
:101B880056E49007BEF0229007C97401F09007BE92
:101B9800F09008F2E0640370559007D1E004F0E09B
:101BA800640A704A900842F09008A97403F09007FC
:101BB800CD7406F0E49007CCF07B01900A2C04F079
:101BC800A37408F0A37442F0A3EBF0A37407F0A386
:101BD80074CDF0A3EBF0A37407F0A374CCF07A08EB
:0F1BE80079A97D207F0112372CE49007D1F022DC
:1038DB009008F1E07034A3E01460231460201460AE
:1038EB001D14601A24047022900AE8E0FFB401044E
:1038FB00E4F08016EF7013900AE804F0800C900847
:10390B00F2E014F09007CB7401F09008F1E0B401F1
:10391B000FE4F09007CFF09008F2F09007CB04F093
:10392B009008F1E0B402137401F09007CFF0900807
:10393B00F27404F09007CB7401F09008F1E0B4033B
:10394B00147402F09007CF14F09008F27405F09005
:06395B0007CB7401F0220D
:103BE1009008F1E07025A3E004F09007CB7401F098
:103BF1009008F2E0B404149008F17401F09007CF3A
:103C0100F09007CBF09008F27403F09008F1E0B463
:103C1100021AA3E004F0E0B406129008F17403F074
:103C21009007CB7401F09008F27405F09008F1E070
:103C3100B4031AA3E004F0E0B407129008F174048D
:0E3C4100F09007CB7401F09008F27406F022A8
:104A09009008F2E024FC600280057F02123AED2250
:014A5500223E
:014A5600223D
:103AED00900BAAEFF0BF01247BFF7A047906E490D6
:103AFD000B00F07D087F611220327BFF7A0479265E
:103B0D00E4900B00F07D087F71122032900BAAE03B
:103B1D00B402247BFF7A0379A6E4900B00F07D08B4
:103B2D007F611220327BFF7A047946E4900B00F01E
:103B3D007D087F71122032900BAAE0B403247BFF25
:103B4D007A0379C6E4900B00F07D087F6112203274
:103B5D007BFF7A047946E4900B00F07D087F7112AB
:033B6D00203222E1
:064A37009008F1EFF022EF
:10498E00E4900842F09008A9F09007CD7403F0E48B
:09499E009007CCF0900841F022D2
:1030DB00900BA7EFF0A3EDF0900841E060030231F5
:1030EB008B9007CEE0704312498E900BA8E0FF90B7
:1030FB000BA7E0FD900A2C7401F0A37408F0A374E5
:10310B0042F0A37401F0A37407F0A374CDF0A37481
:10311B0001F0A37407F0A374CCF07B017A0879A9B2
:10312B0012372C9007CEE004F022900BA8E0FF9012
:10313B000BA7E0FD900B4A7401F0A37408F0A37485
:10314B0042F0A37401F0A37407F0A374CDF0A37441
:10315B0001F0A37407F0A374CCF07B017A0879A972
:10316B001242759007CCE0D3940A50079008417433
:10317B0001F0229007CEE004F0E0B40508E4F02261
:06318B00E49007CEF022E3
:103C4F009007CFE0702A7D0D7F301230DB90084156
:103C5F00E060169008A9E0B402089007CF7401F055
:103C6F00800EE49007CFF08007E49007D0F0800635
:103C7F009007D07401F09007D0E0602F9007CFE04D
:103C8F00601E9008F1E024FE600C14600E24027098
:103C9F00171248A6801212000A800D12008A80089F
:0C3CAF00E49008F1F0123961121958225B
:1016AC004202D0A001610002D200C1814001C08081
:1016BC004101C0804100C1814001C0804100C18115
:1016CC004000C1814001C0804101C0804100C18106
:1016DC004000C1814001C0804100C1814001C080F7
:1016EC004101C0804100C1814001C0804100C181E5
:1016FC004000C1814001C0804100C1814001C080D7
:10170C004101C0804100C1814000C1814001C080C5
:10171C004101C0804100C1814001C0804100C181B4
:10172C004000C1814001C0804101C0804100C181A5
:10173C004000C1814001C0804100C1814001C08096
:10174C004101C0804100C1814000C1814001C08085
:10175C004101C0804100C1814001C0804100C18174
:10176C004000C1814001C0804100C1814001C08066
:10177C004101C0804100C1814001C0804100C18154
:10178C004000C1814001C0804101C0804100C18145
:10179C004000C1814001C0804100C1814001C08036
:1017AC004101C0804100C18140610003D200C0C131
:1017BC0001C30302C2C60607C705C5C404CC0C0D81
:1017CC00CD0FCFCE0E0ACACB0BC90908C8D8181931
:1017DC00D91BDBDA1A1EDEDF1FDD1D1CDC14D4D591
:1017EC0015D71716D6D21213D311D1D010F0303121
:1017FC00F133F3F23236F6F737F53534F43CFCFDC1
:10180C003DFF3F3EFEFA3A3BFB39F9F83828E8E950
:10181C0029EB2B2AEAEE2E2FEF2DEDEC2CE42425D0
:10182C00E527E7E62622E2E323E12120E0A0606140
:10183C00A163A3A26266A6A767A56564A46CACAD00
:10184C006DAF6F6EAEAA6A6BAB69A9A86878B8B9B0
:10185C0079BB7B7ABABE7E7FBF7DBDBC7CB4747510
:10186C00B577B7B67672B2B373B17170B050909160
:10187C00519353529296565797559594549C5C5D40
:10188C009D5F9F9E5E5A9A9B5B99595898884849D0
:10189C00894B8B8A4A4E8E8F4F8D4D4C8C44848550
:1018AC0045874746868242438341818040602004BD
:1018BC00D20000CC01D8011400F0013C002800E457
:1018CC0001A0016C007800B40150009C0188014417
:0118DC00000B
:1032DF0090071BEBF0A3EAF0A3E9F0A3ECF0A3ED4A
:0132EF00F0EE
:1032F00074FF900722F0A3F090071E74FFF5F01200
:103300001E0545F0607490071BE0FBA3E475F00117
:10331000121E05A9F0FA121CEDFF900722E0F0A39F
:10332000E06FF0E4900720F0A3F0C3900721E09451
:1033300008900720E06480948050BD900722E0FE52
:10334000A3E0FF30E019EEC313FEEF13FFEE64A01D
:10335000FEEF6401FF900722EEF0A3EFF0800B90E8
:103360000722E0C313F0A3E013F0900721E004F07C
:1033700070B8900720E004F080B0900722E0FEA330
:02338000E0FF6C
:013382002228
:0837BF00900B7FECF0A3EDF08C
:1037C70074FF900B82F0A3F0ED4C7007900B7FF025
:1037D700A304F0900B7F74FFF5F0121E0545F0600F
:1037E7005E121CEDFF900B82E0F0A3E06FF0E49017
:1037F7000B81F0900B82E0FEA3E0FF30E023EEC3E5
:1038070013FEEF13FF900B82EEF0A3EFF09002D0C0
:10381700E0FEA3E0FF900B82E06EF0A3E06FF08084
:103827000B900B82E0C313F0A3E013F0900B81E041
:1038370004F0E0B408BD740129F9E43AFA809490E1
:073847000B82E0FEA3E0FF8D
:01384E002257
:103E4700900B84EBF0A3EAF0A3E9F0A3ECF0A3ED69
:013E5700F07A
:103E58007FFF7DFF900B8774FFF5F0121E0545F07C
:103E68006031900B84E0FBA3E475F001121E05A9F4
:103E7800F0FA121CED6DFB7A0024D2F582E43402CC
:103E8800F583E06FFD74D22BF582E43403F583E00B
:073E9800FF80C1EFFEEDFF0A
:013E9F002200
:102E3C00900B5EEBF0A3EAF0A3E9F0A3ECF0A3EDAA
:012E4C00F095
:102E4D0074FFA3F0A3F0E4A3F0A3F0900B61E0FEF8
:102E5D00A3E0FFC3900B66E09F900B65E09E4003DF
:102E6D00022F18900B5EE0FBA3E475F001121E0516
:102E7D00A9F0FA121CEDFDFF900B63A3E06F540F48
:102E8D0025E0FFE433FE74D22FF58274043EF58302
:102E9D00E0FAA3E0FB900B63E0C4F854F0C868FEC1
:102EAD00A3E0C4540F48FFEA6EFEEB6FFF900B6377
:102EBD00EEF0A3EFF0EDC4540FFF900B63A3E06FA2
:102ECD00540F25E0FFE433FE74D22FF58274043ED7
:102EDD00F583E0FAA3E0FB900B63E0C4F854F0C86F
:102EED0068FEA3E0C4540F48FFEA6EFEEB6FFF903F
:102EFD000B63EEF0A3EFF0900B66E004F0600302BD
:102F0D002E58900B65E004F0022E58900B63E0FEF6
:032F1D00A3E0FF2F
:012F2000228E
:054833009007B9EDF053
:10483800E4FFFE9007B9E0FDC3EF9DEE9400501130
:10484800E4121D660429F9E43AFA0FBF00010E804C
:01485800E27D
:01485900223C
:083FF600E0FBA3E0FAA3E0F9EF
:0B3FFE0090074BEBF0A3EAF0A3E9F002
:10400900E4FF900751E0FEEFC39E503590074EE064
:10401900FBA3E0FAA3E0F9121CEDFE90074BE0FBCD
:10402900A3E0FAA3E0F9EE121D6690074CE475F0DF
:1040390001121DEF90074FE475F001121DEF0F807B
:01404900C1B5
:01404A002253
:1049A7009007B7EFF0E4A3F07B017A0779537D64B2
:0749B7001248337A0779531F
:0149BE0022D6
:0B2C5300900711EBF0A3EAF0A3E9F0FA
:102C5E007F33A3E0F9A3E0FAA3E0A3C9F0A3EAF05F
:102C6E00A3E9F0900711E0FBA3E0FAA3E0F99000CE
:102C7E0065121D06D394005003022D3190074EEBC2
:102C8E00F0A3EAF0A3E9F0900064121D069007513C
:102C9E00F0900717123FF6900711E0FBA3E0FAA39E
:102CAE00E0F9900064121D06FD124833900711E002
:102CBE00FBA3E0FAA3E02401F9E43AFA90074EEB05
:102CCE00F0A3EAF0A3E9F0900711A3E0FAA3E0F96C
:102CDE00900065121D0614900751F0123FFE9007EA
:102CEE0011E0FBA3E0FAA3E0F990006574FF121D5A
:102CFE0033900065121D067E0029F9EE3AFAC003E4
:102D0E00C002C001900711E0FBA3E0FAA3E0F99026
:102D1E000064121D06FDD001D002D0031248337F8D
:102D2E00118022900711E0FBA3E0FAA3E0F99000D6
:102D3E0064121D06FD900717E0FBA3E0FAA3E0F96D
:052D4E001248337F3341
:012D5300225D
:0B36940090073FEBF0A3EAF0A3E9F081
:10369F007FAAA3E0F9A3E0FAA3E0A3C9F0A3EAF09D
:1036AF00A3E9F090073FE0FBA3E0FAA3E0F9900055
:1036BF0065121D06FEFD7C00E92DF9EC3AFA900724
:1036CF0048EBF0A3EAF0A3E9F090073FA3E0FAA3D9
:1036DF00E0F9900064121D06FD8EF0A4FEC3746421
:1036EF009EC39D4035900745E0F9A3E0FAA3E09013
:1036FF00074EC9F0A3EAF0A3E9F0A3EDF090074855
:10370F00123FF690073FE0FBA3E0FAA3E0F9900029
:0C371F00657401121D337F2280027F338D
:01372B00227B
:1018DD00420A25000042097B000042097D000041BB
:0718ED00097F0041098000A2
:0B3D2600900B89EBF0A3EAF0A3E9F09A
:103D3100E4FFA3F0900B89E0FBA3E0FAA3E0F99084
:103D41000030121D06900B8DF0E024FEFDE434FFDF
:103D5100FC1232DFEF900B8CF0EEFFA3E0FE24FFAC
:103D6100FDE434FFFC900B89E0FBA3E0FAA3E0F94A
:103D71008D828C83EF121D78900B8CE0FFEE7C001E
:0D3D810024FEF582EC34FFF583EF021D787F
:0B39E500900715EBF0A3EAF0A3E9F057
:1039F000E4A3F0900715E0FBA3E0FAA3E0F9900040
:103A000030121D06FF900719F0E4A3F0EF24FEFD2D
:103A1000E434FFFC1232DFEF900718F0EEFFA3E072
:103A2000FE24FEFDE434FFFC900715E0FBA3E0FA62
:103A3000A3E0F98D828C83121D06FD900718E0B576
:103A4000051AEE7C0024FFF582EC34FFF583121D8D
:103A500006B5070890071A7401F08005E490071A6C
:083A6000F090071AE0FF7E0060
:013A6800223B
:0B244000900707EBF0A3EAF0A3E9F01F
:10244B00E4A3F0A3F0A3F0900710F090070AF0902C
:10245B00070AE0FFC3940240030225ED74252FF514
:10246B0082E4340AF583E0640160030225D590070A
:10247B000AE02425F582E4340AF583E4F090071092
:10248B0004F0EF75F066A42457F582E43405F58368
:10249B00E090070CF0E490070BF090070CE0FF9036
:1024AB00070BE0FEC39F505A900707E0FBA3E0FA2F
:1024BB00A3E0F9EEFF7E00E92FF9EE3AFA90070D53
:1024CB00EBF0A3EAF0A3E9F090070AE075F066A43D
:1024DB0024F2F9740435F0FA7B01C002C0019007B5
:1024EB000DE0F9A3E0FAA3E0900714C9F0A3EAF01A
:1024FB00A3E9F0D001D002122C5390070BE004F0AB
:10250B00809890070BE0FF900707E0FBA3E0FAA38E
:10251B00E0F9900030EF121D78900001121D062497
:10252B00FA604A24F670030225C0248D606324FDF3
:10253B006071248360030225D5900707E0FBA3E0BD
:10254B00FAA3E0F9121CED7006900031048076902E
:10255B000030121D06FFB40807900031740280652D
:10256B00EFD39408406990003174048058900707AA
:10257B00E0FBA3E0FAA3E0F9121CEDFF700790005B
:10258B003174068040EF6401704590003174078010
:10259B0034900707E0FBA3E0FAA3E0F99000317455
:1025AB00058022900707E0FBA3E0FAA3E0F9900077
:1025BB003174088010900707E0FBA3E0FAA3E0F961
:1025CB009000317409121D788005E4900710F0908B
:1025DB000708E475F032121DEF90070AE004F002D1
:0725EB00245A900710E0FFE5
:0125F20022C6
:0E000E0090070BEBF0A3EAF0A3E9F0A3EDF0EE
:10001C00E4A3F0F9A3C9F0A3F0A3E9F090070BE077
:10002C00F9A3E0FAA3E0900710C9F0A3EAF0A3E962
:10003C00F0E490070FF090070BE0FBA3E0FAA3E0CD
:10004C00F9900030121D06FF90070FE0C39F50235C
:10005C00A3E0FBA3E0FAA3E0F990070EE0FD124049
:10006C00A0900711E475F001121DEF90070FE0044A
:03007C00F080C34E
:01007F00225E
:0B3CBB00900707EBF0A3EAF0A3E9F08C
:103CC600E4A3F0F090070AE0FFC394025051EF70AE
:103CD6001A900707E0FBA3E0FAA3E0F9121CEDFF38
:103CE600900981E0B507047D01801F90070AE0B4C2
:103CF600011B900707E0FBA3E0FAA3E0F9121CED15
:103D0600FF900981E0B50705E4FD12000E90070853
:0F3D1600E475F032121DEF90070AE004F080A56B
:013D2500227B
:0B11E400900707EBF0A3EAF0A3E9F08E
:1011EF00E490070DF0900714F0121CEDFF900982A8
:1011FF00E06F6003021693900707E0FBA3E0FAA3EA
:10120F00E0F91239E5EF4E7003021693900707E0ED
:10121F00FBA3E0FAA3E0F9900031121D0624FC7045
:10122F000302135C14700302158C24FE7003021466
:10123F00E514700302160F2406600302169390073D
:10124F000AE0FBA3E0FAA3E0F97403121D6690070E
:10125F0007E0FBA3E0FAA3E0F9900002121D06FFDE
:10126F0090070AE0FBA3E0FAA3E0F9900001EF1268
:10127F001D78900707E0FBA3E0FAA3E0F9900003C5
:10128F00121D06FF90070AE0FBA3E0FAA3E0F99016
:10129F000002EF121D78900707E0FBA3E0FAA3E02E
:1012AF00F9900004121D06FF90070AE0FBA3E0FA75
:1012BF00A3E0F9900003EF121D78900707E0FBA35E
:1012CF00E0FAA3E0F9900005121D06FF90070AE06F
:1012DF00FBA3E0FAA3E0F9900004EF121D78900051
:1012EF00647401121D78E92403F9E43AFA90070EA9
:1012FF00EBF0A3EAF0A3E9F090070AE0FBA3E0FA12
:10130F00A3E02404F9E43AFA900711EBF0A3EAF012
:10131F00A3E9F090070AA3E0FAA3E0F99000011205
:10132F001D06FF900002121D06FD900711E0F9A3A4
:10133F00E0FAA3E090071AC9F0A3EAF0A3E9F0904E
:10134F00070EE0FBA3E0FAA3E0F90235FA90098B50
:10135F00E064036003021693900707E0FBA3E0FA33
:10136F00A3E0F9900030121D0624FCFFE434FFC304
:10137F0013EF13FF900714F090070AE0FBA3E0FAB6
:10138F00A3E0F9900064EF121D78E490070DF09040
:10139F000714E0FF90070DE0C39F400302169390E0
:1013AF00070AE0FBA3E0FAA3E0F9A3E0FF75F0055D
:1013BF00A4F58285F0837403121D7890098CE0FDEB
:1013CF00EF75F005A429F9EA35F0FA900001ED1256
:1013DF001D7890070DE0FF90098DE02F900002120D
:1013EF001D78900707E0FBA3E0FAA3E02403F9E4DC
:1013FF003AFA75F002EFA4F58285F083121D06FD0F
:10140F00EF75F005A4FF90070AE0FBA3E0FAA3E055
:10141F002FF9EA35F0FA900003ED121D78900707C7
:10142F00E0FBA3E0FAA3E0F990070DE0FF75F002EF
:10143F00A42404F582E435F0F583121D06FDEF7543
:10144F00F005A4FFAEF090070AE0FBA3E0FAA3E0DB
:10145F002FF9EA3EFA900004ED121D78E92403F902
:10146F00E43AFA90070EEBF0A3EAF0A3E9F0900745
:10147F000AE0FBA3E0FAA3E02FF9EA3EFAE924041D
:10148F00F9E43AFA900711EBF0A3EAF0A3E9F09030
:10149F00070AA3E0FAA3E02FF9EA3EFA900001123F
:1014AF001D06FF900002121D06FD900711E0F9A323
:1014BF00E0FAA3E090071AC9F0A3EAF0A3E9F090CD
:1014CF00070EE0FBA3E0FAA3E0F91235FA90070D3F
:1014DF00E004F002139E90070AE0FBA3E0FAA3E0FA
:1014EF00F99000647401121D787406121D6690073E
:1014FF0007E0FBA3E0FAA3E0F9900002121D06FF3C
:10150F0090070AE0FBA3E0FAA3E0F9900001EF12C5
:10151F001D78900707E0FBA3E0FAA3E0F990000322
:10152F00121D06FF90070AE0FBA3E0FAA3E0F99073
:10153F000002EF121D78900707E0FBA3E0FAA3E08B
:10154F00F9900004121D06FF90070AE0FBA3E0FAD2
:10155F00A3E0F9900003EF121D78900707E0FBA3BB
:10156F00E0FAA3E0F9900005121D06FF90070AE0CC
:10157F00FBA3E0FAA3E0F990000402168F90070A8C
:10158F00E0FBA3E0FAA3E0F99000647401121D7868
:10159F007483121D66900707E0FBA3E0FAA3E0F93E
:1015AF00900002121D06FF90070AE0FBA3E0FAA3CA
:1015BF00E0F9900001EF121D78900707E0FBA3E020
:1015CF00FAA3E0F9900003121D06FF90070AE0FB53
:1015DF00A3E0FAA3E0F9900002EF121D789007073D
:1015EF00E0FBA3E0FAA3E0F9900004121D06FF90C0
:1015FF00070AE0FBA3E0FAA3E0F990000302168FBD
:10160F0090070AE0FBA3E0FAA3E0F99000647401ED
:10161F00121D787486121D66900707E0FBA3E0FA8F
:10162F00A3E0F9900002121D06FF90070AE0FBA34A
:10163F00E0FAA3E0F9900001EF121D78900707E0A0
:10164F00FBA3E0FAA3E0F9900003121D06FF900739
:10165F000AE0FBA3E0FAA3E0F9900002EF121D7875
:10166F00900707E0FBA3E0FAA3E0F9900004121D36
:10167F0006FF90070AE0FBA3E0FAA3E0F99000034E
:04168F00EF121D78C1
:011693002234
:10355F00900B67EBF0A3EAF0A3E9F0900982E0FF8C
:10356F00900B67E0FBA3E0FAA3E0F9EF121D669062
:10357F000B6AE0FBA3E0FAA3E0F9121CEDFF900B3E
:10358F0067E0FBA3E0FAA3E0F9900001EF121D78CA
:10359F00900B6AE0FBA3E0FAA3E0F9900001121D83
:1035AF0006FF900B67E0FBA3E0FAA3E0F99000029F
:1035BF00EF121D78900B6AE0FBA3E0FAA3E0F990FD
:1035CF000002121D06FF900B67E0FBA3E0FAA3E0D9
:1035DF00F9900003EF121D789000307406121D78D9
:0B35EF009000317401121D78023D268F
:102F2100900B6DEBF0A3EAF0A3E9F0900982E0FFCA
:102F3100900B6DE0FBA3E0FAA3E0F9EF121D6690A0
:102F41000B70E0FBA3E0FAA3E0F9121CEDFF900B7C
:102F51006DE0FBA3E0FAA3E0F9900001EF121D7808
:102F6100900B70E0FBA3E0FAA3E0F9900001121DC1
:102F710006FF900B6DE0FBA3E0FAA3E0F9900002DD
:102F8100EF121D78900B70E0FBA3E0FAA3E0F9903B
:102F91000002121D06FF900B6DE0FBA3E0FAA3E017
:102FA100F9900003EF121D78900B70E0FBA3E0FA9B
:102FB100A3E0F9900003121D06FF900B6DE0FBA347
:102FC100E0FAA3E0F9900004EF121D78900B70E095
:102FD100FBA3E0FAA3E0F9900004121D06FF900B99
:102FE1006DE0FBA3E0FAA3E0F9900005EF121D7874
:102FF1009000307408121D789000317406121D780B
:03300100023D2667
:103B7000900B73EBF0A3EAF0A3E9F0A3E0FBA3E062
:103B8000FAA3E0F9900064121D06D394004051128C
:103B90001CED24FA602724037046900B76E0F9A30D
:103BA000E0FAA3E0900B6AC9F0A3EAF0A3E9F09071
:103BB0000B73E0FBA3E0FAA3E0F902355F900B760C
:103BC000E0F9A3E0FAA3E0900B70C9F0A3EAF0A338
:103BD000E9F0900B73E0FBA3E0FAA3E0F9122F21C8
:013BE00022C2
:10476900900031121D06B40420900707E0FBA3E076
:10477900FAA3E0F9748B121D66900707E0FBA3E02A
:09478900FAA3E0F97D04124833A3
:014792002204
:0D00960090098274FFF09009817401F0223E
:1034C200E4FFEF75F066A42457F582E43405F58332
:1034D200E0FED394004064747B2FF582E43409F556
:1034E20083E0B5060F747D2FF582E43409F583E09D
:1034F20004F0800C747D2FF582E43409F583E4F046
:10350200747D2FF582E43409F583E0C39402400D03
:1035120074252FF582E4340AF5837401F0EF75F017
:1035220066A42457F582E43405F583E0FE747B2F0C
:10353200F582E43409F583EEF08018747B2FF5826E
:10354200E43409F583E4F0747D2FF582E43409F55F
:0C35520083E4F00FEF640260030234C455
:01355E00224A
:104192007B017A0A799A7D3212483390097FE06472
:1041A2000A7034900A9A74FFF0A37403F0A3743077
:1041B200F0E4A3F0A3F0A304F0A3749EF0A374D4DC
:1041C200F0900ACA7408F0E490097FF07B017A0A41
:0D41D200799A7D0102000E90097FE004F053
:0141DF0022BD
:1041E0007B017A09798F7D641248337B017A0679E5
:1041F000A27D651248337B017A09798F122440EF42
:1042000060297B017A09798F123CBB90070A7401FF
:10421000F0A37406F0A374A2F07B017A0979C112AD
:0B42200011E47B017A09798F124769D5
:01422B002270
:094A1900123424120A86020096F0
:103383007B017A0679A27D32124833900980E0648A
:10339300019006A2704374FFF0A37403F0A374308A
:1033A300F0E4A3F0A3F0A37409F0A3749FF0A37453
:1033B30012F09006D27408F0E4900980F090098B23
:1033C3007403F0A37430F0E4A3F0A37414F07B014E
:1033D3007A0679A27D0102000E74FFF0A37403F054
:1033E300A37430F0A37409F0E4A3F0A37409F0A369
:1033F300744FF0A37410F09006D27408F090098B08
:103403007403F0A37430F0A37409F0A37414F07B75
:10341300017A0679A27D0112000E900980E004F082
:013423002286
:064A3D001234C2024A4FD0
:064A43001241E002473CB5
:10427500900B47EBF0A3EAF0A3E9F0AE07AF05AD6D
:1042850006900B47E0F9A3E0FAA3E0900B58C9F0BC
:10429500A3EAF0A3E9F0900B50E0F9A3E0FAA3E05C
:1042A500900B5BC9F0A3EAF0A3E9F0900B4AE0FBA1
:0942B500A3E0FAA3E0F902319143
:10372C00900A27EFF0A3EDF0A3EBF0A3EAF0A3E9E6
:01373C00F09C
:10373D007B017A0979F37D321248337B017A0A795C
:10374D00357D65124833900A28E0900A36F0900ACC
:10375D0027E0900A37F0900A2CE0FBA3E0FAA3E0F3
:10376D00F9121CED900A38F0900A29E0FBA3E0FA5B
:10377D00A3E0F9121CED900A39F0900A2FE0FBA39B
:10378D00E0FAA3E0F9121CED900A35F0900A997455
:10379D0001F0900B76F0A3740AF0A37435F07B0161
:1037AD007A0979F3123B707B017A0979F37D010275
:0237BD00000EFC
:100A86009000017430F0A37401F090000574FFF03B
:100A96009000077430F0A37402F090000B74FFF01E
:100AA60090000D7430F0A37403F090001174FFF001
:100AB6009000137430F0A37404F090001774FFF0E4
:100AC6009000197430F0A37405F090001D74FFF0C7
:100AD60090001F7430F0A37406F090002374FFF0AA
:100AE6009000257430F0A37407F090002974FFF08D
:100AF60090002B7430F0A37408F090002F74FFF070
:100B06009000317430F0A37409F090003574FFF052
:100B16009000377430F0A3740AF090003B74FFF035
:100B260090003D7430F0A3740BF090004174FFF018
:100B36009000437430F0A3740CF090004774FFF0FB
:100B46009000497430F0A3740DF090004D74FFF0DE
:100B560090004F7430F0A3740EF090005374FFF0C1
:100B66009000557430F0A3740FF090005974FFF0A4
:100B760090005B7430F0A37410F090005F74FFF087
:100B86009000617430F0A37411F090006574FFF06A
:100B96009000677430F0A37412F090006B74FFF04D
:100BA60090006D74F0F0A37401F090007174FFF082
:100BB60090007374F0F0A37402F090007774FFF065
:100BC60090007974F0F0A37403F090007D74FFF048
:100BD60090007F74F0F0A37404F090008374FFF02B
:100BE6009000857401F0E4A3F090008974FFF09002
:100BF600008B7401F0A3F090008F74FFF0900091C9
:100C06007401F0A304F090009574FFF090009774BF
:100C160001F0A37403F090009B74FFF090009D74A4
:100C260001F0A37404F09000A174FFF09000A37487
:100C360001F0A37405F09000A774FFF09000A9746A
:100C460001F0A37406F09000AD74FFF09000AF744D
:100C560001F0A37407F09000B374FFF09000B57430
:100C660001F0A37408F09000B974FFF09000BB7413
:100C760001F0A37409F09000BF74FFF09000C174F6
:100C860001F0A3740AF09000C574FFF09000C774D9
:100C960001F0A3740BF09000CB74FFF09000CD74BC
:100CA60001F0A3740CF09000D174FFF09000D3749F
:100CB60001F0A3740DF09000D774FFF09000D97482
:100CC60001F0A3740EF09000DD74FFF09000DF7465
:100CD60001F0A3741FF09000E374FFF09000E57438
:100CE60001F0A37410F09000E974FFF09000EB742B
:100CF60001F0A37411F09000EF74FFF09000F1740E
:100D060001F0A37412F09000F574FFF09000F774F0
:100D160001F0A37413F09000FB74FFF09000FD74D3
:100D260001F0A37414F090010174FFF090010374B4
:100D360001F0A37415F090010774FFF09001097497
:100D460001F0A37416F090010D74FFF090010F747A
:100D560001F0A37417F090011374FFF0900115745D
:100D660001F0A3741EF090011974FFF090011B743A
:100D760001F0A3741FF090011F74FFF0900121741D
:100D860001F0A37420F090012574FFF09001277400
:100D960001F0A37421F090012B74FFF090012D74E3
:100DA60001F0A37422F090013174FFF090013374C6
:100DB60001F0A37423F090013774FFF090013974A9
:100DC60001F0A37424F090013D74FFF090013F748C
:100DD60001F0A37425F090014374FFF0900145746F
:100DE60001F0A37426F090014974FFF090014B7452
:100DF60002F0E4A3F090014F74FFF09001517402E9
:100E0600F0A314F090015574FFF09001577402F0AE
:100E1600A3F090015B74FFF090015D7402F0A304EF
:100E2600F090016174FFF09001637402F0A3740402
:100E3600F090016774FFF09001697402F0A37405E5
:100E4600F090016D74FFF090016F7402F0A37406C8
:100E5600F090017374FFF09001757402F0A37407AB
:100E6600F090017974FFF090017B7402F0A374088E
:100E7600F090017F74FFF09001817402F0A3740971
:100E8600F090018574FFF09001877402F0A3740A54
:100E9600F090018B74FFF090018D7402F0A3740B37
:100EA600F090019174FFF09001937402F0A3740C1A
:100EB600F090019774FFF09001997402F0A3740DFD
:100EC600F090019D74FFF090019F7402F0A3740EE0
:100ED600F09001A374FFF09001A57402F0A3740FC3
:100EE600F09001A974FFF09001AB7402F0A37410A6
:100EF600F09001AF74FFF09001B17402F0A3741189
:100F0600F09001B574FFF09001B77402F0A374126B
:100F1600F09001BB74FFF09001BD7402F0A374134E
:100F2600F09001C174FFF09001C37402F0A3741431
:100F3600F09001C774FFF09001C97402F0A3741514
:100F4600F09001CD74FFF09001CF7402F0A37416F7
:100F5600F09001D374FFF09001D57402F0A37417DA
:100F6600F09001D974FFF09001DB7402F0A37418BD
:100F7600F09001DF74FFF09001E17402F0A37419A0
:100F8600F09001E574FFF09001E77402F0A3741A83
:100F9600F09001EB74FFF09001ED7402F0A3741B66
:100FA600F09001F174FFF09001F37402F0A3741C49
:100FB600F09001F774FFF09001F97402F0A3741D2C
:100FC600F09001FD74FFF09001FF7402F0A3741E0F
:100FD600F090020374FFF09002057402F0A3741FF0
:100FE600F090020974FFF090020B7402F0A37420D3
:100FF600F090020F74FFF09002117402F0A37421B6
:10100600F090021574FFF09002177402F0A3742298
:10101600F090021B74FFF090021D7402F0A374237B
:10102600F090022174FFF09002237402F0A374245E
:10103600F090022774FFF09002297402F0A3742541
:10104600F090022D74FFF090022F7402F0A3742624
:10105600F090023374FFF09002357402F0A3742707
:10106600F090023974FFF090023B7402F0A37428EA
:10107600F090023F74FFF09002417402F0A37429CD
:10108600F090024574FFF09002477402F0A3742AB0
:10109600F090024B74FFF090024D7402F0A3742B93
:1010A600F090025174FFF09002537402F0A3742C76
:1010B600F090025774FFF09002597403F0E4A3F025
:1010C60090025D74FFF090025F7403F0A37401F068
:1010D60090026374FFF09002657403F0A314F0901D
:1010E600026974FFF090026B7403F0A3F090026F34
:1010F60074FFF09002717403F0A304F0900275740B
:10110600FFF09002777403F0A37405F090027B74ED
:10111600FFF090027D7403F0A37406F090028174D0
:10112600FFF09002837403F0A37407F090028774B3
:10113600FFF09002897404F0E4A3F090028D74FF2E
:10114600F090028F7404F0A37401F090029374FF80
:10115600F09002957404F0A37402F090029974FF63
:10116600F090029B7404F0A314F090029F74FFF0B9
:101176009002A17404F0A3F09002A574FFF090020F
:10118600A77404F0A304F09002AB74FFF09002ADD4
:101196007404F0A37406F09002B174FFF09002B3E9
:1011A6007404F0A37407F09002B774FFF09002B9CC
:1011B6007404F0A37408F09002BD74FFF09002BFAF
:1011C6007404F0A37409F09002C374FFF09002C592
:0E11D6007404F0A3740AF09002C974FFF022B2
:1035FA00900715EFF0900717EBF0A3EAF0A3E9F0B4
:10360A00E4FF75F006EFA42401F582E5F03400F535
:10361A0083E0FE900715E0FCEE6C706475F006EF2F
:10362A00A42402F582E5F03400F583E06D70519030
:10363A000717E0FBA3E0FAA3E0F9121CEDFE75F010
:10364A0006EFA42403F582E5F03400F583EEF0904A
:10365A00071AE0FBA3E0FAA3E0F9121CEDFE75F0ED
:10366A0006EFA42404F582E5F03400F583EEF07544
:10367A00F006EFA42405F582E5F03400F583E4F0C2
:09368A000FEF6478600302360CB6
:013693002214
:10319100900B53EFF0900B55EBF0A3EAF0A3E9F09D
:1031A100E4FF75F006EFA42401F582E5F03400F5A3
:1031B10083E0FE900B53E0FCEE6C707375F006EF4C
:1031C100A42402F582E5F03400F583E06D706075AA
:1031D100F006EFA42403F582E5F03400F583E0FE68
:1031E100900B55E0FBA3E0FAA3E0F9EE121D667522
:1031F100F006EFA42404F582E5F03400F583E0FE47
:10320100900B58E0FBA3E0FAA3E0F9EE121D6675FE
:10321100F006EFA42405F582E5F03400F583E0FE25
:10322100900B5BE0FBA3E0FAA3E0F9EE121D660F41
:08323100EF647860030231A391
:013239002272
:10473C00E4FF75F006EFA42405F582E5F03400F5EE
:10474C0083E0F4601275F006EFA42405F582E5F021
:0C475C003400F583E004F00FEFB478D6D1
:01476800222E
:03000B00024306A7
:10430600C0E0C0F0C083C082C0D075D000C000C07D
:1043160001C002C003C004C005C006C007758A807C
:10432600758C44C28DD28C124A52D007D006D00565
:10433600D004D003D002D001D000D0D0D082D08318
:05434600D0F0D0E032D0
:0300A300024417FD
:10441700C0E0C0F0C083C082C0D075D000C000C06B
:1044270001C002C003C004C005C006C00775D3B0F1
:1044370075D23C1244CED007D006D005D004D003A5
:10444700D002D001D000D0D0D082D083D0F0D0E03D
:014457003232
:03008B0002492403
:10492400C0E0C0F0C083C082C0D075D0081245E991
:0B493400D0D0D082D083D0F0D0E03291
:03009300024458CC
:10445800C0E0C0F0C083C082C0D075D000C000C02A
:1044680001C002C003C004C005C006C00712461E32
:10447800D007D006D005D004D003D002D001D00098
:0B448800D0D0D082D083D0F0D0E03242
:0300000002384F74
:0C384F00787FE4F6D8FD75810F023896F2
:0A00800053D10F75D3B075D23C22A6
:1049E600438E805389F0758A80758C44C28DD28C33
:0349F600D2A92221
:0700030043D18043AF40220E
:074A220053D17F53AFBF2207
:074A290043D18043AF40229E
:074A300053D17F53AFBF22F9
:064A49001200800249E6A4
:103A6900E490068DF0F090068DE0FFC39402507348
:103A7900EF75F066A42423F582E43406F583E0D3D8
:103A890094004057748A64044406604F90068DE0A0
:103A990075F066A424BEF9740535F0FA7B01C003FC
:103AA900900714EBF0A37406F0A3748CF0D0031202
:103AB9002C5390068DE0FF701090068A7404F0D2A2
:103AC900CB90068CE0F5858012EFB4010E90068B41
:103AD9007404F0D2CA90068CE0F5AD90068DE0042E
:033AE900F08083E7
:013AEC0022B7
:10342400759850438E40538EFE53890F758B8F755C
:103434008DFDC2ABD28ED2AC75AC1043AC4053D12F
:10344400FD75D5CC75D4FF43D10843AF08758410FE
:103454005384BF538EFB75D7CC75D6FF438E104370
:10346400AF10D2AFE4900752F07F011249A7C00118
:10347400900752E075F066A424BEF9740535F0A8EF
:1034840001FC7D01D0017E007F66121CC77F011202
:1034940049A7C001900752E075F066A424F2F974BC
:1034A4000435F0A801FC7D01D0017E007F66121C6A
:0D34B400C7900752E004F0E0C3940240AC62
:0134C10022E8
:034A4F00023A69BF
:0B40A000900713EBF0A3EAF0A3E9F097
:1040AB00ED75F066A424BEF9740535F0FA7B01C0FA
:1040BB0002C001900713E0F9A3E0FAA3E0900742D6
:1040CB00C9F0A3EAF0A3E9F0D001D002123694EFC5
:1040DB00B42207E4900716F080069007167401F0DF
:0540EB00900716E0FF44
:0140F00022AD
:0B40F100900B92EBF0A3EAF0A3E9F0C3
:1040FC00ED75F066A424F2F9740435F0FA7B01C076
:10410C0002C001900B92E0F9A3E0FAA3E09007142F
:10411C00C9F0A3EAF0A3E9F0D001D002122C53EFBE
:10412C00B41107E4900B95F08006900B957402F097
:05413C00900B95E0FF6F
:01414100225B
:1045E900E5AC30E02090072AE5ADF0900742740170
:1045F900F0A37407F0A3742AF07B017A05795812A5
:10460900369453ACFEE5AC30E10A53ACFDE49006B8
:044619008BF0C2CA96
:01461D00227A
:10461E00E58430E0205384FE90073EE585F0900758
:10462E00427401F0A37407F0A3743EF07B017A0488
:10463E0079F2123694E58430E10A5384FDE4900653
:04464E008AF0C2CB61
:014652002245
:10497400EF75F066A42457F582E43405F583E0D39B
:0A498400940040037F01227F00220F
:102D54008080808080808080010101010101010167
:102D6400FF0000000000000000000000000000FF61
:102D74008181818181818181808080808080808047
:102D8400000000000000000000000000000000003F
:102D94000101010101010101FF0000000000000028
:102DA400FF0000000000000000000000000000FF21
:102DB40000000000000000FF808080808080808010
:102DC40080808080808080800000000000000000FF
:102DD40000000000000000000000000000000000EF
:102DE40000000000000000000101010101010101D7
:102DF4000101010101010101FF00000000000000C8
:102E04000000000000000000FF00000000000000BF
:102E140000000000000000000000000000000000AE
:102E240000000000000000FF00000000000000009F
:082E340000000000000000FF97
:10488000E4FDFCC3ED9FEE6480F8EC648098501565
:10489000E4FBFA0BBB00010AEB646E4A70F50DBD38
:0548A00000010C80DEA8
:0148A50022F0
:10450900C2C97F017E0012451DC2C8AF01124142D6
:04451900D2C97F0183
:10451D00E4FDFCC3ED9FEE6480F8EC6480985015CB
:10452D00E4FBFA0BBB00010AEB64014A70F50DBD0B
:05453D0000010C80DE0E
:014542002256
:10414200EF20E704C2B58002D2B5EF20E604C2A791
:104152008002D2A7EF20E504C2A68002D2A6EF20F9
:10416200E404C2A58002D2A5EF20E304C2A4800227
:10417200D2A4EF20E204C2A38002D2A3EF20E10482
:10418200C2A28002D2A2EF20E003C2A122D2A122C7
:0649BF00FF1248F87F30F2
:0E49C500A907C2B7C2B6124509D2B7C2C922AD
:1048E700E0FBA3E0FAA3E0F98F82758300121D06AF
:0148F700FFC1
:0E48F800A907C2B7D2B6124509D2B7C2C9226B
:102B5100C2C1C2A07F647E00124880D2A012488008
:102B61007F301249C57F941249C57F311249C57F13
:102B7100D71249C57F9F1248F87F321249C5E4FF39
:102B81001248F87F011248F87F031248F87F20129B
:102B910049C57F011248F87F031248F87F051248A2
:102BA100F87F071248F87F091248F87F0B1248F89E
:102BB1007F0D1248F87F101248F87F111248F87FF4
:102BC100131248F87F151248F87F171248F87F1939
:102BD1001248F87F1B1248F87F1D1248F87F1F1218
:102BE10049C07F751249C5E4FF1248F87F141248A5
:102BF100F87F151249C5E4FF1248F87FFF1248F823
:102C01007FBC1249C5E4FF1248F87FA61248F87F3D
:102C1100CA1249C5E4FF1248F87F9F1248F87F2085
:102C21001248F87FF01249C57F101248F87F8112CF
:102C310049C57F301248F87F031248F87F201249B6
:102C4100C57F0B1248F87F647E0012451D7FAF02DD
:022C510049C573
:10404B00900754EFF0A3EDF0A3EAF0A3EBF0900789
:10405B0054E014F0A3E02407F07F151249C5900734
:10406B0054E0FF1248F8900756A3E0FF900754E086
:10407B002F14FF1248F87F751249C5A3E0FF1248B1
:10408B00F8900758A3E0FF900755E02F141249BF93
:05409B007F5C0249C535
:103D8E00900B79EFF0A3EDF0A3EAF0A3EBF0900B1C
:103D9E0079E014F0A3E02407F07F151249C5900BCB
:103DAE0079E0FF1248F8900B7BA3E0FF900B79E0CF
:103DBE002FF0E014F0E0FF1248F87F751249C5A30A
:103DCE00E0FF1248F8900B7DA3E0FF900B7AE02FF6
:0D3DDE00F0E014F0E01249BF7F5C0249C51F
:10449300900758E4F0A3740DF07BC17A00E4FDFFAC
:1044A30012404BE4900752F0E4900753F0E4FF12FC
:1044B30048F8900753E004F0E0C394C140EF90073D
:0A44C30052E004F0E0C3940D40DE67
:0144CD0022CC
:0B42BE00900B96EBF0A3EAF0A3E9F0F0
:1042C900900758E4F0A304F07B087A0012404BE40D
:1042D900900B99F0900B96E0FBA3E0FAA3E0F9129A
:1042E9001CEDFF1248F8900B97E475F001121DEFD1
:0C42F900900B99E004F0E0C3940840D85A
:014305002295
:10493F00900BABEBF0900758E4F0A304F0FB7A0078
:0B494F0012404B900BABE0FF0248F859
:0B1E1B00900B2AEBF0A3EAF0A3E9F023
:101E2600900B7DE4F0A37402F07B087A00123D8EDD
:101E3600900B3F7401F0A3740BF0A3742FF0E490A1
:101E46000B2EF0900B2AE0FBA3E0FAA3E0F9900B2F
:101E56002EE0FFF582758300121D06FE900B3FE013
:101E6600FBA3E0FAA3E0F98F82758300EE121D78DA
:101E7600900B2EE004F0E0B410C9900B2DE0540155
:101E8600D39400405A900B4274FFF0A3742DF0A334
:101E9600747CF0E4900B2EF0900B3FE0FBA3E0FA8D
:101EA600A3E0F9900B2EE0FFE92FF9E43AFAC0031C
:101EB600C002C001121CEDFE900B42E0FBA3E0FA4B
:101EC600A3E0F98F82758300121D064ED001D00261
:101ED600D003121D66900B2EE004F0E0B410B9900A
:101EE6000B2DE05402D39400405A900B4274FFF03D
:101EF600A3742DF0A3748CF0E4900B2EF0900B3F9E
:101F0600E0FBA3E0FAA3E0F9900B2EE0FFE92FF93E
:101F1600E43AFAC003C002C001121CEDFE900B4267
:101F2600E0FBA3E0FAA3E0F98F82758300121D0699
:101F36004ED001D002D003121D66900B2EE004F0A5
:101F4600E0B410B9900B2DE05404D39400405A909D
:101F56000B4274FFF0A3742DF0A3749CF0E4900B75
:101F66002EF0900B3FE0FBA3E0FAA3E0F9900B2ED6
:101F7600E0FFE92FF9E43AFAC003C002C001121CDF
:101F8600EDFE900B42E0FBA3E0FAA3E0F98F827529
:101F96008300121D064ED001D002D003121D66909A
:101FA6000B2EE004F0E0B410B9900B2DE05408D3EA
:101FB6009400405A900B4274FFF0A3742DF0A37462
:101FC600ACF0E4900B2EF0900B3FE0FBA3E0FAA3FD
:101FD600E0F9900B2EE0FFE92FF9E43AFAC003C0CE
:101FE60002C001121CEDFE900B42E0FBA3E0FAA337
:101FF600E0F98F82758300121D064ED001D002D003
:1020060003121D66900B2EE004F0E0B410B9E490C4
:102016000B2EF0900B2EE0FFC39410500E900B3F4A
:0B2026001248E7900B2EE004F080E869
:01203100228C
:0B203200900AFDEBF0A3EAF0A3E9F038
:10203D00900B7DE4F0A37402F07B107A00123D8EBC
:10204D00900B227401F0A3740BF0A37402F0E490D2
:10205D000B01F0900AFDE0FBA3E0FAA3E0F9900B71
:10206D0001E0FFF582758300121D06FE900B22E044
:10207D00FBA3E0FAA3E0F98F82758300EE121D78C1
:10208D00900B01E004F0E0B420C9900B00E0540186
:10209D00D39400405A900B2574FFF0A3742DF0A338
:1020AD0074BCF0E4900B01F0900B22E0FBA3E0FA7E
:1020BD00A3E0F9900B01E0FFE92FF9E43AFAC00330
:1020CD00C002C001121CEDFE900B25E0FBA3E0FA4F
:1020DD00A3E0F98F82758300121D064ED001D00248
:1020ED00D003121D66900B01E004F0E0B420B9900E
:1020FD000B00E05402D39400405A900B2574FFF06E
:10210D00A3742DF0A374DCF0E4900B01F0900B227E
:10211D00E0FBA3E0FAA3E0F9900B01E0FFE92FF952
:10212D00E43AFAC003C002C001121CEDFE900B256B
:10213D00E0FBA3E0FAA3E0F98F82758300121D0680
:10214D004ED001D002D003121D66900B01E004F0B9
:10215D00E0B420B9900B00E05404D39400405A90A1
:10216D000B2574FFF0A3742DF0A374FCF0E4900B19
:10217D0001F0900B22E0FBA3E0FAA3E0F9900B0134
:10218D00E0FFE92FF9E43AFAC003C002C001121CC6
:10219D00EDFE900B25E0FBA3E0FAA3E0F98F82752D
:1021AD008300121D064ED001D002D003121D669081
:1021BD000B01E004F0E0B420B9900B00E05408D31B
:1021CD009400405A900B2574FFF0A3742EF0A37465
:1021DD001CF0E4900B01F0900B22E0FBA3E0FAA3BE
:1021ED00E0F9900B01E0FFE92FF9E43AFAC003C0E2
:1021FD0002C001121CEDFE900B25E0FBA3E0FAA33B
:10220D00E0F98F82758300121D064ED001D002D0E9
:10221D0003121D66900B01E004F0E0B420B9E490C8
:10222D000B01F0900B01E0FFC39420500E900B2298
:0B223D001248E7900B01E004F080E87D
:012248002273
:0B454300900B9AEBF0A3EAF0A3E9F064
:10454E00900758E4F0A37403F07B187A0012404BE6
:10455E00E4900B9DF0900B9DE0FFC39448500E909D
:0D456E000B9A1248E7900B9DE004F080E8E6
:01457B00221D
:1048C700E4FDFCC3ED9FEC9E5015E4FBFA0BBB0027
:0F48D700010ABA06F8BB84F50DBD00010C80E4A0
:0148E60022AF
:014A5700223C
:05008E001245B380FEE5
:1018F4004608BC0103F10211224808B4FF03F202B6
:10190400AA552333602708CAFF03300004010203E9
:1019140004050607080910111213141516171819CF
:1019240020212223242526272829303132CCCC48D3
:1019340008C20106F099325555AA480971FF83F08F
:1019440099885555AA4208F755AA420979000041D9
:0319540008B300D5
:1045B300124A577FC87E001248C7122B51124493E8
:1045C30078527C077D017B017A0879F17E007F06B2
:1045D300121CC71249F9C2CAC2CB124A19124A495C
:0645E300120003024A2948
:034A5200024A3DD8
:1044CE0090069F7406F0A37402F0E4A3F09008B374
:1044DE00E07005123383801C9008B3E0FFB4020332
:1044EE0004F022EFB4030DD2C4124A43C2C4E490C6
:0A44FE0008B3F0229008B3E004F0C8
:014508002290
:10385B0002008EE493A3F8E493A34003F68001F2F5
:10386B0008DFF48029E493A3F85407240CC8C3336E
:10387B00C4540F4420C8834004F456800146F6DF3D
:10388B00E4800B0102040810204080901694E47E23
:10389B00019360BCA3FF543F30E509541FFEE49332
:1038AB00A360010ECF54C025E060A840B8E493A3F9
:1038BB00FAE493A3F8E493A3C8C582C8CAC583CA24
:1038CB00F0A3C8C582C8CAC583CADFE9DEE780BEDC
:01195700008F
:101BF700E709F608DFFA8046E709F208DFFA803ED0
:101C070088828C83E709F0A3DFFA8032E309F608BC
:101C1700DFFA8078E309F208DFFA807088828C8324
:101C2700E309F0A3DFFA806489828A83E0A3F608D8
:101C3700DFFA805889828A83E0A3F208DFFA804CB2
:101C470080D280FA80C680D4806980F28033801089
:101C570080A680EA809A80A880DA80E280CA8033F2
:101C670089828A83ECFAE493A3C8C582C8CCC5836A
:101C7700CCF0A3C8C582C8CCC583CCDFE9DEE7803A
:101C87000D89828A83E493A3F608DFF9ECFAA9F0B9
:101C9700EDFB2289828A83ECFAE0A3C8C582C8CC0F
:101CA700C583CCF0A3C8C582C8CCC583CCDFEADE28
:101CB700E880DB89828A83E493A3F208DFF980CC8A
:101CC70088F0EF60010E4E60C388F0ED2402B40483
:101CD7000050B9F582EB2402B4040050AF2323452A
:061CE7008223901C4773EC
:101CED00BB010689828A83E0225002E722BBFE02F5
:091CFD00E32289828A83E4932228
:101D0600BB010CE58229F582E5833AF583E0225092
:101D160006E92582F8E622BBFE06E92582F8E222DC
:0D1D2600E58229F582E5833AF583E49322F6
:101D3300BB010FF8E58229F582E5833AF583E028B4
:101D4300F0225009C58229F8E58226F622BBFE0956
:101D5300C58229F8E22582F222F8EA2583F583E990
:031D6300932822A0
:101D6600BB010689828A83F0225002F722BBFE015C
:021D7600F32256
:101D7800F8BB010DE58229F582E5833AF583E8F0A1
:101D8800225006E92582C8F622BBFE05E92582C84D
:021D9800F22235
:101D9A00BC000BBE0029EF8DF084FFADF022E4CC2D
:101DAA00F875F008EF2FFFEE33FEEC33FCEE9DECF6
:101DBA00984005FCEE9DFE0FD5F0E9E4CEFD22ED3C
:101DCA00F8F5F0EE8420D21CFEADF075F008EF2F86
:101DDA00FFED33FD4007985006D5F0F222C398FD77
:051DEA000FD5F0EA2214
:101DEF00C5F0F8A3E028F0C5F0F8E582158270027F
:061DFF001583E038F0221C
:101E0500A3F8E0C5F025F0F0E58215827002158390
:061E1500E0C838F0E822ED
:00000001FF
