:1000A60000001F11111111FF111111111F00000085
:1000B6000000F810101010FE11111111F9010F00B7
:1000C60008080BFF0908007F4040407F0000000041
:1000D60020C000FF00C106F8000000FC02021E005E
:1000E60000000F090909093F09090909090F00005C
:1000F6000000F020202020FE2222222222F20C00E4
:10010600000404053F0504041F1010101F00000022
:1001160000306080FE02C24CF0000000FE020604C1
:10012600000202423300003F2425244444C5460011
:1001360000000204F8041AE20A12A242A2120A02FB
:100146000000007F40404F4848484F40407F000035
:10015600000000FE0404E4242424E40404FE000059
:100166002021273A2223040817E424272C340700E9
:100176004080FE0808FC0106F89090FC9291FE0073
:10018600083022222222A2632222222222283000A2
:1001960001020478040202FE222222222202020026
:1001A600020242330000000000FF000000000000D1
:1001B600000000FC09120418E000E0180402010027
:1001C6000000003F2424272424444444C54600005C
:1001D60000020CF1010202C4281028448202010127
:1001E60000004040434040407F4141414141400082
:1001F60000020202FE020202FE02020202020202E3
:10020600001F10103053921212131010101F00000E
:1002160000FF000000F8101010F8000201FE0000B8
:1002260000040C35C60C003F24A4642424243C009E
:100236000044E644484A1CE0FF90FE90FC91FF0013
:100246002021273A222300404F4141417F010100EE
:100256004080FE0808FC0010101010121102FC006D
:10026600010179494949790701794D4B49790100DD
:1002760010102F2949498F00804F4929291F100046
:100286000202423300044444454644444404000008
:10029600000204F8042272A2222222A26232020082
:1002A60000081123CC00024242424342424202006D
:1002B600408000FF000000000201FE000000000078
:1002C600094A2C08FF082C4A010EF110101F1000D5
:1002D60041596AC6444A71000102CC30CC02010081
:1002E60020202223F22222232424F42D242020005D
:1002F60002222424A830207F2030A82424220200B1
:1003060000001F925232121F123252921F0000003A
:100316000808C848484848FF48484848C8080800E8
:1003260000020C88690909896909091928C80A0C93
:1003360000202020202022217E60A02020202020B6
:10034600000040404048444340404040407F000059
:1003560000001018102020204040828102FC00007E
:100366000000001F113151911111111F00000000F2
:10037600000000FF22222222222222FF000000008B
:10038600022223222222020808FF0808080F000082
:10039600083CC808281D020C7080020102FC0000FF
:1003A600014141417F41414141417F41414101007C
:1003B6000001020CF00000000000FF000000000039
:1003C600000008886808080F080828C80800000008
:1003D600818182828488B0C0B088848282818100D3
:1003E600000003020202FE12121212131010000085
:1003F6000102EC2020282620282620E008070000FD
:1004060001061FE000202E2AAA6A2A2A2E200000B2
:100416000000FF00C080A0A2A1BEA0A0A080C000D6
:100426000000000F000000FF0202020202000000AE
:10043600020202FE020202FE0202020202020200A0
:10044600001F80600000404040404040407F000068
:1004560000FF0000000000000000000201FE000096
:1004660000000F1F10161F0F0000E0F0D010F0E084
:100476000004040C1F1F000000000000F0F0000044
:10048600000C1C10111F0E00003070D090101000D0
:10049600000C1C11111F0E000060701010F0E0001F
:1004A60000001F1F0007070000C0C04040F0F040DA
:1004B600001F1F11111110000010101030E0C000B5
:1004C6000003071E1A13010000E0F01010F0E00010
:1004D60000101011171E1800000070F080000000B8
:1004E600000E1F13111F0E0000E0F01090F0E00048
:1004F600000F1F10101F0F00000090B0F0C080000A
:1005060000000000000000000000D8D80000000035
:100516000000000000000000000000303030000045
:1005260000070F18180F070000F0F08080F0F000A9
:10053600001F1F01011F1F0000F0F00000F0F00077
:100546000000101F1F100000000010F0F010000047
:10055600001F1F111111100000F0F0000000000034
:100566000004040405070600003070D09010100047
:1005760000000000030301010101011F1F01010129
:10058600010303010000000000000000FFFF11113D
:10059600111111FFFF11111111FFFF0000010000E1
:1005A60000000000C0C00000000000F8FC0C0C0CAD
:1005B6000C8C8C0C1CFC180000000000001F0F00A7
:1005C600010101000F0F0404040F0F0400000000D6
:1005D6000080838EFCFFFF90888E8C00FFFF00005A
:1005E60000FFFF00000003004080000000FCFC004C
:1005F60004081060C000000000F8F8181838F81059
:1006060000000001010101010111191D0F01010185
:1006160001010103070303000000000000000000C1
:100626000007FFFC90101010103F3F100000000064
:100636000000000404081830E0C0801010080C0CFC
:100646003CF8E00000000000000000030101010189
:10065600071D191101010101010101030301000038
:10066600000000FFFF00007F3F212121217F3F2066
:10067600000000FFFF000000000000FCFC0000C0BE
:10068600C00000000080800008080CFCF800000094
:100696000004040404040404040407070404040412
:1006A6000404040C0C04000000000000000000001C
:1006B6000000FFFF202010181C0E0F000000000095
:1006C60000000000000000000000FCFC000000002C
:1006D60000000000000000000000000F0F08080BDB
:1006E6000E0C040F0F0808080808080F0F0000007A
:1006F600000000FFFF01E1B11F0F00FFFF90909E79
:10070600939091FBF6060000000000FCFC00808040
:10071600800008FCF8181020A0C0603038181000BF
:10072600000000000001071E0C0800000010180E53
:1007360006000000010100000004081060FF7F4071
:100746000080B09E87818080809FFEF0A080800020
:100756000000000000FCFC0808080808C8C80808D3
:10076600F8880808183818080000000000080E0766
:100776000300100C0F070000031E0C080000000009
:1007860000081939F141515151515151575355D919
:1007960059715951E3E763010000000000000000B1
:1007A6000008080CFCF80000000000000000000033
:1007B6000000000004040404040404040404040403
:1007C60004040F0F04000000000000000101018175
:1007D60083C3F372260404040808FFFF0000000028
:1007E6000000000080C0808000000000101010187B
:1007F6001C38F8F0000000000000000000000000B7
:1008060000001F0F0F08000000000000000000009D
:1008160000000000000000000000FFFFFF20202075
:10082600202060E06020000000080808080808088A
:100836000808F8F8F808080808080818381808001A
:10084600000404040405070604040C1C0C04031F1E
:100856001C0800000003010000223272F2A23F3F92
:10086600A2E266760A70FC87818FFFF8C0808080DE
:10087600001018181810F0F020242428081030E072
:10088600E0F038381C080808000002040404070FCA
:100896000C18080000030301001F1F0000000000E1
:1008A600004040434E7CFFFF50C8CEC420199D81B6
:1008B60001FFFF0206060600004080000000FCFC67
:1008C600008080808000000000FCFC00000000002A
:1008D60000000000001F0F000101010101011F1FA0
:1008E6000101010303030000008486868CFFFF9844
:1008F6009090B0181711F0F011173E381000000054
:10090600000008080CFCF8000404080810F0E0E0F9
:10091600B038181C1C080000000000000000000091
:1009260000000000000000000000000000000000C1
:1009360000000000000000000000000000000000B1
:1009460000000000000000000000000000000000A1
:100956000000000000000000000000000000000091
:10096600000000000000080C0707000001061C1824
:1009760000030101000000000000088888888888BC
:10098600888BFFFC8E898888888898B8980800002C
:10099600000004040808103060C080000080C070A9
:1009A60030181C1808080000000000000302201C74
:1009B6001C000008080808080808081F0F000000A7
:1009C60000000000FF000000000000000000000022
:1009D600000000FFFF00000000000000FE00000015
:1009E6000000000000000008080406FCF8000000F3
:1009F6000004040404050F0E0400020202060407A4
:100A06000F0C1808080000000000143BF0D0113F3E
:100A16003C1000FF7F4000FFFF20206063210000A4
:100A2600000004089060E0B0181818989888888C20
:100A36008C8C8C8C8C9890100000000703020202AC
:100A4600070702000000000000001F1F1001010040
:100A5600000000FFFF101010FFFF0080908F8E80B7
:100A66008080FFFF80808080000000F8F8404040D2
:100A7600F0F0000000000008080CFCFC000000007C
:100A8600000000000F0F080A0908080F0F08080BDE
:100A96000B0A0F0F0400000000000004FCFC1414F5
:100AA600D4D414FFFF54D4941414FCFC05010000A4
:100AB60000808C8C9CE08080C0BC9C80C0A0BC98D0
:100AC60080C0A0B09C9C8080000000000404040547
:100AD60007070404040404040F0F080000000000C4
:100AE60000000000000008FCFC0808080808087957
:100AF600F98808081F1F0800000080808080808019
:100B060080808080888884848686067CF8800000C1
:100B160000000202020202020203031F1F12030266
:100B26000202020606060200000C0C1414273F5FA0
:100B3600C58C8CFCF40487FF7F6765343C2C24004D
:100B460008101060C080FCFC00C8E81020C080FCC3
:100B5600FC00C060303010100000000007070202E1
:100B66000202020303020202020203070702000056
:100B760000000000FFFF0808080808FFFF08080833
:100B86000808FFFFFF00000000000000FCFC10103A
:100B9600101010F0F01010101010FCFCF8000000FF
:04480B007D017F01AB
:08480F00900886EFF0A3EDF024
:10481700A37401F0900888E0FFC39419503C9008F6
:1048270087E06015EF75F008A424F9FF900886E08B
:10483700FD7BFF7A3579678016900888E075F00868
:10484700A424F9FF900886E0FD7BFF7A35796F1283
:0A4857004D70900888E004F080BA6C
:014861002234
:05534000900886EFF06B
:10534500A37401F0900887E0FDC3940D50129008F6
:1053550086E0FF7BFF125404900887E004F080E4A8
:015365002225
:0439DB007D037F01E8
:1039DF00900887EDF0900886EFF064017073A3E014
:1039EF0014601324FE602A146042240270637BFF6C
:1039FF007A0179C680067BFF7A0179E690088D748B
:103A0F0007F07D0B7F01122B937BFF7A02790680E3
:103A1F00347BFF7A01792690088D7407F07D0B7F38
:103A2F0001122B937BFF7A01794680197BFF7A0372
:103A3F00792690088D7407F07D0B7F01122B937BF5
:103A4F00FF7A03794690088D740BF0FD7F11122BCE
:103A5F0093900886E064027049A3E024FA601E0484
:103A6F0070407BFF7A01796690088D7407F07D0BAB
:103A7F007FA1122B937BFF7A0179A680197BFF7AA6
:103A8F000279E690088D7407F07D0B7FA1122B93BE
:103A9F007BFF7A03790690088D740BF0FD7FB112CE
:033AAF002B932234
:10510E00E4FE75F010EFA42EF582E435F0F583E59C
:10511E00822466F582E5833404F583E493FD749866
:0F512E002EF582E4340BF583EDF00EEEB410D3C2
:01513D00224F
:05274900900886EFF08E
:10274E009009BD7403F090088F7401F0A3740AF021
:10275E00A37435F0A37401F0A37409F0A374BDF053
:10276E00A37401F0A37409F0A374BCF07B017A0A80
:10277E00799D7D307F09124D27125483900A34E0E3
:10278E00700302297B900A35E0FE900A9DE07C00E2
:10279E002400FFEC3EFE900B7FF0A3EFF0FBAA06A9
:1027AE00D39410EA9427401B7C277D10122051A34E
:1027BE00EFF07C277D10AF03AE02122051AA04ABBE
:1027CE00058005E4900B81F0D3EB94E8EA94034086
:1027DE00217C037DE8AF03AE02122051900B82EFF5
:1027EE00F07C037DE8AF03AE02122051AA04AB05C4
:1027FE008005E4900B82F0D3EB9464EA94004021C0
:10280E007C007D64AF03AE02122051900B83EFF07B
:10281E007C007D64AF03AE02122051AA04AB05808A
:10282E0005E4900B83F0D3EB940AEA940040217CEC
:10283E00007D0AAF03AE02122051900B84EFF07CA4
:10284E00007D0AAF03AE02122051AA04AB0580052B
:10285E00E4900B84F0900B85EBF0900B81E0FF126F
:10286E00510E900886E0B4010F7B017A0B79989097
:10287E00088F7401F0FD8014900886E0B402127B7C
:10288E00017A0B7998E490088FF07D027F39122936
:10289E007C900B82E0FF12510E900886E0B4010F7F
:1028AE007B017A0B799890088F7401F0FD8014905B
:1028BE000886E0B402127B017A0B7998E490088FB7
:1028CE00F07D027F4112297C900B83E0FF12510EA6
:1028DE00900886E0B4010F7B017A0B799890088FEF
:1028EE007401F0FD8014900886E0B402127B017A28
:1028FE000B7998E490088FF07D027F4912297C9025
:10290E000B84E0FF12510E900886E0B4010F7B019C
:10291E007A0B799890088F7401F0FD8014900886D8
:10292E00E0B402127B017A0B7998E490088FF07D67
:10293E00027F5112297C900B85E0FF12510E9008F8
:10294E0086E0B4010F7B017A0B799890088F7401A1
:10295E00F0FD8014900886E0B402127B017A0B79A8
:0D296E0098E490088FF07D027F5912297CBB
:01297B002239
:1017B4009009BD7403F090088F7401F0A3740AF0CB
:1017C400A37435F0A37401F0A37409F0A374BDF0FD
:1017D400A37401F0A37409F0A374BCF07B017A0A2A
:1017E400799D7D307F07124D27125483900A34E08F
:1017F4007003021B40900A35E0FE900A9DE07C00D5
:101804002400FFEC3EFE900B8AF0A3EFF0900B8DCA
:10181400E02FFF900B8CE03EFEE4FD900886122141
:10182400B17F407E427D0F7C00900886E0F8A3E003
:10183400F9A3E0FAA3E0FBD31221A040477B407A4E
:1018440042790F7800900886E0FCA3E0FDA3E0FE57
:10185400A3E0FF12210E900B8EEFF0900886E0FCBF
:10186400A3E0FDA3E0FEA3E0FF7B407A42790F787A
:101874000012210EAC00AD01AE02AF039008861237
:1018840021B18005E4900B8EF07FA07E867D017CE3
:1018940000900886E0F8A3E0F9A3E0FAA3E0FBD304
:1018A4001221A040477BA07A8679017800900886AF
:1018B400E0FCA3E0FDA3E0FEA3E0FF12210E900BE9
:1018C4008FEFF0900886E0FCA3E0FDA3E0FEA3E028
:1018D400FF7BA07A867901780012210EAC00AD015D
:1018E400AE02AF039008861221B18005E4900B8FFD
:1018F400F0E47F107E27FDFC900886E0F8A3E0F971
:10190400A3E0FAA3E0FBD31221A0E440447B107AC5
:1019140027F9F8900886E0FCA3E0FDA3E0FEA3E02D
:10192400FF12210E900B90EFF0900886E0FCA3E0EC
:10193400FDA3E0FEA3E0FFE47B107A27F9F812216F
:101944000EAC00AD01AE02AF039008861221B18047
:1019540004900B90F0E47FE87E03FDFC900886E0A1
:10196400F8A3E0F9A3E0FAA3E0FBD31221A0E4403A
:10197400447BE87A03F9F8900886E0FCA3E0FDA331
:10198400E0FEA3E0FF12210E900B91EFF090088689
:10199400E0FCA3E0FDA3E0FEA3E0FFE47BE87A0320
:1019A400F9F812210EAC00AD01AE02AF0390088627
:1019B4001221B18004900B91F0E47F64FEFDFC9051
:1019C4000886E0F8A3E0F9A3E0FAA3E0FBD3122130
:1019D400A0E440427B64FAF9F8900886E0FCA3E0B6
:1019E400FDA3E0FEA3E0FF12210E900B92EFF09016
:1019F4000886E0FCA3E0FDA3E0FEA3E0FFE47B6433
:101A0400FAF9F812210EAC00AD01AE02AF03900852
:101A1400861221B18004900B92F0E47F0AFEFDFC53
:101A2400900886E0F8A3E0F9A3E0FAA3E0FBD31260
:101A340021A0E440427B0AFAF9F8900886E0FCA36E
:101A4400E0FDA3E0FEA3E0FF12210E900B93EFF064
:101A5400900886E0FCA3E0FDA3E0FEA3E0FFE47BA6
:101A64000AFAF9F812210EAC00AD01AE02AF0390F0
:101A740008861221B18004900B93F0900886A3A3EA
:101A8400A3E0900B94F0900B8EE0FF12510E7B01BB
:101A94007A0B7998E490088FF07D037F2912297CD2
:101AA400900B8FE0FF12510E7B017A0B7998E49032
:101AB400088FF07D037F3112297C900B90E0FF1298
:101AC400510E7B017A0B7998E490088FF07D037FA7
:101AD4003912297C900B91E0FF12510E7B017A0B95
:101AE4007998E490088FF07D037F4112297C900B54
:101AF40092E0FF12510E7B017A0B7998E490088FE3
:101B0400F07D037F4912297C900B93E0FF12510E64
:101B14007B017A0B7998E490088FF07D037F511252
:101B2400297C900B94E0FF12510E7B017A0B79987B
:0C1B3400E490088FF07D037F5912297C9B
:011B40002282
:10000E009009BD7403F090088F7401F0A3740AF088
:10001E00A37435F0A37401F0A37409F0A374BDF0BA
:10002E00A37401F0A37409F0A374BCF07B017A0AE7
:10003E00799D7D307F06124D27125483900A34E04D
:10004E006033900A35E0FE900A9DE07C002400FFAC
:10005E00EC3EFEE4FD900B861221B1900B8CE0FE7F
:10006E00A3E07810C333CE33CED8F9FFE4FCFD9075
:06007E000B861221B122E5
:102F51009009BD7403F090088F7401F0A3740AF016
:102F6100A37435F0A37401F0A37409F0A374BDF048
:102F7100A37401F0A37409F0A374BCF07B017A0A75
:102F8100799D7D30E4FF124D27125483900A34E07D
:102F910070030230ED900A35E0FE900A9DE07C005E
:102FA1002400FFEC3EFE900B71F0A3EFF0FBAA06AC
:102FB100D39410EA9427401B7C277D10122051A343
:102FC100EFF07C277D10AF03AE02122051AA04ABB3
:102FD100058005E4900B73F0D3EB94E8EA94034089
:102FE100217C037DE8AF03AE02122051900B74EFF8
:102FF100F07C037DE8AF03AE02122051AA04AB05B9
:103001008005E4900B74F0D3EB9464EA94004021C2
:103011007C007D64AF03AE02122051900B75EFF07E
:103021007C007D64AF03AE02122051AA04AB05807F
:1030310005E4900B75F0D3EB940AEA940040217CEF
:10304100007D0AAF03AE02122051900B76EFF07CA7
:10305100007D0AAF03AE02122051AA04AB05800520
:10306100E4900B76F0900B77EBF0900B73E0FF128E
:10307100510E7B017A0B799890088F7401F0FD7FD6
:103081008112297C900B74E0FF12510E7B017A0BA7
:10309100799890088F7401F0FD7F8912297C900B3B
:1030A10075E0FF12510E7B017A0B799890088F74AD
:1030B10001F0FD7F9112297C900B76E0FF12510EF9
:1030C1007B017A0B799890088F7401F0FD7FA11232
:1030D100297C900B77E0FF12510E7B017A0B7998D6
:0C30E10090088F7401F0FD7FA912297C7B
:0130ED0022C0
:102DAA009009BD7403F090088F7401F0A3740AF0BF
:102DBA00A37435F0A37401F0A37409F0A374BDF0F1
:102DCA00A37401F0A37409F0A374BCF07B017A0A1E
:102DDA00799D7D307F05124D27125483900A34E085
:102DEA007003022F50900A35E0FE900A9DE07C00A5
:102DFA002400FFEC3E900B78F0A3EFF0900B71E00B
:102E0A00FEA3E0FBAA06D39410EA9427401F7C276E
:102E1A007D10AF03122051900B7AEFF07C277D10C2
:102E2A00AF03AE02122051AA04AB058005E4900B51
:102E3A007AF0D3EB94E8EA940340217C037DE8AF6F
:102E4A0003AE02122051900B7BEFF07C037DE8AFBA
:102E5A0003AE02122051AA04AB058005E4900B7B55
:102E6A00F0D3EB9464EA940040217C007D64AF03C4
:102E7A00AE02122051900B7CEFF07C007D64AF0310
:102E8A00AE02122051AA04AB058005E4900B7CF037
:102E9A00D3EB940AEA940040217C007D0AAF03AE8A
:102EAA0002122051900B7DEFF07C007D0AAF03AE39
:102EBA0002122051AA04AB058005E4900B7DF09024
:102ECA000B7EEBF0900B7AE0FF12510E7B017A0B2E
:102EDA007998E490088FF07D037F8112297C900B0A
:102EEA007BE0FF12510E7B017A0B7998E490088FF0
:102EFA00F07D037F8912297C900B7CE0FF12510E32
:102F0A007B017A0B7998E490088FF07D037F911208
:102F1A00297C900B7DE0FF12510E7B017A0B799888
:102F2A00E490088FF07D037FA112297C900B7EE04C
:102F3A00FF12510E7B017A0B7998E490088FF07D8D
:062F4A00037FA912297C9F
:012F5000225E
:10414400E4900BF4F07B03FDFF12545390088F743A
:1041540001F0A3740AF0A37435F0A37401F0A374FE
:1041640009F0A374BDF0A37401F0A37409F0A3745F
:10417400BCF07B017A0A799D7D027F21124D2712C2
:104184005483900A34E0604E900A9DE070247BFFD3
:104194007A037966E490088DF07D067F61122B9393
:1041A4007BFF7A037986E490088DF07D067F711297
:1041B4002B937BFF7D067F611254047BFF7D077F79
:1041C400611254047BFF7D087F611254047BFF7DE0
:0641D400097F6112540492
:0141DA0022C2
:1054AD00900B95E0B401047D0280027D017F011215
:0354BD0039DF22B2
:104CDE007BFF7A02792690088D7404F07D027F01A5
:104CEE00122B937BFF7A027946E490088DF07D02B9
:104CFE007F11122B937BFF7A027966E490088DF078
:104D0E007D027F21122B937BFF7A057906E49008B2
:094D1E008FF07D027F3102297C37
:103D8A00124CDE7BFF7A05794690088F7401F0FDAC
:103D9A007F7112297C7BFF7A05790690088F74015E
:103DAA00F0FD7F7912297C7BFF7A05791690088FBE
:103DBA007401F0FD7F9912297C7BFF7A057956E41C
:103DCA0090088FF07D037F7112297C7BFF7A057939
:103DDA0006E490088FF07D037F7912297C7BFF7AB5
:103DEA00057916E490088FF07D037F9912297C7B70
:103DFA00FF7A05792690088F7401F0FD7FB11229A8
:103E0A007C7BFF7A057936E490088FF07D037FB1D9
:103E1A0012297C7BFF7A057966E490088FF07D038E
:053E2A007FB902297CB4
:103245007BFF7A02792690088D7401F0FDFF122B21
:10325500937BFF7A02794690088D7401F0FD7F110A
:10326500122B937BFF7A02796690088D7401F0FD2D
:103275007F21122B937BFF7A05790690088F7401C5
:10328500F0FD7F3112297C7BFF7A027986E4900874
:103295008DF07D037F01122B937BFF7A0279A6E4E3
:1032A50090088DF07D037F11122B937BFF7A0579B2
:1032B50006E490088FF07D037F2112297C7BFF7A3D
:1032C50005794690088F7401F0FD7F7112297C7B8A
:1032D500FF7A05790690088F7401F0FD7F79122930
:1032E5007C7BFF7A05791690088F7401F0FD7F9934
:1032F50012297C7BFF7A05792690088F7401F0FDF1
:103305007FB112297C7BFF7A057956E490088FF00E
:103315007D037F7112297C7BFF7A057906E490088D
:103325008FF07D037F7912297C7BFF7A057916E47E
:1033350090088FF07D037F9912297C7BFF7A0579B0
:1033450036E490088FF07D037FB112297C7BFF7AEC
:0F335500057966E490088FF07D037FB902297C2B
:104DFD007BFF7A0579767D067C007F317E00124F30
:104E0D00FE7BFF7A0579BE7D067C007F497E001210
:104E1D004FFE7BFF7A0679067D067C007F617E0062
:104E2D00124FFE7BFF7A06794E7D067C007F797EE0
:044E3D0000024FFE22
:104E41007BFF7A0979667D067C007F017E00124F27
:104E5100FE7BFF7A0979AE7D067C007F197E001208
:104E61004FFE7BFF7A0979F67D067C007F317E005B
:104E7100124FFE7BFF7A0A793E7D067C007F497ED8
:044E810000024FFEDE
:104862007BFF7A0679967D067C007F217E00124FBF
:10487200FE7BFF7A0679DE7D067C007F397E0012A0
:104882004FFE7BFF7A0779267D067C007F517E00F2
:10489200124FFE7BFF7A07796E7D067C007F697E70
:1048A20000124FFE7BFF7A0779B67D067C007F817E
:0548B2007E00024FFE34
:1048B7007BFF7A0779FE7D067C007F217E00124F01
:1048C700FE7BFF7A0679DE7D067C007F397E00124B
:1048D7004FFE7BFF7A0779267D067C007F517E009D
:1048E700124FFE7BFF7A07796E7D067C007F697E1B
:1048F70000124FFE7BFF7A0779B67D067C007F8129
:054907007E00024FFEDE
:104E85007BFF7A0879467D067C007F017E00124F04
:104E9500FE7BFF7A0579767D067C007F197E001200
:104EA5004FFE7BFF7A08798E7D067C007F317E0080
:104EB500124FFE7BFF7A0879D67D067C007F497EFE
:044EC50000024FFE9A
:104EC9007BFF7A0A79867D067C007F017E00124F7E
:104ED900FE7BFF7A0A79CE7D067C007F197E00125F
:104EE9004FFE7BFF7A0B79167D067C007F317E00B1
:104EF900124FFE7BFF7A0B795E7D067C007F497E2F
:044F090000024FFE55
:10503700124F8912480B7D017F0512480FE4FD7F4F
:105047000C12480F7F011253407FC0125340124C7D
:10505700DE7D027F011239DF7D057F021239DF1203
:075067004DFD7F0202274905
:10516D00124F8912480B7D017F0512480F123D8A9F
:10517D00E4FD7F0C12480F7F011253407FC0125384
:0E518D00401248621239DB7D057F020239DFD5
:10519B00124F8912480B7D017F0512480F123D8A71
:1051AB00E4FD7F0C12480F7F011253407FC0125356
:0E51BB00401248B71239DB7D057F020239DF52
:1051C900124F8912480B7D017F0512480F12324593
:1051D900E4FD7F0C12480F124E417F011253407FAC
:0E51E900C01253401239DB7D057F020239DF10
:10513E0012480B7D017F0512480F123245124EC9DF
:10514E00E4FD7F0C12480F7F011253407FC01253B3
:0F515E00407D047F011239DF7D067F020239DFB9
:1052790012480B7D017F0512480F123D8A1239DB56
:105289007D057F021239DFE4FD7F0C12480F7F0193
:085299001253407FC002534094
:1052A10012480B7D017F0512480F123D8A1239DB2E
:1052B1007D057F021239DFE4FD7F0C12480F7F016B
:0852C1001253407FC00253406C
:1052C90012480B7D017F0512480F123D8A1239DB06
:1052D9007D057F021239DFE4FD7F0C12480F7F0143
:0852E9001253407FC002534044
:1052F10012480B7D017F0512480F123D8A1239DBDE
:105301007D057F021239DFE4FD7F0C12480F7F011A
:085311001253407FC00253401B
:10490C00900BF9EFF0A3EDF0124F89900BF9E070DA
:10491C0021A3E014600F14601114601324037012AF
:10492C00124DFD800D12516D800812519B800312A7
:10493C00513E900BF9E0B4011BA3E014600D146020
:10494C000D14600D2403700C0252790252A1025214
:05495C00C91252F12216
:1021BD004109BF004109BB014109C000410A360078
:1021CD004109BE00410A3400410A2600410A9C0023
:1021DD00410A3206410A27034109BA02410A9F0109
:0821ED004109B800410A9E00FF
:1054D300E4900940F0A3F0A3F0A3F0A3F0A3F0221B
:10541F00E49009B3F0A3F0A3F0A3F0A3F09009AECA
:0A542F00F0A3F0A3F0A3F0A3F02215
:1053CB00900A9B7401F0900A377403F0A3EFF0A3DB
:0E53DB00EDF0A3EBF0900BF0E0900A3BF02217
:10438A00900AE8E014602714603514604E24037024
:10439A00709009BBE0600FE4900AE8F0900B950476
:1043AA00F012503780447F021227490254AD900917
:1043BA00BBE0601C900AE87401F012516D802B90EA
:1043CA0009BBE0600B900AE87402F012519B801A54
:1043DA007F02122749122F51022DAA9009BBE060D1
:1043EA000F900AE87403F01251C9E49009BBF02255
:1043FA007F01122749122F51122DAA1217B4020057
:07440A000EE4900AE8F02225
:105224009009BBE06013900AE87404F012513EE464
:105234009009BBF0900A9CF0227F01122749122F9B
:0B52440051122DAA1217B412000E2206
:01000A0022D3
:015522002266
:1024AA00A290B3E4339009AEF09009B3E0701A90A9
:1024BA0009AEE0B4010CE4900AA1F09009B304F06B
:1024CA008028E49009B3F080219009AEE070119061
:1024DA0009B3F0900AA1E0B40110123B78E4800637
:1024EA009009B37401F0900AA1F0A287B3E4339083
:1024FA0009AFF09009B4E0701A9009AFE0B4010C8A
:10250A00E4900AA4F09009B404F08028E49009B495
:10251A00F080219009AFE070119009B4F0900AA4FC
:10252A00E0B4011012467FE480069009B47401F009
:10253A00900AA4F0A284B3E4339009B0F09009B5EC
:10254A00E0701C9009B0E0B4010DE4900AA7F09085
:10255A0009B504F00225EBE49009B5F00225EB90E9
:10256A0009B0E070169009B5F0900AA7E06401700E
:10257A0070124A0BE4900AA7F080669009B57401BC
:10258A00F0900AA7F0900AE8E0640270549009C03B
:10259A00E004F0E0640A7049900A35F0900A9D045C
:1025AA00F09009BD7406F0E49009BCF07B01900834
:1025BA008B04F0A3740AF0A37435F0A3EBF0A374B0
:1025CA0009F0A374BDF0A3EBF0A37409F0A374BCE3
:1025DA00F07A0A799D7D207F011241DBE49009C0DF
:1025EA00F0A285B3E4339009B1F09009B6E0701C0B
:1025FA009009B1E0B4010DE49009A9F09009B6047C
:10260A00F002269FE49009B6F002269F9009B1E0F5
:10261A0070169009B6F09009A9E064017077124A21
:10262A005FE49009A9F0806D9009B67401F09009F1
:10263A00A9F0900AE8E0FF64026005EF64037055B0
:10264A009009C0E004F0E0640A704A900A35F090FC
:10265A000A9D7402F09009BD7406F0E49009BCF07A
:10266A007B0190088B04F0A3740AF0A37435F0A3DD
:10267A00EBF0A37409F0A374BDF0A3EBF0A3740903
:10268A00F0A374BCF07A0A799D7D207F011241DBA8
:10269A00E49009C0F0A286B3E4339009B2F090093D
:1026AA00B7E070189009B2E0B4010BE49009ACF0FD
:1026BA009009B704F022E49009B7F0229009B2E039
:1026CA0070159009B7F09009ACE064017070124A75
:1026DA00B3E49009ACF0229009B77401F09009AC08
:1026EA00F0900AE8E0640370559009C0E004F0E055
:1026FA00640A704A900A35F0900A9D7403F09009B2
:10270A00BD7406F0E49009BCF07B0190088B04F0DC
:10271A00A3740AF0A37435F0A3EBF0A37409F0A331
:10272A0074BDF0A3EBF0A37409F0A374BCF07A0AA9
:0F273A00799D7D207F011241DBE49009C0F022E0
:103B7800900AE7E07034A3E0146023146020146016
:103B88001D14601A24047022900B95E0FFB4010400
:103B9800E4F08016EF7013900B9504F0800C900AF7
:103BA800E8E014F09009BB7401F0900AE7E06401C2
:103BB80070427B0190088B04F0A3740AF0A374355B
:103BC800F0A3EBF0A37409F0A374BDF0A3EBF0A38A
:103BD8007409F0A374BCF07A0A799D7D027F021201
:103BE80041DBE4900AE7F09009BFF0900AE8F09012
:103BF80009BB04F0900AE7E0B402137401F09009DD
:103C0800BFF0900AE87404F09009BB7401F0900AC0
:103C1800E7E0B403147402F09009BF14F0900AE8C6
:0A3C28007405F09009BB7401F0224E
:10467F00900AE7E07025A3E004F09009BB7401F005
:10468F00900AE8E0B40414900AE77401F09009BFAF
:10469F00F09009BBF0900AE87403F0900AE7E0B4D9
:1046AF00021AA3E004F0E0B40612900AE77403F0D4
:1046BF009009BB7401F0900AE87405F0900AE7E0E6
:1046CF00B4031AA3E004F0E0B40712900AE77404ED
:0E46DF00F09009BB7401F0900AE87406F02216
:104A0B00900AE8E024FC600280499009BA7402F035
:104A1B00E49009B8F0900A327406F0E4A3F07B013D
:104A2B0090088B04F0A37409F0A374B8F0A3EBF017
:104A3B00A3740AF0A37432F0A3EBF0A3740AF0A3EF
:104A4B007433F07A0979BA7D20E4FF1241DB7F02DF
:044A5B0012451922C5
:104A5F00900AE8E024FC600280499009BA7401F0E2
:104A6F00E49009B8F0900A327406F0E4A3F07B01E9
:104A7F0090088B04F0A37409F0A374B8F0A3EBF0C3
:104A8F00A3740AF0A37432F0A3EBF0A3740AF0A39B
:104A9F007433F07A0979BA7D20E4FF1241DB7F018C
:044AAF001245192271
:104AB300900AE8E024FC600280499009BA7403F08C
:104AC300E49009B8F0900A327406F0E4A3F07B0195
:104AD30090088B04F0A37409F0A374B8F0A3EBF06F
:104AE300A3740AF0A37432F0A3EBF0A3740AF0A347
:104AF3007433F07A0979BA7D20E4FF1241DB7F0336
:044B0300124519221C
:10451900900886EFF0BF01247BFF7A047906E490C6
:10452900088DF07D087F61122B937BFF7A04792631
:10453900E490088DF07D087F71122B93900886E036
:10454900B402247BFF7A0379A6E490088DF07D08F4
:104559007F61122B937BFF7A047946E490088DF0F2
:104569007D087F71122B93900886E0B403247BFFAA
:104579007A0379C6E490088DF07D087F61122B9348
:104589007BFF7A047946E490088DF07D087F7112EB
:034599002B93223F
:06550400900AE7EFF0221F
:10545300900A35EFF0900A9DEDF09009BDEBF090C6
:085463000BF4E09009BCF022FB
:105483009009BCE0D3940A5007900A347401F022C7
:06549300E4900A34F0224F
:103AB200900BFBEFF0A3EDF0900A34E06003023BC1
:103AC200729009BEE0704B900BF4F07B03FDFF1285
:103AD2005453900BFCE0FF900BFBE0FD90088B74BD
:103AE20001F0A3740AF0A37435F0A37401F0A37477
:103AF20009F0A374BDF0A37401F0A37409F0A374D8
:103B0200BCF07B017A0A799D1241DB9009BEE00488
:103B1200F022900BFCE0FF900BFBE0FD90088F740D
:103B220001F0A3740AF0A37435F0A37401F0A37436
:103B320009F0A374BDF0A37401F0A37409F0A37497
:103B4200BCF07B017A0A799D124D279009BCE0D323
:103B5200940A5008900A347401F08005E4900A3403
:103B6200F09009BEE004F0E0D394084008E4F022AB
:063B7200E49009BEF02200
:103C3200900A26E0602F9009BFE0601E900AE7E03C
:103C420024FE600C14600E2402701712522480129B
:103C520012000A800D1255228008E4900AE7F01241
:103C6200438A0224AA90088F7401F0A3740AF0A375
:103C72007435F0A37401F0A37409F0A374BDF0A32A
:103C82007401F0A37409F0A374BCF07B017A0A7981
:103C92009D7D307F0D124D27125483900A34E060CF
:103CA20034900A9DE024FE6015047026E49009BF5A
:103CB200F0900AE7F0A3F0900A2604F0801490092D
:103CC200BF7401F0900AE7F0A37404F0900A26741E
:0F3CD20001F0E48005E4900A26F0900A34F02215
:1021F5004202D0A001610002D200C1814001C0802D
:102205004101C0804100C1814001C0804100C181C0
:102215004000C1814001C0804101C0804100C181B1
:102225004000C1814001C0804100C1814001C080A2
:102235004101C0804100C1814001C0804100C18190
:102245004000C1814001C0804100C1814001C08082
:102255004101C0804100C1814000C1814001C08071
:102265004101C0804100C1814001C0804100C18160
:102275004000C1814001C0804101C0804100C18151
:102285004000C1814001C0804100C1814001C08042
:102295004101C0804100C1814000C1814001C08031
:1022A5004101C0804100C1814001C0804100C18120
:1022B5004000C1814001C0804100C1814001C08012
:1022C5004101C0804100C1814001C0804100C18100
:1022D5004000C1814001C0804101C0804100C181F1
:1022E5004000C1814001C0804100C1814001C080E2
:1022F5004101C0804100C18140610003D200C0C1DD
:1023050001C30302C2C60607C705C5C404CC0C0D2C
:10231500CD0FCFCE0E0ACACB0BC90908C8D81819DC
:10232500D91BDBDA1A1EDEDF1FDD1D1CDC14D4D53C
:1023350015D71716D6D21213D311D1D010F03031CC
:10234500F133F3F23236F6F737F53534F43CFCFD6C
:102355003DFF3F3EFEFA3A3BFB39F9F83828E8E9FC
:1023650029EB2B2AEAEE2E2FEF2DEDEC2CE424257C
:10237500E527E7E62622E2E323E12120E0A06061EC
:10238500A163A3A26266A6A767A56564A46CACADAC
:102395006DAF6F6EAEAA6A6BAB69A9A86878B8B95C
:1023A50079BB7B7ABABE7E7FBF7DBDBC7CB47475BC
:1023B500B577B7B67672B2B373B17170B05090910C
:1023C500519353529296565797559594549C5C5DEC
:1023D5009D5F9F9E5E5A9A9B5B995958988848497C
:1023E500894B8B8A4A4E8E8F4F8D4D4C8C448485FC
:1023F5004587474686824243834181804060200469
:10240500D20000CC01D8011400F0013C002800E402
:1024150001A0016C007800B40150009C01880144C2
:0124250000B6
:103E2F0090090AEBF0A3EAF0A3E9F0A3ECF0A3EDFD
:013E3F00F092
:103E400074FF900911F0A3F090090D74FFF5F012C2
:103E500020BC45F0607490090AE0FBA3E475F00112
:103E60001220BCA9F0FA121FA4FF900911E0F0A3E0
:103E7000E06FF0E490090FF0A3F0C3900910E09414
:103E80000890090FE06480948050BD900911E0FE15
:103E9000A3E0FF30E019EEC313FEEF13FFEE64A0C2
:103EA000FEEF6401FF900911EEF0A3EFF0800B909C
:103EB0000911E0C313F0A3E013F0900910E004F03F
:103EC00070B890090FE004F080B0900911E0FEA3F3
:023ED000E0FF11
:013ED20022CD
:08426E00900BE3ECF0A3EDF06E
:1042760074FF900BE6F0A3F0ED4C7007900BE3F0A3
:10428600A304F0900BE374FFF5F01220BC45F06038
:104296005E121FA4FF900BE6E0F0A3E06FF0E4903F
:1042A6000BE5F0900BE6E0FEA3E0FF30E023EEC363
:1042B60013FEEF13FF900BE6EEF0A3EFF09002D0A3
:1042C600E0FEA3E0FF900BE6E06EF0A3E06FF08067
:1042D6000B900BE6E0C313F0A3E013F0900BE5E0C0
:1042E60004F0E0B408BD740129F9E43AFA80949028
:0742F6000BE6E0FEA3E0FF70
:0142FD00229E
:1047B200900BE8EBF0A3EAF0A3E9F0A3ECF0A3ED91
:0147C200F006
:1047C3007FFF7DFF900BEB74FFF5F01220BC45F0EB
:1047D3006031900BE8E0FBA3E475F0011220BCA963
:1047E300F0FA121FA46DFB7A0024D2F582E434029E
:1047F300F583E06FFD74D22BF582E43403F583E097
:07480300FF80C1EFFEEDFF95
:01480A00228B
:10364F00900BDAEBF0A3EAF0A3E9F0A3ECF0A3ED13
:01365F00F07A
:1036600074FFA3F0A3F0E4A3F0A3F0900BDDE0FE61
:10367000A3E0FFC3900BE2E09F900BE1E09E4003CC
:1036800002372B900BDAE0FBA3E475F0011220BCAB
:10369000A9F0FA121FA4FDFF900BDFA3E06F540FF7
:1036A00025E0FFE433FE74D22FF58274043EF583E7
:1036B000E0FAA3E0FB900BDFE0C4F854F0C868FE2A
:1036C000A3E0C4540F48FFEA6EFEEB6FFF900BDFE0
:1036D000EEF0A3EFF0EDC4540FFF900BDFA3E06F0B
:1036E000540F25E0FFE433FE74D22FF58274043EBC
:1036F000F583E0FAA3E0FB900BDFE0C4F854F0C8D8
:1037000068FEA3E0C4540F48FFEA6EFEEB6FFF9023
:103710000BDFEEF0A3EFF0900BE2E004F0600302A9
:10372000366B900BE1E004F002366B900BDFE0FEAD
:03373000A3E0FF14
:013733002273
:055319009009A7EDF072
:10531E00E4FFFE9009A7E0FDC3EF9DEE940050114F
:10532E00E412201D0429F9E43AFA0FBF00010E80A1
:01533E00E28C
:01533F00224B
:08496100E0FBA3E0FAA3E0F97A
:0B496900900939EBF0A3EAF0A3E9F09D
:10497400E4FF90093FE0FEEFC39E503590093CE010
:10498400FBA3E0FAA3E0F9121FA4FE900939E0FBAF
:10499400A3E0FAA3E0F9EE12201D90093AE475F0C1
:1049A400011220A690093DE475F0011220A60F80A3
:0149B400C141
:0149B50022DF
:10546B009009A5EFF0E4A3F07B017A0979417D6403
:07547B001253197A0979416F
:015482002207
:0B3466009008F9EBF0A3EAF0A3E9F0F6
:103471007F33A3E0F9A3E0FAA3E0A3C9F0A3EAF044
:10348100A3E9F09008F9E0FBA3E0FAA3E0F99000CA
:1034910065121FBDD39400500302354490093CEBE3
:1034A100F0A3EAF0A3E9F0900064121FBD90093F78
:1034B100F09008FF1249619008F9E0FBA3E0FAA33C
:1034C100E0F9900064121FBDFD1253199008F9E054
:1034D100FBA3E0FAA3E02401F9E43AFA90093CEBFA
:1034E100F0A3EAF0A3E9F09008F9A3E0FAA3E0F968
:1034F100900065121FBD1490093FF01249699008B0
:10350100F9E0FBA3E0FAA3E0F990006574FF121F54
:10351100EA900065121FBD7E0029F9EE3AFAC00358
:10352100C002C0019008F9E0FBA3E0FAA3E0F99022
:103531000064121FBDFDD001D002D0031253197FC8
:103541001180229008F9E0FBA3E0FAA3E0F99000D2
:1035510064121FBDFD9008FFE0FBA3E0FAA3E0F9B0
:053561001253197F3335
:013566002242
:0B40AC0090092DEBF0A3EAF0A3E9F06F
:1040B7007FAAA3E0F9A3E0FAA3E0A3C9F0A3EAF07B
:1040C700A3E9F090092DE0FBA3E0FAA3E0F9900043
:1040D70065121FBDFEFD7C00E92DF9EC3AFA900947
:1040E70036EBF0A3EAF0A3E9F090092DA3E0FAA3D9
:1040F700E0F9900064121FBDFD8EF0A4FEC3746446
:104107009EC39D4035900933E0F9A3E0FAA3E09000
:10411700093CC9F0A3EAF0A3E9F0A3EDF090093652
:1041270012496190092DE0FBA3E0FAA3E0F99000A2
:0C413700657401121FEA7F2280027F33B2
:014143002259
:102426004606CD0000000000004204F2000042040F
:10243600F400004204F600004104F8004104F900EB
:0B46ED00900905EBF0A3EAF0A3E9F050
:1046F800E4FFA3F0900905E0FBA3E0FAA3E0F9903A
:104708000030121FBD900909F0E024FEFDE434FFDB
:10471800FC123E2FEF900908F0EEFFA3E0FE24FF05
:10472800FDE434FFFC900905E0FBA3E0FAA3E0F9FF
:104738008D828C83EF12202F900908E0FFEE7C0019
:0D47480024FEF582EC34FFF583EF02202FF4
:0B4411009008FBEBF0A3EAF0A3E9F039
:10441C00E4A3F09008FBE0FBA3E0FAA3E0F9900022
:10442C0030121FBDFF9008FFF0E4A3F0EF24FEFD57
:10443C00E434FFFC123E2FEF9008FEF0EEFFA3E0F9
:10444C00FE24FEFDE434FFFC9008FBE0FBA3E0FA45
:10445C00A3E0F98D828C83121FBDFD9008FEE0B5A0
:10446C00051AEE7C0024FFF582EC34FFF583121F55
:10447C00BDB507089009007401F08005E4900900AF
:08448C00F0900900E0FF7E0042
:014494002205
:0B1B41009008EDEBF0A3EAF0A3E9F040
:101B4C00E4A3F0A3F0A3F0A3F0A3F09008F8F090B6
:101B5C0008F0F09008F0E0FFC394024003021EA8C6
:101B6C00EF75F003A424CDF582E43406F583E0D3BD
:101B7C0094005003021E909008F87401F09008F144
:101B8C00E0FF9008F0E075F003A424CDF582E43476
:101B9C0006F583E5822FF582E43583F583E0700347
:101BAC00021CB7EF75F032A4FF9008EDE0FBA3E048
:101BBC00FAA3E02FF9EA35F0FA7D321253199008A6
:101BCC00F1E0FF9008F0E075F003A424CDF582E479
:101BDC003406F583E5822FF582E43583F583E090B6
:101BEC0008F4F0E49008F2F09008F4E0FF9008F2AA
:101BFC00E0C39F50699008F1E075F032A4FF9008A3
:101C0C00EDE0FBA3E0FAA3E02FF9EA35F0FA900837
:101C1C00F2E07E0029F9EE3AFA9008F5EBF0A3EA2F
:101C2C00F0A3E9F09008F0E075F066A424D3F97401
:101C3C000635F0FA7B01C002C0019008F5E0F9A36B
:101C4C00E0FAA3E09008FCC9F0A3EAF0A3E9F0D015
:101C5C0001D0021234669008F2E004F0808A9008F9
:101C6C00F1E0FF9008F0E075F003A424CDF582E4D8
:101C7C003406F583E5822FF582E43583F583E4F0B1
:101C8C009008F2E0FDEF75F032A4FF9008EDE0FB58
:101C9C00A3E0FAA3E02FF9EA35F0FA900030ED1248
:101CAC00202F9008F1E004F0021B899008F1E0FF6E
:101CBC009008EDE0FBA3E0FAA3E0F9900096EF1298
:101CCC00202FE49008F3F09008EDE0FBA3E0FAA3DA
:101CDC00E0F9900096121FBDFF9008F3E0FEC39F41
:101CEC004003021E95EE75F032A4FFE92FF9EA3598
:101CFC00F0FA900001121FBD24FA7003021DA124FA
:101D0C00F67003021E5F248D7003021E1F24FD70EB
:101D1C0003021E3F24836003021E829008EDE0FB49
:101D2C00A3E0FAA3E0F99008F3E0FF75F032A4F514
:101D3C008285F083121FBDFE9004FAE0B5061AEFFF
:101D4C0075F032A4FF9008EDA3A3E02FF9EA35F06B
:101D5C00FA9000317401021E7D9008F3E075F032A8
:101D6C00A4FF9008EDE0FBA3E0FAA3E02FF9EA351D
:101D7C00F0FA900030121FBDFFB4080890003174C7
:101D8C0002021E7DEFD394085003021E879000318F
:101D9C007404021E7D9008EDE0FBA3E0FAA3E0F9C9
:101DAC009008F3E0FF75F032A4F58285F083121FE2
:101DBC00BDFE9004FAE0B5061AEF75F032A4FF9060
:101DCC0008EDA3A3E02FF9EA35F0FA900031740680
:101DDC00021E7D9008EDE0FBA3E0FAA3E0F9900869
:101DEC00F3E0FF75F032A4F58285F083121FBDFE7F
:101DFC009004FBE06E6003021E87EF75F032A4FFC7
:101E0C009008EDA3A3E02FF9EA35F0FA90003174B5
:101E1C0007805E9008F3E075F032A4FF9008EDE0C7
:101E2C00FBA3E0FAA3E02FF9EA35F0FA9000317445
:101E3C0005803E9008F3E075F032A4FF9008EDE0C9
:101E4C00FBA3E0FAA3E02FF9EA35F0FA9000317425
:101E5C0008801E9008F3E075F032A4FF9008EDE0C6
:101E6C00FBA3E0FAA3E02FF9EA35F0FA9000317405
:101E7C000912202F8005E49008F8F09008F3E00494
:101E8C00F0021CD3E49008F8F09008EEE475F0979B
:101E9C001220A69008F0E004F0021B5F9008F8E016
:011EAC00FF36
:011EAD002212
:0E459C009008F9EBF0A3EAF0A3E9F0A3EDF02C
:1045AA00E4A3F0F9A3C9F0A3F0A3E9F09008F9E0B5
:1045BA00F9A3E0FAA3E09008FEC9F0A3EAF0A3E9A0
:1045CA00F0E49008FDF09008F9E0FBA3E0FAA3E01C
:1045DA00F9900030121FBDFF9008FDE0C39F5023E1
:1045EA00A3E0FBA3E0FAA3E0F99008FCE0FD124B7C
:1045FA00079008FFE475F0011220A69008FDE00478
:03460A00F080C37A
:01460D00228A
:104C47009008EDEBF0A3EAF0A3E9F0A3EDF0701AFA
:104C57009008EDE0FBA3E0FAA3E0F9121FA4FF9090
:104C670004FAE0B507047D01801F9008F0E0B40165
:104C77001B9008EDE0FBA3E0FAA3E0F9121FA4FFE5
:0D4C87009004FAE0B50705E4FD12459C22FB
:0B1304009008EDEBF0A3EAF0A3E9F085
:10130F00E49008F3F09008FAF0121FA4FF9004FB8A
:10131F00E06F60030217B39008EDE0FBA3E0FAA3C0
:10132F00E0F9124411EF4E70030217B39008EDE08D
:10133F00FBA3E0FAA3E0F9900031121FBD24FC706B
:10134F000302147C1470030216AC24FE7003021601
:10135F000514700302172F240660030217B39008B9
:10136F00F0E0FBA3E0FAA3E0F9740312201D90084C
:10137F00EDE0FBA3E0FAA3E0F9900002121FBDFF1E
:10138F009008F0E0FBA3E0FAA3E0F9900001EF1260
:10139F00202F9008EDE0FBA3E0FAA3E0F990000303
:1013AF00121FBDFF9008F0E0FBA3E0FAA3E0F99055
:1013BF000002EF12202F9008EDE0FBA3E0FAA3E06C
:1013CF00F9900004121FBDFF9008F0E0FBA3E0FAB4
:1013DF00A3E0F9900003EF12202F9008EDE0FBA39C
:1013EF00E0FAA3E0F9900005121FBDFF9008F0E0AE
:1013FF00FBA3E0FAA3E0F9900004EF12202F900076
:10140F0064740112202FE92403F9E43AFA9008F4E6
:10141F00EBF0A3EAF0A3E9F09008F0E0FBA3E0FA09
:10142F00A3E02404F9E43AFA9008F7EBF0A3EAF00A
:10143F00A3E9F09008F0A3E0FAA3E0F990000112FD
:10144F001FBDFF900002121FBDFD9008F7E0F9A32A
:10145F00E0FAA3E0900900C9F0A3EAF0A3E9F09045
:10146F0008F4E0FBA3E0FAA3E0F9024012900504B0
:10147F00E0640360030217B39008EDE0FBA3E0FA0A
:10148F00A3E0F9900030121FBD24FCFFE434FFC32A
:10149F0013EF13FF9008FAF09008F0E0FBA3E0FAC7
:1014AF00A3E0F9900064EF12202FE49008F3F0907E
:1014BF0008FAE0FF9008F3E0C39F40030217B390D0
:1014CF0008F0E0FBA3E0FAA3E0F9A3E0FF75F00555
:1014DF00A4F58285F083740312202F900505E0FD9B
:1014EF00EF75F005A429F9EA35F0FA900001ED1235
:1014FF00202F9008F3E0FF900506E02F90000212D6
:10150F00202F9008EDE0FBA3E0FAA3E02403F9E419
:10151F003AFA75F002EFA4F58285F083121FBDFD34
:10152F00EF75F005A4FF9008F0E0FBA3E0FAA3E04D
:10153F002FF9EA35F0FA900003ED12202F9008ED05
:10154F00E0FBA3E0FAA3E0F99008F3E0FF75F002E7
:10155F00A42404F582E435F0F583121FBDFDEF7569
:10156F00F005A4FFAEF09008F0E0FBA3E0FAA3E0D3
:10157F002FF9EA3EFA900004ED12202FE92403F927
:10158F00E43AFA9008F4EBF0A3EAF0A3E9F090083C
:10159F00F0E0FBA3E0FAA3E02FF9EA3EFAE9240416
:1015AF00F9E43AFA9008F7EBF0A3EAF0A3E9F09028
:1015BF0008F0A3E0FAA3E02FF9EA3EFA9000011237
:1015CF001FBDFF900002121FBDFD9008F7E0F9A3A9
:1015DF00E0FAA3E0900900C9F0A3EAF0A3E9F090C4
:1015EF0008F4E0FBA3E0FAA3E0F91240129008F32D
:1015FF00E004F00214BE9008F0E0FBA3E0FAA3E0D1
:10160F00F9900064740112202F740612201D9008A7
:10161F00EDE0FBA3E0FAA3E0F9900002121FBDFF7B
:10162F009008F0E0FBA3E0FAA3E0F9900001EF12BD
:10163F00202F9008EDE0FBA3E0FAA3E0F990000360
:10164F00121FBDFF9008F0E0FBA3E0FAA3E0F990B2
:10165F000002EF12202F9008EDE0FBA3E0FAA3E0C9
:10166F00F9900004121FBDFF9008F0E0FBA3E0FA11
:10167F00A3E0F9900003EF12202F9008EDE0FBA3F9
:10168F00E0FAA3E0F9900005121FBDFF9008F0E00B
:10169F00FBA3E0FAA3E0F99000040217AF9008F063
:1016AF00E0FBA3E0FAA3E0F9900064740112202F8D
:1016BF00748312201D9008EDE0FBA3E0FAA3E0F97C
:1016CF00900002121FBDFF9008F0E0FBA3E0FAA309
:1016DF00E0F9900001EF12202F9008EDE0FBA3E05E
:1016EF00FAA3E0F9900003121FBDFF9008F0E0FB92
:1016FF00A3E0FAA3E0F9900002EF12202F9008ED7B
:10170F00E0FBA3E0FAA3E0F9900004121FBDFF90E5
:10171F0008F0E0FBA3E0FAA3E0F99000030217AF93
:10172F009008F0E0FBA3E0FAA3E0F99000647401E5
:10173F0012202F748612201D9008EDE0FBA3E0FA13
:10174F00A3E0F9900002121FBDFF9008F0E0FBA389
:10175F00E0FAA3E0F9900001EF12202F9008EDE0DE
:10176F00FBA3E0FAA3E0F9900003121FBDFF90085E
:10177F00F0E0FBA3E0FAA3E0F9900002EF12202FB4
:10178F009008EDE0FBA3E0FAA3E0F9900004121F2C
:10179F00BDFF9008F0E0FBA3E0FAA3E0F99000038F
:0417AF00EF12202FE6
:0117B3002213
:103734009008FFEBF0A3EAF0A3E9F09004FBE0FFAC
:103744009008FFE0FBA3E0FAA3E0F9EF12201D903C
:103754000902E0FBA3E0FAA3E0F9121FA4FF90081A
:10376400FFE0FBA3E0FAA3E0F9900001EF12202FA1
:10377400900902E0FBA3E0FAA3E0F9900001121F14
:10378400BDFF9008FFE0FBA3E0FAA3E0F99000027C
:10379400EF12202F900902E0FBA3E0FAA3E0F990D6
:1037A4000002121FBDFF9008FFE0FBA3E0FAA3E0B4
:1037B400F9900003EF12202F900902E0FBA3E0FA36
:1037C400A3E0F9900003121FBDFF9008FFE0FBA3E4
:1037D400E0FAA3E0F9900004EF12202F900902E030
:1037E400FBA3E0FAA3E0F9900004121FBDFF9008C8
:1037F400FFE0FBA3E0FAA3E0F9900005EF12202F0D
:10380400900030740812202F900031740112202F80
:033814000246ED7C
:103817009008FFEBF0A3EAF0A3E9F09004FBE0FFC8
:103827009008FFE0FBA3E0FAA3E0F9EF12201D9058
:103837000902E0FBA3E0FAA3E0F9121FA4FF900836
:10384700FFE0FBA3E0FAA3E0F9900001EF12202FBD
:10385700900902E0FBA3E0FAA3E0F9900001121F30
:10386700BDFF9008FFE0FBA3E0FAA3E0F990000298
:10387700EF12202F900902E0FBA3E0FAA3E0F990F2
:103887000002121FBDFF9008FFE0FBA3E0FAA3E0D0
:10389700F9900003EF12202F900902E0FBA3E0FA52
:1038A700A3E0F9900003121FBDFF9008FFE0FBA300
:1038B700E0FAA3E0F9900004EF12202F900902E04C
:1038C700FBA3E0FAA3E0F9900004121FBDFF9008E4
:1038D700FFE0FBA3E0FAA3E0F9900005EF12202F29
:1038E700900030740812202F900031740612202F98
:0338F7000246ED99
:10460E009008F9EBF0A3EAF0A3E9F0A3E0FBA3E036
:10461E00FAA3E0F9900064121FBDD394004051122A
:10462E001FA424FA6027240370469008FCE0F9A327
:10463E00E0FAA3E0900902C9F0A3EAF0A3E9F09032
:10464E0008F9E0FBA3E0FAA3E0F90237349008FC86
:10465E00E0F9A3E0FAA3E0900902C9F0A3EAF0A3FF
:10466E00E9F09008F9E0FBA3E0FAA3E0F91238179D
:01467E002219
:10524F00900031121FBDB404209008EDE0FBA3E0E5
:10525F00FAA3E0F9740412201D9008EDE0FBA3E01F
:09526F00FAA3E0F97D04125319C1
:015278002213
:0D0096009004FB74FFF09004FA7401F02256
:1030EE00E4FFFEEF75F066A42438F582E43407F5AC
:1030FE0083E0FDD39400500302321774F22FF58251
:10310E00E43404F583E0B5052D74F62FF582E4342E
:10311E0004F583E0FDEF75F066A42438F582E434FF
:10312E0007F583E06D600F74F42FF582E43404F537
:10313E0083E004F0800C74F42FF582E43404F583FC
:10314E00E4F074F42FF582E43404F583E064036054
:10315E00030231F9EF75F003A424CDF582E43406B1
:10316E00F583E5822EF582E43583F583E060030E68
:10317E0080E274F62FF582E43404F583E0FDEF75FA
:10318E00F066A42438F582E43407F583E0C39DFD90
:10319E00EF75F003A424CDF582E43406F583E582C1
:1031AE002EF582E43583F583EDF0EF75F003A4245C
:1031BE00CDF582E43406F583E5822EF582E435837F
:1031CE00F583E0FD74F62FF582E43404F583E0FC1C
:1031DE00ED2CFD74F62FF582E43404F583EDF074D6
:1031EE00F42FF582E43404F583E4F0EF75F066A471
:1031FE002438F582E43407F583E0FD74F22FF5826E
:10320E00E43404F583EDF0802474F22FF582E43477
:10321E0004F583E4F074F42FF582E43404F583E4CA
:10322E00F074F62FF582E43404F583E4F00FEF64C6
:06323E000260030230F102
:013244002267
:104BF9007B017A0B79A87D321253199004F8E0648D
:104C09000A7034900BA874FFF0A37403F0A37430F6
:104C1900F0E4A3F0A3F0A304F0A3749EF0A374D46A
:104C2900F0900BD87408F0E49004F8F07B017A0B4B
:0D4C390079A87D0102459C9004F8E004F08C
:014C4600224B
:1038FA00E4900886F0A3F090059EF0900635F07BE0
:10390A00017A0879887D651253197B017A0579084D
:10391A00121B41EF70030239DAE4900886F0E49052
:10392A000887F0900886E0FF75F097A4249EF58238
:10393A00E5F03405F583E0FE900887E0C39E400376
:10394A000239CBEF75F097A42408F9740535F0FA1B
:10395A007B01E075F032A429F9EA35F0FA9008867D
:10396A00E0FD124C47900886E075F097A42408F908
:10397A00740535F0FA7B01A3E075F032A429F9EA5F
:10398A0035F0FAC0039008F0EBF0A37408F0A374C2
:10399A0088F0D003121304900886E075F097A424E7
:1039AA0008F9740535F0FA7B01A3E075F032A42911
:1039BA00F9EA35F0FA12524F900887E004F002391A
:1039CA002D900886E004F0E0C394025003023928DF
:0139DA0022CA
:0954ED00123F74120BA602009696
:103ED3007B017A0879867D321253199004F9E064E4
:103EE30001900886704374FFF0A37403F0A3743049
:103EF300F0E4A3F0A3F0A37409F0A3749FF0A374F8
:103F030012F09008B67408F0E49004F9F0900504F8
:103F13007403F0A37430F0E4A3F0A37414F07B01F2
:103F23007A0879867D0102459C74FFF0A37403F03F
:103F3300A37430F0A37409F0E4A3F0A37409F0A30D
:103F4300744FF0A37410F09008B67408F090050451
:103F53007403F0A37430F0A37409F0A37414F07B1A
:103F6300017A0879867D0112459C9004F9E004F0FA
:013F7300222B
:06550A001230EE02551CF8
:065510001238FA0251F707
:104D270090088CEBF0A3EAF0A3E9F0AE07AF05AD6E
:104D37000690088CE0F9A3E0FAA3E090089DC9F07B
:104D4700A3EAF0A3E9F0900895E0F9A3E0FAA3E05D
:104D57009008A0C9F0A3EAF0A3E9F090088FE0FB60
:094D6700A3E0FAA3E0F9023CE12B
:1041DB00900886EFF0A3EDF0A3EBF0A3EAF0A3E9D0
:0141EB00F0E3
:1041EC007B017A0679367D971253197B017A08790F
:1041FC00947D65125319900887E0900895F090080B
:10420C0086E0900896F090088BE0FBA3E0FAA3E020
:10421C00F9121FA4900897F0900888E0FBA3E0FA2D
:10422C00A3E0F9121FA4900898F090088EE0FBA36D
:10423C00E0FAA3E0F9121FA4900894F09008F87427
:10424C0001F09008FCF0A37408F0A37494F07B01C7
:10425C007A06793612460E7B017A0679367D010292
:02426C00459C6F
:100BA6009000017430F0A37401F090000574FFF01A
:100BB6009000077430F0A37402F090000B74FFF0FD
:100BC60090000D7430F0A37403F090001174FFF0E0
:100BD6009000137430F0A37404F090001774FFF0C3
:100BE6009000197430F0A37405F090001D74FFF0A6
:100BF60090001F7430F0A37406F090002374FFF089
:100C06009000257430F0A37407F090002974FFF06B
:100C160090002B7430F0A37408F090002F74FFF04E
:100C26009000317430F0A37409F090003574FFF031
:100C36009000377430F0A3740AF090003B74FFF014
:100C460090003D7430F0A3740BF090004174FFF0F7
:100C56009000437430F0A3740CF090004774FFF0DA
:100C66009000497430F0A3740DF090004D74FFF0BD
:100C760090004F7430F0A3740EF090005374FFF0A0
:100C86009000557430F0A3740FF090005974FFF083
:100C960090005B7430F0A37410F090005F74FFF066
:100CA6009000617430F0A37411F090006574FFF049
:100CB6009000677430F0A37412F090006B74FFF02C
:100CC60090006D74F0F0A37401F090007174FFF061
:100CD60090007374F0F0A37402F090007774FFF044
:100CE60090007974F0F0A37403F090007D74FFF027
:100CF60090007F74F0F0A37404F090008374FFF00A
:100D06009000857401F0E4A3F090008974FFF090E0
:100D1600008B7401F0A3F090008F74FFF0900091A7
:100D26007401F0A304F090009574FFF0900097749E
:100D360001F0A37403F090009B74FFF090009D7483
:100D460001F0A37404F09000A174FFF09000A37466
:100D560001F0A37405F09000A774FFF09000A97449
:100D660001F0A37406F09000AD74FFF09000AF742C
:100D760001F0A37407F09000B374FFF09000B5740F
:100D860001F0A37408F09000B974FFF09000BB74F2
:100D960001F0A37409F09000BF74FFF09000C174D5
:100DA60001F0A3740AF09000C574FFF09000C774B8
:100DB60001F0A3740BF09000CB74FFF09000CD749B
:100DC60001F0A3740CF09000D174FFF09000D3747E
:100DD60001F0A3740DF09000D774FFF09000D97461
:100DE60001F0A3740EF09000DD74FFF09000DF7444
:100DF60001F0A3741FF09000E374FFF09000E57417
:100E060001F0A37410F09000E974FFF09000EB7409
:100E160001F0A37411F09000EF74FFF09000F174EC
:100E260001F0A37412F09000F574FFF09000F774CF
:100E360001F0A37413F09000FB74FFF09000FD74B2
:100E460001F0A37414F090010174FFF09001037493
:100E560001F0A37415F090010774FFF09001097476
:100E660001F0A37416F090010D74FFF090010F7459
:100E760001F0A37417F090011374FFF0900115743C
:100E860001F0A3741EF090011974FFF090011B7419
:100E960001F0A3741FF090011F74FFF090012174FC
:100EA60001F0A37420F090012574FFF090012774DF
:100EB60001F0A37421F090012B74FFF090012D74C2
:100EC60001F0A37422F090013174FFF090013374A5
:100ED60001F0A37423F090013774FFF09001397488
:100EE60001F0A37424F090013D74FFF090013F746B
:100EF60001F0A37425F090014374FFF0900145744E
:100F060001F0A37426F090014974FFF090014B7430
:100F160002F0E4A3F090014F74FFF09001517402C7
:100F2600F0A314F090015574FFF09001577402F08D
:100F3600A3F090015B74FFF090015D7402F0A304CE
:100F4600F090016174FFF09001637402F0A37404E1
:100F5600F090016774FFF09001697402F0A37405C4
:100F6600F090016D74FFF090016F7402F0A37406A7
:100F7600F090017374FFF09001757402F0A374078A
:100F8600F090017974FFF090017B7402F0A374086D
:100F9600F090017F74FFF09001817402F0A3740950
:100FA600F090018574FFF09001877402F0A3740A33
:100FB600F090018B74FFF090018D7402F0A3740B16
:100FC600F090019174FFF09001937402F0A3740CF9
:100FD600F090019774FFF09001997402F0A3740DDC
:100FE600F090019D74FFF090019F7402F0A3740EBF
:100FF600F09001A374FFF09001A57402F0A3740FA2
:10100600F09001A974FFF09001AB7402F0A3741084
:10101600F09001AF74FFF09001B17402F0A3741167
:10102600F09001B574FFF09001B77402F0A374124A
:10103600F09001BB74FFF09001BD7402F0A374132D
:10104600F09001C174FFF09001C37402F0A3741410
:10105600F09001C774FFF09001C97402F0A37415F3
:10106600F09001CD74FFF09001CF7402F0A37416D6
:10107600F09001D374FFF09001D57402F0A37417B9
:10108600F09001D974FFF09001DB7402F0A374189C
:10109600F09001DF74FFF09001E17402F0A374197F
:1010A600F09001E574FFF09001E77402F0A3741A62
:1010B600F09001EB74FFF09001ED7402F0A3741B45
:1010C600F09001F174FFF09001F37402F0A3741C28
:1010D600F09001F774FFF09001F97402F0A3741D0B
:1010E600F09001FD74FFF09001FF7402F0A3741EEE
:1010F600F090020374FFF09002057402F0A3741FCF
:10110600F090020974FFF090020B7402F0A37420B1
:10111600F090020F74FFF09002117402F0A3742194
:10112600F090021574FFF09002177402F0A3742277
:10113600F090021B74FFF090021D7402F0A374235A
:10114600F090022174FFF09002237402F0A374243D
:10115600F090022774FFF09002297402F0A3742520
:10116600F090022D74FFF090022F7402F0A3742603
:10117600F090023374FFF09002357402F0A37427E6
:10118600F090023974FFF090023B7402F0A37428C9
:10119600F090023F74FFF09002417402F0A37429AC
:1011A600F090024574FFF09002477402F0A3742A8F
:1011B600F090024B74FFF090024D7402F0A3742B72
:1011C600F090025174FFF09002537402F0A3742C55
:1011D600F090025774FFF09002597403F0E4A3F004
:1011E60090025D74FFF090025F7403F0A37401F047
:1011F60090026374FFF09002657403F0A314F090FC
:10120600026974FFF090026B7403F0A3F090026F12
:1012160074FFF09002717403F0A304F090027574E9
:10122600FFF09002777403F0A37405F090027B74CC
:10123600FFF090027D7403F0A37406F090028174AF
:10124600FFF09002837403F0A37407F09002877492
:10125600FFF09002897404F0E4A3F090028D74FF0D
:10126600F090028F7404F0A37401F090029374FF5F
:10127600F09002957404F0A37402F090029974FF42
:10128600F090029B7404F0A314F090029F74FFF098
:101296009002A17404F0A3F09002A574FFF09002EE
:1012A600A77404F0A304F09002AB74FFF09002ADB3
:1012B6007404F0A37406F09002B174FFF09002B3C8
:1012C6007404F0A37407F09002B774FFF09002B9AB
:1012D6007404F0A37408F09002BD74FFF09002BF8E
:1012E6007404F0A37409F09002C374FFF09002C571
:0E12F6007404F0A3740AF09002C974FFF02291
:104012009008FBEFF09008FDEBF0A3EAF0A3E9F0C3
:10402200E4FF75F006EFA42401F582E5F03400F513
:1040320083E0FE9008FBE0FCEE6C706475F006EF26
:10404200A42402F582E5F03400F583E06D7051900E
:1040520008FDE0FBA3E0FAA3E0F9121FA4FE75F04D
:1040620006EFA42403F582E5F03400F583EEF09028
:104072000900E0FBA3E0FAA3E0F9121FA4FE75F029
:1040820006EFA42404F582E5F03400F583EEF07522
:10409200F006EFA42405F582E5F03400F583E4F0A0
:0940A2000FEF6478600302402472
:0140AB0022F2
:103CE100900898EFF090089AEBF0A3EAF0A3E9F0BE
:103CF100E4FF75F006EFA42401F582E5F03400F548
:103D010083E0FE900898E0FCEE6C707375F006EFAE
:103D1100A42402F582E5F03400F583E06D7060754E
:103D2100F006EFA42403F582E5F03400F583E0FE0C
:103D310090089AE0FBA3E0FAA3E0F9EE12201D75CA
:103D4100F006EFA42404F582E5F03400F583E0FEEB
:103D510090089DE0FBA3E0FAA3E0F9EE12201D75A7
:103D6100F006EFA42405F582E5F03400F583E0FECA
:103D71009008A0E0FBA3E0FAA3E0F9EE12201D0FEA
:083D8100EF64786003023CF3DB
:013D89002217
:1051F700E4FF75F006EFA42405F582E5F03400F529
:1052070083E0F4601275F006EFA42405F582E5F05B
:0C5217003400F583E004F00FEFB478D60B
:015223002268
:03000B00024DB8EB
:104DB800C0E0C0F0C083C082C0D075D000C000C0C1
:104DC80001C002C003C004C005C006C007758A80C0
:104DD800758C44C28DD28C12551FD007D006D005D1
:104DE800D004D003D002D001D000D0D0D082D0835C
:054DF800D0F0D0E03214
:0300A300024F0DFC
:104F0D00C0E0C0F0C083C082C0D075D000C000C06A
:104F1D0001C002C003C004C005C006C00775D3B0F0
:104F2D0075D23C124C94D007D006D005D004D003D6
:104F3D00D002D001D000D0D0D082D083D0F0D0E03C
:014F4D003231
:03008B000253E934
:1053E900C0E0C0F0C083C082C0D075D0081250A4FC
:0B53F900D0D0D082D083D0F0D0E032C2
:03009300024F4ECB
:104F4E00C0E0C0F0C083C082C0D075D000C000C029
:104F5E0001C002C003C004C005C006C0071250D96C
:104F6E00D007D006D005D004D003D002D001D00097
:0B4F7E00D0D0D082D083D0F0D0E03241
:030000000242FEBB
:0C42FE00787FE4F6D8FD75810F0243457F
:0A54E30053D10F75D3B075D23C22EF
:1054C000438E805389F0758A80758C44C28DD28C4E
:0354D000D2A9223C
:0700030043D18043AF40220E
:0700840053D17F53AFBF22EF
:0754F60043D18043AF4022C7
:0754FD0053D17F53AFBF2222
:065516001254E30254C030
:10449500E490086EF0F090086EE0FFC3940250734C
:1044A500EF75F066A42404F582E43408F583E0D3BF
:1044B50094004057746B64044408604F90086EE0A4
:1044C50075F066A4249FF9740735F0FA7B01C003E3
:1044D5009008FCEBF0A37408F0A3746DF0D0031200
:1044E500346690086EE0FF701090086B7404F0D28B
:1044F500CB90086DE0F5858012EFB4010E90086C45
:104505007404F0D2CA90086DE0F5AD90086EE00431
:03451500F08083B0
:014518002280
:103F7400759850438E40538EFE53890F758B8F7501
:103F84008DFDC2ABD28ED2AC75AC1043AC4053D1D4
:103F9400FD75D5CC75D4FF43D10843AF08758410A3
:103FA4005384BF538EFB75D7CC75D6FF438E104315
:103FB400AF10D2AFE4900940F07F0112546BC001FE
:103FC400900940E075F066A4249FF9740735F0A8C1
:103FD40001FC7D01D0017E007F66121F7E7F0112ED
:103FE400546BC001900940E075F066A424D3F974C1
:103FF4000635F0A801FC7D01D0017E007F66121F0A
:0D4004007E900940E004F0E0C3940240AC5F
:01401100228C
:03551C00024495B1
:0B4B0700900901EBF0A3EAF0A3E9F035
:104B1200ED75F066A4249FF9740735F0FA7B01C0A5
:104B220002C001900901E0F9A3E0FAA3E090093084
:104B3200C9F0A3EAF0A3E9F0D001D0021240ACEF31
:104B4200B42207E4900904F080069009047401F08D
:054B5200900904E0FFE2
:014B5700223B
:0B4B5800900BF5EBF0A3EAF0A3E9F0EE
:104B6300ED75F066A424D3F9740635F0FA7B01C021
:104B730002C001900BF5E0F9A3E0FAA3E09008FC72
:104B8300C9F0A3EAF0A3E9F0D001D002123466EF32
:104B9300B41107E4900BF8F08006900BF87402F060
:054BA300900BF8E0FF9B
:014BA80022EA
:1050A400E5AC30E020900918E5ADF09009307401CA
:1050B400F0A37409F0A37418F07B017A077939120C
:1050C40040AC53ACFEE5AC30E10A53ACFDE49008CF
:0450D4006CF0C2CAF0
:0150D80022B5
:1050D900E58430E0205384FE90092CE585F09009A1
:1050E900307401F0A37409F0A3742CF07B017A06E3
:1050F90079D31240ACE58430E10A5384FDE4900889
:045109006BF0C2CBBA
:01510D00227F
:10543900EF75F066A42438F582E43407F583E0D3E8
:0A544900940040037F01227F00223F
:10356700808080808080808001010101010101014C
:10357700FF0000000000000000000000000000FF46
:10358700818181818181818180808080808080802C
:103597000000000000000000000000000000000024
:1035A7000101010101010101FF000000000000000D
:1035B700FF0000000000000000000000000000FF06
:1035C70000000000000000FF8080808080808080F5
:1035D70080808080808080800000000000000000E4
:1035E70000000000000000000000000000000000D4
:1035F70000000000000000000101010101010101BC
:103607000101010101010101FF00000000000000AC
:103617000000000000000000FF00000000000000A4
:103627000000000000000000000000000000000093
:1036370000000000000000FF000000000000000084
:0836470000000000000000FF7C
:10536600E4FDFCC3ED9FEE6480F8EC648098501574
:10537600E4FBFA0BBB00010AEB646E4A70F50DBD47
:0553860000010C80DEB7
:01538B0022FF
:104FC400C2C97F017E00124FD8C2C8AF01124BA9DB
:044FD400D2C97F01BE
:104FD800E4FDFCC3ED9FEE6480F8EC648098501506
:104FE800E4FBFA0BBB00010AEB64014A70F50DBD46
:054FF80000010C80DE49
:014FFD002291
:104BA900EF20E704C2B58002D2B5EF20E604C2A720
:104BB9008002D2A7EF20E504C2A68002D2A6EF2088
:104BC900E404C2A58002D2A5EF20E304C2A48002B6
:104BD900D2A4EF20E204C2A38002D2A3EF20E10411
:104BE900C2A28002D2A2EF20E003C2A122D2A12256
:06549900FF1253BD7F303D
:0E549F00A907C2B7C2B6124FC4D2B7C2C92203
:1053AC00E0FBA3E0FAA3E0F98F82758300121FBD26
:0153BC00FFF1
:0E53BD00A907C2B7D2B6124FC4D2B7C2C922D6
:10336400C2C1C2A07F647E00125366D2A01253660B
:103374007F3012549F7F9412549F7F3112549F7F49
:10338400D712549F7F9F1253BD7F3212549FE4FF84
:103394001253BD7F011253BD7F031253BD7F201210
:1033A400549F7F011253BD7F031253BD7F051253F7
:1033B400BD7F071253BD7F091253BD7F0B1253BD4E
:1033C4007F0D1253BD7F101253BD7F111253BD7F69
:1033D400131253BD7F151253BD7F171253BD7F19AE
:1033E4001253BD7F1B1253BD7F1D1253BD7F1F128D
:1033F400549A7F7512549FE4FF1253BD7F141253E5
:10340400BD7F1512549FE4FF1253BD7FFF1253BDBD
:103414007FBC12549FE4FF1253BD7FA61253BD7F9D
:10342400CA12549FE4FF1253BD7F9F1253BD7F20E5
:103434001253BD7FF012549F7F101253BD7F81122F
:10344400549F7F301253BD7F031253BD7F2012540B
:103454009F7F0B1253BD7F647E00124FD87FAF0253
:02346400549F73
:1049B600900942EFF0A3EDF0A3EAF0A3EBF0900923
:1049C60042E014F0A3E02407F07F1512549F9009EB
:1049D60042E0FF1253BD900944A3E0FF900942E074
:1049E6002F14FF1253BD7F7512549FA3E0FF12537D
:1049F600BD900946A3E0FF900943E02F1412549995
:054A06007F5C02549FDB
:104755009008B5EFF0A3EDF0A3EAF0A3EBF0900815
:10476500B5E014F0A3E02407F07F1512549F9008DC
:10477500B5E0FF1253BD9008B7A3E0FF9008B5E080
:104785002FF0E014F0E0FF1253BD7F7512549FA384
:10479500E0FF1253BD9008B9A3E0FF9008B6E02FE3
:0D47A500F0E014F0E01254997F5C02549F84
:104F8900900946E4F0A3740DF07BC17A00E4FDFFBB
:104F99001249B6E4900940F0E4900941F0E4FF12A7
:104FA90053BD900941E004F0E0C394C140EF90097A
:0A4FB90040E004F0E0C3940D40DE78
:014FC30022CB
:0B4D7000900889EBF0A3EAF0A3E9F043
:104D7B00900946E4F0A304F07B087A001249B6E4EC
:104D8B0090088CF0900889E0FBA3E0FAA3E0F912FD
:104D9B001FA4FF1253BD90088AE475F0011220A6E0
:0C4DAB0090088CE004F0E0C3940840D8AD
:014DB70022D9
:10540400900888EBF0900946E4F0A304F0FB7A00DE
:0B5414001249B6900888E0FF0253BD6B
:0B297C0090088CEBF0A3EAF0A3E9F058
:102987009008B9E4F0A37402F07B087A0012475567
:102997009008A17401F0A37408F0A37491F0E49077
:1029A7000890F090088CE0FBA3E0FAA3E0F9900808
:1029B70090E0FFF582758300121FBDFE9008A1E02D
:1029C700FBA3E0FAA3E0F98F82758300EE12202FB4
:1029D700900890E004F0E0B410C990088FE054012B
:1029E700D39400405A9008A474FFF0A37435F0A361
:1029F700748FF0E4900890F09008A1E0FBA3E0FA50
:102A0700A3E0F9900890E0FFE92FF9E43AFAC00350
:102A1700C002C001121FA4FE9008A4E0FBA3E0FAC5
:102A2700A3E0F98F82758300121FBD4ED001D0023B
:102A3700D00312201D900890E004F0E0B410B99084
:102A4700088FE05402D39400405A9008A474FFF012
:102A5700A37435F0A3749FF0E4900890F09008A158
:102A6700E0FBA3E0FAA3E0F9900890E0FFE92FF973
:102A7700E43AFAC003C002C001121FA4FE9008A4E2
:102A8700E0FBA3E0FAA3E0F98F82758300121FBD74
:102A97004ED001D002D00312201D900890E004F020
:102AA700E0B410B990088FE05404D39400405A90D2
:102AB70008A474FFF0A37435F0A374AFF0E4900892
:102AC70090F09008A1E0FBA3E0FAA3E0F99008904A
:102AD700E0FFE92FF9E43AFAC003C002C001121F70
:102AE700A4FE9008A4E0FBA3E0FAA3E0F98F8275A7
:102AF7008300121FBD4ED001D002D00312201D90BB
:102B07000890E004F0E0B410B990088FE05408D3BF
:102B17009400405A9008A474FFF0A37435F0A3748E
:102B2700BFF0E4900890F09008A1E0FBA3E0FAA3BF
:102B3700E0F9900890E0FFE92FF9E43AFAC003C002
:102B470002C001121FA4FE9008A4E0FBA3E0FAA3B1
:102B5700E0F98F82758300121FBD4ED001D002D0DD
:102B67000312201D900890E004F0E0B410B9E4903F
:102B77000890F0900890E0FFC39410500E9008A1C1
:0B2B87001253AC900890E004F080E8CE
:012B92002220
:0B2B930090088AEBF0A3EAF0A3E9F041
:102B9E009008B9E4F0A37402F07B107A0012475546
:102BAE009008AF7401F0A37408F0A3748FF0E49052
:102BBE00088EF090088AE0FBA3E0FAA3E0F99008F3
:102BCE008EE0FFF582758300121FBDFE9008AFE008
:102BDE00FBA3E0FAA3E0F98F82758300EE12202F9B
:102BEE0090088EE004F0E0B420C990088DE0540106
:102BFE00D39400405A9008B274FFF0A37435F0A33A
:102C0E0074CFF0E490088EF09008AFE0FBA3E0FAEA
:102C1E00A3E0F990088EE0FFE92FF9E43AFAC00339
:102C2E00C002C001121FA4FE9008B2E0FBA3E0FA9E
:102C3E00A3E0F98F82758300121FBD4ED001D00222
:102C4E00D00312201D90088EE004F0E0B420B9905D
:102C5E00088DE05402D39400405A9008B274FFF0ED
:102C6E00A37435F0A374EFF0E490088EF09008AFE3
:102C7E00E0FBA3E0FAA3E0F990088EE0FFE92FF95C
:102C8E00E43AFAC003C002C001121FA4FE9008B2BB
:102C9E00E0FBA3E0FAA3E0F98F82758300121FBD5B
:102CAE004ED001D002D00312201D90088EE004F009
:102CBE00E0B420B990088DE05404D39400405A90AB
:102CCE0008B274FFF0A37436F0A3740FF0E490080A
:102CDE008EF09008AFE0FBA3E0FAA3E0F990088E27
:102CEE00E0FFE92FF9E43AFAC003C002C001121F57
:102CFE00A4FE9008B2E0FBA3E0FAA3E0F98F827580
:102D0E008300121FBD4ED001D002D00312201D90A1
:102D1E00088EE004F0E0B420B990088DE05408D39A
:102D2E009400405A9008B274FFF0A37436F0A37466
:102D3E002FF0E490088EF09008AFE0FBA3E0FAA32A
:102D4E00E0F990088EE0FFE92FF9E43AFAC003C0EB
:102D5E0002C001121FA4FE9008B2E0FBA3E0FAA38A
:102D6E00E0F98F82758300121FBD4ED001D002D0C4
:102D7E000312201D90088EE004F0E0B420B9E49018
:102D8E00088EF090088EE0FFC39420500E9008AF8E
:0B2D9E001253AC90088EE004F080E8B7
:012DA9002207
:0B4FFE00900886EBF0A3EAF0A3E9F0B6
:10500900900946E4F0A37403F07B187A001249B6BC
:10501900E4900889F0900889E0FFC39448500E9005
:0D50290008861253AC900889E004F080E87E
:015036002257
:10538C00E4FDFCC3ED9FEC9E5015E4FBFA0BBB0057
:0F539C00010ABA06F8BB84F50DBD00010C80E4D0
:0153AB0022DF
:015523002265
:05008E0012506E80FE1F
:10244600460AB20103F1021122480AAAFF03F20268
:10245600AA55233360270AC0FF0330000401020394
:102466000405060708091011121314151617181972
:1024760020212223242526272829303132CCCC4876
:102486000AB80106F099325555AA480B67FF83F042
:1024960099885555AA420AED55AA420B6F0000418C
:0324A6000AA90080
:10506E001255237FC87E0012538C123364124F895F
:10507E0078407C097D017B017A0A79E77E007F0604
:10508E00121F7E1254D3C2CAC2CB1254ED12551641
:06509E001200030254F6AB
:03551F0002550A28
:104C94009008807406F0A37403F0A314F0A314F036
:104CA400E4A3F0A3F0900AA9E014601A14601214AB
:104CB40060141460111460152405701D123ED38015
:104CC40005123C328000900AA9E004F022D2C412FA
:094CD4005510C2C4E4900AA9F0D5
:014CDD0022B4
:10430A0002008EE493A3F8E493A34003F68001F23B
:10431A0008DFF48029E493A3F85407240CC8C333B4
:10432A00C4540F4420C8834004F456800146F6DF83
:10433A00E4800B01020408102040809021BDE47E35
:10434A00019360BCA3FF543F30E509541FFEE49378
:10435A00A360010ECF54C025E060A840B8E493A33F
:10436A00FAE493A3F8E493A3C8C582C8CAC583CA6A
:10437A00F0A3C8C582C8CAC583CADFE9DEE780BE22
:0124A9000032
:101EAE00E709F608DFFA8046E709F208DFFA803E16
:101EBE0088828C83E709F0A3DFFA8032E309F60803
:101ECE00DFFA8078E309F208DFFA807088828C836B
:101EDE00E309F0A3DFFA806489828A83E0A3F6081F
:101EEE00DFFA805889828A83E0A3F208DFFA804CF9
:101EFE0080D280FA80C680D4806980F280338010D0
:101F0E0080A680EA809A80A880DA80E280CA803338
:101F1E0089828A83ECFAE493A3C8C582C8CCC583B0
:101F2E00CCF0A3C8C582C8CCC583CCDFE9DEE78080
:101F3E000D89828A83E493A3F608DFF9ECFAA9F0FF
:101F4E00EDFB2289828A83ECFAE0A3C8C582C8CC55
:101F5E00C583CCF0A3C8C582C8CCC583CCDFEADE6E
:101F6E00E880DB89828A83E493A3F208DFF980CCD0
:101F7E0088F0EF60010E4E60C388F0ED2402B404C9
:101F8E000050B9F582EB2402B4040050AF23234570
:061F9E008223901EFE7379
:101FA400BB010689828A83E0225002E722BBFE023B
:091FB400E32289828A83E493226E
:101FBD00BB010CE58229F582E5833AF583E02250D9
:101FCD0006E92582F8E622BBFE06E92582F8E22223
:0D1FDD00E58229F582E5833AF583E493223D
:101FEA00BB010FF8E58229F582E5833AF583E028FB
:101FFA00F0225009C58229F8E58226F622BBFE099D
:10200A00C58229F8E22582F222F8EA2583F583E9D6
:03201A00932822E6
:10201D00BB010689828A83F0225002F722BBFE01A2
:02202D00F3229C
:10202F00F8BB010DE58229F582E5833AF583E8F0E7
:10203F00225006E92582C8F622BBFE05E92582C893
:02204F00F2227B
:10205100BC000BBE0029EF8DF084FFADF022E4CC73
:10206100F875F008EF2FFFEE33FEEC33FCEE9DEC3C
:10207100984005FCEE9DFE0FD5F0E9E4CEFD22ED82
:10208100F8F5F0EE8420D21CFEADF075F008EF2FCC
:10209100FFED33FD4007985006D5F0F222C398FDBD
:0520A1000FD5F0EA225A
:1020A600C5F0F8A3E028F0C5F0F8E58215827002C5
:0620B6001583E038F02262
:1020BC00A3F8E0C5F025F0F0E582158270021583D7
:0620CC00E0C838F0E82234
:1020D20075F008758200EF2FFFEE33FECD33CDCCC5
:1020E20033CCC58233C5829BED9AEC99E582984048
:1020F2000CF582EE9BFEED9AFDEC99FC0FD5F0D625
:10210200E4CEFBE4CDFAE4CCF9A88222B800C1B94E
:102112000059BA002DEC8BF084CFCECDFCE5F0CB8C
:10212200F97818EF2FFFEE33FEED33FDEC33FCEBC5
:1021320033FB10D703994004EB99FB0FD8E5E4F980
:10214200FA227818EF2FFFEE33FEED33FDEC33FC6D
:10215200C933C910D7059BE99A4007EC9BFCE99A61
:10216200F90FD8E0E4C9FAE4CCFB2275F010EF2FA6
:10217200FFEE33FEED33FDCC33CCC833C810D707A6
:102182009BEC9AE899400AED9BFDEC9AFCE899F8E1
:0E2192000FD5F0DAE4CDFBE4CCFAE4C8F92274
:1021A000EB9FF5F0EA9E42F0E99D42F0E89C45F095
:0121B000220C
:0C21B100ECF0A3EDF0A3EEF0A3EFF022A1
:00000001FF
