:10176900420BEDA00161000BEF00C1814001C08077
:101779004101C0804100C1814001C0804100C18157
:101789004000C1814001C0804101C0804100C18148
:101799004000C1814001C0804100C1814001C08039
:1017A9004101C0804100C1814001C0804100C18127
:1017B9004000C1814001C0804100C1814001C08019
:1017C9004101C0804100C1814000C1814001C08008
:1017D9004101C0804100C1814001C0804100C181F7
:1017E9004000C1814001C0804101C0804100C181E8
:1017F9004000C1814001C0804100C1814001C080D9
:101809004101C0804100C1814000C1814001C080C7
:101819004101C0804100C1814001C0804100C181B6
:101829004000C1814001C0804100C1814001C080A8
:101839004101C0804100C1814001C0804100C18196
:101849004000C1814001C0804101C0804100C18187
:101859004000C1814001C0804100C1814001C08078
:101869004101C0804100C1814061000CEF00C0C14D
:1018790001C30302C2C60607C705C5C404CC0C0DC3
:10188900CD0FCFCE0E0ACACB0BC90908C8D8181973
:10189900D91BDBDA1A1EDEDF1FDD1D1CDC14D4D5D3
:1018A90015D71716D6D21213D311D1D010F0303163
:1018B900F133F3F23236F6F737F53534F43CFCFD03
:1018C9003DFF3F3EFEFA3A3BFB39F9F83828E8E993
:1018D90029EB2B2AEAEE2E2FEF2DEDEC2CE4242513
:1018E900E527E7E62622E2E323E12120E0A0606183
:1018F900A163A3A26266A6A767A56564A46CACAD43
:101909006DAF6F6EAEAA6A6BAB69A9A86878B8B9F2
:1019190079BB7B7ABABE7E7FBF7DBDBC7CB4747552
:10192900B577B7B67672B2B373B17170B0509091A2
:10193900519353529296565797559594549C5C5D82
:101949009D5F9F9E5E5A9A9B5B9959589888484912
:10195900894B8B8A4A4E8E8F4F8D4D4C8C44848592
:101969004587474686824243834181804060200DF6
:10197900EF0000CC01D8011400F0013C002800E47C
:1019890001A0016C007800B40150009C0188014459
:01199900004D
:082F1E009010DAECF0A3EDF0D5
:102F260074FF9010DDF0A3F0ED4C70079010DAF00E
:102F3600A304F09010DA74FFF5F012136A45F060FE
:102F46005E121273FF9010DDE0F0A3E06FF0E490E4
:102F560010DCF09010DDE0FEA3E0FF30E023EEC3CE
:102F660013FEEF13FF9010DDEEF0A3EFF0900BEDE4
:102F7600E0FEA3E0FF9010DDE06EF0A3E06FF080CE
:102F86000B9010DDE0C313F0A3E013F09010DCE02B
:102F960004F0E0B408BD740129F9E43AFA8094908B
:072FA60010DDE0FEA3E0FFD7
:012FAD002201
:103593009010DFEBF0A3EAF0A3E9F0A3ECF0A3EDC6
:0135A300F037
:1035A4007FFF7DFF9010E274FFF5F012136A45F07F
:1035B40060319010DFE0FBA3E475F00112136AA9F7
:1035C400F0FA1212736DFB7A0024EFF582E4340BE7
:1035D400F583E06FFD74EF2BF582E4340CF583E0A2
:0735E400FF80C1EFFEEDFFC7
:0135EB0022BD
:102AC00090108DEBF0A3EAF0A3E9F0A3ECF0A3EDF6
:012AD000F015
:102AD10074FFA3F0A3F0E4A3F0A3F0901090E0FE44
:102AE100A3E0FFC3901095E09F901094E09E4003F7
:102AF100022B9C90108DE0FBA3E475F00112136A88
:102B0100A9F0FA121273FDFF901092A3E06F540F17
:102B110025E0FFE433FE74EF2FF582740D3EF5835B
:102B2100E0FAA3E0FB901092E0C4F854F0C868FE0C
:102B3100A3E0C4540F48FFEA6EFEEB6FFF901092C2
:102B4100EEF0A3EFF0EDC4540FFF901092A3E06FED
:102B5100540F25E0FFE433FE74EF2FF582740D3E30
:102B6100F583E0FAA3E0FB901092E0C4F854F0C8BA
:102B710068FEA3E0C4540F48FFEA6EFEEB6FFF90BE
:102B81001092EEF0A3EFF0901095E004F0600302D4
:102B91002ADC901094E004F0022ADC901092E0FE0E
:032BA100A3E0FFAF
:012BA400220E
:083D7000900E4EECF0A3EDF003
:103D7800E4FFFED3900E4FE09F900E4EE09E40145D
:103D8800E4F5F0121430740229F9E43AFA0FBF008E
:043D9800010E80DFB9
:013D9C002204
:0B35EC009010A8EBF0A3EAF0A3E9F0B8
:1035F700E4FFFED39010AFE09F9010AEE09E403CFA
:103607009010ABE0FBA3E0FAA3E0F9121380FD9062
:1036170010A8E0FBA3E0FAA3E0F9E5F08DF012149F
:10362700309010A9E475F0021213549010ACE475B1
:0C363700F0021213540FBF00010E80B708
:013643002264
:103F6700900F0BEEF0A3EFF0E4A3F0A3F07B017A40
:033F77000E79437D
:013F7A002224
:0B257C00900E45EBF0A3EAF0A3E9F09D
:102587007F33A3E0F9A3E0FAA3E0A3C9F0A3EAF03D
:10259700A3E9F0900E45E0FBA3E0FAA3E0F9900071
:1025A700CA1213ABD39400E5F09400500302267FC0
:1025B7009000C81213ABFFAEF0900E4BE0FBA3E008
:1025C700FAA3E0F8AC02AD03900E45E0FBA3E0FAF6
:1025D700A3E012124D900E45E0FBA3E0FAA3E0F949
:1025E7009000C81213ABFDACF0123D70900E45E0A1
:1025F700FBA3E0FAA3E0F99000CA1213AB24FFFF94
:10260700E5F034FFFEE92402F9E43AFAC003C00218
:10261700900E45A3E0FAA3E0F8AC02AD03D002D0D8
:102627000312124D900E45E0FBA3E0FAA3E0F990E8
:1026370000CA1213AB25E0FFE5F033FEE92FF9EAF4
:102647003EFAC002C001900E45A3E0FAA3E0F9905C
:1026570000C81213ABFDACF0D001D002123D709050
:102667000E45E0FBA3E0FAA3E0F99000CA74FFF57A
:10267700F01213E37F118024900E45E0FBA3E0FAEC
:10268700A3E0F99000C81213ABFDACF0900E4BE03D
:0C269700FBA3E0FAA3E0F9123D707F33D2
:0126A3002214
:0B2C6700900E38EBF0A3EAF0A3E9F0B8
:102C7200900E3E74AAF0900E3BE0F9A3E0FAA3E0B6
:102C8200900E3FC9F0A3EAF0A3E9F0900E38E0FB02
:102C9200A3E0FAA3E0F99000CA1213ABFDACF090E6
:102CA20000C81213ABFBAAF0FFAE021212EDC374FE
:102CB200649FFFE49EFEC3EF9BEE9A405B900E384A
:102CC200E0FBA3E0FA9000C81213ABFFAEF0C0061F
:102CD200C0079000CA1213AB25E0FFE5F033FEE90E
:102CE2002FF9EA3EA801FCAD03900E3FE0FBA3E002
:102CF200FAA3E0F9D007D00612124D900E38E0FB8D
:102D0200A3E0FAA3E0F99000CAE475F0011213E31C
:102D1200900E3E7422F08006900E3E7433F0900EB8
:032D22003EE0FF91
:012D2500228B
:0A199A0042000000004200020000BD
:0C3FC2009010E8EBF0A3EAF0A3E9F02275
:0C3FCE009010EBEBF0A3EAF0A3E9F02266
:100DA800901076EBF0A3EAF0A3E9F0A3ECF0A3ED42
:010DB800F04A
:100DB900E490107FF0A3F0A3F0A3F090107C75F0FD
:100DC9000212135490107BE0FBA3E0FAA3E0F9129E
:100DD9001380FFE5F0600302104DEF24FC606D14F1
:100DE9007003020EA9147003020F34147003020F6A
:100DF900AA147003020FF12405600302104D90102C
:100E09007EE0FFB40111E4900002F0A3F0901079A4
:100E1900E0FCA3E0FD8024901079E0FCA3E0FD64F0
:100E2900304C700FEFB4010B900002E4F0A374038F
:100E3900F08008900002E4F0A304F0901076E0FB43
:100E4900A3E0FAA3E0F9900004021014900002E074
:100E5900FEA3E0FF4E7019901079E0FCA3E0FD902D
:100E69001076E0FBA3E0FAA3E0F990000602101463
:100E7900EF64034E7002800F900002E07004A3E05B
:100E89006401600302117C901079E0FEA3E0FF90F9
:100E99001076E0FBA3E0FAA3E0F99000060210FF48
:100EA900900002E0FEA3E0FF4E7019901079E0FC7B
:100EB900A3E0FD901076E0FBA3E0FAA3E0F990002F
:100EC90008021014EF64034E7039901079E0FEA304
:100ED900E0FF901076E0FBA3E0FAA3E0F9900008A8
:100EE900EE8FF012144F74027E00A807088005C324
:100EF90033CE33CED8F925E0FFEE33900000F0A3CE
:100F0900EFF022900002E07004A3E06401600302A4
:100F1900117C901079E0FEA3E0FF901076E0FBA32E
:100F2900E0FAA3E0F99000080210FF900002E0FE49
:100F3900A3E0FF4E7023901079E0FCA3E0FD901030
:100F490076E0FBA3E0FAA3E0F990000AEC8DF01239
:100F5900144F900062EE021142900002E0FEA3E0FD
:100F6900FF64034E7019901079E0FCA3E0FD901026
:100F790076E0FBA3E0FAA3E0F990000A021014EF6F
:100F890064014E600302117C901079E0FEA3E0FF3A
:100F9900901076E0FBA3E0FAA3E0F990000A0210B2
:100FA900FF900002E0FEA3E0FF64034E701890106A
:100FB90079E0FCA3E0FD901076E0FBA3E0FAA3E062
:100FC900F990000C8045EF64014E600302117C909A
:100FD9001079E0FEA3E0FF901076E0FBA3E0FAA30E
:100FE900E0F990000C0210FF900002E0FEA3E0FF80
:100FF90064034E701C901079E0FCA3E0FD9010761C
:10100900E0FBA3E0FAA3E0F990000EEC8DF00211E9
:1010190002EF64014E600302117C901079E0FEA397
:10102900E0FF901076E0FBA3E0FAA3E0F990000E50
:10103900EE8FF012144F900002E0FFA3E0900062DF
:10104900CF02114290107BE0FBA3E0FAA3E0F91272
:10105900138024F8FEE5F034FF90107FF0A3CEF062
:10106900900001E024FDFE900000E034FF90108123
:10107900F0A3CEF0900002E07004A3E064036003E3
:1010890002117C901081E0FEA3E0FFD3901080E074
:101099009F90107FE09E502B901079E0FCA3E0FD1B
:1010A900901076E0FBA3E0FAA3E0240AF9E43AFA07
:1010B900EF25E0FFEE33FEE92FF9EA3EFAEC8DF079
:1010C900021179901082E02401FF901081E0340030
:1010D900FE90107FE0FCA3E0FDB50720ECB5061CEF
:1010E900901079E0FEA3E0FF901076E0FBA3E0FA10
:1010F900A3E0F990005AEE8FF002144F901082E0AD
:101109002402FF901081E03400FEED6F7002EC6E56
:101119007061901079E0FEA3E0FF901076E0FBA3E8
:10112900E0FAA3E0F990005CEE8FF012144F900002
:1011390002E0FFA3E0900062CF8FF012144F9010ED
:101149007BE0FBA3E0FAA3E0F9121380FF9010768D
:10115900E0FBA3E0FAA3E0F9900060E5F08FF0125C
:10116900144F90107BE0FBA3E0FAA3E0F9E4F5F05B
:031179001214301D
:01117C002250
:1028C600901096EBF0A3EAF0A3E9F090109CE47563
:1028D600F00212135490109BE0FBA3E0FAA3E0F978
:1028E600121380FFE5F060030229C5EF24FC602384
:1028F60014603014603D14604A14605B2405600364
:102906000229C5901096E0FBA3E0FAA3E0F9900037
:1029160004803E901096E0FBA3E0FAA3E0F9900055
:1029260006802E901096E0FBA3E0FAA3E0F9900053
:1029360008801E901096E0FBA3E0FAA3E0F9900051
:102946000A800E901096E0FBA3E0FAA3E0F990004F
:102956000CEC8DF002144FAF05901096E0FBA3E04F
:10296600FAA3E0F990000EEC8FF012144F90109E2F
:10297600E0FF700890006275F005800BEFB4010A65
:10298600900062E475F00612144F90109BE0FBA3D2
:10299600E0FAA3E0F9121380FF901096E0FBA3E0A3
:1029A600FAA3E0F9900060E5F08FF012144F901052
:1029B6009BE0FBA3E0FAA3E0F9E4F5F01214302261
:1026A4009010B0EBF0A3EAF0A3E9F09010B6E47553
:1026B400F0021213549010B5E0FBA3E0FAA3E0F982
:1026C400121380FFE5F060030227C3EF24FC6023AC
:1026D40014603014603D14604A14605B2405600388
:1026E4000227C39010B0E0FBA3E0FAA3E0F9900046
:1026F40004803E9010B0E0FBA3E0FAA3E0F9900060
:1027040006802E9010B0E0FBA3E0FAA3E0F990005D
:1027140008801E9010B0E0FBA3E0FAA3E0F990005B
:102724000A800E9010B0E0FBA3E0FAA3E0F9900059
:102734000CEC8DF002144FAF059010B0E0FBA3E059
:10274400FAA3E0F990000EEC8FF012144F900002FF
:102754001213ABFFAEF064834E70149010B0E0FB24
:10276400A3E0FAA3E0F9900062E475F0048018EFA6
:1027740064864E70159010B0E0FBA3E0FAA3E0F974
:10278400900062E475F00712144F9010B5E0FBA3BB
:10279400E0FAA3E0F9121380FF9010B0E0FBA3E08D
:1027A400FAA3E0F9900060E5F08FF012144F901056
:1027B400B5E0FBA3E0FAA3E0F9E4F5F0121430224B
:103FA2009010B8EBF0A3EAF0A3E9F0A3ECF0A3EDD4
:023FB200F022FB
:102D26009010C0EBF0A3EAF0A3E9F09010C6E475AA
:102D3600F0021213549010C5E0FBA3E0FAA3E0F9E9
:102D4600121380FFE5F06003022DD6EF24FC601716
:102D5600146028240270799010C0E0FBA3E0FAA367
:102D6600E0F9900004800E9010C0E0FBA3E0FAA307
:102D7600E0F9900006EC8DF002144FAF059010C0FC
:102D8600E0FBA3E0FAA3E0F9900008EC8FF0121440
:102D96004F900062E475F00812144F9010C5E0FBE6
:102DA600A3E0FAA3E0F9121380FF9010C0E0FBA3A2
:102DB600E0FAA3E0F9900060E5F08FF012144F906E
:102DC60010C5E0FBA3E0FAA3E0F9E4F5F012143035
:012DD60022DA
:0B148D009010E4EBF0A3EAF0A3E9F0FC
:10149800E4A3F0F09010E7E0FFC3940240030217C2
:1014A80068123EC0EF70030217559010E7E075F020
:1014B80002A42408F9740035F0FA7B01E0FD123823
:1014C8003F9010E7E0FF25E02404F582E43400F5BE
:1014D80083E0FCA3E04C700EEF75F064A4240CF5D7
:1014E80082E4340080259010E7E0FF25E02404F52D
:1014F80082E43400F583E0FCA3E064014C7018EF4B
:1015080075F064A4240EF582E43400F5837400F0C9
:10151800A37408F00216F69010E7E0FF75F064A4D3
:10152800240EF582E43400F583E0FCA3E0FDEC60D2
:10153800030216F6ED24FA607924FB700302165EA6
:1015480024FB70030216AB248D700302161024FDD1
:101558007003021610248360030216F6EF75F06418
:10156800A4240CF9740035F0FA7B01C003C002C052
:10157800019010E7E0FF25E02408F582E43400F547
:1015880083E0FCA3E0FDEF75F002A42404F97400E5
:1015980035F0FA90107BEBF0A3EAF0A3E9F0901095
:1015A800E7E090107EF0D001D002D003120DA8021F
:1015B80016F69010E7E075F064A4240CF974003571
:1015C800F0FA7B01C003C002C001E0FF25E0240857
:1015D800F582E43400F583E0FCA3E0FDEF75F0024A
:1015E800A42404F9740035F0FA90109BEBF0A3EAF8
:1015F800F0A3E9F09010E7E090109EF0D001D0023F
:10160800D0031228C60216F69010E7E075F064A41D
:10161800240CF9740035F0FA7B01C003C002C00144
:10162800E0FF25E02408F582E43400F583E0FCA31C
:10163800E0FDEF75F002A42404F9740035F0FA9087
:1016480010B5EBF0A3EAF0A3E9F0D001D002D00383
:101658001226A40216F69010E7E075F064A4240C94
:10166800F9740035F0FA7B01C003C002C001E0FF45
:1016780025E02408F582E43400F583E0FCA3E0FDCE
:10168800EF75F002A42404F9740035F0FA9010BD47
:10169800EBF0A3EAF0A3E9F0D001D002D003123FA7
:1016A800A2804B9010E7E075F064A4240CF9740054
:1016B80035F0FA7B01C003C002C001E0FF25E02439
:1016C80008F582E43400F583E0FCA3E0FDEF75F053
:1016D80002A42404F9740035F0FA9010C5EBF0A3C5
:1016E800EAF0A3E9F0D001D002D003122D26901021
:1016F800E7E0FF75F064A4246EF582E43400F58316
:10170800E0FCA3E04C6046EF75F064A4240CF97487
:101718000035F0FA7B01C003C0029010E4E0FBA39F
:10172800E0FAA3E0F8AC02AD03D002D0037E007F5C
:101738003212124D9010E7E075F064A4240CF9748D
:101748000035F0FA7B017D327C00123D709010E587
:10175800E475F0641213549010E7E004F002149C4E
:01176800225E
:0E31DB0090109FEBF0A3EAF0A3E9F0A3EDF053
:1031E900E4A3F0A3F0F9A3C9F0A3F0A3E9F09010C8
:1031F9009FE0F9A3E0FAA3E09010A5C9F0A3EAF0D3
:10320900A3E9F0E49010A3F0A3F090109FE0FBA3D2
:10321900E0FAA3E0F99000601213ABFFC39010A489
:10322900E09F9010A3E095F0502D9010A5E0FBA32E
:10323900E0FAA3E0F99010A2E0FD1237EE9010A693
:10324900E475F0021213549010A4E004F070BB90DE
:0732590010A3E004F080B3B4
:01326000224B
:103F3B00E4FFFE746429F9E43AFA0FBF00010EEFB7
:053F4B0064024E70EE5F
:013F5000224E
:01000A0022D3
:014005002298
:0B08C600901083EBF0A3EAF0A3E9F030
:1008D100E4901089F0A3F0A3F0A3F0901083E0FB63
:1008E100A3E0FAA3E0F99000601213AB45F07003A6
:1008F100020DA77B017A107983123FCEEF4E700370
:10090100020DA7901083E0FBA3E0FAA3E0F99000A9
:10091100621213ABFFAEF0EE6003020DA4EF24FDF3
:1009210070030209F8147003020C3424FE700302F0
:100931000B7C147003020CEC24066003020DA490DE
:100941001086E0FBA3E0FAA3E0F9E475F0031214CA
:1009510030901083E0FBA3E0FAA3E0F990000412C9
:1009610013ABFF901086E0FBA3E0FAA3E0F990003F
:1009710002E5F08FF012144F901083E0FBA3E0FA30
:10098100A3E0F99000061213ABFF901086E0FBA3E1
:10099100E0FAA3E0F9900004E5F08FF012144F9013
:1009A1001083E0FBA3E0FAA3E0F99000081213AB77
:1009B100FF901086E0FBA3E0FAA3E0F9900006E5C2
:1009C100F08FF012144F901083E0FBA3E0FAA3E044
:1009D100F990000A1213ABFF901086E0FBA3E0FA36
:1009E100A3E0F9900008E5F08FF012144F9000C8D1
:1009F100E475F001020DA1901083E0FBA3E0FAA3DE
:100A0100E0F99000621213AB24F9FFE5F034FFC363
:100A110013EF13FF90108BF09000061213AB9010A0
:100A21008CF0901086E0FBA3E0FAA3E0F99000C8F7
:100A3100E48FF012144FE4901089F0A3F090108B22
:100A4100E0FFC390108AE09F901089E0940040037A
:100A5100020DA4901086E0FBA3E0FAA3E0F9A3E065
:100A6100FEA3E0F5828E83740A12147CE475F00310
:100A710012144F901083E0FBA3E0FAA3E0F9900079
:100A8100041213ABFFAEF0C007C006901089E0FE60
:100A9100A3E0FF7C007D0A1212EDAC06AD079010B9
:100AA10086E0FBA3E0FAA3E02DF9EA3CFA9000020C
:100AB100D0E0D0F012144F90108CE0FF7E008FF048
:100AC100EE90000412144F901083E0FBA3E0FAA310
:100AD100E0240AF9E43AFA901089E0FEA3E07802F2
:100AE100C333CE33CED8F929F9EA3EFA121380FF87
:100AF100AEF08FF0C006901086E0FBA3E0FAA3E011
:100B01002DF9EA3CFA900006D0E012144F901089BA
:100B1100E0FEA3E07802C333CE33CED8F9240CFF34
:100B2100E43EFE901083E0FBA3E0FAA3E0F98F829C
:100B31008E831213ABFFAEF0C007C006901089E0A0
:100B4100FEA3E0FF7C007D0A1212ED901086E0FB0F
:100B5100A3E0FAA3E02FF9EA3EFA900008D0E0D032
:100B6100F012144F90108CE004F090108AE004F021
:100B71007006901089E004F0020A3E901086E0FBB6
:100B8100A3E0FAA3E0F99000C8E475F00112144F54
:100B9100E475F006121430901083E0FBA3E0FAA391
:100BA100E0F99000041213ABFF901086E0FBA3E084
:100BB100FAA3E0F9900002E5F08FF012144F9010C3
:100BC10083E0FBA3E0FAA3E0F99000061213ABFF68
:100BD100901086E0FBA3E0FAA3E0F9900004E5F0B1
:100BE1008FF012144F901083E0FBA3E0FAA3E0F919
:100BF1009000081213ABFF901086E0FBA3E0FAA36C
:100C0100E0F9900006E5F08FF012144F901083E0A8
:100C1100FBA3E0FAA3E0F990000A1213ABFF9010D6
:100C210086E0FBA3E0FAA3E0F9900008E5F08FF07D
:100C3100020DA1901086E0FBA3E0FAA3E0F9900079
:100C4100C8E475F00112144FE475F083121430906A
:100C51001083E0FBA3E0FAA3E0F99000041213ABC8
:100C6100FF901086E0FBA3E0FAA3E0F9900002E513
:100C7100F08FF012144F901083E0FBA3E0FAA3E091
:100C8100F99000061213ABFF901086E0FBA3E0FA87
:100C9100A3E0F9900004E5F08FF012144F90108357
:100CA100E0FBA3E0FAA3E0F99000081213ABFF9078
:100CB1001086E0FBA3E0FAA3E0F9900006E5F08FCF
:100CC100F012144F901083E0FBA3E0FAA3E0F99037
:100CD100000A1213ABFF901086E0FBA3E0FAA3E039
:100CE100F9900008E5F08FF0020DA1901086E0FB6D
:100CF100A3E0FAA3E0F99000C8E475F00112144FE3
:100D0100E475F086121430901083E0FBA3E0FAA39F
:100D1100E0F99000041213ABFF901086E0FBA3E012
:100D2100FAA3E0F9900002E5F08FF012144F901051
:100D310083E0FBA3E0FAA3E0F99000061213ABFFF6
:100D4100901086E0FBA3E0FAA3E0F9900004E5F03F
:100D51008FF012144F901083E0FBA3E0FAA3E0F9A7
:100D61009000081213ABFF901086E0FBA3E0FAA3FA
:100D7100E0F9900006E5F08FF012144F901083E037
:100D8100FBA3E0FAA3E0F990000A1213ABFF901065
:100D910086E0FBA3E0FAA3E0F9900008E5F08FF00C
:060DA10012144F12400580
:010DA7002229
:102DD7009010C8EBF0A3EAF0A3E9F09000D6E0F971
:102DE700A3E0FF9010C8E0FBA3E0FAA3E0C98FF0CF
:102DF7001214309010CBE0FBA3E0FAA3E0F9121312
:102E070080FF9010C8E0FBA3E0FAA3E0F99000026E
:102E1700E5F08FF012144F9010CBE0FBA3E0FAA37C
:102E2700E0F99000021213ABFF9010C8E0FBA3E09B
:102E3700FAA3E0F9900004E5F08FF012144F901018
:102E4700CBE0FBA3E0FAA3E0F99000041213ABFF79
:102E57009010C8E0FBA3E0FAA3E0F9900006E5F0C4
:102E67008FF012144F900060E475F00612144F9023
:0B2E77000062E4F5F012144F023FC2AD
:1029C6009010CEEBF0A3EAF0A3E9F09000D6E0F980
:1029D600A3E0FF9010CEE0FBA3E0FAA3E0C98FF0DE
:1029E6001214309010D1E0FBA3E0FAA3E0F9121321
:1029F60080FF9010CEE0FBA3E0FAA3E0F99000027E
:102A0600E5F08FF012144F9010D1E0FBA3E0FAA38B
:102A1600E0F99000021213ABFF9010CEE0FBA3E0AA
:102A2600FAA3E0F9900004E5F08FF012144F90102D
:102A3600D1E0FBA3E0FAA3E0F99000041213ABFF88
:102A46009010CEE0FBA3E0FAA3E0F9900006E5F0D3
:102A56008FF012144F9010D1E0FBA3E0FAA3E0F937
:102A66009000061213ABFF9010CEE0FBA3E0FAA392
:102A7600E0F9900008E5F08FF012144F9010D1E0C5
:102A8600FBA3E0FAA3E0F99000081213ABFF901045
:102A9600CEE0FBA3E0FAA3E0F990000AE5F08FF0A0
:102AA60012144F900060E475F00812144F90006203
:0A2AB600E475F00512144F023FC250
:10000E009010D4EBF0A3EAF0A3E9F0A3E0FBA3E099
:10001E00FAA3E0F99000C81213ABD39400E5F09464
:10002E00004059121380FFAEF0E5F0704FEF24FA46
:10003E006027240370469010D7E0F9A3E0FAA3E0FE
:10004E009010CBC9F0A3EAF0A3E9F09010D4E0FB36
:10005E00A3E0FAA3E0F9022DD79010D7E0F9A3E0C0
:10006E00FAA3E09010D1C9F0A3EAF0A3E9F0901042
:0D007E00D4E0FBA3E0FAA3E0F91229C622AA
:0D0096001234539000D6E4F0A374FFF02262
:0B3ACF00900F0FEBF0A3EAF0A3E9F06A
:103ADA00E4A3F0A3F07B017A0F791412148D7B0111
:103AEA007A0F7914123F3B900F0FE0F9A3E0FAA383
:103AFA00E0901086C9F0A3EAF0A3E9F07A0F7914EE
:033B0A000208C6E8
:0B3CD700900FDCEBF0A3EAF0A3E9F093
:103CE200900FDCE0F9A3E0FAA3E09010D7C9F0A3AB
:103CF200EAF0A3E9F07B017A0F79DF12000E7B0173
:093D02007A0F79DF7D010231DB4B
:03000B000239BFF8
:1039BF00C0E0C0F0C083C082C0D075D000C000C0CE
:1039CF0001C002C003C004C005C006C007758A400D
:1039DF00758CA2C28DD28C124002D007D006D005B2
:1039EF00D004D003D002D001D000D0D0D082D08369
:0539FF00D0F0D0E03221
:0300A300023978A7
:10397800C0E0C0F0C083C082C0D075D000C000C015
:1039880001C002C003C004C005C006C00775D3E06B
:1039980075D2B153EF0453D180123F51D007D006EE
:1039A800D005D004D003D002D001D000D0D0D0822E
:0739B800D083D0F0D0E03213
:03008B00023B0D28
:103B0D00C0E0C0F0C083C082C0D075D000C000C07E
:103B1D0001C002C003C004C005C006C007123CA20C
:103B2D00D007D006D005D004D003D002D001D000EC
:0B3B3D00D0D0D082D083D0F0D0E03296
:03009300023B48E5
:103B4800C0E0C0F0C083C082C0D075D000C000C043
:103B580001C002C003C004C005C006C007123D0B67
:103B6800D007D006D005D004D003D002D001D000B1
:0B3B7800D0D0D082D083D0F0D0E0325B
:03000000022FAE1E
:0C2FAE00787FE4F6D8FD758107022FF54E
:0A3FDA0053D10F75D3E075D2B12268
:103F8F00438E805389F0758A40758CA2C28DD28C76
:033F9F00D2A92282
:0700030043D18043AF40220E
:073FE40053D17F53AFBF2250
:073FEB0043D18043AF4022E7
:073FF20053D17F53AFBF2242
:063FF900123FDA023F8FC7
:1033DC00E4900E44F0D2CAF0900E44E0FFC3940285
:1033EC00506475ADAA75F0CCEFA4241EF582E5F0FF
:1033FC00340BF583E0FEA3E0D39400EE9400403E42
:10340C00900BECE0640460367404F0900E44E075AC
:10341C00F0CCA42454F9740A35F0FA7B01C0039063
:10342C000E48EBF0A3740EF0A37442F0D0031225F7
:10343C007C900E44E07007900E42A3E0F585900E50
:06344C0044E004F0809250
:013452002257
:10345300759850438E40538EFE53890F758B8F752D
:103463008DFDC2ABD28ED2AC75AC1043AC4053D100
:10347300FD75D5CC75D4FF43D1087584105384BF33
:10348300538EFB75D7CC75D6FF438E10D2AFE49025
:103493000E42F07F017E00123F67C001900E42E0B2
:1034A30075F0CCA42454F9740A35F0A801FC7D010D
:1034B300D0017E007FCC12124D900E42E004F0E06A
:0534C300C3940240CE9D
:0134C80022E1
:033FFF000233DCAE
:0B37EE00900E1DEBF0A3EAF0A3E9F041
:1037F900ED75F0CCA42454F9740A35F0FA7B01C0B4
:1038090002C001900E1DE0F9A3E0FAA3E0900E3B7F
:10381900C9F0A3EAF0A3E9F0D001D002122C67EFB6
:10382900B42207E4900E20F08006900E207401F077
:05383900900E20E0FFED
:01383E002267
:0B383F00900E1DEBF0A3EAF0A3E9F0EF
:10384A00ED75F0CCA424BCF9740835F0FA7B01C0FC
:10385A0002C001900E1DE0F9A3E0FAA3E0900E4821
:10386A00C9F0A3EAF0A3E9F0D001D00212257CEF57
:10387A00B41107E4900E20F08006900E207402F036
:05388A00900E20E0FF9C
:01388F002216
:103CA200E5AC30E02053ACFE900E2CE5ADF0900E6A
:103CB2003B7401F0A3740EF0A3742CF07B017A091B
:103CC2007988122C67E5AC30E10853ACFDE4900B27
:043CD200ECF0C2CA86
:013CD60022CB
:103D0B00E58430E0205384FE900E37E585F0900E6D
:103D1B003B7401F0A3740EF0A37437F07B017A08A7
:103D2B0079BC122C67E58430E1085384FDE4900BD9
:023D3B00ECF0AA
:013D3D002263
:103EC00075F0CCEFA42486F582E5F03409F583E0A3
:103ED000FEA3E0D39400EE940040037F01227F0014
:013EE00022BF
:1000A6008080808080808080010101010101010142
:1000B600FF0000000000000000000000000000FF3C
:1000C6008181818181818181808080808080808022
:1000D600000000000000000000000000000000001A
:1000E6000101010101010101FF0000000000000003
:1000F600FF0000000000000000000000000000FFFC
:1001060000000000000000FF8080808080808080EA
:1001160080808080808080800000000000000000D9
:1001260000000000000000000000000000000000C9
:1001360000000000000000000101010101010101B1
:100146000101010101010101FF00000000000000A2
:100156000000000000000000FF000000000000009A
:100166000000000000000000000000000000000089
:1001760000000000000000FF00000000000000007A
:1001860000000000000000FF00001F11111111FF08
:10019600111111111F0000000000F810101010FEC0
:1001A60011111111F9010F0008080BFF0908007F52
:1001B6004040407F0000000020C000FF00C106F85C
:1001C600000000FC02021E0000000F090909093F99
:1001D60009090909090F00000000F020202020FE6F
:1001E6002222222222F20C00000404053F05040408
:1001F6001F1010101F00000000306080FE02C24C6D
:10020600F0000000FE020604000202423300003F36
:100216002425244444C5460000000204F8041AE2DA
:100226000A12A242A2120A020000007F40404F4872
:1002360048484F40407F0000000000FE0404E424CC
:100246002424E40404FE00002021273A2223040883
:1002560017E424272C3407004080FE0808FC01061A
:10026600F89090FC9291FE00083022222222A2638E
:10027600222222222228300001020478040202FEF1
:100286002222222222020200020242330000000041
:1002960000FF000000000000000000FC0912041826
:1002A600E000E018040201000000003F2424272497
:1002B60024444444C546000000020CF1010202C475
:1002C600281028448202010100004040434040407B
:1002D6007F4141414141400000020202FE0202020A
:1002E600FE02020202020202001F10103053921296
:1002F60012131010101F000000FF000000F810106D
:1003060010F8000201FE000000040C35C60C003F88
:1003160024A4642424243C000044E644484A1CE007
:10032600FF90FE90FC91FF002021273A22230040F7
:100336004F4141417F0101004080FE0808FC00104A
:10034600101010121102FC00010179494949790780
:1003560001794D4B4979010010102F2949498F0029
:10036600804F4929291F10000202423300044444E9
:100376004546444444040000000204F8042272A2E4
:10038600222222A26232020000081123CC0002427D
:100396004242434242420200408000FF0000000009
:1003A6000201FE0000000000094A2C08FF082C4A42
:1003B600010EF110101F100041596AC6444A71001F
:1003C6000102CC30CC02010020202223F22222237B
:1003D6002424F42D2420200002222424A830207F67
:1003E6002030A8242422020000001F925232121F3D
:1003F600123252921F0000000808C848484848FFB9
:1004060048484848C808080000000F1F10161F0F6C
:100416000000E0F0D010F0E00004040C1F1F000004
:1004260000000000F0F00000000C1C10111F0E0070
:10043600003070D090101000000C1C11111F0E001F
:100446000060701010F0E00000001F1F000707009A
:1004560000C0C04040F0F040001F1F1111111000F5
:100466000010101030E0C0000003071E1A13010030
:1004760000E0F01010F0E00000101011171E180038
:10048600000070F080000000000E1F13111F0E0008
:1004960000E0F01090F0E000000F1F10101F0F009A
:1004A600000090B0F0C080000000000000000000D6
:1004B6000000D8D800000000000000000000000086
:1004C600000000303030000000070F18180F07003A
:1004D60000F0F08080F0F000001F1F01011F1F00D8
:1004E60000F0F00000F0F0000000101F1F100000E8
:1004F600000010F0F0100000001F1F111111100075
:1005060000F0F000000000000004040405070600E7
:10051600003070D0901010000000000003030101AD
:100526000101011F1F010101010303010000000079
:1005360000000000FFFF1111111111FFFF11111131
:1005460011FFFF000001000000000000C0C0000015
:10055600000000F8FC0C0C0C0C8C8C0C1CFC18001D
:1005660000000000001F0F00010101000F0F04042E
:10057600040F0F04000000000080838EFCFFFF9034
:10058600888E8C00FFFF000000FFFF0000000300C4
:100596004080000000FCFC0004081060C000000061
:1005A60000F8F8181838F8100000000101010101E0
:1005B6000111191D0F0101010101010307030300C8
:1005C60000000000000000000007FFFC9010101063
:1005D600103F3F100000000000000004040818301F
:1005E600E0C0801010080C0C3CF8E0000000000091
:1005F6000000000301010101071D1911010101019C
:100606000101010303010000000000FFFF00007F5D
:100616003F212121217F3F20000000FFFF00000035
:10062600000000FCFC0000C0C0000000008080004C
:1006360008080CFCF8000000000404040404040488
:1006460004040707040404040404040C0C04000056
:1006560000000000000000000000FFFF202010182E
:100666001C0E0F000000000000000000000000004B
:100676000000FCFC0000000000000000000000007C
:100686000000000F0F08080B0E0C040F0F080808D7
:100696000808080F0F000000000000FFFF01E1B18D
:1006A6001F0F00FFFF90909E939091FBF6060000AF
:1006B600000000FCFC008080800008FCF818102078
:1006C600A0C0603038181000000000000001071EAE
:1006D6000C0800000010180E0600000001010000C2
:1006E6000004081060FF7F400080B09E87818080F4
:1006F600809FFEF0A08080000000000000FCFC0847
:1007060008080808C8C80808F88808081838180823
:100716000000000000080E070300100C0F07000081
:10072600031E0C080000000000081939F141515160
:1007360051515151575355D959715951E3E76301F5
:1007460000000000000000000008080CFCF8000093
:100756000000000000000000000000000404040483
:10076600040404040404040404040F0F0400000039
:10077600000000000101018183C3F3722604040412
:100786000808FFFF000000000000000080C0808015
:1007960000000000101010181C38F8F000000000CF
:1007A600000000000000000000001F0F0F080000FE
:1007B6000000000000000000000000000000000033
:1007C6000000FFFFFF202020202060E060200000C6
:1007D60000080808080808080808F8F8F8080808CB
:1007E6000808081838180800000404040405070659
:1007F60004040C1C0C04031F1C0800000003010069
:1008060000223272F2A23F3FA2E266760A70FC87AD
:10081600818FFFF8C0808080001018181810F0F043
:1008260020242428081030E0E0F038381C08080896
:10083600000002040404070F0C180800000303015B
:10084600001F1F0000000000004040434E7CFFFFD9
:1008560050C8CEC420199D8101FFFF02060606007E
:10086600004080000000FCFC0080808080000000CA
:1008760000FCFC000000000000000000001F0F004C
:100886000101010101011F1F010101030303000012
:10089600008486868CFFFF989090B0181711F0F0B0
:1008A60011173E3810000000000008080CFCF80084
:1008B6000404080810F0E0E0B038181C1C0800001A
:0419A4004110650089
:103DCA00E4FDFCC3ED9FEE6480F8EC648098501526
:103DDA00E4FBFA0BBB00010AEB646E4A70F50DBDF9
:053DEA0000010C80DE69
:013DEF0022B1
:103BBE00C2C97F017E00123BD2C2C8AF011238903B
:043BCE00D2C97F01D8
:103BD200E4FDFCC3ED9FEE6480F8EC648098501520
:103BE200E4FBFA0BBB00010AEB64014A70F50DBD60
:053BF20000010C80DE63
:013BF70022AB
:10389000EF20E704C2B58002D2B5EF20E604C2A74C
:1038A0008002D2A7EF20E504C2A68002D2A6EF20B4
:1038B000E404C2A58002D2A5EF20E304C2A48002E2
:1038C000D2A4EF20E204C2A38002D2A3EF20E1043D
:1038D000C2A28002D2A2EF20E003C2A122D2A12282
:063F7B00FF123F127F302F
:0E3F8100A907C2B7C2B6123BBED2B7C2C92250
:103F0100E0FBA3E0FAA3E0F98F8275830012128C23
:013F1100FFB0
:0E3F1200A907C2B7D2B6123BBED2B7C2C922AF
:1027C400C2C1C2A07F647E00123DCAD2A0123DCA1B
:1027D4007F30123F817F94123F817F31123F817F8E
:1027E400D7123F817F9F123F127F32123F81E4FF55
:1027F400123F127F01123F127F03123F127F2012F9
:102804003F817F01123F127F03123F127F05123F67
:10281400127F07123F127F09123F127F0B123F12E1
:102824007F0D123F127F10123F127F11123F127F51
:1028340013123F127F15123F127F17123F127F1996
:10284400123F127F1B123F127F1D123F127F1F1275
:102854003F7C7F75123F81E4FF123F127F14123FC9
:10286400127F15123F81E4FF123F127FFF123F12C5
:102874007FBC123F81E4FF123F127FA6123F127FFA
:10288400CA123F81E4FF123F127F9F123F127F2042
:10289400123F127FF0123F817F10123F127F81128C
:1028A4003F817F30123F127F03123F127F20123F7D
:1028B400817F0B123F127F647E00123BD27FAF02F6
:0228C4003F8152
:10369A00900E49EFF0A3EDF0A3EAF0A3EBF0900E41
:1036AA0049E014F0A3E02407F07F15123F81900E41
:1036BA0049E0FF123F12900E4BA3E0FF900E49E043
:1036CA002F14FF123F127F75123F81A3E0FF123FB2
:1036DA0012900E4DA3E0FF900E4AE02F14123F7B8A
:0536EA007F5C023F813E
:10353600900E70EFF0A3EDF0A3EAF0A3EBF0900E7F
:1035460070E014F0A3E02407F07F15123F81900E7F
:1035560070E0FF123F12900E72A3E0FF900E70E033
:103566002FF0E014F0E0FF123F127F75123F81A3A7
:10357600E0FF123F12900E74A3E0FF900E71E02F51
:0D358600F0E014F0E0123F7B7F5C023F811B
:103B8300900E4DE4F0A3740DF07BC17A00E4FDFFC9
:103B930012369AE4900E42F0E4900E43F0E4FF12E2
:103BA3003F12900E43E004F0E0C394C140EF900E47
:0A3BB30042E004F0E0C3940D40DE90
:013BBD0022E5
:0E364400EF75F008A424F9FF7BFF7A0079AE41
:0B365200900E45EBF0A3EAF0A3E9F0B6
:10365D00900E4DE4F0A304F07B087A0012369AE444
:10366D00900E48F0900E45E0FBA3E0FAA3E0F912AE
:10367D001273FF123F12900E46E475F001121354AF
:0C368D00900E48E004F0E0C3940840D820
:01369900220E
:103F2000900E45EBF0900E4DE4F0A304F0FB7A0008
:0B3F300012369A900E45E0FF023F128F
:0F1BD4007BFF7A0479EE900E477401F0FD7F716C
:0B1BE300900E44EBF0A3EAF0A3E9F041
:101BEE00900E74E4F0A37402F07B087A001235367E
:101BFE00900E597401F0A3740EF0A37449F0E490A2
:101C0E000E48F0900E44E0FBA3E0FAA3E0F9900E2C
:101C1E0048E0FFF58275830012128CFE900E59E09B
:101C2E00FBA3E0FAA3E0F98F82758300EE1212CBCC
:101C3E00900E48E004F0E0B410C9900E47E0540155
:101C4E00D39400405A900E5C74FFF0A37400F0A37E
:101C5E0074CEF0E4900E48F0900E59E0FBA3E0FA3B
:101C6E00A3E0F9900E48E0FFE92FF9E43AFAC00339
:101C7E00C002C001121273FE900E5CE0FBA3E0FAEC
:101C8E00A3E0F98F8275830012128C4ED001D00220
:101C9E00D0031212B9900E48E004F0E0B410B990DF
:101CAE000E47E05402D39400405A900E5C74FFF03D
:101CBE00A37400F0A374DEF0E4900E48F0900E5979
:101CCE00E0FBA3E0FAA3E0F9900E48E0FFE92FF95C
:101CDE00E43AFAC003C002C001121273FE900E5C09
:101CEE00E0FBA3E0FAA3E0F98F8275830012128C59
:101CFE004ED001D002D0031212B9900E48E004F07B
:101D0E00E0B410B9900E47E05404D39400405A90BA
:101D1E000E5C74FFF0A37400F0A374EEF0E4900E6A
:101D2E0048F0900E59E0FBA3E0FAA3E0F9900E48BC
:101D3E00E0FFE92FF9E43AFAC003C002C001121223
:101D4E0073FE900E5CE0FBA3E0FAA3E0F98F8275C0
:101D5E00830012128C4ED001D002D0031212B99011
:101D6E000E48E004F0E0B410B9900E47E05408D3EA
:101D7E009400405A900E5C74FFF0A37400F0A374AC
:101D8E00FEF0E4900E48F0900E59E0FBA3E0FAA3AB
:101D9E00E0F9900E48E0FFE92FF9E43AFAC003C0EB
:101DAE0002C001121273FE900E5CE0FBA3E0FAA3D8
:101DBE00E0F98F8275830012128C4ED001D002D0C2
:101DCE00031212B9900E48E004F0E0B410B9E4909A
:101DDE000E48F0900E48E0FFC39410500E900E592E
:0B1DEE00123F01900E48E004F080E876
:011DF90022C7
:1019AD007A0279EE7BFF900E487408F07D0A7F195C
:0B19BD00900E45EBF0A3EAF0A3E9F068
:1019C800900E74E4F0A37402F07B107A001235369E
:1019D800900E6A7401F0A3740EF0A3744AF0E490B8
:1019E8000E49F0900E45E0FBA3E0FAA3E0F9900E53
:1019F80049E0FFF58275830012128CFE900E6AE0B2
:101A0800FBA3E0FAA3E0F98F82758300EE1212CBF4
:101A1800900E49E004F0E0B420C9900E48E054016B
:101A2800D39400405A900E6D74FFF0A37401F0A394
:101A3800740EF0E4900E49F0900E6AE0FBA3E0FA11
:101A4800A3E0F9900E49E0FFE92FF9E43AFAC00360
:101A5800C002C001121273FE900E6DE0FBA3E0FA03
:101A6800A3E0F98F8275830012128C4ED001D00248
:101A7800D0031212B9900E49E004F0E0B420B990F6
:101A88000E48E05402D39400405A900E6D74FFF053
:101A9800A37401F0A3742EF0E4900E49F0900E6A3E
:101AA800E0FBA3E0FAA3E0F9900E49E0FFE92FF983
:101AB800E43AFAC003C002C001121273FE900E6D20
:101AC800E0FBA3E0FAA3E0F98F8275830012128C81
:101AD8004ED001D002D0031212B9900E49E004F0A2
:101AE800E0B420B9900E48E05404D39400405A90D2
:101AF8000E6D74FFF0A37401F0A3744EF0E4900E21
:101B080049F0900E6AE0FBA3E0FAA3E0F9900E49D1
:101B1800E0FFE92FF9E43AFAC003C002C00112124B
:101B280073FE900E6DE0FBA3E0FAA3E0F98F8275D7
:101B3800830012128C4ED001D002D0031212B99039
:101B48000E49E004F0E0B420B9900E48E05408D300
:101B58009400405A900E6D74FFF0A37401F0A374C2
:101B68006EF0E4900E49F0900E6AE0FBA3E0FAA351
:101B7800E0F9900E49E0FFE92FF9E43AFAC003C012
:101B880002C001121273FE900E6DE0FBA3E0FAA3EF
:101B9800E0F98F8275830012128C4ED001D002D0EA
:101BA800031212B9900E49E004F0E0B420B9E490B1
:101BB8000E49F0900E49E0FFC39420500E900E6A33
:0B1BC800123F01900E49E004F080E89D
:011BD30022EF
:0C3A04007BFF7A05791E7D067C007E00A9
:0B3A1000900E42EBF0A3EAF0A3E9F0F7
:103A1B00900E4DE4F0A37403F07B187A0012369AE3
:103A2B00E4900E45F0900E45E0FFC39448500E9085
:0D3A3B000E42123F01900E45E004F080E8BD
:013A4800225B
:103EE100E4FDFCC3ED9FEC9E5015E4FBFA0BBB0017
:0F3EF100010ABA06F8BB84F50DBD00010C80E490
:013F0000229E
:014006002297
:053D3E00900E42EFF0C1
:103D4300A37401F0900E43E0FFC39419501EEF7566
:103D5300F008A424F9FF900E42E0FD7BFF7A00797E
:0C3D6300A6123652900E43E004F080D807
:013D6F002231
:052BA500900E43EFF06B
:102BAA00640C6003022C3E7BFF7A0079AE7D0C7FB9
:102BBA0001123652900E447402F0900E44E0FFC3A4
:102BCA009406501BEF75F008A424F9FF7BFF7A00E6
:102BDA0079C67D0C123652900E44E004F080DB90E8
:102BEA000E447406F0900E44E0FFC39414500D7D19
:102BFA000C123644900E44E004F080E9900E4474BE
:102C0A0014F0900E44E0FFC39418501BEF75F008BF
:102C1A00A424F9FF7BFF7A0079C67D0C1236529004
:102C2A000E44E004F080DB7BFF7A0079AE7D0C7FF6
:102C3A00B9023652900E447401F0900E44E0FFC37C
:102C4A0094195018EF75F008A424F9FF900E43E088
:0C2C5A00FD12364C900E44E004F080DEC9
:012C6600224B
:053DF000900E43EFF00E
:103DF500A37401F0900E44E0FDC3940D5012900E93
:103E050043E0FF7BFF123F20900E44E004F080E486
:013E1500228A
:1034C900900E427402F0900E42E0FFC39406500D34
:1034D9007D09123644900E42E004F080E97BFF7AC0
:1034E9000279AE900E487404F07D0A7F091219BD65
:1034F9001219AD900E427402F0900E42E0FFC3948F
:1035090006501BEF75F008A424F9FF7BFF7A0079B8
:10351900A67D0C123652900E42E004F080DB7F0C3F
:0D352900122BA57F01123DF07FC0023DF086
:103361009010F07402F09010F0E0FFC39406501B2F
:10337100EF75F008A424F9FF7BFF7A0079AE7D098F
:103381001236529010F0E004F080DB7BFF7A027974
:10339100CE900E487404F07D0A7F091219BD1219EE
:1033A100AD9010F07402F09010F0E0FFC39406505D
:1033B1001BEF75F008A424F9FF7BFF7A0079A67D45
:1033C1000C1236529010F0E004F080DB7F0C122BCF
:0B33D100A57F01123DF07FC0023DF01F
:1032E2009010F17402F09010F1E0FFC39406501BAD
:1032F200EF75F008A424F9FF7BFF7A0079AE7D090F
:103302001236529010F1E004F080DB7BFF7A0279F2
:103312000E900E487404F07D0A7F091219BD7A02DC
:10332200792E1219B19010F17402F09010F1E0FFB1
:10333200C39406501BEF75F008A424F9FF7BFF7AB3
:103342000079A67D0C1236529010F1E004F080DB79
:0F3352007F0C122BA57F01123DF07FC0023DF0D2
:103261009010F27402F09010F2E0FFC39406501B2C
:10327100EF75F008A424F9FF7BFF7A0079AE7D0990
:103281001236529010F2E004F080DB7BFF7A037972
:10329100CE900E487404F07D0A7F091219BD7BFFA0
:1032A1007A0379EE1219B39010F27402F09010F2D1
:1032B100E0FFC39406501BEF75F008A424F9FF7BCF
:1032C100FF7A0079A67D0C1236529010F2E004F0DC
:1032D10080DB7F0C122BA57F01123DF07FC0023DE8
:0132E100F0FC
:10303A00900E427414F0900E42E0FFC39418501B95
:10304A00EF75F008A424F9FF7BFF7A0079AE7D09B9
:10305A00123652900E42E004F080DB7BFF7A02794E
:10306A004E900E487404F07D0A7F991219BD7BFFB9
:10307A007A02798E900E487408F07D0A7FA9121997
:10308A00BD900E427414F0900E42E0FFC3941850A3
:10309A001BEF75F008A424F9FF7BFF7A0079A67D5F
:1030AA000C123652900E42E004F080DB7F0C122B99
:0B30BA00A57F01123DF07FC0023DF039
:1030C5009010F37414F09010F3E0FFC39418501BA4
:1030D500EF75F008A424F9FF7BFF7A0079AE7D092E
:1030E5001236529010F3E004F080DB7BFF7A027910
:1030F5000E900E487404F07D0A7F991219BD7BFF6E
:103105007A02792E900E487408F07D0A7FA912196B
:10311500BD9010F37414F09010F3E0FFC3941850B1
:103125001BEF75F008A424F9FF7BFF7A0079A67DD3
:103135000C1236529010F3E004F080DB7F0C122B5A
:0B314500A57F01123DF07FC0023DF0AD
:103150009010F47414F09010F4E0FFC39418501B16
:10316000EF75F008A424F9FF7BFF7A0079AE7D09A2
:103170001236529010F4E004F080DB7BFF7A037982
:10318000CE900E487404F07D0A7F991219BD7BFF22
:103190007A0379EE900E487408F07D0A7FA912191F
:1031A000BD9010F47414F09010F4E0FFC394185024
:1031B0001BEF75F008A424F9FF7BFF7A0079A67D48
:1031C0000C1236529010F4E004F080DB7F0C122BCE
:0B31D000A57F01123DF07FC0023DF022
:0A3BF800901057EBF0901053E0FF1F
:103C0200E4FE75F010EFA42EF582E435F0F583E5BD
:103C120082240EF582E5833404F583E493FD746611
:0F3C22002EF582E43410F583EDF00EEEB410D3DE
:013C31002270
:1021D200901051E0FEA3E0FBAA06D39410EA9427E4
:1021E200401D7C277D10AF031212FFA3EFF07C2766
:1021F2007D10AF03AE021212FFAA04AB058005E404
:10220200901053F0D3EB94E8EA940340217C037DD1
:10221200E8AF03AE021212FF901054EFF07C037D80
:10222200E8AF03AE021212FFAA04AB058005E490E8
:102232001054F0D3EB9464EA940040217C007D6456
:10224200AF03AE021212FF901055EFF07C007D64D6
:10225200AF03AE021212FFAA04AB058005E4901090
:1022620055F0D3EB940AEA940040217C007D0AAF3A
:1022720003AE021212FF901056EFF07C007D0AAFFF
:1022820003AE021212FFAA04AB058005E4901056B9
:10229200F0123BF87B017A107966E4900E47F07DEC
:1022A200027F39121BE3901054E0FF123C027B01C3
:1022B2007A107966E4900E47F07D027F41121BE3AB
:1022C200901055E0FF123C027B017A107966E4908F
:1022D2000E47F07D027F49121BE3901056E0FF1279
:1022E2003C027B017A107966E4900E47F07D027F12
:1022F20051121BE3901057E0FF123C027B017A104F
:0E2302007966E4900E47F07D027F59021BE3DE
:10231000901051E0FEA3E0FBAA06D39410EA9427A4
:10232000401D7C277D10AF031212FFA3EFF07C2726
:102330007D10AF03AE021212FFAA04AB058005E4C4
:10234000901053F0D3EB94E8EA940340217C037D92
:10235000E8AF03AE021212FF901054EFF07C037D41
:10236000E8AF03AE021212FFAA04AB058005E490A9
:102370001054F0D3EB9464EA940040217C007D6417
:10238000AF03AE021212FF901055EFF07C007D6497
:10239000AF03AE021212FFAA04AB058005E4901051
:1023A00055F0D3EB940AEA940040217C007D0AAFFB
:1023B00003AE021212FF901056EFF07C007D0AAFC0
:1023C00003AE021212FFAA04AB058005E49010567A
:1023D000F0123BF87B017A107966900E477401F099
:1023E000FD7F39121BE3901054E0FF123C027B0189
:1023F0007A107966900E477401F0FD7F41121BE35D
:10240000901055E0FF123C027B017A107966900E25
:10241000477401F0FD7F49121BE3901056E0FF1254
:102420003C027B017A107966900E477401F0FD7FC3
:1024300051121BE3901057E0FF123C027B017A100F
:0E2440007966900E477401F0FD7F59021BE390
:101DFA00901058E0FEA3E0FBAA06D39410EA9427B9
:101E0A00401D7C277D10AF031212FFA3EFF07C2741
:101E1A007D10AF03AE021212FFAA04AB058005E4DF
:101E2A0090105AF0D3EB94E8EA940340217C037DA6
:101E3A00E8AF03AE021212FF90105BEFF07C037D55
:101E4A00E8AF03AE021212FFAA04AB058005E490C4
:101E5A00105BF0D3EB9464EA940040217C007D642B
:101E6A00AF03AE021212FF90105CEFF07C007D64AB
:101E7A00AF03AE021212FFAA04AB058005E490106C
:101E8A005CF0D3EB940AEA940040217C007D0AAF0F
:101E9A0003AE021212FF90105DEFF07C007D0AAFD4
:101EAA0003AE021212FFAA04AB058005E490105D8E
:101EBA00F090105EEBF090105AE0FF123C027B01AA
:101ECA007A107966E4900E47F07D037F39121BE39E
:101EDA0090105BE0FF123C027B017A107966E49075
:101EEA000E47F07D037F41121BE390105CE0FF1266
:101EFA003C027B017A107966E4900E47F07D037FFD
:101F0A0049121BE390105DE0FF123C027B017A103C
:101F1A007966E4900E47F07D037F51121BE390101F
:101F2A005EE0FF123C027B017A107966E4900E476C
:081F3A00F07D037F59021BE357
:101F4200901043E0FEA3E0FBAA06D39410EA942784
:101F5200401D7C277D10AF031212FFA3EFF07C27F8
:101F62007D10AF03AE021212FFAA04AB058005E496
:101F7200901045F0D3EB94E8EA940340217C037D72
:101F8200E8AF03AE021212FF901046EFF07C037D21
:101F9200E8AF03AE021212FFAA04AB058005E4907B
:101FA2001046F0D3EB9464EA940040217C007D64F7
:101FB200AF03AE021212FF901047EFF07C007D6477
:101FC200AF03AE021212FFAA04AB058005E4901023
:101FD20047F0D3EB940AEA940040217C007D0AAFDB
:101FE20003AE021212FF901048EFF07C007D0AAFA0
:101FF20003AE021212FFAA04AB058005E49010485A
:10200200F0901049EBF0901045E0FF123C027B018A
:102012007A107966900E477401F0FD7F81121BE3FE
:10202200901046E0FF123C027B017A107966900E16
:10203200477401F0FD7F89121BE3901047E0FF1205
:102042003C027B017A107966900E477401F0FD7FA5
:1020520091121BE3901048E0FF123C027B017A10C0
:102062007966900E477401F0FD7FA1121BE3901078
:1020720049E0FF123C027B017A107966900E4774A8
:0820820001F0FD7FA9021BE340
:10208A0090104AE0FEA3E0FBAA06D39410EA942734
:10209A00401D7C277D10AF031212FFA3EFF07C27AF
:1020AA007D10AF03AE021212FFAA04AB058005E44D
:1020BA0090104CF0D3EB94E8EA940340217C037D22
:1020CA00E8AF03AE021212FF90104DEFF07C037DD1
:1020DA00E8AF03AE021212FFAA04AB058005E49032
:1020EA00104DF0D3EB9464EA940040217C007D64A7
:1020FA00AF03AE021212FF90104EEFF07C007D6427
:10210A00AF03AE021212FFAA04AB058005E49010D9
:10211A004EF0D3EB940AEA940040217C007D0AAF8A
:10212A0003AE021212FF90104FEFF07C007D0AAF4F
:10213A0003AE021212FFAA04AB058005E490104F09
:10214A00F0901050EBF090104CE0FF123C027B0133
:10215A007A107966E4900E47F07D037F81121BE3C3
:10216A0090104DE0FF123C027B017A107966E490F0
:10217A000E47F07D037F89121BE390104EE0FF1299
:10218A003C027B017A107966E4900E47F07D037F6A
:10219A0091121BE390104FE0FF123C027B017A1070
:1021AA007966E4900E47F07D037FA1121BE390103D
:1021BA0050E0FF123C027B017A107966E4900E47E8
:0821CA00F07D037FA9021BE375
:0E3FB40090105FE0B401030233611234C922A1
:1038E0007BFF7A03790E900E487404F07D027F010D
:1038F0001219BD7BFF7A03792EE4900E48F07D0209
:103900007F111219BD7BFF7A03794EE4900E48F0C7
:103910007D027F211219BD7BFF7A0479AEE4900EFF
:0C39200047F07D027F31121BE30221D230
:102E82001238E0121BD47BFF7A0479AE900E47749D
:102E920001F0FD7F79121BE37BFF7A0479BE900E6D
:102EA200477401F0FD7F99121BE37BFF7A0479FEE0
:102EB200E4900E47F07D037F71121BE37BFF7A04DF
:102EC20079AEE4900E47F07D037F79121BE37BFF1E
:102ED2007A0479BEE4900E47F07D037F99121BE3DA
:102EE2007BFF7A0479CE900E477401F0FD7FB11218
:102EF2001BE37BFF7A0479DEE4900E47F07D037FCB
:102F0200B1121BE37BFF7A05790EE4900E47F07D48
:0C2F1200037FB9121BE3121F4202208A49
:10244E007BFF7A03790E900E487401F0FDFF12198E
:10245E00BD7BFF7A03792E900E487401F0FD7F113B
:10246E001219BD7BFF7A03794E900E487401F0FD70
:10247E007F211219BD7BFF7A0479AE900E4774014D
:10248E00F0FD7F31121BE37BFF7A03796EE4900E31
:10249E0048F07D037F011219BD7BFF7A03798EE42C
:1024AE00900E48F07D037F111219BD7BFF7A0379E0
:1024BE00AEE4900E48F07D037F211219BD7BFF7AAA
:1024CE000479AEE4900E47F07D037F31121BE312C8
:1024DE001BD47BFF7A0479AE900E477401F0FD7F1A
:1024EE0079121BE37BFF7A0479BE900E477401F0DC
:1024FE00FD7F99121BE37BFF7A0479CE900E477411
:10250E0001F0FD7FB1121BE37BFF7A0479FEE490AC
:10251E000E47F07D037F71121BE37BFF7A0479AEC9
:10252E00E4900E47F07D037F79121BE37BFF7A0464
:10253E0079BEE4900E47F07D037F99121BE37BFF7B
:10254E007A0479DEE4900E47F07D037FB1121BE32F
:10255E007BFF7A05790EE4900E47F07D037FB9126A
:0E256E001BE3122310121DFA121F4202208AD4
:103C32007F31123A047BFF7A0579667D067C007F2C
:103C4200497E00123A107BFF7A0579AE7D067C0030
:103C52007F617E00123A107BFF7A0579F67D067C41
:083C6200007F797E00023A1098
:1036EF007BFF7A06793E7D067C007F217E00123AB1
:1036FF00107BFF7A0679867D067C007F397E00126B
:10370F003A107BFF7A0679CE7D067C007F517E00D2
:10371F00123A107BFF7A0779167D067C007F697E4F
:10372F0000123A107BFF7A07795E7D067C007F815D
:05373F007E00023A10BB
:103744007BFF7A0779A67D067C007F217E00123AF2
:10375400107BFF7A0679867D067C007F397E001215
:103764003A107BFF7A0679CE7D067C007F517E007D
:10377400123A107BFF7A0779167D067C007F697EFA
:1037840000123A107BFF7A07795E7D067C007F8108
:053794007E00023A1066
:103C6A007BFF7A0779EE7D067C007F317E00123A6F
:103C7A00107F49123A047BFF7A0879367D067C0068
:103C8A007F617E00123A107BFF7A08797E7D067C7E
:083C9A00007F797E00023A1060
:103D9D007F01123D3E7F05123D3E901051E4F0A390
:103DAD0004F01238E01234C912303A7F0C122BA5F0
:0D3DBD007F01123DF0123C327FC0023DF04C
:103A49007F01123D3E7F05123D3E901051742BF0CF
:103A5900A374D7F09010437430F0A37439F0901028
:103A69004A74F4F0A37427F0122E821232E2123053
:103A79003A7F0C122BA57F01123DF07FC0123DF059
:033A89000236EF13
:103A8C007F01123D3E7F05123D3E901051742BF08C
:103A9C00A374D7F09010437430F0A37439F09010E5
:103AAC004A7463F0A3742DF0122E821232E212309B
:103ABC003A7F0C122BA57F01123DF07FC0123DF016
:033ACC000237447A
:10392C007F01123D3E7F05123D3E901051742BF0ED
:10393C00A374D7F09010437430F0A37439F0901046
:10394C004A7463F0A3742DF0901058E4F0A3740241
:10395C00F012244E1232E21231507F0C122BA57F42
:0C396C0001123DF07FC0123DF0023C6AE9
:103E16007F01123D3E7F05123D3E122E821232E296
:103E260012303A7F0C122BA57F01123DF07FC002A3
:023E36003DF05D
:103E38007F01123D3E7F05123D3E122E821232E274
:103E480012303A7F0C122BA57F01123DF07FC00281
:023E58003DF03B
:103E5A007F01123D3E7F05123D3E122E821232E252
:103E6A0012303A7F0C122BA57F01123DF07FC0025F
:023E7A003DF019
:103E7C007F01123D3E7F05123D3E122E821232E230
:103E8C0012303A7F0C122BA57F01123DF07FC0023D
:023E9C003DF0F7
:103799009010EEEFF0A3EDF0123B839010EEE07085
:1037A90021A3E014600F1460111460132403701234
:1037B900123D9D800D123A498008123A8C800312FD
:1037C900392C9010EEE0B4011BA3E014600D1460D5
:1037D9000D14600D2403700C023E16023E38023EA1
:0537E9005A123E7C2293
:103E9E001240061227C47FC87E00123EE1123B83F9
:103EAE0012008E123D9D7FC87E00123EE1123FFF32
:023EBE0080F48E
:0419A8004110F500F5
:05008E00C2CA02009649
:03400200023FFF7B
:103F51007B017A1079F57D0112383F7B017A107966
:063F6100F57D010237EEC0
:102FBA00023E9EE493A3F8E493A34003F68001F251
:102FCA0008DFF48029E493A3F85407240CC8C33318
:102FDA00C4540F4420C8834004F456800146F6DFE7
:102FEA00E4800B0102040810204080901769E47EF7
:102FFA00019360BCA3FF543F30E509541FFEE493DC
:10300A00A360010ECF54C025E060A840B8E493A3A2
:10301A00FAE493A3F8E493A3C8C582C8CAC583CACD
:10302A00F0A3C8C582C8CAC583CADFE9DEE780BE85
:0119AC00003A
:10117D00E709F608DFFA8046E709F208DFFA803E54
:10118D0088828C83E709F0A3DFFA8032E309F60841
:10119D00DFFA8078E309F208DFFA807088828C83A9
:1011AD00E309F0A3DFFA806489828A83E0A3F6085D
:1011BD00DFFA805889828A83E0A3F208DFFA804C37
:1011CD0080D280FA80C680D4806980F2803380100E
:1011DD0080A680EA809A80A880DA80E280CA803377
:1011ED0089828A83ECFAE493A3C8C582C8CCC583EF
:1011FD00CCF0A3C8C582C8CCC583CCDFE9DEE780BF
:10120D000D89828A83E493A3F608DFF9ECFAA9F03D
:10121D00EDFB2289828A83ECFAE0A3C8C582C8CC93
:10122D00C583CCF0A3C8C582C8CCC583CCDFEADEAC
:10123D00E880DB89828A83E493A3F208DFF980CC0E
:10124D0088F0EF60010E4E60C388F0ED2402B40407
:10125D000050B9F582EB2402B4040050AF232345AE
:06126D0082239011CD73F5
:10127300BB010689828A83E0225002E722BBFE0279
:09128300E32289828A83E49322AC
:10128C00BB010CE58229F582E5833AF583E0225017
:10129C0006E92582F8E622BBFE06E92582F8E22261
:0D12AC00E58229F582E5833AF583E493227B
:1012B900BB010689828A83F0225002F722BBFE0114
:0212C900F3220E
:1012CB00F8BB010DE58229F582E5833AF583E8F059
:1012DB00225006E92582C8F622BBFE05E92582C805
:0212EB00F222ED
:1012ED00EF8DF0A4A8F0CF8CF0A428CE8DF0A42E15
:0212FD00FE22CF
:1012FF00BC000BBE0029EF8DF084FFADF022E4CCD3
:10130F00F875F008EF2FFFEE33FEEC33FCEE9DEC9B
:10131F00984005FCEE9DFE0FD5F0E9E4CEFD22EDE1
:10132F00F8F5F0EE8420D21CFEADF075F008EF2F2B
:10133F00FFED33FD4007985006D5F0F222C398FD1C
:05134F000FD5F0EA22B9
:10135400C5F0F8A3E028F0C5F0F8E5821582700224
:061364001583E038F022C1
:10136A00A3F8E0C5F025F0F0E58215827002158336
:06137A00E0C838F0E82293
:10138000BB010A89828A83E0F5F0A3E02250068738
:10139000F009E71922BBFE07E3F5F009E3192289FA
:0B13A000828A83E493F5F0740193222D
:1013AB00BB0110E58229F582E5833AF583E0F5F080
:1013BB00A3E0225009E92582F886F008E622BBFE5D
:1013CB000AE92582F8E2F5F008E222E5832AF583A3
:0813DB00E993F5F0A3E9932268
:1013E300BB010DC58229C582C5833AC58302135447
:1013F3005011C58229F808E5F026F618F5F0E582C4
:1014030036F622BBFE11C58229F808E225F0F5F075
:10141300F218E23582F222F8E58229F582E5832A81
:0D142300F58374019325F0F5F0E493382271
:10143000BB010A89828A83F0E5F0A3F0225006F707
:0F14400009A7F01922BBFE06F3E5F009F3192204
:10144F00F8BB0111E58229F582E5833AF583E8F0CF
:10145F00E5F0A3F0225009E92582C8F608A6F0228C
:0D146F00BBFE09E92582C8F2E5F008F22273
:10147C00F5F0C582A4C582C5F0C583A42583F58388
:01148C00223D
:00000001FF
